{
  "abi": [
    {
      "anonymous": false,
      "inputs": [
        {
          "indexed": true,
          "internalType": "address",
          "name": "owner",
          "type": "address"
        },
        {
          "indexed": true,
          "internalType": "address",
          "name": "spender",
          "type": "address"
        },
        {
          "indexed": false,
          "internalType": "uint256",
          "name": "value",
          "type": "uint256"
        }
      ],
      "name": "Approval",
      "type": "event"
    },
    {
      "anonymous": false,
      "inputs": [
        {
          "indexed": true,
          "internalType": "uint256",
          "name": "feeRatePerDayScaled",
          "type": "uint256"
        }
      ],
      "name": "FeeRateSet",
      "type": "event"
    },
    {
      "anonymous": false,
      "inputs": [
        {
          "indexed": true,
          "internalType": "address",
          "name": "feeReceiver",
          "type": "address"
        }
      ],
      "name": "FeeReceiverSet",
      "type": "event"
    },
    {
      "anonymous": false,
      "inputs": [
        {
          "indexed": false,
          "internalType": "uint8",
          "name": "version",
          "type": "uint8"
        }
      ],
      "name": "Initialized",
      "type": "event"
    },
    {
      "anonymous": false,
      "inputs": [
        {
          "indexed": true,
          "internalType": "address",
          "name": "methodologist",
          "type": "address"
        }
      ],
      "name": "MethodologistSet",
      "type": "event"
    },
    {
      "anonymous": false,
      "inputs": [
        {
          "indexed": false,
          "internalType": "string",
          "name": "methodology",
          "type": "string"
        }
      ],
      "name": "MethodologySet",
      "type": "event"
    },
    {
      "anonymous": false,
      "inputs": [
        {
          "indexed": false,
          "internalType": "address",
          "name": "feeReceiver",
          "type": "address"
        },
        {
          "indexed": false,
          "internalType": "uint256",
          "name": "timestamp",
          "type": "uint256"
        },
        {
          "indexed": false,
          "internalType": "uint256",
          "name": "totalSupply",
          "type": "uint256"
        },
        {
          "indexed": false,
          "internalType": "uint256",
          "name": "amount",
          "type": "uint256"
        }
      ],
      "name": "MintFeeToReceiver",
      "type": "event"
    },
    {
      "anonymous": false,
      "inputs": [
        {
          "indexed": true,
          "internalType": "address",
          "name": "minter",
          "type": "address"
        }
      ],
      "name": "MinterSet",
      "type": "event"
    },
    {
      "anonymous": false,
      "inputs": [
        {
          "indexed": true,
          "internalType": "address",
          "name": "previousOwner",
          "type": "address"
        },
        {
          "indexed": true,
          "internalType": "address",
          "name": "newOwner",
          "type": "address"
        }
      ],
      "name": "OwnershipTransferred",
      "type": "event"
    },
    {
      "anonymous": false,
      "inputs": [
        {
          "indexed": false,
          "internalType": "address",
          "name": "account",
          "type": "address"
        }
      ],
      "name": "Paused",
      "type": "event"
    },
    {
      "anonymous": false,
      "inputs": [
        {
          "indexed": false,
          "internalType": "uint256",
          "name": "supplyCeiling",
          "type": "uint256"
        }
      ],
      "name": "SupplyCeilingSet",
      "type": "event"
    },
    {
      "anonymous": false,
      "inputs": [
        {
          "indexed": true,
          "internalType": "address",
          "name": "account",
          "type": "address"
        },
        {
          "indexed": false,
          "internalType": "bool",
          "name": "isRestricted",
          "type": "bool"
        }
      ],
      "name": "ToggledRestricted",
      "type": "event"
    },
    {
      "anonymous": false,
      "inputs": [
        {
          "indexed": true,
          "internalType": "address",
          "name": "from",
          "type": "address"
        },
        {
          "indexed": true,
          "internalType": "address",
          "name": "to",
          "type": "address"
        },
        {
          "indexed": false,
          "internalType": "uint256",
          "name": "value",
          "type": "uint256"
        }
      ],
      "name": "Transfer",
      "type": "event"
    },
    {
      "anonymous": false,
      "inputs": [
        {
          "indexed": false,
          "internalType": "address",
          "name": "account",
          "type": "address"
        }
      ],
      "name": "Unpaused",
      "type": "event"
    },
    {
      "inputs": [
        {
          "internalType": "address",
          "name": "owner",
          "type": "address"
        },
        {
          "internalType": "address",
          "name": "spender",
          "type": "address"
        }
      ],
      "name": "allowance",
      "outputs": [
        {
          "internalType": "uint256",
          "name": "",
          "type": "uint256"
        }
      ],
      "stateMutability": "view",
      "type": "function"
    },
    {
      "inputs": [
        {
          "internalType": "address",
          "name": "spender",
          "type": "address"
        },
        {
          "internalType": "uint256",
          "name": "amount",
          "type": "uint256"
        }
      ],
      "name": "approve",
      "outputs": [
        {
          "internalType": "bool",
          "name": "",
          "type": "bool"
        }
      ],
      "stateMutability": "nonpayable",
      "type": "function"
    },
    {
      "inputs": [
        {
          "internalType": "address",
          "name": "account",
          "type": "address"
        }
      ],
      "name": "balanceOf",
      "outputs": [
        {
          "internalType": "uint256",
          "name": "",
          "type": "uint256"
        }
      ],
      "stateMutability": "view",
      "type": "function"
    },
    {
      "inputs": [
        {
          "internalType": "address",
          "name": "from",
          "type": "address"
        },
        {
          "internalType": "uint256",
          "name": "amount",
          "type": "uint256"
        }
      ],
      "name": "burn",
      "outputs": [],
      "stateMutability": "nonpayable",
      "type": "function"
    },
    {
      "inputs": [],
      "name": "decimals",
      "outputs": [
        {
          "internalType": "uint8",
          "name": "",
          "type": "uint8"
        }
      ],
      "stateMutability": "view",
      "type": "function"
    },
    {
      "inputs": [
        {
          "internalType": "address",
          "name": "spender",
          "type": "address"
        },
        {
          "internalType": "uint256",
          "name": "subtractedValue",
          "type": "uint256"
        }
      ],
      "name": "decreaseAllowance",
      "outputs": [
        {
          "internalType": "bool",
          "name": "",
          "type": "bool"
        }
      ],
      "stateMutability": "nonpayable",
      "type": "function"
    },
    {
      "inputs": [],
      "name": "feeRatePerDayScaled",
      "outputs": [
        {
          "internalType": "uint256",
          "name": "",
          "type": "uint256"
        }
      ],
      "stateMutability": "view",
      "type": "function"
    },
    {
      "inputs": [],
      "name": "feeReceiver",
      "outputs": [
        {
          "internalType": "address",
          "name": "",
          "type": "address"
        }
      ],
      "stateMutability": "view",
      "type": "function"
    },
    {
      "inputs": [],
      "name": "feeTimestamp",
      "outputs": [
        {
          "internalType": "uint256",
          "name": "",
          "type": "uint256"
        }
      ],
      "stateMutability": "view",
      "type": "function"
    },
    {
      "inputs": [
        {
          "internalType": "address",
          "name": "spender",
          "type": "address"
        },
        {
          "internalType": "uint256",
          "name": "addedValue",
          "type": "uint256"
        }
      ],
      "name": "increaseAllowance",
      "outputs": [
        {
          "internalType": "bool",
          "name": "",
          "type": "bool"
        }
      ],
      "stateMutability": "nonpayable",
      "type": "function"
    },
    {
      "inputs": [
        {
          "internalType": "string",
          "name": "tokenName",
          "type": "string"
        },
        {
          "internalType": "string",
          "name": "tokenSymbol",
          "type": "string"
        },
        {
          "internalType": "uint256",
          "name": "_feeRatePerDayScaled",
          "type": "uint256"
        },
        {
          "internalType": "address",
          "name": "_feeReceiver",
          "type": "address"
        },
        {
          "internalType": "uint256",
          "name": "_supplyCeiling",
          "type": "uint256"
        }
      ],
      "name": "initialize",
      "outputs": [],
      "stateMutability": "nonpayable",
      "type": "function"
    },
    {
      "inputs": [],
      "name": "methodologist",
      "outputs": [
        {
          "internalType": "address",
          "name": "",
          "type": "address"
        }
      ],
      "stateMutability": "view",
      "type": "function"
    },
    {
      "inputs": [],
      "name": "methodology",
      "outputs": [
        {
          "internalType": "string",
          "name": "",
          "type": "string"
        }
      ],
      "stateMutability": "view",
      "type": "function"
    },
    {
      "inputs": [
        {
          "internalType": "address",
          "name": "to",
          "type": "address"
        },
        {
          "internalType": "uint256",
          "name": "amount",
          "type": "uint256"
        }
      ],
      "name": "mint",
      "outputs": [],
      "stateMutability": "nonpayable",
      "type": "function"
    },
    {
      "inputs": [],
      "name": "mintToFeeReceiver",
      "outputs": [],
      "stateMutability": "nonpayable",
      "type": "function"
    },
    {
      "inputs": [],
      "name": "minter",
      "outputs": [
        {
          "internalType": "address",
          "name": "",
          "type": "address"
        }
      ],
      "stateMutability": "view",
      "type": "function"
    },
    {
      "inputs": [],
      "name": "name",
      "outputs": [
        {
          "internalType": "string",
          "name": "",
          "type": "string"
        }
      ],
      "stateMutability": "view",
      "type": "function"
    },
    {
      "inputs": [],
      "name": "owner",
      "outputs": [
        {
          "internalType": "address",
          "name": "",
          "type": "address"
        }
      ],
      "stateMutability": "view",
      "type": "function"
    },
    {
      "inputs": [],
      "name": "pause",
      "outputs": [],
      "stateMutability": "nonpayable",
      "type": "function"
    },
    {
      "inputs": [],
      "name": "paused",
      "outputs": [
        {
          "internalType": "bool",
          "name": "",
          "type": "bool"
        }
      ],
      "stateMutability": "view",
      "type": "function"
    },
    {
      "inputs": [
        {
          "internalType": "address",
          "name": "_proposedOwner",
          "type": "address"
        }
      ],
      "name": "proposeOwner",
      "outputs": [],
      "stateMutability": "nonpayable",
      "type": "function"
    },
    {
      "inputs": [],
      "name": "proposedOwner",
      "outputs": [
        {
          "internalType": "address",
          "name": "",
          "type": "address"
        }
      ],
      "stateMutability": "view",
      "type": "function"
    },
    {
      "inputs": [],
      "name": "renounceOwnership",
      "outputs": [],
      "stateMutability": "nonpayable",
      "type": "function"
    },
    {
      "inputs": [
        {
          "internalType": "uint256",
          "name": "_feeRatePerDayScaled",
          "type": "uint256"
        }
      ],
      "name": "setFeeRate",
      "outputs": [],
      "stateMutability": "nonpayable",
      "type": "function"
    },
    {
      "inputs": [
        {
          "internalType": "address",
          "name": "_feeReceiver",
          "type": "address"
        }
      ],
      "name": "setFeeReceiver",
      "outputs": [],
      "stateMutability": "nonpayable",
      "type": "function"
    },
    {
      "inputs": [
        {
          "internalType": "address",
          "name": "_methodologist",
          "type": "address"
        }
      ],
      "name": "setMethodologist",
      "outputs": [],
      "stateMutability": "nonpayable",
      "type": "function"
    },
    {
      "inputs": [
        {
          "internalType": "string",
          "name": "_methodology",
          "type": "string"
        }
      ],
      "name": "setMethodology",
      "outputs": [],
      "stateMutability": "nonpayable",
      "type": "function"
    },
    {
      "inputs": [
        {
          "internalType": "address",
          "name": "_minter",
          "type": "address"
        }
      ],
      "name": "setMinter",
      "outputs": [],
      "stateMutability": "nonpayable",
      "type": "function"
    },
    {
      "inputs": [
        {
          "internalType": "uint256",
          "name": "_supplyCeiling",
          "type": "uint256"
        }
      ],
      "name": "setSupplyCeiling",
      "outputs": [],
      "stateMutability": "nonpayable",
      "type": "function"
    },
    {
      "inputs": [],
      "name": "supplyCeiling",
      "outputs": [
        {
          "internalType": "uint256",
          "name": "",
          "type": "uint256"
        }
      ],
      "stateMutability": "view",
      "type": "function"
    },
    {
      "inputs": [],
      "name": "symbol",
      "outputs": [
        {
          "internalType": "string",
          "name": "",
          "type": "string"
        }
      ],
      "stateMutability": "view",
      "type": "function"
    },
    {
      "inputs": [
        {
          "internalType": "address",
          "name": "who",
          "type": "address"
        }
      ],
      "name": "toggleRestriction",
      "outputs": [],
      "stateMutability": "nonpayable",
      "type": "function"
    },
    {
      "inputs": [],
      "name": "totalSupply",
      "outputs": [
        {
          "internalType": "uint256",
          "name": "",
          "type": "uint256"
        }
      ],
      "stateMutability": "view",
      "type": "function"
    },
    {
      "inputs": [
        {
          "internalType": "address",
          "name": "to",
          "type": "address"
        },
        {
          "internalType": "uint256",
          "name": "amount",
          "type": "uint256"
        }
      ],
      "name": "transfer",
      "outputs": [
        {
          "internalType": "bool",
          "name": "",
          "type": "bool"
        }
      ],
      "stateMutability": "nonpayable",
      "type": "function"
    },
    {
      "inputs": [
        {
          "internalType": "address",
          "name": "from",
          "type": "address"
        },
        {
          "internalType": "address",
          "name": "to",
          "type": "address"
        },
        {
          "internalType": "uint256",
          "name": "amount",
          "type": "uint256"
        }
      ],
      "name": "transferFrom",
      "outputs": [
        {
          "internalType": "bool",
          "name": "",
          "type": "bool"
        }
      ],
      "stateMutability": "nonpayable",
      "type": "function"
    },
    {
      "inputs": [
        {
          "internalType": "address",
          "name": "newOwner",
          "type": "address"
        }
      ],
      "name": "transferOwnership",
      "outputs": [],
      "stateMutability": "nonpayable",
      "type": "function"
    },
    {
      "inputs": [],
      "name": "unpause",
      "outputs": [],
      "stateMutability": "nonpayable",
      "type": "function"
    }
  ],
  "bytecode": {
    "object": "0x608060405234801561001057600080fd5b50611e0d806100206000396000f3fe608060405234801561001057600080fd5b50600436106102275760003560e01c80638456cb5911610130578063aaa4a184116100b8578063efdcd9741161007c578063efdcd97414610475578063f2fde38b14610488578063f734e22a1461049b578063fca3b5aa146104a3578063fede0276146104b657600080fd5b8063aaa4a18414610416578063b3f0067414610429578063b5ed298a1461043c578063d153b60c1461044f578063dd62ed3e1461046257600080fd5b80639dc29fac116100ff5780639dc29fac146103c25780639eeb1d50146103d55780639f8e67bf146103dd578063a457c2d7146103f0578063a9059cbb1461040357600080fd5b80638456cb591461038e5780638da5cb5b1461039657806391fe1b92146103a757806395d89b41146103ba57600080fd5b806339509351116101b35780635c975abb116101825780635c975abb1461032c578063660db484146103375780636e01a6861461034a57806370a082311461035d578063715018a61461038657600080fd5b806339509351146102e95780633f4ba83a146102fc57806340c10f191461030657806345596e2e1461031957600080fd5b8063184a732f116101fa578063184a732f146102ab57806323b872dd146102b45780632b52684d146102c75780632fecd589146102d1578063313ce567146102da57600080fd5b806306fdde031461022c578063075461721461024a578063095ea7b31461027657806318160ddd14610299575b600080fd5b6102346104c9565b6040516102419190611bcc565b60405180910390f35b6101005461025e906001600160a01b031681565b6040516001600160a01b039091168152602001610241565b610289610284366004611ac6565b61055b565b6040519015158152602001610241565b6035545b604051908152602001610241565b61029d60fd5481565b6102896102c2366004611a8a565b610573565b61029d6101025481565b61029d60fc5481565b60405160128152602001610241565b6102896102f7366004611ac6565b6105fd565b61030461061f565b005b610304610314366004611ac6565b610631565b610304610327366004611bb3565b61072d565b60ca5460ff16610289565b610304610345366004611a35565b610770565b610304610358366004611bb3565b6107d5565b61029d61036b366004611a35565b6001600160a01b031660009081526033602052604090205490565b61030461081a565b61030461082c565b6065546001600160a01b031661025e565b6103046103b5366004611af0565b61083c565b6102346108ee565b6103046103d0366004611ac6565b6108fd565b610234610986565b60ff5461025e906001600160a01b031681565b6102896103fe366004611ac6565b610a15565b610289610411366004611ac6565b610a9b565b610304610424366004611a35565b610afd565b60fe5461025e906001600160a01b031681565b61030461044a366004611a35565b610b71565b60975461025e906001600160a01b031681565b61029d610470366004611a57565b610bc1565b610304610483366004611a35565b610bec565b610304610496366004611a35565b610c51565b610304610d79565b6103046104b1366004611a35565b610d89565b6103046104c4366004611b2d565b610def565b6060603680546104d890611d70565b80601f016020809104026020016040519081016040528092919081815260200182805461050490611d70565b80156105515780601f1061052657610100808354040283529160200191610551565b820191906000526020600020905b81548152906001019060200180831161053457829003601f168201915b5050505050905090565b600033610569818585610f5c565b5060019392505050565b600061057d611081565b336000908152610103602052604090205460ff161580156105b857506001600160a01b0383166000908152610103602052604090205460ff16155b80156105de57506001600160a01b0384166000908152610103602052604090205460ff16155b6105e757600080fd5b6105f28433846110c7565b610569848484611141565b6000336105698185856106108383610bc1565b61061a9190611d00565b610f5c565b6106276112ec565b61062f611346565b565b610639611081565b610100546001600160a01b0316331461066d5760405162461bcd60e51b815260040161066490611c21565b60405180910390fd5b610102548161067b60355490565b6106859190611d00565b11156106d35760405162461bcd60e51b815260206004820152601a60248201527f77696c6c2065786365656420737570706c79206365696c696e670000000000006044820152606401610664565b6001600160a01b0382166000908152610103602052604090205460ff1615801561070e5750336000908152610103602052604090205460ff16155b61071757600080fd5b61071f611398565b61072982826114c6565b5050565b6107356112ec565b61073d611398565b60fc81905560405181907f45398c451b1a31b88dbaed4e7b89a632f43cc4b50149d437db03a5300afe40d190600090a250565b6107786112ec565b6001600160a01b03811661078b57600080fd5b60ff80546001600160a01b0319166001600160a01b0383169081179091556040517f164d8ef0d742b45087644f55c61abeb84557df70d06730591e451f0981e278ca90600090a250565b6107dd6112ec565b6101028190556040518181527fe35be406f69e9d11d6ac8e5b54bbc8b6c4baf2fa2359f84a56baa5ea5d07dc8f906020015b60405180910390a150565b6108226112ec565b61062f6000611587565b6108346112ec565b61062f6115d9565b60ff546001600160a01b031633146108aa5760405162461bcd60e51b815260206004820152602b60248201527f496e646578546f6b656e3a2063616c6c6572206973206e6f7420746865206d6560448201526a1d1a1bd91bdb1bd9da5cdd60aa1b6064820152608401610664565b80516108be906101019060208401906118f3565b507fe6be68107100e39cb16d675c1086a4d5479fbd01108d721dabbccaa2249b995f8160405161080f9190611bcc565b6060603780546104d890611d70565b610905611081565b610100546001600160a01b031633146109305760405162461bcd60e51b815260040161066490611c21565b6001600160a01b0382166000908152610103602052604090205460ff1615801561096b5750336000908152610103602052604090205460ff16155b61097457600080fd5b61097c611398565b6107298282611616565b610101805461099490611d70565b80601f01602080910402602001604051908101604052809291908181526020018280546109c090611d70565b8015610a0d5780601f106109e257610100808354040283529160200191610a0d565b820191906000526020600020905b8154815290600101906020018083116109f057829003601f168201915b505050505081565b60003381610a238286610bc1565b905083811015610a835760405162461bcd60e51b815260206004820152602560248201527f45524332303a2064656372656173656420616c6c6f77616e63652062656c6f77604482015264207a65726f60d81b6064820152608401610664565b610a908286868403610f5c565b506001949350505050565b6000610aa5611081565b336000908152610103602052604090205460ff16158015610ae057506001600160a01b0383166000908152610103602052604090205460ff16155b610ae957600080fd5b610af4338484611141565b50600192915050565b610b056112ec565b6001600160a01b0381166000818152610103602052604090819020805460ff19811660ff9182161590811790925591517f14ddf324cc5d8b14a3c3b12c84b0a7d578d72c8d60655c06d6a457e71431d5ee92610b6692161515815260200190565b60405180910390a250565b610b796112ec565b6001600160a01b038116610b9f5760405162461bcd60e51b815260040161066490611c65565b609780546001600160a01b0319166001600160a01b0392909216919091179055565b6001600160a01b03918216600090815260346020908152604080832093909416825291909152205490565b610bf46112ec565b6001600160a01b038116610c0757600080fd5b60fe80546001600160a01b0319166001600160a01b0383169081179091556040517fbdf37c276f641820b141429d245add2552b4118c0866e5a78638e3de5ef18d9d90600090a250565b6001600160a01b038116610c775760405162461bcd60e51b815260040161066490611c65565b6097546001600160a01b03828116911614610cef5760405162461bcd60e51b815260206004820152603260248201527f50726f706f7361626c654f776e61626c653a206e6577206f776e6572206973206044820152713737ba10383937b837b9b2b21037bbb732b960711b6064820152608401610664565b6001600160a01b0381163314610d6d5760405162461bcd60e51b815260206004820152603a60248201527f50726f706f7361626c654f776e61626c653a20746869732063616c6c206d757360448201527f74206265206d61646520627920746865206e6577206f776e65720000000000006064820152608401610664565b610d7681611587565b50565b610d816112ec565b61062f611398565b610d916112ec565b6001600160a01b038116610da457600080fd5b61010080546001600160a01b0319166001600160a01b0383169081179091556040517f726b590ef91a8c76ad05bbe91a57ef84605276528f49cd47d787f558a4e755b690600090a250565b600054610100900460ff1615808015610e0f5750600054600160ff909116105b80610e295750303b158015610e29575060005460ff166001145b610e8c5760405162461bcd60e51b815260206004820152602e60248201527f496e697469616c697a61626c653a20636f6e747261637420697320616c72656160448201526d191e481a5b9a5d1a585b1a5e995960921b6064820152608401610664565b6000805460ff191660011790558015610eaf576000805461ff0019166101001790555b6001600160a01b038316610ec257600080fd5b610eca611747565b610ed2611776565b610edc86866117a5565b610ee46117d6565b60fc84905560fe80546001600160a01b0319166001600160a01b0385161790556101028290554260fd558015610f54576000805461ff0019169055604051600181527f7f26b83ff96e1f2b6a682f133852f6798a09c465da95921460cefb38474024989060200160405180910390a15b505050505050565b6001600160a01b038316610fbe5760405162461bcd60e51b8152602060048201526024808201527f45524332303a20617070726f76652066726f6d20746865207a65726f206164646044820152637265737360e01b6064820152608401610664565b6001600160a01b03821661101f5760405162461bcd60e51b815260206004820152602260248201527f45524332303a20617070726f766520746f20746865207a65726f206164647265604482015261737360f01b6064820152608401610664565b6001600160a01b0383811660008181526034602090815260408083209487168084529482529182902085905590518481527f8c5be1e5ebec7d5bd14f71427d1e84f3dd0314c0f7b2291e5b200ac8c7c3b92591015b60405180910390a3505050565b60ca5460ff161561062f5760405162461bcd60e51b815260206004820152601060248201526f14185d5cd8589b194e881c185d5cd95960821b6044820152606401610664565b60006110d38484610bc1565b9050600019811461113b578181101561112e5760405162461bcd60e51b815260206004820152601d60248201527f45524332303a20696e73756666696369656e7420616c6c6f77616e63650000006044820152606401610664565b61113b8484848403610f5c565b50505050565b6001600160a01b0383166111a55760405162461bcd60e51b815260206004820152602560248201527f45524332303a207472616e736665722066726f6d20746865207a65726f206164604482015264647265737360d81b6064820152608401610664565b6001600160a01b0382166112075760405162461bcd60e51b815260206004820152602360248201527f45524332303a207472616e7366657220746f20746865207a65726f206164647260448201526265737360e81b6064820152608401610664565b6001600160a01b0383166000908152603360205260409020548181101561127f5760405162461bcd60e51b815260206004820152602660248201527f45524332303a207472616e7366657220616d6f756e7420657863656564732062604482015265616c616e636560d01b6064820152608401610664565b6001600160a01b0380851660008181526033602052604080822086860390559286168082529083902080548601905591517fddf252ad1be2c89b69c2b068fc378daa952ba7f163c4a11628f55a4df523b3ef906112df9086815260200190565b60405180910390a361113b565b6065546001600160a01b0316331461062f5760405162461bcd60e51b815260206004820181905260248201527f4f776e61626c653a2063616c6c6572206973206e6f7420746865206f776e65726044820152606401610664565b61134e6117fd565b60ca805460ff191690557f5db9ee0a495bf2e6ff9c91a7834c1ba4fdd244a5e8aa4e537bd38aeae4b073aa335b6040516001600160a01b03909116815260200160405180910390a1565b60006201518060fd54426113ac9190611d59565b6113b69190611d18565b905060018110610d765760006113cb60355490565b60fc54909150819060005b848110156114105768056bc75e2d631000006113f28385611d3a565b6113fc9190611d18565b6114069084611d00565b92506001016113d6565b50600061141d8484611d59565b905061142c8562015180611d3a565b60fd600082825461143d9190611d00565b909155505060fe54611458906001600160a01b0316826114c6565b60fe547f07982395c678b2ffc23fcf59aaec243ca79418c285af0d0e10b4e65bc4189f4c906001600160a01b03164261149060355490565b604080516001600160a01b0390941684526020840192909252908201526060810183905260800160405180910390a15050505050565b6001600160a01b03821661151c5760405162461bcd60e51b815260206004820152601f60248201527f45524332303a206d696e7420746f20746865207a65726f2061646472657373006044820152606401610664565b806035600082825461152e9190611d00565b90915550506001600160a01b0382166000818152603360209081526040808320805486019055518481527fddf252ad1be2c89b69c2b068fc378daa952ba7f163c4a11628f55a4df523b3ef910160405180910390a35050565b606580546001600160a01b038381166001600160a01b0319831681179093556040519116919082907f8be0079c531659141344cd1fd0a4f28419497f9722a3daafe3b4186f6b6457e090600090a35050565b6115e1611081565b60ca805460ff191660011790557f62e78cea01bee320cd4e420270b5ea74000d11b0c9f74754ebdbfc544b05a25861137b3390565b6001600160a01b0382166116765760405162461bcd60e51b815260206004820152602160248201527f45524332303a206275726e2066726f6d20746865207a65726f206164647265736044820152607360f81b6064820152608401610664565b6001600160a01b038216600090815260336020526040902054818110156116ea5760405162461bcd60e51b815260206004820152602260248201527f45524332303a206275726e20616d6f756e7420657863656564732062616c616e604482015261636560f01b6064820152608401610664565b6001600160a01b03831660008181526033602090815260408083208686039055603580548790039055518581529192917fddf252ad1be2c89b69c2b068fc378daa952ba7f163c4a11628f55a4df523b3ef9101611074565b505050565b600054610100900460ff1661176e5760405162461bcd60e51b815260040161066490611cb5565b61062f611846565b600054610100900460ff1661179d5760405162461bcd60e51b815260040161066490611cb5565b61062f611876565b600054610100900460ff166117cc5760405162461bcd60e51b815260040161066490611cb5565b61072982826118a9565b600054610100900460ff1661062f5760405162461bcd60e51b815260040161066490611cb5565b60ca5460ff1661062f5760405162461bcd60e51b815260206004820152601460248201527314185d5cd8589b194e881b9bdd081c185d5cd95960621b6044820152606401610664565b600054610100900460ff1661186d5760405162461bcd60e51b815260040161066490611cb5565b61062f33611587565b600054610100900460ff1661189d5760405162461bcd60e51b815260040161066490611cb5565b60ca805460ff19169055565b600054610100900460ff166118d05760405162461bcd60e51b815260040161066490611cb5565b81516118e39060369060208501906118f3565b5080516117429060379060208401905b8280546118ff90611d70565b90600052602060002090601f0160209004810192826119215760008555611967565b82601f1061193a57805160ff1916838001178555611967565b82800160010185558215611967579182015b8281111561196757825182559160200191906001019061194c565b50611973929150611977565b5090565b5b808211156119735760008155600101611978565b80356001600160a01b03811681146119a357600080fd5b919050565b600082601f8301126119b957600080fd5b813567ffffffffffffffff808211156119d4576119d4611dc1565b604051601f8301601f19908116603f011681019082821181831017156119fc576119fc611dc1565b81604052838152866020858801011115611a1557600080fd5b836020870160208301376000602085830101528094505050505092915050565b600060208284031215611a4757600080fd5b611a508261198c565b9392505050565b60008060408385031215611a6a57600080fd5b611a738361198c565b9150611a816020840161198c565b90509250929050565b600080600060608486031215611a9f57600080fd5b611aa88461198c565b9250611ab66020850161198c565b9150604084013590509250925092565b60008060408385031215611ad957600080fd5b611ae28361198c565b946020939093013593505050565b600060208284031215611b0257600080fd5b813567ffffffffffffffff811115611b1957600080fd5b611b25848285016119a8565b949350505050565b600080600080600060a08688031215611b4557600080fd5b853567ffffffffffffffff80821115611b5d57600080fd5b611b6989838a016119a8565b96506020880135915080821115611b7f57600080fd5b50611b8c888289016119a8565b94505060408601359250611ba26060870161198c565b949793965091946080013592915050565b600060208284031215611bc557600080fd5b5035919050565b600060208083528351808285015260005b81811015611bf957858101830151858201604001528201611bdd565b81811115611c0b576000604083870101525b50601f01601f1916929092016040019392505050565b60208082526024908201527f496e646578546f6b656e3a2063616c6c6572206973206e6f7420746865206d69604082015263373a32b960e11b606082015260800190565b60208082526030908201527f50726f706f7361626c654f776e61626c653a206e6577206f776e65722069732060408201526f746865207a65726f206164647265737360801b606082015260800190565b6020808252602b908201527f496e697469616c697a61626c653a20636f6e7472616374206973206e6f74206960408201526a6e697469616c697a696e6760a81b606082015260800190565b60008219821115611d1357611d13611dab565b500190565b600082611d3557634e487b7160e01b600052601260045260246000fd5b500490565b6000816000190483118215151615611d5457611d54611dab565b500290565b600082821015611d6b57611d6b611dab565b500390565b600181811c90821680611d8457607f821691505b60208210811415611da557634e487b7160e01b600052602260045260246000fd5b50919050565b634e487b7160e01b600052601160045260246000fd5b634e487b7160e01b600052604160045260246000fdfea264697066735822122021d31c3f60f494472fcdec84acc47b84f4b13dde08cd2ac5586b7ca6326077ed64736f6c63430008070033",
    "linkReferences": {}
  },
  "methodIdentifiers": {
    "allowance(address,address)": "dd62ed3e",
    "approve(address,uint256)": "095ea7b3",
    "balanceOf(address)": "70a08231",
    "burn(address,uint256)": "9dc29fac",
    "decimals()": "313ce567",
    "decreaseAllowance(address,uint256)": "a457c2d7",
    "feeRatePerDayScaled()": "2fecd589",
    "feeReceiver()": "b3f00674",
    "feeTimestamp()": "184a732f",
    "increaseAllowance(address,uint256)": "39509351",
    "initialize(string,string,uint256,address,uint256)": "fede0276",
    "methodologist()": "9f8e67bf",
    "methodology()": "9eeb1d50",
    "mint(address,uint256)": "40c10f19",
    "mintToFeeReceiver()": "f734e22a",
    "minter()": "07546172",
    "name()": "06fdde03",
    "owner()": "8da5cb5b",
    "pause()": "8456cb59",
    "paused()": "5c975abb",
    "proposeOwner(address)": "b5ed298a",
    "proposedOwner()": "d153b60c",
    "renounceOwnership()": "715018a6",
    "setFeeRate(uint256)": "45596e2e",
    "setFeeReceiver(address)": "efdcd974",
    "setMethodologist(address)": "660db484",
    "setMethodology(string)": "91fe1b92",
    "setMinter(address)": "fca3b5aa",
    "setSupplyCeiling(uint256)": "6e01a686",
    "supplyCeiling()": "2b52684d",
    "symbol()": "95d89b41",
    "toggleRestriction(address)": "aaa4a184",
    "totalSupply()": "18160ddd",
    "transfer(address,uint256)": "a9059cbb",
    "transferFrom(address,address,uint256)": "23b872dd",
    "transferOwnership(address)": "f2fde38b",
    "unpause()": "3f4ba83a"
  },
  "id": 2
}