{
  "abi": [
    {
      "inputs": [
        {
          "internalType": "address",
          "name": "_link",
          "type": "address"
        }
      ],
      "stateMutability": "nonpayable",
      "type": "constructor"
    },
    {
      "anonymous": false,
      "inputs": [
        {
          "indexed": true,
          "internalType": "bytes32",
          "name": "requestId",
          "type": "bytes32"
        }
      ],
      "name": "CancelOracleRequest",
      "type": "event"
    },
    {
      "anonymous": false,
      "inputs": [
        {
          "indexed": true,
          "internalType": "bytes32",
          "name": "specId",
          "type": "bytes32"
        },
        {
          "indexed": false,
          "internalType": "address",
          "name": "requester",
          "type": "address"
        },
        {
          "indexed": false,
          "internalType": "bytes32",
          "name": "requestId",
          "type": "bytes32"
        },
        {
          "indexed": false,
          "internalType": "uint256",
          "name": "payment",
          "type": "uint256"
        },
        {
          "indexed": false,
          "internalType": "address",
          "name": "callbackAddr",
          "type": "address"
        },
        {
          "indexed": false,
          "internalType": "bytes4",
          "name": "callbackFunctionId",
          "type": "bytes4"
        },
        {
          "indexed": false,
          "internalType": "uint256",
          "name": "cancelExpiration",
          "type": "uint256"
        },
        {
          "indexed": false,
          "internalType": "uint256",
          "name": "dataVersion",
          "type": "uint256"
        },
        {
          "indexed": false,
          "internalType": "bytes",
          "name": "data",
          "type": "bytes"
        }
      ],
      "name": "OracleRequest",
      "type": "event"
    },
    {
      "inputs": [],
      "name": "EXPIRY_TIME",
      "outputs": [
        {
          "internalType": "uint256",
          "name": "",
          "type": "uint256"
        }
      ],
      "stateMutability": "view",
      "type": "function"
    },
    {
      "inputs": [
        {
          "internalType": "bytes32",
          "name": "_requestId",
          "type": "bytes32"
        },
        {
          "internalType": "uint256",
          "name": "_payment",
          "type": "uint256"
        },
        {
          "internalType": "bytes4",
          "name": "",
          "type": "bytes4"
        },
        {
          "internalType": "uint256",
          "name": "_expiration",
          "type": "uint256"
        }
      ],
      "name": "cancelOracleRequest",
      "outputs": [],
      "stateMutability": "nonpayable",
      "type": "function"
    },
    {
      "inputs": [
        {
          "internalType": "int256[]",
          "name": "intArray",
          "type": "int256[]"
        }
      ],
      "name": "convertIntToBytes32Array",
      "outputs": [
        {
          "internalType": "bytes32[]",
          "name": "",
          "type": "bytes32[]"
        }
      ],
      "stateMutability": "pure",
      "type": "function"
    },
    {
      "inputs": [
        {
          "internalType": "string[]",
          "name": "stringArray",
          "type": "string[]"
        }
      ],
      "name": "convertStringToBytes32Array",
      "outputs": [
        {
          "internalType": "bytes32[]",
          "name": "",
          "type": "bytes32[]"
        }
      ],
      "stateMutability": "pure",
      "type": "function"
    },
    {
      "inputs": [
        {
          "internalType": "uint256",
          "name": "value",
          "type": "uint256"
        }
      ],
      "name": "convertToBytes",
      "outputs": [
        {
          "internalType": "bytes",
          "name": "",
          "type": "bytes"
        }
      ],
      "stateMutability": "pure",
      "type": "function"
    },
    {
      "inputs": [
        {
          "internalType": "uint256[]",
          "name": "uintArray",
          "type": "uint256[]"
        }
      ],
      "name": "convertUintToBytes32",
      "outputs": [
        {
          "internalType": "bytes32[]",
          "name": "",
          "type": "bytes32[]"
        }
      ],
      "stateMutability": "pure",
      "type": "function"
    },
    {
      "inputs": [
        {
          "internalType": "bytes32",
          "name": "_requestId",
          "type": "bytes32"
        },
        {
          "internalType": "address[]",
          "name": "_addresses",
          "type": "address[]"
        },
        {
          "internalType": "uint256[]",
          "name": "_marketCapShares",
          "type": "uint256[]"
        }
      ],
      "name": "fulfillOracleFundingRateRequest",
      "outputs": [
        {
          "internalType": "bool",
          "name": "",
          "type": "bool"
        }
      ],
      "stateMutability": "nonpayable",
      "type": "function"
    },
    {
      "inputs": [
        {
          "internalType": "bytes32",
          "name": "_requestId",
          "type": "bytes32"
        },
        {
          "internalType": "bytes32",
          "name": "_data",
          "type": "bytes32"
        }
      ],
      "name": "fulfillOracleOjectRequest",
      "outputs": [
        {
          "internalType": "bool",
          "name": "",
          "type": "bool"
        }
      ],
      "stateMutability": "nonpayable",
      "type": "function"
    },
    {
      "inputs": [
        {
          "internalType": "bytes32",
          "name": "_requestId",
          "type": "bytes32"
        },
        {
          "internalType": "string",
          "name": "_data",
          "type": "string"
        }
      ],
      "name": "fulfillOracleStatusRequest",
      "outputs": [
        {
          "internalType": "bool",
          "name": "",
          "type": "bool"
        }
      ],
      "stateMutability": "nonpayable",
      "type": "function"
    },
    {
      "inputs": [],
      "name": "getChainlinkToken",
      "outputs": [
        {
          "internalType": "address",
          "name": "",
          "type": "address"
        }
      ],
      "stateMutability": "view",
      "type": "function"
    },
    {
      "inputs": [
        {
          "internalType": "address",
          "name": "_sender",
          "type": "address"
        },
        {
          "internalType": "uint256",
          "name": "_amount",
          "type": "uint256"
        },
        {
          "internalType": "bytes",
          "name": "_data",
          "type": "bytes"
        }
      ],
      "name": "onTokenTransfer",
      "outputs": [],
      "stateMutability": "nonpayable",
      "type": "function"
    },
    {
      "inputs": [
        {
          "internalType": "address",
          "name": "_sender",
          "type": "address"
        },
        {
          "internalType": "uint256",
          "name": "_payment",
          "type": "uint256"
        },
        {
          "internalType": "bytes32",
          "name": "_specId",
          "type": "bytes32"
        },
        {
          "internalType": "address",
          "name": "_callbackAddress",
          "type": "address"
        },
        {
          "internalType": "bytes4",
          "name": "_callbackFunctionId",
          "type": "bytes4"
        },
        {
          "internalType": "uint256",
          "name": "_nonce",
          "type": "uint256"
        },
        {
          "internalType": "uint256",
          "name": "_dataVersion",
          "type": "uint256"
        },
        {
          "internalType": "bytes",
          "name": "_data",
          "type": "bytes"
        }
      ],
      "name": "oracleRequest",
      "outputs": [],
      "stateMutability": "nonpayable",
      "type": "function"
    },
    {
      "inputs": [
        {
          "internalType": "uint256",
          "name": "myUint",
          "type": "uint256"
        }
      ],
      "name": "uintToBytes32",
      "outputs": [
        {
          "internalType": "bytes32",
          "name": "myBytes32",
          "type": "bytes32"
        }
      ],
      "stateMutability": "pure",
      "type": "function"
    }
  ],
  "bytecode": {
    "object": "0x608060405234801561001057600080fd5b50604051611bc0380380611bc083398101604081905261002f91610054565b600080546001600160a01b0319166001600160a01b0392909216919091179055610084565b60006020828403121561006657600080fd5b81516001600160a01b038116811461007d57600080fd5b9392505050565b611b2d806100936000396000f3fe608060405234801561001057600080fd5b50600436106100cf5760003560e01c80636ee4d5531161008c578063a4c0ed3611610066578063a4c0ed36146101aa578063c5e639ca146101bd578063e030ba66146101e0578063f00e8e35146101f357600080fd5b80636ee4d55314610173578063715d342f14610186578063886d3db91461019957600080fd5b8063165d35e1146100d45780633be2c1d8146100f45780634042994614610114578063466703c5146101295780634b602282146101495780635fdb23ca14610160575b600080fd5b6000546040516001600160a01b0390911681526020015b60405180910390f35b61010761010236600461124a565b610206565b6040516100eb9190611286565b610127610122366004611346565b6103c0565b005b61013c6101373660046113e4565b610603565b6040516100eb9190611421565b61015261012c81565b6040519081526020016100eb565b61010761016e3660046114ab565b610631565b610127610181366004611570565b6106ff565b6101076101943660046115ad565b61086d565b6101526101a73660046113e4565b90565b6101276101b836600461163d565b61098f565b6101d06101cb3660046116a7565b610b67565b60405190151581526020016100eb565b6101d06101ee3660046116f2565b610ccd565b6101d0610201366004611714565b610e31565b8051606090806102315760405162461bcd60e51b8152600401610228906117d4565b60405180910390fd5b6000602061024083601f611812565b61024a919061183b565b90506000816001600160401b0381111561026657610266611176565b60405190808252806020026020018201604052801561028f578160200160208202803683370190505b50905060005b828110156103b75760006102aa82602061184f565b905060006102b9826020611812565b9050858111156102c65750845b60006102d28383611866565b6001600160401b038111156102e9576102e9611176565b604051908082528060200260200182016040528015610312578160200160208202803683370190505b509050825b828110156103735789818151811061033157610331611879565b60200260200101518285836103469190611866565b8151811061035657610356611879565b60209081029190910101528061036b8161188f565b915050610317565b50600061037f8261107b565b90508086868151811061039457610394611879565b6020026020010181815250505050505080806103af9061188f565b915050610295565b50949350505050565b6000546001600160a01b031633146104105760405162461bcd60e51b815260206004820152601360248201527226bab9ba103ab9b2902624a725903a37b5b2b760691b6044820152606401610228565b60005486906001600160a01b03908116908216036104705760405162461bcd60e51b815260206004820152601760248201527f43616e6e6f742063616c6c6261636b20746f204c494e4b0000000000000000006044820152606401610228565b6040516bffffffffffffffffffffffff1960608c901b1660208201526034810186905260009060540160408051601f198184030181529181528151602092830120600081815260019093529120549091506001600160a01b03161561050e5760405162461bcd60e51b8152602060048201526014602482015273135d5cdd081d5cd94818481d5b9a5c5d5948125160621b6044820152606401610228565b600061051c4261012c61110e565b905060405180604001604052808a6001600160a01b03168152602001896001600160e01b0319168152506001600084815260200190815260200160002060008201518160000160006101000a8154816001600160a01b0302191690836001600160a01b0316021790555060208201518160000160146101000a81548163ffffffff021916908360e01c0217905550905050897fd8d7ecc4800d25fa53ce0372f13a416d98907a7ef3d8d3bdd79cf4fe75529c658d848e8d8d878d8d8d6040516105ed999897969594939291906118d1565b60405180910390a2505050505050505050505050565b606060008260405160200161061a91815260200190565b60408051601f198184030181529190529392505050565b8051606090806106535760405162461bcd60e51b8152600401610228906117d4565b6000816001600160401b0381111561066d5761066d611176565b604051908082528060200260200182016040528015610696578160200160208202803683370190505b50905060005b828110156106f7576106c88582815181106106b9576106b9611879565b60200260200101516020015190565b8282815181106106da576106da611879565b6020908102919091010152806106ef8161188f565b91505061069c565b509392505050565b6000848152600160205260409020546001600160a01b031661075a5760405162461bcd60e51b8152602060048201526014602482015273135d5cdd081d5cd94818481d5b9a5c5d5948125160621b6044820152606401610228565b428111156107a35760405162461bcd60e51b815260206004820152601660248201527514995c5d595cdd081a5cc81b9bdd08195e1c1a5c995960521b6044820152606401610228565b60008481526001602052604080822080546001600160c01b03191690555185917fa7842b9ec549398102c0d91b1b9919b2f20558aefdadf57528a95c6cd3292e9391a260005460405163a9059cbb60e01b8152336004820152602481018590526001600160a01b039091169063a9059cbb906044016020604051808303816000875af1158015610837573d6000803e3d6000fd5b505050506040513d601f19601f8201168201806040525081019061085b919061193b565b6108675761086761195d565b50505050565b60606000826040516020016108829190611973565b60408051601f198184030181529190528351909150806108b45760405162461bcd60e51b8152600401610228906117d4565b602082516108c291906119a9565b156109065760405162461bcd60e51b8152602060048201526014602482015273092dcecc2d8d2c840c2e4e4c2f240d8cadccee8d60631b6044820152606401610228565b6000816001600160401b0381111561092057610920611176565b604051908082528060200260200182016040528015610949578160200160208202803683370190505b50905060005b828110156103b75760208082028501015182828151811061097257610972611879565b6020908102919091010152806109878161188f565b91505061094f565b6000546001600160a01b031633146109df5760405162461bcd60e51b815260206004820152601360248201527226bab9ba103ab9b2902624a725903a37b5b2b760691b6044820152606401610228565b806109ec6002602061184f565b6109f7906004611812565b81511015610a405760405162461bcd60e51b8152602060048201526016602482015275092dcecc2d8d2c840e4cae2eacae6e840d8cadccee8d60531b6044820152606401610228565b602082015182906001600160e01b031981166320214ca360e11b14610aa75760405162461bcd60e51b815260206004820152601e60248201527f4d757374207573652077686974656c69737465642066756e6374696f6e7300006044820152606401610228565b8560248501528460448501526000306001600160a01b031685604051610acd91906119bd565b600060405180830381855af49150503d8060008114610b08576040519150601f19603f3d011682016040523d82523d6000602084013e610b0d565b606091505b5050905080610b5e5760405162461bcd60e51b815260206004820152601860248201527f556e61626c6520746f20637265617465207265717565737400000000000000006044820152606401610228565b50505050505050565b60008381526001602052604081205484906001600160a01b0316610b9d5760405162461bcd60e51b8152600401610228906119d9565b6000858152600160208181526040808420815180830190925280546001600160a01b03811683526001600160e01b0319600160a01b820460e01b1683850152948a9052929091526001600160c01b0319909216905562061a805a1015610c155760405162461bcd60e51b815260040161022890611a10565b600081600001516001600160a01b03168260200151888888604051602401610c3f93929190611a45565b60408051601f198184030181529181526020820180516001600160e01b03166001600160e01b0319909416939093179092529051610c7d91906119bd565b6000604051808303816000865af19150503d8060008114610cba576040519150601f19603f3d011682016040523d82523d6000602084013e610cbf565b606091505b509098975050505050505050565b60008281526001602052604081205483906001600160a01b0316610d035760405162461bcd60e51b8152600401610228906119d9565b6000848152600160208181526040808420815180830190925280546001600160a01b03811683526001600160e01b0319600160a01b820460e01b168385015294899052929091526001600160c01b0319909216905562061a805a1015610d7b5760405162461bcd60e51b815260040161022890611a10565b8051602082015160405160248101889052604481018790526000926001600160a01b0316919060640160408051601f198184030181529181526020820180516001600160e01b03166001600160e01b0319909416939093179092529051610de291906119bd565b6000604051808303816000865af19150503d8060008114610e1f576040519150601f19603f3d011682016040523d82523d6000602084013e610e24565b606091505b5090979650505050505050565b60008381526001602052604081205484906001600160a01b0316610e675760405162461bcd60e51b8152600401610228906119d9565b6000858152600160208181526040808420815180830190925280546001600160a01b03811683526001600160e01b0319600160a01b820460e01b1683850152948a9052929091526001600160c01b0319909216905562061a805a1015610edf5760405162461bcd60e51b815260040161022890611a10565b60408051600180825281830190925260009160208083019080368337019050509050600081600081518110610f1657610f16611879565b6001600160a01b03929092166020928302919091019091015260408051600180825281830190925260009181602001602082028036833701905050905068056bc75e2d6310000081600081518110610f7057610f70611879565b6020908102919091010152604080516001808252818301909252600091816020016020820280368337019050509050600381600081518110610fb457610fb4611879565b602002602001018181525050600084600001516001600160a01b031685602001518b8b8b604051602401610fea93929190611a68565b60408051601f198184030181529181526020820180516001600160e01b03166001600160e01b031990941693909317909252905161102891906119bd565b6000604051808303816000865af19150503d8060008114611065576040519150601f19603f3d011682016040523d82523d6000602084013e61106a565b606091505b50909b9a5050505050505050505050565b6000808251602061108c919061184f565b6001600160401b038111156110a3576110a3611176565b6040519080825280601f01601f1916602001820160405280156110cd576020820181803683370190505b50905060005b835181101561110357602081026020018401516020820260200183015280806110fb9061188f565b9150506110d3565b506020015192915050565b60008061111b8385611812565b90508381101561116d5760405162461bcd60e51b815260206004820152601b60248201527f536166654d6174683a206164646974696f6e206f766572666c6f7700000000006044820152606401610228565b90505b92915050565b634e487b7160e01b600052604160045260246000fd5b604051601f8201601f191681016001600160401b03811182821017156111b4576111b4611176565b604052919050565b60006001600160401b038211156111d5576111d5611176565b5060051b60200190565b600082601f8301126111f057600080fd5b81356020611205611200836111bc565b61118c565b82815260059290921b8401810191818101908684111561122457600080fd5b8286015b8481101561123f5780358352918301918301611228565b509695505050505050565b60006020828403121561125c57600080fd5b81356001600160401b0381111561127257600080fd5b61127e848285016111df565b949350505050565b6020808252825182820181905260009190848201906040850190845b818110156112be578351835292840192918401916001016112a2565b50909695505050505050565b80356001600160a01b03811681146112e157600080fd5b919050565b80356001600160e01b0319811681146112e157600080fd5b60008083601f84011261131057600080fd5b5081356001600160401b0381111561132757600080fd5b60208301915083602082850101111561133f57600080fd5b9250929050565b60008060008060008060008060006101008a8c03121561136557600080fd5b61136e8a6112ca565b985060208a0135975060408a0135965061138a60608b016112ca565b955061139860808b016112e6565b945060a08a0135935060c08a0135925060e08a01356001600160401b038111156113c157600080fd5b6113cd8c828d016112fe565b915080935050809150509295985092959850929598565b6000602082840312156113f657600080fd5b5035919050565b60005b83811015611418578181015183820152602001611400565b50506000910152565b60208152600082518060208401526114408160408501602087016113fd565b601f01601f19169190910160400192915050565b60006001600160401b0383111561146d5761146d611176565b611480601f8401601f191660200161118c565b905082815283838301111561149457600080fd5b828260208301376000602084830101529392505050565b600060208083850312156114be57600080fd5b82356001600160401b03808211156114d557600080fd5b818501915085601f8301126114e957600080fd5b81356114f7611200826111bc565b81815260059190911b8301840190848101908883111561151657600080fd5b8585015b83811015611563578035858111156115325760008081fd5b8601603f81018b136115445760008081fd5b6115558b8983013560408401611454565b84525091860191860161151a565b5098975050505050505050565b6000806000806080858703121561158657600080fd5b843593506020850135925061159d604086016112e6565b9396929550929360600135925050565b600060208083850312156115c057600080fd5b82356001600160401b038111156115d657600080fd5b8301601f810185136115e757600080fd5b80356115f5611200826111bc565b81815260059190911b8201830190838101908783111561161457600080fd5b928401925b8284101561163257833582529284019290840190611619565b979650505050505050565b60008060006060848603121561165257600080fd5b61165b846112ca565b92506020840135915060408401356001600160401b0381111561167d57600080fd5b8401601f8101861361168e57600080fd5b61169d86823560208401611454565b9150509250925092565b6000806000604084860312156116bc57600080fd5b8335925060208401356001600160401b038111156116d957600080fd5b6116e5868287016112fe565b9497909650939450505050565b6000806040838503121561170557600080fd5b50508035926020909101359150565b60008060006060848603121561172957600080fd5b833592506020808501356001600160401b038082111561174857600080fd5b818701915087601f83011261175c57600080fd5b813561176a611200826111bc565b81815260059190911b8301840190848101908a83111561178957600080fd5b938501935b828510156117ae5761179f856112ca565b8252938501939085019061178e565b9650505060408701359250808311156117c657600080fd5b505061169d868287016111df565b6020808252600e908201526d417272617920697320656d70747960901b604082015260600190565b634e487b7160e01b600052601160045260246000fd5b80820180821115611170576111706117fc565b634e487b7160e01b600052601260045260246000fd5b60008261184a5761184a611825565b500490565b8082028115828204841417611170576111706117fc565b81810381811115611170576111706117fc565b634e487b7160e01b600052603260045260246000fd5b6000600182016118a1576118a16117fc565b5060010190565b81835281816020850137506000828201602090810191909152601f909101601f19169091010190565b6001600160a01b038a81168252602082018a905260408201899052871660608201526001600160e01b03198616608082015260a0810185905260c0810184905261010060e0820181905260009061192b83820185876118a8565b9c9b505050505050505050505050565b60006020828403121561194d57600080fd5b8151801515811461116d57600080fd5b634e487b7160e01b600052600160045260246000fd5b815160009082906020808601845b8381101561199d57815185529382019390820190600101611981565b50929695505050505050565b6000826119b8576119b8611825565b500690565b600082516119cf8184602087016113fd565b9190910192915050565b6020808252601b908201527f4d757374206861766520612076616c6964207265717565737449640000000000604082015260600190565b6020808252818101527f4d7573742070726f7669646520636f6e73756d657220656e6f75676820676173604082015260600190565b838152604060208201526000611a5f6040830184866118a8565b95945050505050565b6000606082018583526020606081850152818651808452608086019150828801935060005b81811015611ab25784516001600160a01b031683529383019391830191600101611a8d565b50508481036040860152855180825290820192508186019060005b81811015611ae957825185529383019391830191600101611acd565b50929897505050505050505056fea2646970667358221220200814050e33e0b9409d5f36b8aff0107bf19e6ad8461c564e8083e6a85247c964736f6c63430008110033",
    "linkReferences": {}
  },
  "methodIdentifiers": {
    "EXPIRY_TIME()": "4b602282",
    "cancelOracleRequest(bytes32,uint256,bytes4,uint256)": "6ee4d553",
    "convertIntToBytes32Array(int256[])": "715d342f",
    "convertStringToBytes32Array(string[])": "5fdb23ca",
    "convertToBytes(uint256)": "466703c5",
    "convertUintToBytes32(uint256[])": "3be2c1d8",
    "fulfillOracleFundingRateRequest(bytes32,address[],uint256[])": "f00e8e35",
    "fulfillOracleOjectRequest(bytes32,bytes32)": "e030ba66",
    "fulfillOracleStatusRequest(bytes32,string)": "c5e639ca",
    "getChainlinkToken()": "165d35e1",
    "onTokenTransfer(address,uint256,bytes)": "a4c0ed36",
    "oracleRequest(address,uint256,bytes32,address,bytes4,uint256,uint256,bytes)": "40429946",
    "uintToBytes32(uint256)": "886d3db9"
  },
  "id": 1
}