{
  "abi": [
    {
      "inputs": [
        {
          "internalType": "address",
          "name": "_link",
          "type": "address"
        }
      ],
      "stateMutability": "nonpayable",
      "type": "constructor"
    },
    {
      "anonymous": false,
      "inputs": [
        {
          "indexed": true,
          "internalType": "bytes32",
          "name": "requestId",
          "type": "bytes32"
        }
      ],
      "name": "CancelOracleRequest",
      "type": "event"
    },
    {
      "anonymous": false,
      "inputs": [
        {
          "indexed": true,
          "internalType": "bytes32",
          "name": "specId",
          "type": "bytes32"
        },
        {
          "indexed": false,
          "internalType": "address",
          "name": "requester",
          "type": "address"
        },
        {
          "indexed": false,
          "internalType": "bytes32",
          "name": "requestId",
          "type": "bytes32"
        },
        {
          "indexed": false,
          "internalType": "uint256",
          "name": "payment",
          "type": "uint256"
        },
        {
          "indexed": false,
          "internalType": "address",
          "name": "callbackAddr",
          "type": "address"
        },
        {
          "indexed": false,
          "internalType": "bytes4",
          "name": "callbackFunctionId",
          "type": "bytes4"
        },
        {
          "indexed": false,
          "internalType": "uint256",
          "name": "cancelExpiration",
          "type": "uint256"
        },
        {
          "indexed": false,
          "internalType": "uint256",
          "name": "dataVersion",
          "type": "uint256"
        },
        {
          "indexed": false,
          "internalType": "bytes",
          "name": "data",
          "type": "bytes"
        }
      ],
      "name": "OracleRequest",
      "type": "event"
    },
    {
      "inputs": [],
      "name": "EXPIRY_TIME",
      "outputs": [
        {
          "internalType": "uint256",
          "name": "",
          "type": "uint256"
        }
      ],
      "stateMutability": "view",
      "type": "function"
    },
    {
      "inputs": [
        {
          "internalType": "bytes32",
          "name": "_requestId",
          "type": "bytes32"
        },
        {
          "internalType": "uint256",
          "name": "_payment",
          "type": "uint256"
        },
        {
          "internalType": "bytes4",
          "name": "",
          "type": "bytes4"
        },
        {
          "internalType": "uint256",
          "name": "_expiration",
          "type": "uint256"
        }
      ],
      "name": "cancelOracleRequest",
      "outputs": [],
      "stateMutability": "nonpayable",
      "type": "function"
    },
    {
      "inputs": [
        {
          "internalType": "int256[]",
          "name": "intArray",
          "type": "int256[]"
        }
      ],
      "name": "convertIntToBytes32Array",
      "outputs": [
        {
          "internalType": "bytes32[]",
          "name": "",
          "type": "bytes32[]"
        }
      ],
      "stateMutability": "pure",
      "type": "function"
    },
    {
      "inputs": [
        {
          "internalType": "string[]",
          "name": "stringArray",
          "type": "string[]"
        }
      ],
      "name": "convertStringToBytes32Array",
      "outputs": [
        {
          "internalType": "bytes32[]",
          "name": "",
          "type": "bytes32[]"
        }
      ],
      "stateMutability": "pure",
      "type": "function"
    },
    {
      "inputs": [
        {
          "internalType": "uint256",
          "name": "value",
          "type": "uint256"
        }
      ],
      "name": "convertToBytes",
      "outputs": [
        {
          "internalType": "bytes",
          "name": "",
          "type": "bytes"
        }
      ],
      "stateMutability": "pure",
      "type": "function"
    },
    {
      "inputs": [
        {
          "internalType": "uint256[]",
          "name": "uintArray",
          "type": "uint256[]"
        }
      ],
      "name": "convertUintToBytes32",
      "outputs": [
        {
          "internalType": "bytes32[]",
          "name": "",
          "type": "bytes32[]"
        }
      ],
      "stateMutability": "pure",
      "type": "function"
    },
    {
      "inputs": [
        {
          "internalType": "bytes32",
          "name": "_requestId",
          "type": "bytes32"
        },
        {
          "internalType": "address[]",
          "name": "_addresses",
          "type": "address[]"
        },
        {
          "internalType": "uint256[]",
          "name": "_marketCapShares",
          "type": "uint256[]"
        }
      ],
      "name": "fulfillOracleFundingRateRequest",
      "outputs": [
        {
          "internalType": "bool",
          "name": "",
          "type": "bool"
        }
      ],
      "stateMutability": "nonpayable",
      "type": "function"
    },
    {
      "inputs": [
        {
          "internalType": "bytes32",
          "name": "_requestId",
          "type": "bytes32"
        },
        {
          "internalType": "bytes32",
          "name": "_data",
          "type": "bytes32"
        }
      ],
      "name": "fulfillOracleOjectRequest",
      "outputs": [
        {
          "internalType": "bool",
          "name": "",
          "type": "bool"
        }
      ],
      "stateMutability": "nonpayable",
      "type": "function"
    },
    {
      "inputs": [
        {
          "internalType": "bytes32",
          "name": "_requestId",
          "type": "bytes32"
        },
        {
          "internalType": "string",
          "name": "_data",
          "type": "string"
        }
      ],
      "name": "fulfillOracleStatusRequest",
      "outputs": [
        {
          "internalType": "bool",
          "name": "",
          "type": "bool"
        }
      ],
      "stateMutability": "nonpayable",
      "type": "function"
    },
    {
      "inputs": [],
      "name": "getChainlinkToken",
      "outputs": [
        {
          "internalType": "address",
          "name": "",
          "type": "address"
        }
      ],
      "stateMutability": "view",
      "type": "function"
    },
    {
      "inputs": [
        {
          "internalType": "address",
          "name": "_sender",
          "type": "address"
        },
        {
          "internalType": "uint256",
          "name": "_amount",
          "type": "uint256"
        },
        {
          "internalType": "bytes",
          "name": "_data",
          "type": "bytes"
        }
      ],
      "name": "onTokenTransfer",
      "outputs": [],
      "stateMutability": "nonpayable",
      "type": "function"
    },
    {
      "inputs": [
        {
          "internalType": "address",
          "name": "_sender",
          "type": "address"
        },
        {
          "internalType": "uint256",
          "name": "_payment",
          "type": "uint256"
        },
        {
          "internalType": "bytes32",
          "name": "_specId",
          "type": "bytes32"
        },
        {
          "internalType": "address",
          "name": "_callbackAddress",
          "type": "address"
        },
        {
          "internalType": "bytes4",
          "name": "_callbackFunctionId",
          "type": "bytes4"
        },
        {
          "internalType": "uint256",
          "name": "_nonce",
          "type": "uint256"
        },
        {
          "internalType": "uint256",
          "name": "_dataVersion",
          "type": "uint256"
        },
        {
          "internalType": "bytes",
          "name": "_data",
          "type": "bytes"
        }
      ],
      "name": "oracleRequest",
      "outputs": [],
      "stateMutability": "nonpayable",
      "type": "function"
    },
    {
      "inputs": [
        {
          "internalType": "uint256",
          "name": "myUint",
          "type": "uint256"
        }
      ],
      "name": "uintToBytes32",
      "outputs": [
        {
          "internalType": "bytes32",
          "name": "myBytes32",
          "type": "bytes32"
        }
      ],
      "stateMutability": "pure",
      "type": "function"
    }
  ],
  "bytecode": {
    "object": "0x608060405234801561001057600080fd5b50604051611bf5380380611bf583398101604081905261002f91610054565b600080546001600160a01b0319166001600160a01b0392909216919091179055610084565b60006020828403121561006657600080fd5b81516001600160a01b038116811461007d57600080fd5b9392505050565b611b62806100936000396000f3fe608060405234801561001057600080fd5b50600436106100cf5760003560e01c80636ee4d5531161008c578063a4c0ed3611610066578063a4c0ed36146101aa578063c5e639ca146101bd578063e030ba66146101e0578063f00e8e35146101f357600080fd5b80636ee4d55314610173578063715d342f14610186578063886d3db91461019957600080fd5b8063165d35e1146100d45780633be2c1d8146100f45780634042994614610114578063466703c5146101295780634b602282146101495780635fdb23ca14610160575b600080fd5b6000546040516001600160a01b0390911681526020015b60405180910390f35b610107610102366004611524565b610206565b6040516100eb91906117f1565b6101276101223660046112bb565b6103c0565b005b61013c6101373660046116f3565b610603565b6040516100eb91906118e7565b61015261012c81565b6040519081526020016100eb565b61010761016e36600461145a565b610631565b6101276101813660046116b6565b6106ff565b6101076101943660046113c3565b61087c565b6101526101a73660046116f3565b90565b6101276101b8366004611359565b61099e565b6101d06101cb36600461166b565b610b76565b60405190151581526020016100eb565b6101d06101ee366004611649565b610cdc565b6101d0610201366004611582565b610e40565b8051606090806102315760405162461bcd60e51b815260040161022890611951565b60405180910390fd5b6000602061024083601f611a01565b61024a9190611a19565b90506000816001600160401b0381111561026657610266611b16565b60405190808252806020026020018201604052801561028f578160200160208202803683370190505b50905060005b828110156103b75760006102aa826020611a2d565b905060006102b9826020611a01565b9050858111156102c65750845b60006102d28383611a4c565b6001600160401b038111156102e9576102e9611b16565b604051908082528060200260200182016040528015610312578160200160208202803683370190505b509050825b828110156103735789818151811061033157610331611b00565b60200260200101518285836103469190611a4c565b8151811061035657610356611b00565b60209081029190910101528061036b81611a8f565b915050610317565b50600061037f8261108a565b90508086868151811061039457610394611b00565b6020026020010181815250505050505080806103af90611a8f565b915050610295565b50949350505050565b6000546001600160a01b031633146104105760405162461bcd60e51b815260206004820152601360248201527226bab9ba103ab9b2902624a725903a37b5b2b760691b6044820152606401610228565b60005486906001600160a01b03808316911614156104705760405162461bcd60e51b815260206004820152601760248201527f43616e6e6f742063616c6c6261636b20746f204c494e4b0000000000000000006044820152606401610228565b6040516bffffffffffffffffffffffff1960608c901b1660208201526034810186905260009060540160408051601f198184030181529181528151602092830120600081815260019093529120549091506001600160a01b03161561050e5760405162461bcd60e51b8152602060048201526014602482015273135d5cdd081d5cd94818481d5b9a5c5d5948125160621b6044820152606401610228565b600061051c4261012c61111d565b905060405180604001604052808a6001600160a01b03168152602001896001600160e01b0319168152506001600084815260200190815260200160002060008201518160000160006101000a8154816001600160a01b0302191690836001600160a01b0316021790555060208201518160000160146101000a81548163ffffffff021916908360e01c0217905550905050897fd8d7ecc4800d25fa53ce0372f13a416d98907a7ef3d8d3bdd79cf4fe75529c658d848e8d8d878d8d8d6040516105ed99989796959493929190611787565b60405180910390a2505050505050505050505050565b606060008260405160200161061a91815260200190565b60408051601f198184030181529190529392505050565b8051606090806106535760405162461bcd60e51b815260040161022890611951565b6000816001600160401b0381111561066d5761066d611b16565b604051908082528060200260200182016040528015610696578160200160208202803683370190505b50905060005b828110156106f7576106c88582815181106106b9576106b9611b00565b60200260200101516020015190565b8282815181106106da576106da611b00565b6020908102919091010152806106ef81611a8f565b91505061069c565b509392505050565b6000848152600160205260409020546001600160a01b031661075a5760405162461bcd60e51b8152602060048201526014602482015273135d5cdd081d5cd94818481d5b9a5c5d5948125160621b6044820152606401610228565b428111156107a35760405162461bcd60e51b815260206004820152601660248201527514995c5d595cdd081a5cc81b9bdd08195e1c1a5c995960521b6044820152606401610228565b60008481526001602052604080822080546001600160c01b03191690555185917fa7842b9ec549398102c0d91b1b9919b2f20558aefdadf57528a95c6cd3292e9391a260005460405163a9059cbb60e01b8152336004820152602481018590526001600160a01b039091169063a9059cbb90604401602060405180830381600087803b15801561083257600080fd5b505af1158015610846573d6000803e3d6000fd5b505050506040513d601f19601f8201168201806040525081019061086a9190611560565b61087657610876611abe565b50505050565b60606000826040516020016108919190611735565b60408051601f198184030181529190528351909150806108c35760405162461bcd60e51b815260040161022890611951565b602082516108d19190611aaa565b156109155760405162461bcd60e51b8152602060048201526014602482015273092dcecc2d8d2c840c2e4e4c2f240d8cadccee8d60631b6044820152606401610228565b6000816001600160401b0381111561092f5761092f611b16565b604051908082528060200260200182016040528015610958578160200160208202803683370190505b50905060005b828110156103b75760208082028501015182828151811061098157610981611b00565b60209081029190910101528061099681611a8f565b91505061095e565b6000546001600160a01b031633146109ee5760405162461bcd60e51b815260206004820152601360248201527226bab9ba103ab9b2902624a725903a37b5b2b760691b6044820152606401610228565b806109fb60026020611a2d565b610a06906004611a01565b81511015610a4f5760405162461bcd60e51b8152602060048201526016602482015275092dcecc2d8d2c840e4cae2eacae6e840d8cadccee8d60531b6044820152606401610228565b602082015182906001600160e01b031981166320214ca360e11b14610ab65760405162461bcd60e51b815260206004820152601e60248201527f4d757374207573652077686974656c69737465642066756e6374696f6e7300006044820152606401610228565b8560248501528460448501526000306001600160a01b031685604051610adc919061176b565b600060405180830381855af49150503d8060008114610b17576040519150601f19603f3d011682016040523d82523d6000602084013e610b1c565b606091505b5050905080610b6d5760405162461bcd60e51b815260206004820152601860248201527f556e61626c6520746f20637265617465207265717565737400000000000000006044820152606401610228565b50505050505050565b60008381526001602052604081205484906001600160a01b0316610bac5760405162461bcd60e51b81526004016102289061191a565b6000858152600160208181526040808420815180830190925280546001600160a01b03811683526001600160e01b0319600160a01b820460e01b1683850152948a9052929091526001600160c01b0319909216905562061a805a1015610c245760405162461bcd60e51b815260040161022890611979565b600081600001516001600160a01b03168260200151888888604051602401610c4e939291906118c4565b60408051601f198184030181529181526020820180516001600160e01b03166001600160e01b0319909416939093179092529051610c8c919061176b565b6000604051808303816000865af19150503d8060008114610cc9576040519150601f19603f3d011682016040523d82523d6000602084013e610cce565b606091505b509098975050505050505050565b60008281526001602052604081205483906001600160a01b0316610d125760405162461bcd60e51b81526004016102289061191a565b6000848152600160208181526040808420815180830190925280546001600160a01b03811683526001600160e01b0319600160a01b820460e01b168385015294899052929091526001600160c01b0319909216905562061a805a1015610d8a5760405162461bcd60e51b815260040161022890611979565b8051602082015160405160248101889052604481018790526000926001600160a01b0316919060640160408051601f198184030181529181526020820180516001600160e01b03166001600160e01b0319909416939093179092529051610df1919061176b565b6000604051808303816000865af19150503d8060008114610e2e576040519150601f19603f3d011682016040523d82523d6000602084013e610e33565b606091505b5090979650505050505050565b60008381526001602052604081205484906001600160a01b0316610e765760405162461bcd60e51b81526004016102289061191a565b6000858152600160208181526040808420815180830190925280546001600160a01b03811683526001600160e01b0319600160a01b820460e01b1683850152948a9052929091526001600160c01b0319909216905562061a805a1015610eee5760405162461bcd60e51b815260040161022890611979565b60408051600180825281830190925260009160208083019080368337019050509050600081600081518110610f2557610f25611b00565b6001600160a01b03929092166020928302919091019091015260408051600180825281830190925260009181602001602082028036833701905050905068056bc75e2d6310000081600081518110610f7f57610f7f611b00565b6020908102919091010152604080516001808252818301909252600091816020016020820280368337019050509050600381600081518110610fc357610fc3611b00565b602002602001018181525050600084600001516001600160a01b031685602001518b8b8b604051602401610ff993929190611835565b60408051601f198184030181529181526020820180516001600160e01b03166001600160e01b0319909416939093179092529051611037919061176b565b6000604051808303816000865af19150503d8060008114611074576040519150601f19603f3d011682016040523d82523d6000602084013e611079565b606091505b50909b9a5050505050505050505050565b6000808251602061109b9190611a2d565b6001600160401b038111156110b2576110b2611b16565b6040519080825280601f01601f1916602001820160405280156110dc576020820181803683370190505b50905060005b8351811015611112576020810260200184015160208202602001830152808061110a90611a8f565b9150506110e2565b506020015192915050565b60008061112a8385611a01565b90508381101561117c5760405162461bcd60e51b815260206004820152601b60248201527f536166654d6174683a206164646974696f6e206f766572666c6f7700000000006044820152606401610228565b9392505050565b60006001600160401b0383111561119c5761119c611b16565b6111af601f8401601f19166020016119ae565b90508281528383830111156111c357600080fd5b828260208301376000602084830101529392505050565b80356001600160a01b03811681146111f157600080fd5b919050565b600082601f83011261120757600080fd5b8135602061121c611217836119de565b6119ae565b80838252828201915082860187848660051b890101111561123c57600080fd5b60005b85811015610e335781358452928401929084019060010161123f565b80356001600160e01b0319811681146111f157600080fd5b60008083601f84011261128557600080fd5b5081356001600160401b0381111561129c57600080fd5b6020830191508360208285010111156112b457600080fd5b9250929050565b60008060008060008060008060006101008a8c0312156112da57600080fd5b6112e38a6111da565b985060208a0135975060408a013596506112ff60608b016111da565b955061130d60808b0161125b565b945060a08a0135935060c08a0135925060e08a01356001600160401b0381111561133657600080fd5b6113428c828d01611273565b915080935050809150509295985092959850929598565b60008060006060848603121561136e57600080fd5b611377846111da565b92506020840135915060408401356001600160401b0381111561139957600080fd5b8401601f810186136113aa57600080fd5b6113b986823560208401611183565b9150509250925092565b600060208083850312156113d657600080fd5b82356001600160401b038111156113ec57600080fd5b8301601f810185136113fd57600080fd5b803561140b611217826119de565b80828252848201915084840188868560051b870101111561142b57600080fd5b600094505b8385101561144e578035835260019490940193918501918501611430565b50979650505050505050565b6000602080838503121561146d57600080fd5b82356001600160401b038082111561148457600080fd5b818501915085601f83011261149857600080fd5b81356114a6611217826119de565b80828252858201915085850189878560051b88010111156114c657600080fd5b60005b84811015611515578135868111156114e057600080fd5b8701603f81018c136114f157600080fd5b6115028c8a83013560408401611183565b85525092870192908701906001016114c9565b50909998505050505050505050565b60006020828403121561153657600080fd5b81356001600160401b0381111561154c57600080fd5b611558848285016111f6565b949350505050565b60006020828403121561157257600080fd5b8151801515811461117c57600080fd5b60008060006060848603121561159757600080fd5b833592506020808501356001600160401b03808211156115b657600080fd5b818701915087601f8301126115ca57600080fd5b81356115d8611217826119de565b8082825285820191508585018b878560051b88010111156115f857600080fd5b600095505b838610156116225761160e816111da565b8352600195909501949186019186016115fd565b5096505050604087013592508083111561163b57600080fd5b50506113b9868287016111f6565b6000806040838503121561165c57600080fd5b50508035926020909101359150565b60008060006040848603121561168057600080fd5b8335925060208401356001600160401b0381111561169d57600080fd5b6116a986828701611273565b9497909650939450505050565b600080600080608085870312156116cc57600080fd5b84359350602085013592506116e36040860161125b565b9396929550929360600135925050565b60006020828403121561170557600080fd5b5035919050565b81835281816020850137506000828201602090810191909152601f909101601f19169091010190565b815160009082906020808601845b8381101561175f57815185529382019390820190600101611743565b50929695505050505050565b6000825161177d818460208701611a63565b9190910192915050565b6001600160a01b038a81168252602082018a905260408201899052871660608201526001600160e01b03198616608082015260a0810185905260c0810184905261010060e082018190526000906117e1838201858761170c565b9c9b505050505050505050505050565b6020808252825182820181905260009190848201906040850190845b818110156118295783518352928401929184019160010161180d565b50909695505050505050565b6000606082018583526020606081850152818651808452608086019150828801935060005b8181101561187f5784516001600160a01b03168352938301939183019160010161185a565b50508481036040860152855180825290820192508186019060005b818110156118b65782518552938301939183019160010161189a565b509298975050505050505050565b8381526040602082015260006118de60408301848661170c565b95945050505050565b6020815260008251806020840152611906816040850160208701611a63565b601f01601f19169190910160400192915050565b6020808252601b908201527f4d757374206861766520612076616c6964207265717565737449640000000000604082015260600190565b6020808252600e908201526d417272617920697320656d70747960901b604082015260600190565b6020808252818101527f4d7573742070726f7669646520636f6e73756d657220656e6f75676820676173604082015260600190565b604051601f8201601f191681016001600160401b03811182821017156119d6576119d6611b16565b604052919050565b60006001600160401b038211156119f7576119f7611b16565b5060051b60200190565b60008219821115611a1457611a14611ad4565b500190565b600082611a2857611a28611aea565b500490565b6000816000190483118215151615611a4757611a47611ad4565b500290565b600082821015611a5e57611a5e611ad4565b500390565b60005b83811015611a7e578181015183820152602001611a66565b838111156108765750506000910152565b6000600019821415611aa357611aa3611ad4565b5060010190565b600082611ab957611ab9611aea565b500690565b634e487b7160e01b600052600160045260246000fd5b634e487b7160e01b600052601160045260246000fd5b634e487b7160e01b600052601260045260246000fd5b634e487b7160e01b600052603260045260246000fd5b634e487b7160e01b600052604160045260246000fdfea264697066735822122060aa28c4ca1c09c1bdf8b9a87a8ead078f9941e9972b138c8c230efddc7fd66b64736f6c63430008070033",
    "linkReferences": {}
  },
  "methodIdentifiers": {
    "EXPIRY_TIME()": "4b602282",
    "cancelOracleRequest(bytes32,uint256,bytes4,uint256)": "6ee4d553",
    "convertIntToBytes32Array(int256[])": "715d342f",
    "convertStringToBytes32Array(string[])": "5fdb23ca",
    "convertToBytes(uint256)": "466703c5",
    "convertUintToBytes32(uint256[])": "3be2c1d8",
    "fulfillOracleFundingRateRequest(bytes32,address[],uint256[])": "f00e8e35",
    "fulfillOracleOjectRequest(bytes32,bytes32)": "e030ba66",
    "fulfillOracleStatusRequest(bytes32,string)": "c5e639ca",
    "getChainlinkToken()": "165d35e1",
    "onTokenTransfer(address,uint256,bytes)": "a4c0ed36",
    "oracleRequest(address,uint256,bytes32,address,bytes4,uint256,uint256,bytes)": "40429946",
    "uintToBytes32(uint256)": "886d3db9"
  },
  "id": 6
}