{
  "abi": [
    {
      "anonymous": false,
      "inputs": [
        {
          "indexed": true,
          "internalType": "uint256",
          "name": "nonce",
          "type": "uint256"
        },
        {
          "indexed": true,
          "internalType": "address",
          "name": "requester",
          "type": "address"
        },
        {
          "indexed": false,
          "internalType": "uint256",
          "name": "amount",
          "type": "uint256"
        },
        {
          "indexed": false,
          "internalType": "address[]",
          "name": "depositAddresses",
          "type": "address[]"
        },
        {
          "indexed": false,
          "internalType": "uint256",
          "name": "timestamp",
          "type": "uint256"
        },
        {
          "indexed": false,
          "internalType": "bytes32",
          "name": "inputRequestHash",
          "type": "bytes32"
        }
      ],
      "name": "BurnConfirmed",
      "type": "event"
    },
    {
      "anonymous": false,
      "inputs": [
        {
          "indexed": true,
          "internalType": "uint256",
          "name": "nonce",
          "type": "uint256"
        },
        {
          "indexed": true,
          "internalType": "address",
          "name": "requester",
          "type": "address"
        },
        {
          "indexed": false,
          "internalType": "uint256",
          "name": "amount",
          "type": "uint256"
        },
        {
          "indexed": false,
          "internalType": "address[]",
          "name": "depositAddresses",
          "type": "address[]"
        },
        {
          "indexed": false,
          "internalType": "uint256",
          "name": "timestamp",
          "type": "uint256"
        },
        {
          "indexed": false,
          "internalType": "bytes32",
          "name": "requestHash",
          "type": "bytes32"
        }
      ],
      "name": "Burned",
      "type": "event"
    },
    {
      "anonymous": false,
      "inputs": [
        {
          "indexed": true,
          "internalType": "bytes32",
          "name": "id",
          "type": "bytes32"
        }
      ],
      "name": "ChainlinkCancelled",
      "type": "event"
    },
    {
      "anonymous": false,
      "inputs": [
        {
          "indexed": true,
          "internalType": "bytes32",
          "name": "id",
          "type": "bytes32"
        }
      ],
      "name": "ChainlinkFulfilled",
      "type": "event"
    },
    {
      "anonymous": false,
      "inputs": [
        {
          "indexed": true,
          "internalType": "bytes32",
          "name": "id",
          "type": "bytes32"
        }
      ],
      "name": "ChainlinkRequested",
      "type": "event"
    },
    {
      "anonymous": false,
      "inputs": [
        {
          "indexed": true,
          "internalType": "address",
          "name": "custodian",
          "type": "address"
        }
      ],
      "name": "CustodianSet",
      "type": "event"
    },
    {
      "anonymous": false,
      "inputs": [
        {
          "indexed": false,
          "internalType": "uint8",
          "name": "version",
          "type": "uint8"
        }
      ],
      "name": "Initialized",
      "type": "event"
    },
    {
      "anonymous": false,
      "inputs": [
        {
          "indexed": true,
          "internalType": "address",
          "name": "merchant",
          "type": "address"
        },
        {
          "indexed": true,
          "internalType": "address",
          "name": "sender",
          "type": "address"
        },
        {
          "indexed": false,
          "internalType": "address",
          "name": "depositAddress",
          "type": "address"
        }
      ],
      "name": "IssuerDepositAddressSet",
      "type": "event"
    },
    {
      "anonymous": false,
      "inputs": [
        {
          "indexed": true,
          "internalType": "address",
          "name": "issuer",
          "type": "address"
        }
      ],
      "name": "IssuerSet",
      "type": "event"
    },
    {
      "anonymous": false,
      "inputs": [
        {
          "indexed": true,
          "internalType": "address",
          "name": "merchant",
          "type": "address"
        },
        {
          "indexed": false,
          "internalType": "address",
          "name": "depositAddress",
          "type": "address"
        }
      ],
      "name": "MerchantDepositAddressSet",
      "type": "event"
    },
    {
      "anonymous": false,
      "inputs": [
        {
          "indexed": true,
          "internalType": "uint256",
          "name": "nonce",
          "type": "uint256"
        },
        {
          "indexed": true,
          "internalType": "address",
          "name": "requester",
          "type": "address"
        },
        {
          "indexed": false,
          "internalType": "uint256",
          "name": "amount",
          "type": "uint256"
        },
        {
          "indexed": false,
          "internalType": "address[]",
          "name": "depositAddresses",
          "type": "address[]"
        },
        {
          "indexed": false,
          "internalType": "uint256",
          "name": "timestamp",
          "type": "uint256"
        },
        {
          "indexed": false,
          "internalType": "bytes32",
          "name": "requestHash",
          "type": "bytes32"
        }
      ],
      "name": "MintConfirmed",
      "type": "event"
    },
    {
      "anonymous": false,
      "inputs": [
        {
          "indexed": true,
          "internalType": "uint256",
          "name": "nonce",
          "type": "uint256"
        },
        {
          "indexed": true,
          "internalType": "address",
          "name": "requester",
          "type": "address"
        },
        {
          "indexed": false,
          "internalType": "uint256",
          "name": "amount",
          "type": "uint256"
        },
        {
          "indexed": false,
          "internalType": "address[]",
          "name": "depositAddresses",
          "type": "address[]"
        },
        {
          "indexed": false,
          "internalType": "uint256",
          "name": "timestamp",
          "type": "uint256"
        },
        {
          "indexed": false,
          "internalType": "bytes32",
          "name": "requestHash",
          "type": "bytes32"
        }
      ],
      "name": "MintRejected",
      "type": "event"
    },
    {
      "anonymous": false,
      "inputs": [
        {
          "indexed": true,
          "internalType": "uint256",
          "name": "nonce",
          "type": "uint256"
        },
        {
          "indexed": true,
          "internalType": "address",
          "name": "requester",
          "type": "address"
        },
        {
          "indexed": false,
          "internalType": "uint256",
          "name": "amount",
          "type": "uint256"
        },
        {
          "indexed": false,
          "internalType": "address[]",
          "name": "depositAddresses",
          "type": "address[]"
        },
        {
          "indexed": false,
          "internalType": "uint256",
          "name": "timestamp",
          "type": "uint256"
        },
        {
          "indexed": false,
          "internalType": "bytes32",
          "name": "requestHash",
          "type": "bytes32"
        }
      ],
      "name": "MintRequestAdd",
      "type": "event"
    },
    {
      "anonymous": false,
      "inputs": [
        {
          "indexed": true,
          "internalType": "uint256",
          "name": "nonce",
          "type": "uint256"
        },
        {
          "indexed": true,
          "internalType": "address",
          "name": "requester",
          "type": "address"
        },
        {
          "indexed": false,
          "internalType": "bytes32",
          "name": "requestHash",
          "type": "bytes32"
        }
      ],
      "name": "MintRequestCancel",
      "type": "event"
    },
    {
      "anonymous": false,
      "inputs": [
        {
          "indexed": true,
          "internalType": "address",
          "name": "nft",
          "type": "address"
        }
      ],
      "name": "NFTSet",
      "type": "event"
    },
    {
      "anonymous": false,
      "inputs": [
        {
          "indexed": true,
          "internalType": "address",
          "name": "previousOwner",
          "type": "address"
        },
        {
          "indexed": true,
          "internalType": "address",
          "name": "newOwner",
          "type": "address"
        }
      ],
      "name": "OwnershipTransferred",
      "type": "event"
    },
    {
      "anonymous": false,
      "inputs": [
        {
          "indexed": false,
          "internalType": "address",
          "name": "account",
          "type": "address"
        }
      ],
      "name": "Paused",
      "type": "event"
    },
    {
      "anonymous": false,
      "inputs": [
        {
          "indexed": true,
          "internalType": "address",
          "name": "token",
          "type": "address"
        },
        {
          "indexed": false,
          "internalType": "uint256",
          "name": "time",
          "type": "uint256"
        }
      ],
      "name": "TokenAddressSet",
      "type": "event"
    },
    {
      "anonymous": false,
      "inputs": [
        {
          "indexed": false,
          "internalType": "address",
          "name": "account",
          "type": "address"
        }
      ],
      "name": "Unpaused",
      "type": "event"
    },
    {
      "anonymous": false,
      "inputs": [
        {
          "indexed": true,
          "internalType": "address",
          "name": "usdc",
          "type": "address"
        },
        {
          "indexed": true,
          "internalType": "uint8",
          "name": "decimals",
          "type": "uint8"
        },
        {
          "indexed": false,
          "internalType": "uint256",
          "name": "time",
          "type": "uint256"
        }
      ],
      "name": "UsdcAddressSet",
      "type": "event"
    },
    {
      "inputs": [
        {
          "internalType": "uint256",
          "name": "amount",
          "type": "uint256"
        },
        {
          "internalType": "address",
          "name": "user",
          "type": "address"
        }
      ],
      "name": "addMintRequest",
      "outputs": [
        {
          "internalType": "uint256",
          "name": "",
          "type": "uint256"
        },
        {
          "internalType": "bytes32",
          "name": "",
          "type": "bytes32"
        }
      ],
      "stateMutability": "nonpayable",
      "type": "function"
    },
    {
      "inputs": [
        {
          "internalType": "uint256",
          "name": "amount",
          "type": "uint256"
        },
        {
          "internalType": "address",
          "name": "user",
          "type": "address"
        }
      ],
      "name": "burn",
      "outputs": [
        {
          "internalType": "uint256",
          "name": "",
          "type": "uint256"
        },
        {
          "internalType": "bytes32",
          "name": "",
          "type": "bytes32"
        }
      ],
      "stateMutability": "nonpayable",
      "type": "function"
    },
    {
      "inputs": [
        {
          "internalType": "bytes32",
          "name": "",
          "type": "bytes32"
        }
      ],
      "name": "burnRequestNonce",
      "outputs": [
        {
          "internalType": "uint256",
          "name": "",
          "type": "uint256"
        }
      ],
      "stateMutability": "view",
      "type": "function"
    },
    {
      "inputs": [
        {
          "internalType": "uint256",
          "name": "",
          "type": "uint256"
        }
      ],
      "name": "burnRequests",
      "outputs": [
        {
          "internalType": "address",
          "name": "requester",
          "type": "address"
        },
        {
          "internalType": "uint256",
          "name": "amount",
          "type": "uint256"
        },
        {
          "internalType": "uint256",
          "name": "nonce",
          "type": "uint256"
        },
        {
          "internalType": "uint256",
          "name": "timestamp",
          "type": "uint256"
        },
        {
          "internalType": "enum IndexFactoryInterface.RequestStatus",
          "name": "status",
          "type": "uint8"
        }
      ],
      "stateMutability": "view",
      "type": "function"
    },
    {
      "inputs": [
        {
          "internalType": "string",
          "name": "a",
          "type": "string"
        },
        {
          "internalType": "string",
          "name": "b",
          "type": "string"
        }
      ],
      "name": "concatenation",
      "outputs": [
        {
          "internalType": "string",
          "name": "",
          "type": "string"
        }
      ],
      "stateMutability": "pure",
      "type": "function"
    },
    {
      "inputs": [
        {
          "internalType": "bytes32",
          "name": "requestHash",
          "type": "bytes32"
        }
      ],
      "name": "confirmBurnRequest",
      "outputs": [
        {
          "internalType": "bool",
          "name": "",
          "type": "bool"
        }
      ],
      "stateMutability": "nonpayable",
      "type": "function"
    },
    {
      "inputs": [
        {
          "internalType": "bytes32",
          "name": "requestHash",
          "type": "bytes32"
        },
        {
          "internalType": "uint256",
          "name": "_tokenAmount",
          "type": "uint256"
        }
      ],
      "name": "confirmMintRequest",
      "outputs": [
        {
          "internalType": "bool",
          "name": "",
          "type": "bool"
        }
      ],
      "stateMutability": "nonpayable",
      "type": "function"
    },
    {
      "inputs": [],
      "name": "custodianWallet",
      "outputs": [
        {
          "internalType": "address",
          "name": "",
          "type": "address"
        }
      ],
      "stateMutability": "view",
      "type": "function"
    },
    {
      "inputs": [],
      "name": "externalJobId",
      "outputs": [
        {
          "internalType": "bytes32",
          "name": "",
          "type": "bytes32"
        }
      ],
      "stateMutability": "view",
      "type": "function"
    },
    {
      "inputs": [],
      "name": "feeRate",
      "outputs": [
        {
          "internalType": "uint8",
          "name": "",
          "type": "uint8"
        }
      ],
      "stateMutability": "view",
      "type": "function"
    },
    {
      "inputs": [
        {
          "internalType": "bytes32",
          "name": "requestId",
          "type": "bytes32"
        },
        {
          "internalType": "address[]",
          "name": "_addresses",
          "type": "address[]"
        },
        {
          "internalType": "uint256[]",
          "name": "_marketShares",
          "type": "uint256[]"
        }
      ],
      "name": "fulfillAssetsData",
      "outputs": [],
      "stateMutability": "nonpayable",
      "type": "function"
    },
    {
      "inputs": [],
      "name": "getAllBurnRequests",
      "outputs": [
        {
          "components": [
            {
              "internalType": "address",
              "name": "requester",
              "type": "address"
            },
            {
              "internalType": "uint256",
              "name": "amount",
              "type": "uint256"
            },
            {
              "internalType": "address[]",
              "name": "depositAddresses",
              "type": "address[]"
            },
            {
              "internalType": "uint256",
              "name": "nonce",
              "type": "uint256"
            },
            {
              "internalType": "uint256",
              "name": "timestamp",
              "type": "uint256"
            },
            {
              "internalType": "enum IndexFactoryInterface.RequestStatus",
              "name": "status",
              "type": "uint8"
            }
          ],
          "internalType": "struct IndexFactoryInterface.Request[]",
          "name": "",
          "type": "tuple[]"
        }
      ],
      "stateMutability": "view",
      "type": "function"
    },
    {
      "inputs": [],
      "name": "getAllCustodianWallets",
      "outputs": [
        {
          "internalType": "address[]",
          "name": "",
          "type": "address[]"
        }
      ],
      "stateMutability": "view",
      "type": "function"
    },
    {
      "inputs": [],
      "name": "getAllMintRequests",
      "outputs": [
        {
          "components": [
            {
              "internalType": "address",
              "name": "requester",
              "type": "address"
            },
            {
              "internalType": "uint256",
              "name": "amount",
              "type": "uint256"
            },
            {
              "internalType": "address[]",
              "name": "depositAddresses",
              "type": "address[]"
            },
            {
              "internalType": "uint256",
              "name": "nonce",
              "type": "uint256"
            },
            {
              "internalType": "uint256",
              "name": "timestamp",
              "type": "uint256"
            },
            {
              "internalType": "enum IndexFactoryInterface.RequestStatus",
              "name": "status",
              "type": "uint8"
            }
          ],
          "internalType": "struct IndexFactoryInterface.Request[]",
          "name": "",
          "type": "tuple[]"
        }
      ],
      "stateMutability": "view",
      "type": "function"
    },
    {
      "inputs": [
        {
          "internalType": "uint256",
          "name": "nonce",
          "type": "uint256"
        }
      ],
      "name": "getBurnRequest",
      "outputs": [
        {
          "internalType": "uint256",
          "name": "requestNonce",
          "type": "uint256"
        },
        {
          "internalType": "address",
          "name": "requester",
          "type": "address"
        },
        {
          "internalType": "uint256",
          "name": "amount",
          "type": "uint256"
        },
        {
          "internalType": "address[]",
          "name": "depositAddresses",
          "type": "address[]"
        },
        {
          "internalType": "uint256",
          "name": "timestamp",
          "type": "uint256"
        },
        {
          "internalType": "string",
          "name": "status",
          "type": "string"
        },
        {
          "internalType": "bytes32",
          "name": "requestHash",
          "type": "bytes32"
        }
      ],
      "stateMutability": "view",
      "type": "function"
    },
    {
      "inputs": [],
      "name": "getBurnRequestsLength",
      "outputs": [
        {
          "internalType": "uint256",
          "name": "length",
          "type": "uint256"
        }
      ],
      "stateMutability": "view",
      "type": "function"
    },
    {
      "inputs": [
        {
          "internalType": "uint256",
          "name": "nonce",
          "type": "uint256"
        }
      ],
      "name": "getMintRequest",
      "outputs": [
        {
          "internalType": "uint256",
          "name": "requestNonce",
          "type": "uint256"
        },
        {
          "internalType": "address",
          "name": "requester",
          "type": "address"
        },
        {
          "internalType": "uint256",
          "name": "amount",
          "type": "uint256"
        },
        {
          "internalType": "address[]",
          "name": "depositAddresses",
          "type": "address[]"
        },
        {
          "internalType": "uint256",
          "name": "timestamp",
          "type": "uint256"
        },
        {
          "internalType": "string",
          "name": "status",
          "type": "string"
        },
        {
          "internalType": "bytes32",
          "name": "requestHash",
          "type": "bytes32"
        }
      ],
      "stateMutability": "view",
      "type": "function"
    },
    {
      "inputs": [],
      "name": "getMintRequestsLength",
      "outputs": [
        {
          "internalType": "uint256",
          "name": "length",
          "type": "uint256"
        }
      ],
      "stateMutability": "view",
      "type": "function"
    },
    {
      "inputs": [
        {
          "internalType": "address",
          "name": "_custodianWallet",
          "type": "address"
        },
        {
          "internalType": "address",
          "name": "_issuer",
          "type": "address"
        },
        {
          "internalType": "address",
          "name": "_token",
          "type": "address"
        },
        {
          "internalType": "address",
          "name": "_usdc",
          "type": "address"
        },
        {
          "internalType": "uint8",
          "name": "_usdcDecimals",
          "type": "uint8"
        },
        {
          "internalType": "address",
          "name": "_nft",
          "type": "address"
        },
        {
          "internalType": "address",
          "name": "_chainlinkToken",
          "type": "address"
        },
        {
          "internalType": "address",
          "name": "_oracleAddress",
          "type": "address"
        },
        {
          "internalType": "bytes32",
          "name": "_externalJobId",
          "type": "bytes32"
        }
      ],
      "name": "initialize",
      "outputs": [],
      "stateMutability": "nonpayable",
      "type": "function"
    },
    {
      "inputs": [],
      "name": "issuer",
      "outputs": [
        {
          "internalType": "address",
          "name": "",
          "type": "address"
        }
      ],
      "stateMutability": "view",
      "type": "function"
    },
    {
      "inputs": [],
      "name": "lastUpdateTime",
      "outputs": [
        {
          "internalType": "uint256",
          "name": "",
          "type": "uint256"
        }
      ],
      "stateMutability": "view",
      "type": "function"
    },
    {
      "inputs": [],
      "name": "latestFeeUpdate",
      "outputs": [
        {
          "internalType": "uint256",
          "name": "",
          "type": "uint256"
        }
      ],
      "stateMutability": "view",
      "type": "function"
    },
    {
      "inputs": [
        {
          "internalType": "bytes32",
          "name": "",
          "type": "bytes32"
        }
      ],
      "name": "mintRequestNonce",
      "outputs": [
        {
          "internalType": "uint256",
          "name": "",
          "type": "uint256"
        }
      ],
      "stateMutability": "view",
      "type": "function"
    },
    {
      "inputs": [
        {
          "internalType": "uint256",
          "name": "",
          "type": "uint256"
        }
      ],
      "name": "mintRequests",
      "outputs": [
        {
          "internalType": "address",
          "name": "requester",
          "type": "address"
        },
        {
          "internalType": "uint256",
          "name": "amount",
          "type": "uint256"
        },
        {
          "internalType": "uint256",
          "name": "nonce",
          "type": "uint256"
        },
        {
          "internalType": "uint256",
          "name": "timestamp",
          "type": "uint256"
        },
        {
          "internalType": "enum IndexFactoryInterface.RequestStatus",
          "name": "status",
          "type": "uint8"
        }
      ],
      "stateMutability": "view",
      "type": "function"
    },
    {
      "inputs": [
        {
          "internalType": "address[]",
          "name": "_addresses",
          "type": "address[]"
        },
        {
          "internalType": "uint256[]",
          "name": "_marketShares",
          "type": "uint256[]"
        }
      ],
      "name": "mockFillAssetsList",
      "outputs": [],
      "stateMutability": "nonpayable",
      "type": "function"
    },
    {
      "inputs": [],
      "name": "nft",
      "outputs": [
        {
          "internalType": "contract RequestNFT",
          "name": "",
          "type": "address"
        }
      ],
      "stateMutability": "view",
      "type": "function"
    },
    {
      "inputs": [
        {
          "internalType": "uint256",
          "name": "",
          "type": "uint256"
        }
      ],
      "name": "oracleCustodianList",
      "outputs": [
        {
          "internalType": "address",
          "name": "",
          "type": "address"
        }
      ],
      "stateMutability": "view",
      "type": "function"
    },
    {
      "inputs": [],
      "name": "oraclePayment",
      "outputs": [
        {
          "internalType": "uint256",
          "name": "",
          "type": "uint256"
        }
      ],
      "stateMutability": "view",
      "type": "function"
    },
    {
      "inputs": [
        {
          "internalType": "uint256",
          "name": "",
          "type": "uint256"
        }
      ],
      "name": "oracleShareList",
      "outputs": [
        {
          "internalType": "uint256",
          "name": "",
          "type": "uint256"
        }
      ],
      "stateMutability": "view",
      "type": "function"
    },
    {
      "inputs": [],
      "name": "owner",
      "outputs": [
        {
          "internalType": "address",
          "name": "",
          "type": "address"
        }
      ],
      "stateMutability": "view",
      "type": "function"
    },
    {
      "inputs": [],
      "name": "pause",
      "outputs": [],
      "stateMutability": "nonpayable",
      "type": "function"
    },
    {
      "inputs": [],
      "name": "paused",
      "outputs": [
        {
          "internalType": "bool",
          "name": "",
          "type": "bool"
        }
      ],
      "stateMutability": "view",
      "type": "function"
    },
    {
      "inputs": [],
      "name": "renounceOwnership",
      "outputs": [],
      "stateMutability": "nonpayable",
      "type": "function"
    },
    {
      "inputs": [],
      "name": "requestAssetsData",
      "outputs": [
        {
          "internalType": "bytes32",
          "name": "",
          "type": "bytes32"
        }
      ],
      "stateMutability": "nonpayable",
      "type": "function"
    },
    {
      "inputs": [
        {
          "internalType": "address",
          "name": "_custodianWallet",
          "type": "address"
        }
      ],
      "name": "setCustodianWallet",
      "outputs": [
        {
          "internalType": "bool",
          "name": "",
          "type": "bool"
        }
      ],
      "stateMutability": "nonpayable",
      "type": "function"
    },
    {
      "inputs": [
        {
          "internalType": "uint8",
          "name": "_newFee",
          "type": "uint8"
        }
      ],
      "name": "setFeeRate",
      "outputs": [],
      "stateMutability": "nonpayable",
      "type": "function"
    },
    {
      "inputs": [
        {
          "internalType": "address",
          "name": "_issuer",
          "type": "address"
        }
      ],
      "name": "setIssuer",
      "outputs": [
        {
          "internalType": "bool",
          "name": "",
          "type": "bool"
        }
      ],
      "stateMutability": "nonpayable",
      "type": "function"
    },
    {
      "inputs": [
        {
          "internalType": "address",
          "name": "_nft",
          "type": "address"
        }
      ],
      "name": "setNFT",
      "outputs": [
        {
          "internalType": "bool",
          "name": "",
          "type": "bool"
        }
      ],
      "stateMutability": "nonpayable",
      "type": "function"
    },
    {
      "inputs": [
        {
          "internalType": "address",
          "name": "_token",
          "type": "address"
        }
      ],
      "name": "setTokenAddress",
      "outputs": [
        {
          "internalType": "bool",
          "name": "",
          "type": "bool"
        }
      ],
      "stateMutability": "nonpayable",
      "type": "function"
    },
    {
      "inputs": [
        {
          "internalType": "string",
          "name": "_beforeAddress",
          "type": "string"
        },
        {
          "internalType": "string",
          "name": "_afterAddress",
          "type": "string"
        }
      ],
      "name": "setUrl",
      "outputs": [],
      "stateMutability": "nonpayable",
      "type": "function"
    },
    {
      "inputs": [
        {
          "internalType": "address",
          "name": "_usdc",
          "type": "address"
        },
        {
          "internalType": "uint8",
          "name": "_usdcDecimals",
          "type": "uint8"
        }
      ],
      "name": "setUsdcAddress",
      "outputs": [
        {
          "internalType": "bool",
          "name": "",
          "type": "bool"
        }
      ],
      "stateMutability": "nonpayable",
      "type": "function"
    },
    {
      "inputs": [],
      "name": "token",
      "outputs": [
        {
          "internalType": "contract IndexToken",
          "name": "",
          "type": "address"
        }
      ],
      "stateMutability": "view",
      "type": "function"
    },
    {
      "inputs": [],
      "name": "totalOracleList",
      "outputs": [
        {
          "internalType": "uint256",
          "name": "",
          "type": "uint256"
        }
      ],
      "stateMutability": "view",
      "type": "function"
    },
    {
      "inputs": [
        {
          "internalType": "address",
          "name": "newOwner",
          "type": "address"
        }
      ],
      "name": "transferOwnership",
      "outputs": [],
      "stateMutability": "nonpayable",
      "type": "function"
    },
    {
      "inputs": [],
      "name": "unpause",
      "outputs": [],
      "stateMutability": "nonpayable",
      "type": "function"
    },
    {
      "inputs": [],
      "name": "usdc",
      "outputs": [
        {
          "internalType": "address",
          "name": "",
          "type": "address"
        }
      ],
      "stateMutability": "view",
      "type": "function"
    },
    {
      "inputs": [],
      "name": "usdcDecimals",
      "outputs": [
        {
          "internalType": "uint8",
          "name": "",
          "type": "uint8"
        }
      ],
      "stateMutability": "view",
      "type": "function"
    }
  ],
  "bytecode": {
    "object": "0x608060405234801561001057600080fd5b50613f5f806100206000396000f3fe608060405234801561001057600080fd5b50600436106102955760003560e01c80638456cb5911610167578063c72551be116100ce578063f14bea2011610087578063f14bea20146105df578063f2fde38b146105f2578063f56e9c6614610605578063f89b8f2314610618578063fc0c546a14610640578063fcd3533c1461065357600080fd5b8063c72551be14610574578063c8599ded14610594578063c8f33c911461059d578063e21c40c0146105a6578063e9d3e21f146105b9578063eab2a711146105cc57600080fd5b8063a73e1cbf11610120578063a73e1cbf146104d6578063a8b54bd4146104e9578063addc70d1146104f2578063b69b22d814610505578063b9a5575b1461052b578063c22759401461054b57600080fd5b80638456cb59146104615780638da5cb5b14610469578063978bbdb91461047a5780639ad4b86b1461048e5780639cc0fb5b146104ae578063a34003f4146104c157600080fd5b806347ccca021161020b57806364a9b8f7116101c457806364a9b8f71461040857806364c70d451461041b578063715018a61461042357806372f69a721461042b5780637bf42165146104335780637ca58c551461045957600080fd5b806347ccca021461039e5780635177942a146103b157806355cc4e57146103c45780635c975abb146103d757806360daba33146103e25780636406c10c146103f557600080fd5b80631e7aa9f41161025d5780631e7aa9f41461031d57806326a4e8d214610332578063311104f3146103555780633e413bee1461035d5780633f4ba83a14610370578063424e65751461037a57600080fd5b8063011ced5f1461029a5780630c02e130146102b65780630e329357146102bf5780631d143848146102df5780631e106e991461030a575b600080fd5b6102a360ae5481565b6040519081526020015b60405180910390f35b6102a360a05481565b6102d26102cd3660046137cc565b610666565b6040516102ad9190613afa565b60a7546102f2906001600160a01b031681565b6040516001600160a01b0390911681526020016102ad565b60a6546102f2906001600160a01b031681565b610325610693565b6040516102ad9190613a44565b610345610340366004613544565b6107af565b60405190151581526020016102ad565b60ab546102a3565b60a8546102f2906001600160a01b031681565b610378610866565b005b61038d6103883660046136b8565b610878565b6040516102ad9594939291906139ff565b60ad546102f2906001600160a01b031681565b6103786103bf366004613848565b6108c6565b6103456103d2366004613544565b610a10565b606b5460ff16610345565b6103456103f03660046136b8565b610ab8565b61038d6104033660046136b8565b610bd4565b61034561041636600461373d565b610be4565b610325610d64565b610378610e77565b60ac546102a3565b60a85461044790600160a01b900460ff1681565b60405160ff90911681526020016102ad565b6102a3610e89565b6103786110c9565b6039546001600160a01b03166102f2565b60a85461044790600160a81b900460ff1681565b6102a361049c3660046136b8565b60a96020526000908152604090205481565b6103456104bc366004613544565b6110d9565b6104c9611188565b6040516102ad9190613a31565b6103786104e43660046137cc565b61123e565b6102a3609f5481565b610378610500366004613633565b611272565b6105186105133660046136b8565b611327565b6040516102ad9796959493929190613b86565b6102a36105393660046136b8565b60a46020526000908152604090205481565b6102f26105593660046136b8565b60a3602052600090815260409020546001600160a01b031681565b6102a36105823660046136b8565b60aa6020526000908152604090205481565b6102a360a25481565b6102a360a15481565b6105186105b43660046136b8565b611472565b6103786105c736600461355f565b611618565b6103456105da366004613600565b611870565b6103786105ed3660046136d1565b611933565b610378610600366004613544565b611a9e565b610345610613366004613544565b611b17565b61062b610626366004613825565b611bbc565b604080519283526020830191909152016102ad565b60a5546102f2906001600160a01b031681565b61062b610661366004613825565b611f48565b6060828260405160200161067b929190613906565b60405160208183030381529060405290505b92915050565b606060ac805480602002602001604051908101604052809291908181526020016000905b828210156107a65760008481526020908190206040805160c0810182526006860290920180546001600160a01b03168352600181015483850152600281018054835181870281018701855281815294959294938601939283018282801561074757602002820191906000526020600020905b81546001600160a01b03168152600190910190602001808311610729575b5050509183525050600382015460208201526004808301546040830152600583015460609092019160ff169081111561078257610782613e8f565b600481111561079357610793613e8f565b81525050815260200190600101906106b7565b50505050905090565b60006107b96122bb565b6001600160a01b03821661080c5760405162461bcd60e51b8152602060048201526015602482015274696e76616c696420746f6b656e206164647265737360581b60448201526064015b60405180910390fd5b60a580546001600160a01b0319166001600160a01b0384169081179091556040514281527f2d65e2eeacd42ac25aa023ad49c935dd4697a70e62b53317b7514f14096ff3899060200160405180910390a25060015b919050565b61086e6122bb565b610876612315565b565b60ab818154811061088857600080fd5b6000918252602090912060069091020180546001820154600383015460048401546005909401546001600160a01b0390931694509092909160ff1685565b6108ce6122bb565b600060ae54426108de9190613dbc565b9050600c603c6108ee8184613c9e565b6108f89190613c9e565b1161096b5760405162461bcd60e51b815260206004820152603960248201527f596f752073686f756c642077616974206174206c6561737420313220686f757260448201527f7320616674657220746865206c617465737420757064617465000000000000006064820152608401610803565b60648260ff1611158015610983575060018260ff1610155b6109eb5760405162461bcd60e51b815260206004820152603360248201527f546865206e65774665652073686f756c64206265206265747765656e203120616044820152726e64203130302028302e303125202d2031252960681b6064820152608401610803565b5060a8805460ff909216600160a81b0260ff60a81b199092169190911790554260ae55565b6000610a1a6122bb565b6001600160a01b038216610a695760405162461bcd60e51b8152602060048201526016602482015275696e76616c696420697373756572206164647265737360501b6044820152606401610803565b60a780546001600160a01b0319166001600160a01b0384169081179091556040517f141c634522c8bfcf25beba4c524ac0c87de0db74ebe83168cf5f3bf4d45fd89890600090a2506001919050565b60a7546000906001600160a01b03163314610b0c5760405162461bcd60e51b815260206004820152601460248201527339b2b73232b9103737ba10309034b9b9bab2b91760611b6044820152606401610803565b6000610b1661327a565b610b1f84612367565b8092508193505050600360ac8381548110610b3c57610b3c613ea5565b60009182526020909120600560069092020101805460ff19166001836004811115610b6957610b69613e8f565b021790555080600001516001600160a01b031681606001517ffa90590fee8622abdd363195477587c362cc162fbb631bb0430063f7fccccb4d83602001518460400151856080015189604051610bc29493929190613be0565b60405180910390a35060019392505050565b60ac818154811061088857600080fd5b60a7546000906001600160a01b03163314610c385760405162461bcd60e51b815260206004820152601460248201527339b2b73232b9103737ba10309034b9b9bab2b91760611b6044820152606401610803565b6000610c4261327a565b610c4b856124c2565b8092508193505050600360ab8381548110610c6857610c68613ea5565b60009182526020909120600560069092020101805460ff19166001836004811115610c9557610c95613e8f565b021790555060a55481516040516340c10f1960e01b81526001600160a01b039182166004820152602481018790529116906340c10f1990604401600060405180830381600087803b158015610ce957600080fd5b505af1158015610cfd573d6000803e3d6000fd5b5050505080600001516001600160a01b031681606001517f0f68b38538e0e8ee6fecbbedee04ccc18fcb16f18c260bcbe35e8b8bead6a87b86846040015185608001518a604051610d519493929190613be0565b60405180910390a3506001949350505050565b606060ab805480602002602001604051908101604052809291908181526020016000905b828210156107a65760008481526020908190206040805160c0810182526006860290920180546001600160a01b031683526001810154838501526002810180548351818702810187018552818152949592949386019392830182828015610e1857602002820191906000526020600020905b81546001600160a01b03168152600190910190602001808311610dfa575b5050509183525050600382015460208201526004808301546040830152600583015460609092019160ff1690811115610e5357610e53613e8f565b6004811115610e6457610e64613e8f565b8152505081526020019060010190610d88565b610e7f6122bb565b6108766000612534565b600080610faa609d8054610e9c90613dff565b80601f0160208091040260200160405190810160405280929190818152602001828054610ec890613dff565b8015610f155780601f10610eea57610100808354040283529160200191610f15565b820191906000526020600020905b815481529060010190602001808311610ef857829003601f168201915b5050505050609e8054610f2790613dff565b80601f0160208091040260200160405190810160405280929190818152602001828054610f5390613dff565b8015610fa05780601f10610f7557610100808354040283529160200191610fa0565b820191906000526020600020905b815481529060010190602001808311610f8357829003601f168201915b5050505050610666565b90506000610fc2609f543063f14bea2060e01b612586565b60408051808201909152600381526219d95d60ea1b6020820152909150610feb908290846125ab565b61104660405180604001604052806005815260200164706174683160d81b81525060405180604001604052806011815260200170726573756c74732c61646472657373657360781b815250836125ab9092919063ffffffff16565b6110a4604051806040016040528060058152602001643830ba341960d91b81525060405180604001604052806014815260200173726573756c74732c6d61726b657453686172657360601b815250836125ab9092919063ffffffff16565b6110c26110b96003546001600160a01b031690565b8260a0546125c9565b9250505090565b6110d16122bb565b61087661265c565b60006110e36122bb565b6001600160a01b0382166111395760405162461bcd60e51b815260206004820181905260248201527f696e76616c696420637573746f6469616e2077616c6c657420616464726573736044820152606401610803565b60a680546001600160a01b0319166001600160a01b0384169081179091556040517fb88c20a211c5d7677ba2a26c317d8ae6b25aa492016dc8ceca2469761d063d8090600090a2506001919050565b6060600060a2546001600160401b038111156111a6576111a6613ebb565b6040519080825280602002602001820160405280156111cf578160200160208202803683370190505b50905060005b60a25481101561123857600081815260a3602052604090205482516001600160a01b039091169083908390811061120e5761120e613ea5565b6001600160a01b03909216602092830291909101909101528061123081613e34565b9150506111d5565b50919050565b6112466122bb565b815161125990609d9060208501906132c9565b50805161126d90609e9060208401906132c9565b505050565b61127a6122bb565b818160005b82518110156113195782818151811061129a5761129a613ea5565b602002602001015160a3600083815260200190815260200160002060006101000a8154816001600160a01b0302191690836001600160a01b031602179055508381815181106112eb576112eb613ea5565b602090810291909101810151600083815260a49092526040909120558061131181613e34565b91505061127f565b50505160a25550504260a155565b600080600060606000606060008060ab898154811061134857611348613ea5565b60009182526020918290206040805160c081018252600690930290910180546001600160a01b0316835260018101548385015260028101805483518187028101870185528181529495929493860193928301828280156113d157602002820191906000526020600020905b81546001600160a01b031681526001909101906020018083116113b3575b5050509183525050600382015460208201526004808301546040830152600583015460609092019160ff169081111561140c5761140c613e8f565b600481111561141d5761141d613e8f565b81525050905060006114328260a00151612699565b90508160600151985081600001519750816020015196508160400151955081608001519450809350611463826127b5565b92505050919395979092949650565b600080600060606000606060008060ac898154811061149357611493613ea5565b6000918252602082206005600690920201908101549092506114b79060ff16612699565b60038301548354600185015460028601805460408051602080840282018101909252828152959f506001600160a01b039094169d50919b509394509192919083018282801561152f57602002820191906000526020600020905b81546001600160a01b03168152600190910190602001808311611511575b5050505060048401546040805160c08101825286546001600160a01b0316815260018701546020808301919091526002880180548451818402810184018652818152979d50949b5096995089966114639692955088949386019390918301828280156115c457602002820191906000526020600020905b81546001600160a01b031681526001909101906020018083116115a6575b5050509183525050600382015460208201526004808301546040830152600583015460609092019160ff16908111156115ff576115ff613e8f565b600481111561161057611610613e8f565b9052506127b5565b600654610100900460ff16158080156116385750600654600160ff909116105b806116525750303b158015611652575060065460ff166001145b6116b55760405162461bcd60e51b815260206004820152602e60248201527f496e697469616c697a61626c653a20636f6e747261637420697320616c72656160448201526d191e481a5b9a5d1a585b1a5e995960921b6064820152608401610803565b6006805460ff1916600117905580156116d8576006805461ff0019166101001790555b60a680546001600160a01b03808d166001600160a01b03199283161790925560a780548c841690831617905560a580548b841690831617905560a8805460ff8a16600160a01b026001600160a81b03199091168b85161717905560ad80549288169290911691909117905561174b6127fd565b61175361282c565b60a8805460ff60a81b1916600560a91b179055600280546001600160a01b0319166001600160a01b038616179055600380546001600160a01b0319166001600160a01b038516179055609f829055600a6117b6670de0b6b3a76400006001613d9d565b6117c09190613c9e565b60a0556040805160608101909152602a808252613ed2602083013980516117ef91609d916020909101906132c9565b506040518060600160405280602e8152602001613efc602e9139805161181d91609e916020909101906132c9565b508015611864576006805461ff0019169055604051600181527f7f26b83ff96e1f2b6a682f133852f6798a09c465da95921460cefb38474024989060200160405180910390a15b50505050505050505050565b600061187a6122bb565b6001600160a01b0383166118c85760405162461bcd60e51b8152602060048201526015602482015274696e76616c696420746f6b656e206164647265737360581b6044820152606401610803565b60a880546001600160a01b0385166001600160a81b03199091168117600160a01b60ff8616908102919091179092556040514281527f47f70abc5eafc71015adda71f3628949d17bd87cb6199008a1243dca856ceaaf9060200160405180910390a350600192915050565b60008381526005602052604090205483906001600160a01b031633146119ac5760405162461bcd60e51b815260206004820152602860248201527f536f75726365206d75737420626520746865206f7261636c65206f6620746865604482015267081c995c5d595cdd60c21b6064820152608401610803565b60008181526005602052604080822080546001600160a01b03191690555182917f7cc135e0cebb02c3480ae5d74d377283180a2601f8f644edf7987b009316c63a91a2828260005b8251811015611a8e57828181518110611a0f57611a0f613ea5565b602002602001015160a3600083815260200190815260200160002060006101000a8154816001600160a01b0302191690836001600160a01b03160217905550848181518110611a6057611a60613ea5565b602090810291909101810151600083815260a490925260409091205580611a8681613e34565b9150506119f4565b50505160a25550504260a1555050565b611aa66122bb565b6001600160a01b038116611b0b5760405162461bcd60e51b815260206004820152602660248201527f4f776e61626c653a206e6577206f776e657220697320746865207a65726f206160448201526564647265737360d01b6064820152608401610803565b611b1481612534565b50565b6000611b216122bb565b6001600160a01b038216611b6d5760405162461bcd60e51b8152602060048201526013602482015272696e76616c6964206e6674206164647265737360681b6044820152606401610803565b60ad80546001600160a01b0319166001600160a01b0384169081179091556040517f75fc4fdf6d5e94402ecc584683c37c192cfde2ea99b612d59a6864204919c7e490600090a2506001919050565b600080611bc761285b565b60a85460009061271090611be590600160a81b900460ff1687613d9d565b611bef9190613c9e565b90506000611bfd8287613c86565b905060005b60a254811015611c755760a854600082815260a3602090815260408083205460a490925290912054611c63926001600160a01b0390811692339291169068056bc75e2d6310000090611c54908d613d9d565b611c5e9190613c9e565b6128a1565b80611c6d81613e34565b915050611c02565b5060a854611c9f906001600160a01b031633611c996039546001600160a01b031690565b856128a1565b60ab54600042905060006040518060c00160405280896001600160a01b031681526020018a8152602001611cd1611188565b815260208101859052604081018490526060016001905290506000611cf5826127b5565b600081815260a96020908152604080832088905560ab8054600181018255935285517ffc377260a69a39dd786235c89f4bcd5d9639157731cac38071a0508750eb115a600690940293840180546001600160a01b0319166001600160a01b03909216919091178155868301517ffc377260a69a39dd786235c89f4bcd5d9639157731cac38071a0508750eb115b85015590860151805194955086949193611dc3937ffc377260a69a39dd786235c89f4bcd5d9639157731cac38071a0508750eb115c9091019291019061334d565b50606082015181600301556080820151816004015560a08201518160050160006101000a81548160ff02191690836004811115611e0257611e02613e8f565b02179055505060ad5460a554604080516306fdde0360e01b815290516001600160a01b0393841694506359a4326d93909216916306fdde0391600480820192600092909190829003018186803b158015611e5b57600080fd5b505afa158015611e6f573d6000803e3d6000fd5b505050506040513d6000823e601f3d908101601f19168201604052611e97919081019061375f565b8b8d6040518463ffffffff1660e01b8152600401611eb793929190613b0d565b600060405180830381600087803b158015611ed157600080fd5b505af1158015611ee5573d6000803e3d6000fd5b50505050886001600160a01b0316847f5451b00315df1843662f0967aa9d6ab74b6771df02cfb4a2ca70b0dddcf07ee68c611f1e611188565b8786604051611f309493929190613be0565b60405180910390a39299929850919650505050505050565b600080611f5361285b565b60ac54604080516001808252818301909252429160009190602080830190803683370190505090508581600081518110611f8f57611f8f613ea5565b60200260200101906001600160a01b031690816001600160a01b03168152505060006040518060c00160405280886001600160a01b0316815260200189815260200183815260200185815260200184815260200160016004811115611ff657611ff6613e8f565b905290506000612005826127b5565b600081815260aa6020908152604080832089905560ac8054600181018255935285517f0a0a1bcadd9f6a5539376fa82276e043ae3cb4499daaaf8136572ecb1f9f0d60600690940293840180546001600160a01b0319166001600160a01b03909216919091178155868301517f0a0a1bcadd9f6a5539376fa82276e043ae3cb4499daaaf8136572ecb1f9f0d61850155908601518051949550869491936120d3937f0a0a1bcadd9f6a5539376fa82276e043ae3cb4499daaaf8136572ecb1f9f0d629091019291019061334d565b50606082015181600301556080820151816004015560a08201518160050160006101000a81548160ff0219169083600481111561211257612112613e8f565b02179055505060a554604051632770a7eb60e21b8152336004820152602481018c90526001600160a01b039091169150639dc29fac90604401600060405180830381600087803b15801561216557600080fd5b505af1158015612179573d6000803e3d6000fd5b505060ad5460a554604080516306fdde0360e01b815290516001600160a01b03938416955063d7c63ed1945091909216916306fdde03916004808301926000929190829003018186803b1580156121cf57600080fd5b505afa1580156121e3573d6000803e3d6000fd5b505050506040513d6000823e601f3d908101601f1916820160405261220b919081019061375f565b8a8c6040518463ffffffff1660e01b815260040161222b93929190613b0d565b600060405180830381600087803b15801561224557600080fd5b505af1158015612259573d6000803e3d6000fd5b50505050876001600160a01b0316857f1e56929c494b9bcad8c67bdcb55f874da5cbe9c29b5bc0ab151ea2a3ad306a008b612292611188565b88866040516122a49493929190613be0565b60405180910390a393989397509295505050505050565b6039546001600160a01b031633146108765760405162461bcd60e51b815260206004820181905260248201527f4f776e61626c653a2063616c6c6572206973206e6f7420746865206f776e65726044820152606401610803565b61231d612901565b606b805460ff191690557f5db9ee0a495bf2e6ff9c91a7834c1ba4fdd244a5e8aa4e537bd38aeae4b073aa335b6040516001600160a01b03909116815260200160405180910390a1565b600061237161327a565b826123b25760405162461bcd60e51b81526020600482015260116024820152700726571756573742068617368206973203607c1b6044820152606401610803565b600083815260aa602052604090205460ac805491935090839081106123d9576123d9613ea5565b60009182526020918290206040805160c081018252600690930290910180546001600160a01b03168352600181015483850152600281018054835181870281018701855281815294959294938601939283018282801561246257602002820191906000526020600020905b81546001600160a01b03168152600190910190602001808311612444575b5050509183525050600382015460208201526004808301546040830152600583015460609092019160ff169081111561249d5761249d613e8f565b60048111156124ae576124ae613e8f565b90525090506124bd818461294a565b915091565b60006124cc61327a565b8261250d5760405162461bcd60e51b81526020600482015260116024820152700726571756573742068617368206973203607c1b6044820152606401610803565b600083815260a9602052604090205460ab805491935090839081106123d9576123d9613ea5565b603980546001600160a01b038381166001600160a01b0319831681179093556040519116919082907f8be0079c531659141344cd1fd0a4f28419497f9722a3daafe3b4186f6b6457e090600090a35050565b61258e6133a2565b6125966133a2565b6125a281868686612a1f565b95945050505050565b60808301516125ba9083612a65565b608083015161126d9082612a65565b6004546000906125da816001613c86565b600455835160408086015160808701515191516000936320214ca360e11b936126129386938493923092918a91600191602401613970565b60408051601f198184030181529190526020810180516001600160e01b03166001600160e01b031990931692909217909152905061265286838684612a7c565b9695505050505050565b61266461285b565b606b805460ff191660011790557f62e78cea01bee320cd4e420270b5ea74000d11b0c9f74754ebdbfc544b05a25861234a3390565b606060018260048111156126af576126af613e8f565b14156126d857505060408051808201909152600781526670656e64696e6760c81b602082015290565b60028260048111156126ec576126ec613e8f565b141561271657505060408051808201909152600881526718d85b98d95b195960c21b602082015290565b600382600481111561272a5761272a613e8f565b1415612754575050604080518082019091526008815267185c1c1c9bdd995960c21b602082015290565b600482600481111561276857612768613e8f565b14156127925750506040805180820190915260088152671c995a9958dd195960c21b602082015290565b50506040805180820190915260078152663ab735b737bbb760c91b602082015290565b80516020808301516040808501516060860151608087015192516000966127e0969095949101613935565b604051602081830303815290604052805190602001209050919050565b600654610100900460ff166128245760405162461bcd60e51b815260040161080390613b3b565b610876612be9565b600654610100900460ff166128535760405162461bcd60e51b815260040161080390613b3b565b610876612c19565b606b5460ff16156108765760405162461bcd60e51b815260206004820152601060248201526f14185d5cd8589b194e881c185d5cd95960821b6044820152606401610803565b604080516001600160a01b0385811660248301528416604482015260648082018490528251808303909101815260849091019091526020810180516001600160e01b03166323b872dd60e01b1790526128fb908590612c4c565b50505050565b606b5460ff166108765760405162461bcd60e51b815260206004820152601460248201527314185d5cd8589b194e881b9bdd081c185d5cd95960621b6044820152606401610803565b60018260a00151600481111561296257612962613e8f565b146129a85760405162461bcd60e51b815260206004820152601660248201527572657175657374206973206e6f742070656e64696e6760501b6044820152606401610803565b6129b1826127b5565b8114612a1b5760405162461bcd60e51b815260206004820152603360248201527f676976656e2072657175657374206861736820646f6573206e6f74206d6174636044820152721a0818481c195b991a5b99c81c995c5d595cdd606a1b6064820152608401610803565b5050565b612a276133a2565b612a378560800151610100612d21565b50508284526001600160a01b03821660208501526001600160e01b031981166040850152835b949350505050565b612a728260038351612d86565b61126d8282612e8d565b6040516bffffffffffffffffffffffff193060601b1660208201526034810184905260009060540160408051808303601f1901815282825280516020918201206000818152600590925291812080546001600160a01b0319166001600160a01b038a1617905590925082917fb5e6e01e79f91267dc17b4e6314d5d4d03593d2ceee0fbb452b750bd70ea5af99190a2600254604051630200057560e51b81526001600160a01b0390911690634000aea090612b3f908890879087906004016139d8565b602060405180830381600087803b158015612b5957600080fd5b505af1158015612b6d573d6000803e3d6000fd5b505050506040513d601f19601f82011682018060405250810190612b919190613696565b612a5d5760405162461bcd60e51b815260206004820152602360248201527f756e61626c6520746f207472616e73666572416e6443616c6c20746f206f7261604482015262636c6560e81b6064820152608401610803565b600654610100900460ff16612c105760405162461bcd60e51b815260040161080390613b3b565b61087633612534565b600654610100900460ff16612c405760405162461bcd60e51b815260040161080390613b3b565b606b805460ff19169055565b6000612ca1826040518060400160405280602081526020017f5361666545524332303a206c6f772d6c6576656c2063616c6c206661696c6564815250856001600160a01b0316612ebb9092919063ffffffff16565b9050805160001480612cc2575080806020019051810190612cc29190613696565b61126d5760405162461bcd60e51b815260206004820152602a60248201527f5361666545524332303a204552433230206f7065726174696f6e20646964206e6044820152691bdd081cdd58d8d9595960b21b6064820152608401610803565b604080518082019091526060815260006020820152612d41602083613e4f565b15612d6957612d51602083613e4f565b612d5c906020613dbc565b612d669083613c86565b91505b506020828101829052604080518085526000815290920101905290565b6017816001600160401b031611612daa576128fb8360e0600585901b168317612eca565b60ff816001600160401b031611612de657612dd0836018611fe0600586901b1617612eca565b506128fb836001600160401b0383166001612eef565b61ffff816001600160401b031611612e2357612e0d836019611fe0600586901b1617612eca565b506128fb836001600160401b0383166002612eef565b63ffffffff816001600160401b031611612e6257612e4c83601a611fe0600586901b1617612eca565b506128fb836001600160401b0383166004612eef565b612e7783601b611fe0600586901b1617612eca565b506128fb836001600160401b0383166008612eef565b604080518082019091526060815260006020820152612eb483846000015151848551612f15565b9392505050565b6060612a5d8484600085612fff565b604080518082019091526060815260006020820152612eb483846000015151846130da565b604080518082019091526060815260006020820152612a5d848560000151518585613136565b6040805180820190915260608152600060208201528251821115612f3857600080fd5b6020850151612f478386613c86565b1115612f7a57612f7a85612f6a87602001518786612f659190613c86565b6131b7565b612f75906002613d9d565b6131c8565b600080865180518760208301019350808887011115612f995787860182525b505050602084015b60208410612fd95780518252612fb8602083613c86565b9150612fc5602082613c86565b9050612fd2602085613dbc565b9350612fa1565b51815160001960208690036101000a019081169019919091161790525083949350505050565b6060824710156130605760405162461bcd60e51b815260206004820152602660248201527f416464726573733a20696e73756666696369656e742062616c616e636520666f6044820152651c8818d85b1b60d21b6064820152608401610803565b600080866001600160a01b0316858760405161307c91906138ea565b60006040518083038185875af1925050503d80600081146130b9576040519150601f19603f3d011682016040523d82523d6000602084013e6130be565b606091505b50915091506130cf878383876131df565b979650505050505050565b6040805180820190915260608152600060208201528360200151831061310f5761310f8485602001516002612f759190613d9d565b83518051602085830101848153508085141561312c576001810182525b5093949350505050565b604080518082019091526060815260006020820152602085015161315a8584613c86565b111561316e5761316e85612f6a8685613c86565b6000600161317e84610100613cf5565b6131889190613dbc565b90508551838682010185831982511617815250805184870111156131ac5783860181525b509495945050505050565b60008183111561123857508161068d565b81516131d48383612d21565b506128fb8382612e8d565b6060831561324b578251613244576001600160a01b0385163b6132445760405162461bcd60e51b815260206004820152601d60248201527f416464726573733a2063616c6c20746f206e6f6e2d636f6e74726163740000006044820152606401610803565b5081612a5d565b612a5d83838151156132605781518083602001fd5b8060405162461bcd60e51b81526004016108039190613afa565b6040518060c0016040528060006001600160a01b0316815260200160008152602001606081526020016000815260200160008152602001600060048111156132c4576132c4613e8f565b905290565b8280546132d590613dff565b90600052602060002090601f0160209004810192826132f7576000855561333d565b82601f1061331057805160ff191683800117855561333d565b8280016001018555821561333d579182015b8281111561333d578251825591602001919060010190613322565b506133499291506133dd565b5090565b82805482825590600052602060002090810192821561333d579160200282015b8281111561333d57825182546001600160a01b0319166001600160a01b0390911617825560209092019160019091019061336d565b6040805160a0810182526000808252602080830182905282840182905260608084018390528451808601909552845283015290608082015290565b5b8082111561334957600081556001016133de565b80356001600160a01b038116811461086157600080fd5b600082601f83011261341a57600080fd5b8135602061342f61342a83613c3c565b613c0c565b80838252828201915082860187848660051b890101111561344f57600080fd5b60005b8581101561347557613463826133f2565b84529284019290840190600101613452565b5090979650505050505050565b600082601f83011261349357600080fd5b813560206134a361342a83613c3c565b80838252828201915082860187848660051b89010111156134c357600080fd5b60005b85811015613475578135845292840192908401906001016134c6565b600082601f8301126134f357600080fd5b813561350161342a82613c5f565b81815284602083860101111561351657600080fd5b816020850160208301376000918101602001919091529392505050565b803560ff8116811461086157600080fd5b60006020828403121561355657600080fd5b612eb4826133f2565b60008060008060008060008060006101208a8c03121561357e57600080fd5b6135878a6133f2565b985061359560208b016133f2565b97506135a360408b016133f2565b96506135b160608b016133f2565b95506135bf60808b01613533565b94506135cd60a08b016133f2565b93506135db60c08b016133f2565b92506135e960e08b016133f2565b91506101008a013590509295985092959850929598565b6000806040838503121561361357600080fd5b61361c836133f2565b915061362a60208401613533565b90509250929050565b6000806040838503121561364657600080fd5b82356001600160401b038082111561365d57600080fd5b61366986838701613409565b9350602085013591508082111561367f57600080fd5b5061368c85828601613482565b9150509250929050565b6000602082840312156136a857600080fd5b81518015158114612eb457600080fd5b6000602082840312156136ca57600080fd5b5035919050565b6000806000606084860312156136e657600080fd5b8335925060208401356001600160401b038082111561370457600080fd5b61371087838801613409565b9350604086013591508082111561372657600080fd5b5061373386828701613482565b9150509250925092565b6000806040838503121561375057600080fd5b50508035926020909101359150565b60006020828403121561377157600080fd5b81516001600160401b0381111561378757600080fd5b8201601f8101841361379857600080fd5b80516137a661342a82613c5f565b8181528560208385010111156137bb57600080fd5b6125a2826020830160208601613dd3565b600080604083850312156137df57600080fd5b82356001600160401b03808211156137f657600080fd5b613802868387016134e2565b9350602085013591508082111561381857600080fd5b5061368c858286016134e2565b6000806040838503121561383857600080fd5b8235915061362a602084016133f2565b60006020828403121561385a57600080fd5b612eb482613533565b600081518084526020808501945080840160005b838110156131ac5781516001600160a01b031687529582019590820190600101613877565b600081518084526138b4816020860160208601613dd3565b601f01601f19169290920160200192915050565b600581106138e657634e487b7160e01b600052602160045260246000fd5b9052565b600082516138fc818460208701613dd3565b9190910192915050565b60008351613918818460208801613dd3565b83519083019061392c818360208801613dd3565b01949350505050565b60018060a01b038616815284602082015260a06040820152600061395c60a0830186613863565b606083019490945250608001529392505050565b6001600160a01b0389811682526020820189905260408201889052861660608201526001600160e01b03198516608082015260a0810184905260c0810183905261010060e082018190526000906139c98382018561389c565b9b9a5050505050505050505050565b60018060a01b03841681528260208201526060604082015260006125a2606083018461389c565b6001600160a01b038616815260208101859052604081018490526060810183905260a0810161265260808301846138c8565b602081526000612eb46020830184613863565b60006020808301818452808551808352604092508286019150828160051b87010184880160005b83811015613aec57888303603f19018552815180516001600160a01b0316845287810151888501528681015160c088860181905290613aac82870182613863565b606084810151908801526080808501519088015260a093840151939092509050613ad8818701846138c8565b509588019593505090860190600101613a6b565b509098975050505050505050565b602081526000612eb4602083018461389c565b606081526000613b20606083018661389c565b6001600160a01b039490941660208301525060400152919050565b6020808252602b908201527f496e697469616c697a61626c653a20636f6e7472616374206973206e6f74206960408201526a6e697469616c697a696e6760a81b606082015260800190565b87815260018060a01b038716602082015285604082015260e060608201526000613bb360e0830187613863565b85608084015282810360a0840152613bcb818661389c565b9150508260c083015298975050505050505050565b848152608060208201526000613bf96080830186613863565b6040830194909452506060015292915050565b604051601f8201601f191681016001600160401b0381118282101715613c3457613c34613ebb565b604052919050565b60006001600160401b03821115613c5557613c55613ebb565b5060051b60200190565b60006001600160401b03821115613c7857613c78613ebb565b50601f01601f191660200190565b60008219821115613c9957613c99613e63565b500190565b600082613cad57613cad613e79565b500490565b600181815b80851115613ced578160001904821115613cd357613cd3613e63565b80851615613ce057918102915b93841c9390800290613cb7565b509250929050565b6000612eb48383600082613d0b5750600161068d565b81613d185750600061068d565b8160018114613d2e5760028114613d3857613d54565b600191505061068d565b60ff841115613d4957613d49613e63565b50506001821b61068d565b5060208310610133831016604e8410600b8410161715613d77575081810a61068d565b613d818383613cb2565b8060001904821115613d9557613d95613e63565b029392505050565b6000816000190483118215151615613db757613db7613e63565b500290565b600082821015613dce57613dce613e63565b500390565b60005b83811015613dee578181015183820152602001613dd6565b838111156128fb5750506000910152565b600181811c90821680613e1357607f821691505b6020821081141561123857634e487b7160e01b600052602260045260246000fd5b6000600019821415613e4857613e48613e63565b5060010190565b600082613e5e57613e5e613e79565b500690565b634e487b7160e01b600052601160045260246000fd5b634e487b7160e01b600052601260045260246000fd5b634e487b7160e01b600052602160045260246000fd5b634e487b7160e01b600052603260045260246000fd5b634e487b7160e01b600052604160045260246000fdfe68747470733a2f2f6170702e6e65786c6162732e696f2f6170692f616c6c46756e64696e6752617465733f6d756c7469706c7946756e633d31382674696d65734e656746756e643d74727565266172726179733d74727565a264697066735822122043a4c476a4b45fc084c34a010952c99543fd447de0a449062c4c6b51b84f9ed764736f6c63430008070033",
    "linkReferences": {}
  },
  "methodIdentifiers": {
    "addMintRequest(uint256,address)": "f89b8f23",
    "burn(uint256,address)": "fcd3533c",
    "burnRequestNonce(bytes32)": "c72551be",
    "burnRequests(uint256)": "6406c10c",
    "concatenation(string,string)": "0e329357",
    "confirmBurnRequest(bytes32)": "60daba33",
    "confirmMintRequest(bytes32,uint256)": "64a9b8f7",
    "custodianWallet()": "1e106e99",
    "externalJobId()": "a8b54bd4",
    "feeRate()": "978bbdb9",
    "fulfillAssetsData(bytes32,address[],uint256[])": "f14bea20",
    "getAllBurnRequests()": "1e7aa9f4",
    "getAllCustodianWallets()": "a34003f4",
    "getAllMintRequests()": "64c70d45",
    "getBurnRequest(uint256)": "e21c40c0",
    "getBurnRequestsLength()": "72f69a72",
    "getMintRequest(uint256)": "b69b22d8",
    "getMintRequestsLength()": "311104f3",
    "initialize(address,address,address,address,uint8,address,address,address,bytes32)": "e9d3e21f",
    "issuer()": "1d143848",
    "lastUpdateTime()": "c8f33c91",
    "latestFeeUpdate()": "011ced5f",
    "mintRequestNonce(bytes32)": "9ad4b86b",
    "mintRequests(uint256)": "424e6575",
    "mockFillAssetsList(address[],uint256[])": "addc70d1",
    "nft()": "47ccca02",
    "oracleCustodianList(uint256)": "c2275940",
    "oraclePayment()": "0c02e130",
    "oracleShareList(uint256)": "b9a5575b",
    "owner()": "8da5cb5b",
    "pause()": "8456cb59",
    "paused()": "5c975abb",
    "renounceOwnership()": "715018a6",
    "requestAssetsData()": "7ca58c55",
    "setCustodianWallet(address)": "9cc0fb5b",
    "setFeeRate(uint8)": "5177942a",
    "setIssuer(address)": "55cc4e57",
    "setNFT(address)": "f56e9c66",
    "setTokenAddress(address)": "26a4e8d2",
    "setUrl(string,string)": "a73e1cbf",
    "setUsdcAddress(address,uint8)": "eab2a711",
    "token()": "fc0c546a",
    "totalOracleList()": "c8599ded",
    "transferOwnership(address)": "f2fde38b",
    "unpause()": "3f4ba83a",
    "usdc()": "3e413bee",
    "usdcDecimals()": "7bf42165"
  },
  "id": 1
}