{
  "abi": [
    {
      "anonymous": false,
      "inputs": [
        {
          "indexed": true,
          "internalType": "uint256",
          "name": "nonce",
          "type": "uint256"
        },
        {
          "indexed": true,
          "internalType": "address",
          "name": "requester",
          "type": "address"
        },
        {
          "indexed": false,
          "internalType": "uint256",
          "name": "amount",
          "type": "uint256"
        },
        {
          "indexed": false,
          "internalType": "address[]",
          "name": "depositAddresses",
          "type": "address[]"
        },
        {
          "indexed": false,
          "internalType": "uint256",
          "name": "timestamp",
          "type": "uint256"
        },
        {
          "indexed": false,
          "internalType": "bytes32",
          "name": "inputRequestHash",
          "type": "bytes32"
        }
      ],
      "name": "BurnConfirmed",
      "type": "event"
    },
    {
      "anonymous": false,
      "inputs": [
        {
          "indexed": true,
          "internalType": "uint256",
          "name": "nonce",
          "type": "uint256"
        },
        {
          "indexed": true,
          "internalType": "address",
          "name": "requester",
          "type": "address"
        },
        {
          "indexed": false,
          "internalType": "uint256",
          "name": "amount",
          "type": "uint256"
        },
        {
          "indexed": false,
          "internalType": "address[]",
          "name": "depositAddresses",
          "type": "address[]"
        },
        {
          "indexed": false,
          "internalType": "uint256",
          "name": "timestamp",
          "type": "uint256"
        },
        {
          "indexed": false,
          "internalType": "bytes32",
          "name": "requestHash",
          "type": "bytes32"
        }
      ],
      "name": "Burned",
      "type": "event"
    },
    {
      "anonymous": false,
      "inputs": [
        {
          "indexed": true,
          "internalType": "bytes32",
          "name": "id",
          "type": "bytes32"
        }
      ],
      "name": "ChainlinkCancelled",
      "type": "event"
    },
    {
      "anonymous": false,
      "inputs": [
        {
          "indexed": true,
          "internalType": "bytes32",
          "name": "id",
          "type": "bytes32"
        }
      ],
      "name": "ChainlinkFulfilled",
      "type": "event"
    },
    {
      "anonymous": false,
      "inputs": [
        {
          "indexed": true,
          "internalType": "bytes32",
          "name": "id",
          "type": "bytes32"
        }
      ],
      "name": "ChainlinkRequested",
      "type": "event"
    },
    {
      "anonymous": false,
      "inputs": [
        {
          "indexed": true,
          "internalType": "address",
          "name": "custodian",
          "type": "address"
        }
      ],
      "name": "CustodianSet",
      "type": "event"
    },
    {
      "anonymous": false,
      "inputs": [
        {
          "indexed": true,
          "internalType": "address[]",
          "name": "addresses",
          "type": "address[]"
        },
        {
          "indexed": false,
          "internalType": "uint256[]",
          "name": "marketShares",
          "type": "uint256[]"
        }
      ],
      "name": "ExchangeWalletsSet",
      "type": "event"
    },
    {
      "anonymous": false,
      "inputs": [
        {
          "indexed": false,
          "internalType": "uint8",
          "name": "version",
          "type": "uint8"
        }
      ],
      "name": "Initialized",
      "type": "event"
    },
    {
      "anonymous": false,
      "inputs": [
        {
          "indexed": true,
          "internalType": "address",
          "name": "merchant",
          "type": "address"
        },
        {
          "indexed": true,
          "internalType": "address",
          "name": "sender",
          "type": "address"
        },
        {
          "indexed": false,
          "internalType": "address",
          "name": "depositAddress",
          "type": "address"
        }
      ],
      "name": "IssuerDepositAddressSet",
      "type": "event"
    },
    {
      "anonymous": false,
      "inputs": [
        {
          "indexed": true,
          "internalType": "address",
          "name": "issuer",
          "type": "address"
        }
      ],
      "name": "IssuerSet",
      "type": "event"
    },
    {
      "anonymous": false,
      "inputs": [
        {
          "indexed": true,
          "internalType": "address",
          "name": "merchant",
          "type": "address"
        },
        {
          "indexed": false,
          "internalType": "address",
          "name": "depositAddress",
          "type": "address"
        }
      ],
      "name": "MerchantDepositAddressSet",
      "type": "event"
    },
    {
      "anonymous": false,
      "inputs": [
        {
          "indexed": true,
          "internalType": "uint256",
          "name": "nonce",
          "type": "uint256"
        },
        {
          "indexed": true,
          "internalType": "address",
          "name": "requester",
          "type": "address"
        },
        {
          "indexed": false,
          "internalType": "uint256",
          "name": "amount",
          "type": "uint256"
        },
        {
          "indexed": false,
          "internalType": "address[]",
          "name": "depositAddresses",
          "type": "address[]"
        },
        {
          "indexed": false,
          "internalType": "uint256",
          "name": "timestamp",
          "type": "uint256"
        },
        {
          "indexed": false,
          "internalType": "bytes32",
          "name": "requestHash",
          "type": "bytes32"
        }
      ],
      "name": "MintConfirmed",
      "type": "event"
    },
    {
      "anonymous": false,
      "inputs": [
        {
          "indexed": true,
          "internalType": "uint256",
          "name": "nonce",
          "type": "uint256"
        },
        {
          "indexed": true,
          "internalType": "address",
          "name": "requester",
          "type": "address"
        },
        {
          "indexed": false,
          "internalType": "uint256",
          "name": "amount",
          "type": "uint256"
        },
        {
          "indexed": false,
          "internalType": "address[]",
          "name": "depositAddresses",
          "type": "address[]"
        },
        {
          "indexed": false,
          "internalType": "uint256",
          "name": "timestamp",
          "type": "uint256"
        },
        {
          "indexed": false,
          "internalType": "bytes32",
          "name": "requestHash",
          "type": "bytes32"
        }
      ],
      "name": "MintRejected",
      "type": "event"
    },
    {
      "anonymous": false,
      "inputs": [
        {
          "indexed": true,
          "internalType": "uint256",
          "name": "nonce",
          "type": "uint256"
        },
        {
          "indexed": true,
          "internalType": "address",
          "name": "requester",
          "type": "address"
        },
        {
          "indexed": false,
          "internalType": "uint256",
          "name": "amount",
          "type": "uint256"
        },
        {
          "indexed": false,
          "internalType": "address[]",
          "name": "depositAddresses",
          "type": "address[]"
        },
        {
          "indexed": false,
          "internalType": "uint256",
          "name": "timestamp",
          "type": "uint256"
        },
        {
          "indexed": false,
          "internalType": "bytes32",
          "name": "requestHash",
          "type": "bytes32"
        }
      ],
      "name": "MintRequestAdd",
      "type": "event"
    },
    {
      "anonymous": false,
      "inputs": [
        {
          "indexed": true,
          "internalType": "uint256",
          "name": "nonce",
          "type": "uint256"
        },
        {
          "indexed": true,
          "internalType": "address",
          "name": "requester",
          "type": "address"
        },
        {
          "indexed": false,
          "internalType": "bytes32",
          "name": "requestHash",
          "type": "bytes32"
        }
      ],
      "name": "MintRequestCancel",
      "type": "event"
    },
    {
      "anonymous": false,
      "inputs": [
        {
          "indexed": true,
          "internalType": "address",
          "name": "nft",
          "type": "address"
        }
      ],
      "name": "NFTSet",
      "type": "event"
    },
    {
      "anonymous": false,
      "inputs": [
        {
          "indexed": true,
          "internalType": "address",
          "name": "previousOwner",
          "type": "address"
        },
        {
          "indexed": true,
          "internalType": "address",
          "name": "newOwner",
          "type": "address"
        }
      ],
      "name": "OwnershipTransferred",
      "type": "event"
    },
    {
      "anonymous": false,
      "inputs": [
        {
          "indexed": false,
          "internalType": "address",
          "name": "account",
          "type": "address"
        }
      ],
      "name": "Paused",
      "type": "event"
    },
    {
      "anonymous": false,
      "inputs": [
        {
          "indexed": true,
          "internalType": "address",
          "name": "token",
          "type": "address"
        },
        {
          "indexed": false,
          "internalType": "uint256",
          "name": "time",
          "type": "uint256"
        }
      ],
      "name": "TokenAddressSet",
      "type": "event"
    },
    {
      "anonymous": false,
      "inputs": [
        {
          "indexed": false,
          "internalType": "address",
          "name": "account",
          "type": "address"
        }
      ],
      "name": "Unpaused",
      "type": "event"
    },
    {
      "anonymous": false,
      "inputs": [
        {
          "indexed": true,
          "internalType": "address",
          "name": "usdc",
          "type": "address"
        },
        {
          "indexed": true,
          "internalType": "uint8",
          "name": "decimals",
          "type": "uint8"
        },
        {
          "indexed": false,
          "internalType": "uint256",
          "name": "time",
          "type": "uint256"
        }
      ],
      "name": "UsdcAddressSet",
      "type": "event"
    },
    {
      "inputs": [
        {
          "internalType": "uint256",
          "name": "amount",
          "type": "uint256"
        },
        {
          "internalType": "address",
          "name": "user",
          "type": "address"
        }
      ],
      "name": "addMintRequest",
      "outputs": [
        {
          "internalType": "uint256",
          "name": "",
          "type": "uint256"
        },
        {
          "internalType": "bytes32",
          "name": "",
          "type": "bytes32"
        }
      ],
      "stateMutability": "nonpayable",
      "type": "function"
    },
    {
      "inputs": [
        {
          "internalType": "uint256",
          "name": "amount",
          "type": "uint256"
        },
        {
          "internalType": "address",
          "name": "user",
          "type": "address"
        }
      ],
      "name": "burn",
      "outputs": [
        {
          "internalType": "uint256",
          "name": "",
          "type": "uint256"
        },
        {
          "internalType": "bytes32",
          "name": "",
          "type": "bytes32"
        }
      ],
      "stateMutability": "nonpayable",
      "type": "function"
    },
    {
      "inputs": [
        {
          "internalType": "bytes32",
          "name": "",
          "type": "bytes32"
        }
      ],
      "name": "burnRequestNonce",
      "outputs": [
        {
          "internalType": "uint256",
          "name": "",
          "type": "uint256"
        }
      ],
      "stateMutability": "view",
      "type": "function"
    },
    {
      "inputs": [
        {
          "internalType": "uint256",
          "name": "",
          "type": "uint256"
        }
      ],
      "name": "burnRequests",
      "outputs": [
        {
          "internalType": "address",
          "name": "requester",
          "type": "address"
        },
        {
          "internalType": "uint256",
          "name": "amount",
          "type": "uint256"
        },
        {
          "internalType": "uint256",
          "name": "nonce",
          "type": "uint256"
        },
        {
          "internalType": "uint256",
          "name": "timestamp",
          "type": "uint256"
        },
        {
          "internalType": "enum IndexFactoryInterface.RequestStatus",
          "name": "status",
          "type": "uint8"
        }
      ],
      "stateMutability": "view",
      "type": "function"
    },
    {
      "inputs": [
        {
          "internalType": "string",
          "name": "a",
          "type": "string"
        },
        {
          "internalType": "string",
          "name": "b",
          "type": "string"
        }
      ],
      "name": "concatenation",
      "outputs": [
        {
          "internalType": "string",
          "name": "",
          "type": "string"
        }
      ],
      "stateMutability": "pure",
      "type": "function"
    },
    {
      "inputs": [
        {
          "internalType": "bytes32",
          "name": "requestHash",
          "type": "bytes32"
        }
      ],
      "name": "confirmBurnRequest",
      "outputs": [
        {
          "internalType": "bool",
          "name": "",
          "type": "bool"
        }
      ],
      "stateMutability": "nonpayable",
      "type": "function"
    },
    {
      "inputs": [
        {
          "internalType": "bytes32",
          "name": "requestHash",
          "type": "bytes32"
        },
        {
          "internalType": "uint256",
          "name": "_tokenAmount",
          "type": "uint256"
        }
      ],
      "name": "confirmMintRequest",
      "outputs": [
        {
          "internalType": "bool",
          "name": "",
          "type": "bool"
        }
      ],
      "stateMutability": "nonpayable",
      "type": "function"
    },
    {
      "inputs": [],
      "name": "custodianWallet",
      "outputs": [
        {
          "internalType": "address",
          "name": "",
          "type": "address"
        }
      ],
      "stateMutability": "view",
      "type": "function"
    },
    {
      "inputs": [],
      "name": "externalJobId",
      "outputs": [
        {
          "internalType": "bytes32",
          "name": "",
          "type": "bytes32"
        }
      ],
      "stateMutability": "view",
      "type": "function"
    },
    {
      "inputs": [],
      "name": "feeRate",
      "outputs": [
        {
          "internalType": "uint8",
          "name": "",
          "type": "uint8"
        }
      ],
      "stateMutability": "view",
      "type": "function"
    },
    {
      "inputs": [
        {
          "internalType": "bytes32",
          "name": "requestId",
          "type": "bytes32"
        },
        {
          "internalType": "address[]",
          "name": "_addresses",
          "type": "address[]"
        },
        {
          "internalType": "uint256[]",
          "name": "_marketShares",
          "type": "uint256[]"
        }
      ],
      "name": "fulfillAssetsData",
      "outputs": [],
      "stateMutability": "nonpayable",
      "type": "function"
    },
    {
      "inputs": [],
      "name": "getAllBurnRequests",
      "outputs": [
        {
          "components": [
            {
              "internalType": "address",
              "name": "requester",
              "type": "address"
            },
            {
              "internalType": "uint256",
              "name": "amount",
              "type": "uint256"
            },
            {
              "internalType": "address[]",
              "name": "depositAddresses",
              "type": "address[]"
            },
            {
              "internalType": "uint256",
              "name": "nonce",
              "type": "uint256"
            },
            {
              "internalType": "uint256",
              "name": "timestamp",
              "type": "uint256"
            },
            {
              "internalType": "enum IndexFactoryInterface.RequestStatus",
              "name": "status",
              "type": "uint8"
            }
          ],
          "internalType": "struct IndexFactoryInterface.Request[]",
          "name": "",
          "type": "tuple[]"
        }
      ],
      "stateMutability": "view",
      "type": "function"
    },
    {
      "inputs": [],
      "name": "getAllCustodianWallets",
      "outputs": [
        {
          "internalType": "address[]",
          "name": "",
          "type": "address[]"
        }
      ],
      "stateMutability": "view",
      "type": "function"
    },
    {
      "inputs": [],
      "name": "getAllMintRequests",
      "outputs": [
        {
          "components": [
            {
              "internalType": "address",
              "name": "requester",
              "type": "address"
            },
            {
              "internalType": "uint256",
              "name": "amount",
              "type": "uint256"
            },
            {
              "internalType": "address[]",
              "name": "depositAddresses",
              "type": "address[]"
            },
            {
              "internalType": "uint256",
              "name": "nonce",
              "type": "uint256"
            },
            {
              "internalType": "uint256",
              "name": "timestamp",
              "type": "uint256"
            },
            {
              "internalType": "enum IndexFactoryInterface.RequestStatus",
              "name": "status",
              "type": "uint8"
            }
          ],
          "internalType": "struct IndexFactoryInterface.Request[]",
          "name": "",
          "type": "tuple[]"
        }
      ],
      "stateMutability": "view",
      "type": "function"
    },
    {
      "inputs": [
        {
          "internalType": "uint256",
          "name": "nonce",
          "type": "uint256"
        }
      ],
      "name": "getBurnRequest",
      "outputs": [
        {
          "internalType": "uint256",
          "name": "requestNonce",
          "type": "uint256"
        },
        {
          "internalType": "address",
          "name": "requester",
          "type": "address"
        },
        {
          "internalType": "uint256",
          "name": "amount",
          "type": "uint256"
        },
        {
          "internalType": "address[]",
          "name": "depositAddresses",
          "type": "address[]"
        },
        {
          "internalType": "uint256",
          "name": "timestamp",
          "type": "uint256"
        },
        {
          "internalType": "string",
          "name": "status",
          "type": "string"
        },
        {
          "internalType": "bytes32",
          "name": "requestHash",
          "type": "bytes32"
        }
      ],
      "stateMutability": "view",
      "type": "function"
    },
    {
      "inputs": [],
      "name": "getBurnRequestsLength",
      "outputs": [
        {
          "internalType": "uint256",
          "name": "length",
          "type": "uint256"
        }
      ],
      "stateMutability": "view",
      "type": "function"
    },
    {
      "inputs": [
        {
          "internalType": "uint256",
          "name": "nonce",
          "type": "uint256"
        }
      ],
      "name": "getMintRequest",
      "outputs": [
        {
          "internalType": "uint256",
          "name": "requestNonce",
          "type": "uint256"
        },
        {
          "internalType": "address",
          "name": "requester",
          "type": "address"
        },
        {
          "internalType": "uint256",
          "name": "amount",
          "type": "uint256"
        },
        {
          "internalType": "address[]",
          "name": "depositAddresses",
          "type": "address[]"
        },
        {
          "internalType": "uint256",
          "name": "timestamp",
          "type": "uint256"
        },
        {
          "internalType": "string",
          "name": "status",
          "type": "string"
        },
        {
          "internalType": "bytes32",
          "name": "requestHash",
          "type": "bytes32"
        }
      ],
      "stateMutability": "view",
      "type": "function"
    },
    {
      "inputs": [],
      "name": "getMintRequestsLength",
      "outputs": [
        {
          "internalType": "uint256",
          "name": "length",
          "type": "uint256"
        }
      ],
      "stateMutability": "view",
      "type": "function"
    },
    {
      "inputs": [
        {
          "internalType": "address",
          "name": "_custodianWallet",
          "type": "address"
        },
        {
          "internalType": "address",
          "name": "_issuer",
          "type": "address"
        },
        {
          "internalType": "address",
          "name": "_token",
          "type": "address"
        },
        {
          "internalType": "address",
          "name": "_usdc",
          "type": "address"
        },
        {
          "internalType": "uint8",
          "name": "_usdcDecimals",
          "type": "uint8"
        },
        {
          "internalType": "address",
          "name": "_nft",
          "type": "address"
        },
        {
          "internalType": "address",
          "name": "_chainlinkToken",
          "type": "address"
        },
        {
          "internalType": "address",
          "name": "_oracleAddress",
          "type": "address"
        },
        {
          "internalType": "bytes32",
          "name": "_externalJobId",
          "type": "bytes32"
        }
      ],
      "name": "initialize",
      "outputs": [],
      "stateMutability": "nonpayable",
      "type": "function"
    },
    {
      "inputs": [],
      "name": "issuer",
      "outputs": [
        {
          "internalType": "address",
          "name": "",
          "type": "address"
        }
      ],
      "stateMutability": "view",
      "type": "function"
    },
    {
      "inputs": [],
      "name": "lastUpdateTime",
      "outputs": [
        {
          "internalType": "uint256",
          "name": "",
          "type": "uint256"
        }
      ],
      "stateMutability": "view",
      "type": "function"
    },
    {
      "inputs": [],
      "name": "latestFeeUpdate",
      "outputs": [
        {
          "internalType": "uint256",
          "name": "",
          "type": "uint256"
        }
      ],
      "stateMutability": "view",
      "type": "function"
    },
    {
      "inputs": [
        {
          "internalType": "bytes32",
          "name": "",
          "type": "bytes32"
        }
      ],
      "name": "mintRequestNonce",
      "outputs": [
        {
          "internalType": "uint256",
          "name": "",
          "type": "uint256"
        }
      ],
      "stateMutability": "view",
      "type": "function"
    },
    {
      "inputs": [
        {
          "internalType": "uint256",
          "name": "",
          "type": "uint256"
        }
      ],
      "name": "mintRequests",
      "outputs": [
        {
          "internalType": "address",
          "name": "requester",
          "type": "address"
        },
        {
          "internalType": "uint256",
          "name": "amount",
          "type": "uint256"
        },
        {
          "internalType": "uint256",
          "name": "nonce",
          "type": "uint256"
        },
        {
          "internalType": "uint256",
          "name": "timestamp",
          "type": "uint256"
        },
        {
          "internalType": "enum IndexFactoryInterface.RequestStatus",
          "name": "status",
          "type": "uint8"
        }
      ],
      "stateMutability": "view",
      "type": "function"
    },
    {
      "inputs": [
        {
          "internalType": "address[]",
          "name": "_addresses",
          "type": "address[]"
        },
        {
          "internalType": "uint256[]",
          "name": "_marketShares",
          "type": "uint256[]"
        }
      ],
      "name": "mockFillAssetsList",
      "outputs": [],
      "stateMutability": "nonpayable",
      "type": "function"
    },
    {
      "inputs": [],
      "name": "nft",
      "outputs": [
        {
          "internalType": "contract RequestNFT",
          "name": "",
          "type": "address"
        }
      ],
      "stateMutability": "view",
      "type": "function"
    },
    {
      "inputs": [
        {
          "internalType": "uint256",
          "name": "",
          "type": "uint256"
        }
      ],
      "name": "oracleCustodianList",
      "outputs": [
        {
          "internalType": "address",
          "name": "",
          "type": "address"
        }
      ],
      "stateMutability": "view",
      "type": "function"
    },
    {
      "inputs": [],
      "name": "oraclePayment",
      "outputs": [
        {
          "internalType": "uint256",
          "name": "",
          "type": "uint256"
        }
      ],
      "stateMutability": "view",
      "type": "function"
    },
    {
      "inputs": [
        {
          "internalType": "uint256",
          "name": "",
          "type": "uint256"
        }
      ],
      "name": "oracleShareList",
      "outputs": [
        {
          "internalType": "uint256",
          "name": "",
          "type": "uint256"
        }
      ],
      "stateMutability": "view",
      "type": "function"
    },
    {
      "inputs": [],
      "name": "owner",
      "outputs": [
        {
          "internalType": "address",
          "name": "",
          "type": "address"
        }
      ],
      "stateMutability": "view",
      "type": "function"
    },
    {
      "inputs": [],
      "name": "pause",
      "outputs": [],
      "stateMutability": "nonpayable",
      "type": "function"
    },
    {
      "inputs": [],
      "name": "paused",
      "outputs": [
        {
          "internalType": "bool",
          "name": "",
          "type": "bool"
        }
      ],
      "stateMutability": "view",
      "type": "function"
    },
    {
      "inputs": [],
      "name": "renounceOwnership",
      "outputs": [],
      "stateMutability": "nonpayable",
      "type": "function"
    },
    {
      "inputs": [],
      "name": "requestAssetsData",
      "outputs": [
        {
          "internalType": "bytes32",
          "name": "",
          "type": "bytes32"
        }
      ],
      "stateMutability": "nonpayable",
      "type": "function"
    },
    {
      "inputs": [
        {
          "internalType": "address",
          "name": "_custodianWallet",
          "type": "address"
        }
      ],
      "name": "setCustodianWallet",
      "outputs": [
        {
          "internalType": "bool",
          "name": "",
          "type": "bool"
        }
      ],
      "stateMutability": "nonpayable",
      "type": "function"
    },
    {
      "inputs": [
        {
          "internalType": "uint8",
          "name": "_newFee",
          "type": "uint8"
        }
      ],
      "name": "setFeeRate",
      "outputs": [],
      "stateMutability": "nonpayable",
      "type": "function"
    },
    {
      "inputs": [
        {
          "internalType": "address",
          "name": "_issuer",
          "type": "address"
        }
      ],
      "name": "setIssuer",
      "outputs": [
        {
          "internalType": "bool",
          "name": "",
          "type": "bool"
        }
      ],
      "stateMutability": "nonpayable",
      "type": "function"
    },
    {
      "inputs": [
        {
          "internalType": "address",
          "name": "_nft",
          "type": "address"
        }
      ],
      "name": "setNFT",
      "outputs": [
        {
          "internalType": "bool",
          "name": "",
          "type": "bool"
        }
      ],
      "stateMutability": "nonpayable",
      "type": "function"
    },
    {
      "inputs": [
        {
          "internalType": "address",
          "name": "_oracleAddress",
          "type": "address"
        },
        {
          "internalType": "bytes32",
          "name": "_externalJobId",
          "type": "bytes32"
        }
      ],
      "name": "setOracleInfo",
      "outputs": [],
      "stateMutability": "nonpayable",
      "type": "function"
    },
    {
      "inputs": [
        {
          "internalType": "address",
          "name": "_token",
          "type": "address"
        }
      ],
      "name": "setTokenAddress",
      "outputs": [
        {
          "internalType": "bool",
          "name": "",
          "type": "bool"
        }
      ],
      "stateMutability": "nonpayable",
      "type": "function"
    },
    {
      "inputs": [
        {
          "internalType": "string",
          "name": "_beforeAddress",
          "type": "string"
        },
        {
          "internalType": "string",
          "name": "_afterAddress",
          "type": "string"
        }
      ],
      "name": "setUrl",
      "outputs": [],
      "stateMutability": "nonpayable",
      "type": "function"
    },
    {
      "inputs": [
        {
          "internalType": "address",
          "name": "_usdc",
          "type": "address"
        },
        {
          "internalType": "uint8",
          "name": "_usdcDecimals",
          "type": "uint8"
        }
      ],
      "name": "setUsdcAddress",
      "outputs": [
        {
          "internalType": "bool",
          "name": "",
          "type": "bool"
        }
      ],
      "stateMutability": "nonpayable",
      "type": "function"
    },
    {
      "inputs": [],
      "name": "token",
      "outputs": [
        {
          "internalType": "contract IndexToken",
          "name": "",
          "type": "address"
        }
      ],
      "stateMutability": "view",
      "type": "function"
    },
    {
      "inputs": [],
      "name": "totalOracleList",
      "outputs": [
        {
          "internalType": "uint256",
          "name": "",
          "type": "uint256"
        }
      ],
      "stateMutability": "view",
      "type": "function"
    },
    {
      "inputs": [
        {
          "internalType": "address",
          "name": "newOwner",
          "type": "address"
        }
      ],
      "name": "transferOwnership",
      "outputs": [],
      "stateMutability": "nonpayable",
      "type": "function"
    },
    {
      "inputs": [],
      "name": "unpause",
      "outputs": [],
      "stateMutability": "nonpayable",
      "type": "function"
    },
    {
      "inputs": [],
      "name": "usdc",
      "outputs": [
        {
          "internalType": "address",
          "name": "",
          "type": "address"
        }
      ],
      "stateMutability": "view",
      "type": "function"
    },
    {
      "inputs": [],
      "name": "usdcDecimals",
      "outputs": [
        {
          "internalType": "uint8",
          "name": "",
          "type": "uint8"
        }
      ],
      "stateMutability": "view",
      "type": "function"
    }
  ],
  "bytecode": {
    "object": "0x608060405234801561001057600080fd5b50614005806100206000396000f3fe608060405234801561001057600080fd5b50600436106102a05760003560e01c80638456cb5911610167578063c72551be116100ce578063f14bea2011610087578063f14bea20146105fd578063f2fde38b14610610578063f56e9c6614610623578063f89b8f2314610636578063fc0c546a1461065e578063fcd3533c1461067157600080fd5b8063c72551be14610592578063c8599ded146105b2578063c8f33c91146105bb578063e21c40c0146105c4578063e9d3e21f146105d7578063eab2a711146105ea57600080fd5b8063a73e1cbf11610120578063a73e1cbf146104f4578063a8b54bd414610507578063addc70d114610510578063b69b22d814610523578063b9a5575b14610549578063c22759401461056957600080fd5b80638456cb591461047f5780638da5cb5b14610487578063978bbdb9146104985780639ad4b86b146104ac5780639cc0fb5b146104cc578063a34003f4146104df57600080fd5b806347ccca021161020b57806364a9b8f7116101c457806364a9b8f71461042657806364c70d4514610439578063715018a61461044157806372f69a72146104495780637bf42165146104515780637ca58c551461047757600080fd5b806347ccca02146103bc5780635177942a146103cf57806355cc4e57146103e25780635c975abb146103f557806360daba33146104005780636406c10c1461041357600080fd5b806326a4e8d21161025d57806326a4e8d21461033d578063311104f3146103605780633e413bee146103685780633f4ba83a1461037b578063424e65751461038557806343482fc8146103a957600080fd5b8063011ced5f146102a55780630c02e130146102c15780630e329357146102ca5780631d143848146102ea5780631e106e99146103155780631e7aa9f414610328575b600080fd5b6102ae60ad5481565b6040519081526020015b60405180910390f35b6102ae609f5481565b6102dd6102d83660046137ef565b610684565b6040516102b89190613ba0565b60a6546102fd906001600160a01b031681565b6040516001600160a01b0390911681526020016102b8565b60a5546102fd906001600160a01b031681565b6103306106b1565b6040516102b89190613aa6565b61035061034b36600461353d565b6107cd565b60405190151581526020016102b8565b60aa546102ae565b60a7546102fd906001600160a01b031681565b610383610884565b005b6103986103933660046136db565b610896565b6040516102b8959493929190613a61565b6103836103b73660046135f9565b6108e4565b60ac546102fd906001600160a01b031681565b6103836103dd36600461386b565b6108fb565b6103506103f036600461353d565b610a45565b606a5460ff16610350565b61035061040e3660046136db565b610aed565b6103986104213660046136db565b610c09565b610350610434366004613760565b610c19565b610330610d99565b610383610eac565b60ab546102ae565b60a75461046590600160a01b900460ff1681565b60405160ff90911681526020016102b8565b6102ae610ebe565b6103836110fe565b6038546001600160a01b03166102fd565b60a75461046590600160a81b900460ff1681565b6102ae6104ba3660046136db565b60a86020526000908152604090205481565b6103506104da36600461353d565b61110e565b6104e76111bd565b6040516102b89190613a93565b6103836105023660046137ef565b611273565b6102ae609e5481565b61038361051e366004613656565b6112a7565b6105366105313660046136db565b6112bd565b6040516102b89796959493929190613c2c565b6102ae6105573660046136db565b60a36020526000908152604090205481565b6102fd6105773660046136db565b60a2602052600090815260409020546001600160a01b031681565b6102ae6105a03660046136db565b60a96020526000908152604090205481565b6102ae60a15481565b6102ae60a05481565b6105366105d23660046136db565b611408565b6103836105e5366004613558565b6115ae565b6103506105f8366004613623565b6117f4565b61038361060b3660046136f4565b6118b7565b61038361061e36600461353d565b611983565b61035061063136600461353d565b6119fc565b610649610644366004613848565b611aa1565b604080519283526020830191909152016102b8565b60a4546102fd906001600160a01b031681565b61064961067f366004613848565b611e2d565b60608282604051602001610699929190613968565b60405160208183030381529060405290505b92915050565b606060ab805480602002602001604051908101604052809291908181526020016000905b828210156107c45760008481526020908190206040805160c0810182526006860290920180546001600160a01b03168352600181015483850152600281018054835181870281018701855281815294959294938601939283018282801561076557602002820191906000526020600020905b81546001600160a01b03168152600190910190602001808311610747575b5050509183525050600382015460208201526004808301546040830152600583015460609092019160ff16908111156107a0576107a0613f35565b60048111156107b1576107b1613f35565b81525050815260200190600101906106d5565b50505050905090565b60006107d76121a0565b6001600160a01b03821661082a5760405162461bcd60e51b8152602060048201526015602482015274696e76616c696420746f6b656e206164647265737360581b60448201526064015b60405180910390fd5b60a480546001600160a01b0319166001600160a01b0384169081179091556040514281527f2d65e2eeacd42ac25aa023ad49c935dd4697a70e62b53317b7514f14096ff3899060200160405180910390a25060015b919050565b61088c6121a0565b6108946121fa565b565b60aa81815481106108a657600080fd5b6000918252602090912060069091020180546001820154600383015460048401546005909401546001600160a01b0390931694509092909160ff1685565b6108ec6121a0565b6108f58261224c565b609e5550565b6109036121a0565b600060ad54426109139190613e62565b9050600c603c6109238184613d44565b61092d9190613d44565b116109a05760405162461bcd60e51b815260206004820152603960248201527f596f752073686f756c642077616974206174206c6561737420313220686f757260448201527f7320616674657220746865206c617465737420757064617465000000000000006064820152608401610821565b60648260ff16111580156109b8575060018260ff1610155b610a205760405162461bcd60e51b815260206004820152603360248201527f546865206e65774665652073686f756c64206265206265747765656e203120616044820152726e64203130302028302e303125202d2031252960681b6064820152608401610821565b5060a7805460ff909216600160a81b0260ff60a81b199092169190911790554260ad55565b6000610a4f6121a0565b6001600160a01b038216610a9e5760405162461bcd60e51b8152602060048201526016602482015275696e76616c696420697373756572206164647265737360501b6044820152606401610821565b60a680546001600160a01b0319166001600160a01b0384169081179091556040517f141c634522c8bfcf25beba4c524ac0c87de0db74ebe83168cf5f3bf4d45fd89890600090a2506001919050565b60a6546000906001600160a01b03163314610b415760405162461bcd60e51b815260206004820152601460248201527339b2b73232b9103737ba10309034b9b9bab2b91760611b6044820152606401610821565b6000610b4b613273565b610b548461226e565b8092508193505050600360ab8381548110610b7157610b71613f4b565b60009182526020909120600560069092020101805460ff19166001836004811115610b9e57610b9e613f35565b021790555080600001516001600160a01b031681606001517ffa90590fee8622abdd363195477587c362cc162fbb631bb0430063f7fccccb4d83602001518460400151856080015189604051610bf79493929190613c86565b60405180910390a35060019392505050565b60ab81815481106108a657600080fd5b60a6546000906001600160a01b03163314610c6d5760405162461bcd60e51b815260206004820152601460248201527339b2b73232b9103737ba10309034b9b9bab2b91760611b6044820152606401610821565b6000610c77613273565b610c80856123c9565b8092508193505050600360aa8381548110610c9d57610c9d613f4b565b60009182526020909120600560069092020101805460ff19166001836004811115610cca57610cca613f35565b021790555060a45481516040516340c10f1960e01b81526001600160a01b039182166004820152602481018790529116906340c10f1990604401600060405180830381600087803b158015610d1e57600080fd5b505af1158015610d32573d6000803e3d6000fd5b5050505080600001516001600160a01b031681606001517f0f68b38538e0e8ee6fecbbedee04ccc18fcb16f18c260bcbe35e8b8bead6a87b86846040015185608001518a604051610d869493929190613c86565b60405180910390a3506001949350505050565b606060aa805480602002602001604051908101604052809291908181526020016000905b828210156107c45760008481526020908190206040805160c0810182526006860290920180546001600160a01b031683526001810154838501526002810180548351818702810187018552818152949592949386019392830182828015610e4d57602002820191906000526020600020905b81546001600160a01b03168152600190910190602001808311610e2f575b5050509183525050600382015460208201526004808301546040830152600583015460609092019160ff1690811115610e8857610e88613f35565b6004811115610e9957610e99613f35565b8152505081526020019060010190610dbd565b610eb46121a0565b610894600061243b565b600080610fdf609c8054610ed190613ea5565b80601f0160208091040260200160405190810160405280929190818152602001828054610efd90613ea5565b8015610f4a5780601f10610f1f57610100808354040283529160200191610f4a565b820191906000526020600020905b815481529060010190602001808311610f2d57829003601f168201915b5050505050609d8054610f5c90613ea5565b80601f0160208091040260200160405190810160405280929190818152602001828054610f8890613ea5565b8015610fd55780601f10610faa57610100808354040283529160200191610fd5565b820191906000526020600020905b815481529060010190602001808311610fb857829003601f168201915b5050505050610684565b90506000610ff7609e543063f14bea2060e01b61248d565b60408051808201909152600381526219d95d60ea1b6020820152909150611020908290846124b2565b61107b60405180604001604052806005815260200164706174683160d81b81525060405180604001604052806011815260200170726573756c74732c61646472657373657360781b815250836124b29092919063ffffffff16565b6110d9604051806040016040528060058152602001643830ba341960d91b81525060405180604001604052806014815260200173726573756c74732c6d61726b657453686172657360601b815250836124b29092919063ffffffff16565b6110f76110ee6003546001600160a01b031690565b82609f546124d0565b9250505090565b6111066121a0565b610894612563565b60006111186121a0565b6001600160a01b03821661116e5760405162461bcd60e51b815260206004820181905260248201527f696e76616c696420637573746f6469616e2077616c6c657420616464726573736044820152606401610821565b60a580546001600160a01b0319166001600160a01b0384169081179091556040517fb88c20a211c5d7677ba2a26c317d8ae6b25aa492016dc8ceca2469761d063d8090600090a2506001919050565b6060600060a1546001600160401b038111156111db576111db613f61565b604051908082528060200260200182016040528015611204578160200160208202803683370190505b50905060005b60a15481101561126d57600081815260a2602052604090205482516001600160a01b039091169083908390811061124357611243613f4b565b6001600160a01b03909216602092830291909101909101528061126581613eda565b91505061120a565b50919050565b61127b6121a0565b815161128e90609c9060208501906132c2565b5080516112a290609d9060208401906132c2565b505050565b6112af6121a0565b6112b982826125a0565b5050565b600080600060606000606060008060aa89815481106112de576112de613f4b565b60009182526020918290206040805160c081018252600690930290910180546001600160a01b03168352600181015483850152600281018054835181870281018701855281815294959294938601939283018282801561136757602002820191906000526020600020905b81546001600160a01b03168152600190910190602001808311611349575b5050509183525050600382015460208201526004808301546040830152600583015460609092019160ff16908111156113a2576113a2613f35565b60048111156113b3576113b3613f35565b81525050905060006113c88260a0015161269c565b905081606001519850816000015197508160200151965081604001519550816080015194508093506113f9826127b8565b92505050919395979092949650565b600080600060606000606060008060ab898154811061142957611429613f4b565b60009182526020822060056006909202019081015490925061144d9060ff1661269c565b60038301548354600185015460028601805460408051602080840282018101909252828152959f506001600160a01b039094169d50919b50939450919291908301828280156114c557602002820191906000526020600020905b81546001600160a01b031681526001909101906020018083116114a7575b5050505060048401546040805160c08101825286546001600160a01b0316815260018701546020808301919091526002880180548451818402810184018652818152979d50949b5096995089966113f996929550889493860193909183018282801561155a57602002820191906000526020600020905b81546001600160a01b0316815260019091019060200180831161153c575b5050509183525050600382015460208201526004808301546040830152600583015460609092019160ff169081111561159557611595613f35565b60048111156115a6576115a6613f35565b9052506127b8565b600054610100900460ff16158080156115ce5750600054600160ff909116105b806115e85750303b1580156115e8575060005460ff166001145b61164b5760405162461bcd60e51b815260206004820152602e60248201527f496e697469616c697a61626c653a20636f6e747261637420697320616c72656160448201526d191e481a5b9a5d1a585b1a5e995960921b6064820152608401610821565b6000805460ff19166001179055801561166e576000805461ff0019166101001790555b60a580546001600160a01b03808d166001600160a01b03199283161790925560a680548c841690831617905560a480548b841690831617905560a7805460ff8a16600160a01b026001600160a81b03199091168b85161717905560ac8054928816929091169190911790556116e1612800565b6116e961282f565b60a7805460ff60a81b1916600560a91b179055600280546001600160a01b0319166001600160a01b0386161790556117208361224c565b609e829055600a61173a670de0b6b3a76400006001613e43565b6117449190613d44565b609f556040805160608101909152602a808252613f786020830139805161177391609c916020909101906132c2565b506040518060600160405280602e8152602001613fa2602e913980516117a191609d916020909101906132c2565b5080156117e8576000805461ff0019169055604051600181527f7f26b83ff96e1f2b6a682f133852f6798a09c465da95921460cefb38474024989060200160405180910390a15b50505050505050505050565b60006117fe6121a0565b6001600160a01b03831661184c5760405162461bcd60e51b8152602060048201526015602482015274696e76616c696420746f6b656e206164647265737360581b6044820152606401610821565b60a780546001600160a01b0385166001600160a81b03199091168117600160a01b60ff8616908102919091179092556040514281527f47f70abc5eafc71015adda71f3628949d17bd87cb6199008a1243dca856ceaaf9060200160405180910390a350600192915050565b60008381526005602052604090205483906001600160a01b031633146119305760405162461bcd60e51b815260206004820152602860248201527f536f75726365206d75737420626520746865206f7261636c65206f6620746865604482015267081c995c5d595cdd60c21b6064820152608401610821565b60008181526005602052604080822080546001600160a01b03191690555182917f7cc135e0cebb02c3480ae5d74d377283180a2601f8f644edf7987b009316c63a91a261197d83836125a0565b50505050565b61198b6121a0565b6001600160a01b0381166119f05760405162461bcd60e51b815260206004820152602660248201527f4f776e61626c653a206e6577206f776e657220697320746865207a65726f206160448201526564647265737360d01b6064820152608401610821565b6119f98161243b565b50565b6000611a066121a0565b6001600160a01b038216611a525760405162461bcd60e51b8152602060048201526013602482015272696e76616c6964206e6674206164647265737360681b6044820152606401610821565b60ac80546001600160a01b0319166001600160a01b0384169081179091556040517f75fc4fdf6d5e94402ecc584683c37c192cfde2ea99b612d59a6864204919c7e490600090a2506001919050565b600080611aac61285e565b60a75460009061271090611aca90600160a81b900460ff1687613e43565b611ad49190613d44565b90506000611ae28287613d2c565b905060005b60a154811015611b5a5760a754600082815260a2602090815260408083205460a390925290912054611b48926001600160a01b0390811692339291169068056bc75e2d6310000090611b39908d613e43565b611b439190613d44565b6128a4565b80611b5281613eda565b915050611ae7565b5060a754611b84906001600160a01b031633611b7e6038546001600160a01b031690565b856128a4565b60aa54600042905060006040518060c00160405280896001600160a01b031681526020018a8152602001611bb66111bd565b815260208101859052604081018490526060016001905290506000611bda826127b8565b600081815260a86020908152604080832088905560aa8054600181018255935285517f550d3de95be0bd28a79c3eb4ea7f05692c60b0602e48b49461e703379b08a71a600690940293840180546001600160a01b0319166001600160a01b03909216919091178155868301517f550d3de95be0bd28a79c3eb4ea7f05692c60b0602e48b49461e703379b08a71b85015590860151805194955086949193611ca8937f550d3de95be0bd28a79c3eb4ea7f05692c60b0602e48b49461e703379b08a71c90910192910190613346565b50606082015181600301556080820151816004015560a08201518160050160006101000a81548160ff02191690836004811115611ce757611ce7613f35565b02179055505060ac5460a454604080516306fdde0360e01b815290516001600160a01b0393841694506359a4326d93909216916306fdde0391600480820192600092909190829003018186803b158015611d4057600080fd5b505afa158015611d54573d6000803e3d6000fd5b505050506040513d6000823e601f3d908101601f19168201604052611d7c9190810190613782565b8b8d6040518463ffffffff1660e01b8152600401611d9c93929190613bb3565b600060405180830381600087803b158015611db657600080fd5b505af1158015611dca573d6000803e3d6000fd5b50505050886001600160a01b0316847f5451b00315df1843662f0967aa9d6ab74b6771df02cfb4a2ca70b0dddcf07ee68c611e036111bd565b8786604051611e159493929190613c86565b60405180910390a39299929850919650505050505050565b600080611e3861285e565b60ab54604080516001808252818301909252429160009190602080830190803683370190505090508581600081518110611e7457611e74613f4b565b60200260200101906001600160a01b031690816001600160a01b03168152505060006040518060c00160405280886001600160a01b0316815260200189815260200183815260200185815260200184815260200160016004811115611edb57611edb613f35565b905290506000611eea826127b8565b600081815260a96020908152604080832089905560ab8054600181018255935285517ffc377260a69a39dd786235c89f4bcd5d9639157731cac38071a0508750eb115a600690940293840180546001600160a01b0319166001600160a01b03909216919091178155868301517ffc377260a69a39dd786235c89f4bcd5d9639157731cac38071a0508750eb115b85015590860151805194955086949193611fb8937ffc377260a69a39dd786235c89f4bcd5d9639157731cac38071a0508750eb115c90910192910190613346565b50606082015181600301556080820151816004015560a08201518160050160006101000a81548160ff02191690836004811115611ff757611ff7613f35565b02179055505060a454604051632770a7eb60e21b8152336004820152602481018c90526001600160a01b039091169150639dc29fac90604401600060405180830381600087803b15801561204a57600080fd5b505af115801561205e573d6000803e3d6000fd5b505060ac5460a454604080516306fdde0360e01b815290516001600160a01b03938416955063d7c63ed1945091909216916306fdde03916004808301926000929190829003018186803b1580156120b457600080fd5b505afa1580156120c8573d6000803e3d6000fd5b505050506040513d6000823e601f3d908101601f191682016040526120f09190810190613782565b8a8c6040518463ffffffff1660e01b815260040161211093929190613bb3565b600060405180830381600087803b15801561212a57600080fd5b505af115801561213e573d6000803e3d6000fd5b50505050876001600160a01b0316857f1e56929c494b9bcad8c67bdcb55f874da5cbe9c29b5bc0ab151ea2a3ad306a008b6121776111bd565b88866040516121899493929190613c86565b60405180910390a393989397509295505050505050565b6038546001600160a01b031633146108945760405162461bcd60e51b815260206004820181905260248201527f4f776e61626c653a2063616c6c6572206973206e6f7420746865206f776e65726044820152606401610821565b6122026128fe565b606a805460ff191690557f5db9ee0a495bf2e6ff9c91a7834c1ba4fdd244a5e8aa4e537bd38aeae4b073aa335b6040516001600160a01b03909116815260200160405180910390a1565b600380546001600160a01b0319166001600160a01b0392909216919091179055565b6000612278613273565b826122b95760405162461bcd60e51b81526020600482015260116024820152700726571756573742068617368206973203607c1b6044820152606401610821565b600083815260a9602052604090205460ab805491935090839081106122e0576122e0613f4b565b60009182526020918290206040805160c081018252600690930290910180546001600160a01b03168352600181015483850152600281018054835181870281018701855281815294959294938601939283018282801561236957602002820191906000526020600020905b81546001600160a01b0316815260019091019060200180831161234b575b5050509183525050600382015460208201526004808301546040830152600583015460609092019160ff16908111156123a4576123a4613f35565b60048111156123b5576123b5613f35565b90525090506123c48184612947565b915091565b60006123d3613273565b826124145760405162461bcd60e51b81526020600482015260116024820152700726571756573742068617368206973203607c1b6044820152606401610821565b600083815260a8602052604090205460aa805491935090839081106122e0576122e0613f4b565b603880546001600160a01b038381166001600160a01b0319831681179093556040519116919082907f8be0079c531659141344cd1fd0a4f28419497f9722a3daafe3b4186f6b6457e090600090a35050565b61249561339b565b61249d61339b565b6124a981868686612a18565b95945050505050565b60808301516124c19083612a5e565b60808301516112a29082612a5e565b6004546000906124e1816001613d2c565b600455835160408086015160808701515191516000936320214ca360e11b936125199386938493923092918a916001916024016139d2565b60408051601f198184030181529190526020810180516001600160e01b03166001600160e01b031990931692909217909152905061255986838684612a75565b9695505050505050565b61256b61285e565b606a805460ff191660011790557f62e78cea01bee320cd4e420270b5ea74000d11b0c9f74754ebdbfc544b05a25861222f3390565b818160005b825181101561263f578281815181106125c0576125c0613f4b565b602002602001015160a2600083815260200190815260200160002060006101000a8154816001600160a01b0302191690836001600160a01b0316021790555083818151811061261157612611613f4b565b602090810291909101810151600083815260a39092526040909120558061263781613eda565b9150506125a5565b50815160a1554260a05560405161265790859061390d565b60405180910390207ff32c718cfcfde649cd1b7798a926c8707fda06cda4e8d4731eb86ca6772623d98460405161268e9190613b5c565b60405180910390a250505050565b606060018260048111156126b2576126b2613f35565b14156126db57505060408051808201909152600781526670656e64696e6760c81b602082015290565b60028260048111156126ef576126ef613f35565b141561271957505060408051808201909152600881526718d85b98d95b195960c21b602082015290565b600382600481111561272d5761272d613f35565b1415612757575050604080518082019091526008815267185c1c1c9bdd995960c21b602082015290565b600482600481111561276b5761276b613f35565b14156127955750506040805180820190915260088152671c995a9958dd195960c21b602082015290565b50506040805180820190915260078152663ab735b737bbb760c91b602082015290565b80516020808301516040808501516060860151608087015192516000966127e3969095949101613997565b604051602081830303815290604052805190602001209050919050565b600054610100900460ff166128275760405162461bcd60e51b815260040161082190613be1565b610894612be2565b600054610100900460ff166128565760405162461bcd60e51b815260040161082190613be1565b610894612c12565b606a5460ff16156108945760405162461bcd60e51b815260206004820152601060248201526f14185d5cd8589b194e881c185d5cd95960821b6044820152606401610821565b604080516001600160a01b0385811660248301528416604482015260648082018490528251808303909101815260849091019091526020810180516001600160e01b03166323b872dd60e01b17905261197d908590612c45565b606a5460ff166108945760405162461bcd60e51b815260206004820152601460248201527314185d5cd8589b194e881b9bdd081c185d5cd95960621b6044820152606401610821565b60018260a00151600481111561295f5761295f613f35565b146129a55760405162461bcd60e51b815260206004820152601660248201527572657175657374206973206e6f742070656e64696e6760501b6044820152606401610821565b6129ae826127b8565b81146112b95760405162461bcd60e51b815260206004820152603360248201527f676976656e2072657175657374206861736820646f6573206e6f74206d6174636044820152721a0818481c195b991a5b99c81c995c5d595cdd606a1b6064820152608401610821565b612a2061339b565b612a308560800151610100612d1a565b50508284526001600160a01b03821660208501526001600160e01b031981166040850152835b949350505050565b612a6b8260038351612d7f565b6112a28282612e86565b6040516bffffffffffffffffffffffff193060601b1660208201526034810184905260009060540160408051808303601f1901815282825280516020918201206000818152600590925291812080546001600160a01b0319166001600160a01b038a1617905590925082917fb5e6e01e79f91267dc17b4e6314d5d4d03593d2ceee0fbb452b750bd70ea5af99190a2600254604051630200057560e51b81526001600160a01b0390911690634000aea090612b3890889087908790600401613a3a565b602060405180830381600087803b158015612b5257600080fd5b505af1158015612b66573d6000803e3d6000fd5b505050506040513d601f19601f82011682018060405250810190612b8a91906136b9565b612a565760405162461bcd60e51b815260206004820152602360248201527f756e61626c6520746f207472616e73666572416e6443616c6c20746f206f7261604482015262636c6560e81b6064820152608401610821565b600054610100900460ff16612c095760405162461bcd60e51b815260040161082190613be1565b6108943361243b565b600054610100900460ff16612c395760405162461bcd60e51b815260040161082190613be1565b606a805460ff19169055565b6000612c9a826040518060400160405280602081526020017f5361666545524332303a206c6f772d6c6576656c2063616c6c206661696c6564815250856001600160a01b0316612eb49092919063ffffffff16565b9050805160001480612cbb575080806020019051810190612cbb91906136b9565b6112a25760405162461bcd60e51b815260206004820152602a60248201527f5361666545524332303a204552433230206f7065726174696f6e20646964206e6044820152691bdd081cdd58d8d9595960b21b6064820152608401610821565b604080518082019091526060815260006020820152612d3a602083613ef5565b15612d6257612d4a602083613ef5565b612d55906020613e62565b612d5f9083613d2c565b91505b506020828101829052604080518085526000815290920101905290565b6017816001600160401b031611612da35761197d8360e0600585901b168317612ec3565b60ff816001600160401b031611612ddf57612dc9836018611fe0600586901b1617612ec3565b5061197d836001600160401b0383166001612ee8565b61ffff816001600160401b031611612e1c57612e06836019611fe0600586901b1617612ec3565b5061197d836001600160401b0383166002612ee8565b63ffffffff816001600160401b031611612e5b57612e4583601a611fe0600586901b1617612ec3565b5061197d836001600160401b0383166004612ee8565b612e7083601b611fe0600586901b1617612ec3565b5061197d836001600160401b0383166008612ee8565b604080518082019091526060815260006020820152612ead83846000015151848551612f0e565b9392505050565b6060612a568484600085612ff8565b604080518082019091526060815260006020820152612ead83846000015151846130d3565b604080518082019091526060815260006020820152612a5684856000015151858561312f565b6040805180820190915260608152600060208201528251821115612f3157600080fd5b6020850151612f408386613d2c565b1115612f7357612f7385612f6387602001518786612f5e9190613d2c565b6131b0565b612f6e906002613e43565b6131c1565b600080865180518760208301019350808887011115612f925787860182525b505050602084015b60208410612fd25780518252612fb1602083613d2c565b9150612fbe602082613d2c565b9050612fcb602085613e62565b9350612f9a565b51815160001960208690036101000a019081169019919091161790525083949350505050565b6060824710156130595760405162461bcd60e51b815260206004820152602660248201527f416464726573733a20696e73756666696369656e742062616c616e636520666f6044820152651c8818d85b1b60d21b6064820152608401610821565b600080866001600160a01b03168587604051613075919061394c565b60006040518083038185875af1925050503d80600081146130b2576040519150601f19603f3d011682016040523d82523d6000602084013e6130b7565b606091505b50915091506130c8878383876131d8565b979650505050505050565b60408051808201909152606081526000602082015283602001518310613108576131088485602001516002612f6e9190613e43565b835180516020858301018481535080851415613125576001810182525b5093949350505050565b60408051808201909152606081526000602082015260208501516131538584613d2c565b11156131675761316785612f638685613d2c565b6000600161317784610100613d9b565b6131819190613e62565b90508551838682010185831982511617815250805184870111156131a55783860181525b509495945050505050565b60008183111561126d5750816106ab565b81516131cd8383612d1a565b5061197d8382612e86565b6060831561324457825161323d576001600160a01b0385163b61323d5760405162461bcd60e51b815260206004820152601d60248201527f416464726573733a2063616c6c20746f206e6f6e2d636f6e74726163740000006044820152606401610821565b5081612a56565b612a5683838151156132595781518083602001fd5b8060405162461bcd60e51b81526004016108219190613ba0565b6040518060c0016040528060006001600160a01b0316815260200160008152602001606081526020016000815260200160008152602001600060048111156132bd576132bd613f35565b905290565b8280546132ce90613ea5565b90600052602060002090601f0160209004810192826132f05760008555613336565b82601f1061330957805160ff1916838001178555613336565b82800160010185558215613336579182015b8281111561333657825182559160200191906001019061331b565b506133429291506133d6565b5090565b828054828255906000526020600020908101928215613336579160200282015b8281111561333657825182546001600160a01b0319166001600160a01b03909116178255602090920191600190910190613366565b6040805160a0810182526000808252602080830182905282840182905260608084018390528451808601909552845283015290608082015290565b5b8082111561334257600081556001016133d7565b80356001600160a01b038116811461087f57600080fd5b600082601f83011261341357600080fd5b8135602061342861342383613ce2565b613cb2565b80838252828201915082860187848660051b890101111561344857600080fd5b60005b8581101561346e5761345c826133eb565b8452928401929084019060010161344b565b5090979650505050505050565b600082601f83011261348c57600080fd5b8135602061349c61342383613ce2565b80838252828201915082860187848660051b89010111156134bc57600080fd5b60005b8581101561346e578135845292840192908401906001016134bf565b600082601f8301126134ec57600080fd5b81356134fa61342382613d05565b81815284602083860101111561350f57600080fd5b816020850160208301376000918101602001919091529392505050565b803560ff8116811461087f57600080fd5b60006020828403121561354f57600080fd5b612ead826133eb565b60008060008060008060008060006101208a8c03121561357757600080fd5b6135808a6133eb565b985061358e60208b016133eb565b975061359c60408b016133eb565b96506135aa60608b016133eb565b95506135b860808b0161352c565b94506135c660a08b016133eb565b93506135d460c08b016133eb565b92506135e260e08b016133eb565b91506101008a013590509295985092959850929598565b6000806040838503121561360c57600080fd5b613615836133eb565b946020939093013593505050565b6000806040838503121561363657600080fd5b61363f836133eb565b915061364d6020840161352c565b90509250929050565b6000806040838503121561366957600080fd5b82356001600160401b038082111561368057600080fd5b61368c86838701613402565b935060208501359150808211156136a257600080fd5b506136af8582860161347b565b9150509250929050565b6000602082840312156136cb57600080fd5b81518015158114612ead57600080fd5b6000602082840312156136ed57600080fd5b5035919050565b60008060006060848603121561370957600080fd5b8335925060208401356001600160401b038082111561372757600080fd5b61373387838801613402565b9350604086013591508082111561374957600080fd5b506137568682870161347b565b9150509250925092565b6000806040838503121561377357600080fd5b50508035926020909101359150565b60006020828403121561379457600080fd5b81516001600160401b038111156137aa57600080fd5b8201601f810184136137bb57600080fd5b80516137c961342382613d05565b8181528560208385010111156137de57600080fd5b6124a9826020830160208601613e79565b6000806040838503121561380257600080fd5b82356001600160401b038082111561381957600080fd5b613825868387016134db565b9350602085013591508082111561383b57600080fd5b506136af858286016134db565b6000806040838503121561385b57600080fd5b8235915061364d602084016133eb565b60006020828403121561387d57600080fd5b612ead8261352c565b600081518084526020808501945080840160005b838110156131a55781516001600160a01b03168752958201959082019060010161389a565b600081518084526138d7816020860160208601613e79565b601f01601f19169290920160200192915050565b6005811061390957634e487b7160e01b600052602160045260246000fd5b9052565b815160009082906020808601845b838110156139405781516001600160a01b03168552938201939082019060010161391b565b50929695505050505050565b6000825161395e818460208701613e79565b9190910192915050565b6000835161397a818460208801613e79565b83519083019061398e818360208801613e79565b01949350505050565b60018060a01b038616815284602082015260a0604082015260006139be60a0830186613886565b606083019490945250608001529392505050565b6001600160a01b0389811682526020820189905260408201889052861660608201526001600160e01b03198516608082015260a0810184905260c0810183905261010060e08201819052600090613a2b838201856138bf565b9b9a5050505050505050505050565b60018060a01b03841681528260208201526060604082015260006124a960608301846138bf565b6001600160a01b038616815260208101859052604081018490526060810183905260a0810161255960808301846138eb565b602081526000612ead6020830184613886565b60006020808301818452808551808352604092508286019150828160051b87010184880160005b83811015613b4e57888303603f19018552815180516001600160a01b0316845287810151888501528681015160c088860181905290613b0e82870182613886565b606084810151908801526080808501519088015260a093840151939092509050613b3a818701846138eb565b509588019593505090860190600101613acd565b509098975050505050505050565b6020808252825182820181905260009190848201906040850190845b81811015613b9457835183529284019291840191600101613b78565b50909695505050505050565b602081526000612ead60208301846138bf565b606081526000613bc660608301866138bf565b6001600160a01b039490941660208301525060400152919050565b6020808252602b908201527f496e697469616c697a61626c653a20636f6e7472616374206973206e6f74206960408201526a6e697469616c697a696e6760a81b606082015260800190565b87815260018060a01b038716602082015285604082015260e060608201526000613c5960e0830187613886565b85608084015282810360a0840152613c7181866138bf565b9150508260c083015298975050505050505050565b848152608060208201526000613c9f6080830186613886565b6040830194909452506060015292915050565b604051601f8201601f191681016001600160401b0381118282101715613cda57613cda613f61565b604052919050565b60006001600160401b03821115613cfb57613cfb613f61565b5060051b60200190565b60006001600160401b03821115613d1e57613d1e613f61565b50601f01601f191660200190565b60008219821115613d3f57613d3f613f09565b500190565b600082613d5357613d53613f1f565b500490565b600181815b80851115613d93578160001904821115613d7957613d79613f09565b80851615613d8657918102915b93841c9390800290613d5d565b509250929050565b6000612ead8383600082613db1575060016106ab565b81613dbe575060006106ab565b8160018114613dd45760028114613dde57613dfa565b60019150506106ab565b60ff841115613def57613def613f09565b50506001821b6106ab565b5060208310610133831016604e8410600b8410161715613e1d575081810a6106ab565b613e278383613d58565b8060001904821115613e3b57613e3b613f09565b029392505050565b6000816000190483118215151615613e5d57613e5d613f09565b500290565b600082821015613e7457613e74613f09565b500390565b60005b83811015613e94578181015183820152602001613e7c565b8381111561197d5750506000910152565b600181811c90821680613eb957607f821691505b6020821081141561126d57634e487b7160e01b600052602260045260246000fd5b6000600019821415613eee57613eee613f09565b5060010190565b600082613f0457613f04613f1f565b500690565b634e487b7160e01b600052601160045260246000fd5b634e487b7160e01b600052601260045260246000fd5b634e487b7160e01b600052602160045260246000fd5b634e487b7160e01b600052603260045260246000fd5b634e487b7160e01b600052604160045260246000fdfe68747470733a2f2f6170702e6e65786c6162732e696f2f6170692f616c6c46756e64696e6752617465733f6d756c7469706c7946756e633d31382674696d65734e656746756e643d74727565266172726179733d74727565a26469706673582212201cde0c0f4aeab5a994401b1ec5e0d57d3cf763c450c98175331b42366358f8ec64736f6c63430008070033",
    "linkReferences": {}
  },
  "methodIdentifiers": {
    "addMintRequest(uint256,address)": "f89b8f23",
    "burn(uint256,address)": "fcd3533c",
    "burnRequestNonce(bytes32)": "c72551be",
    "burnRequests(uint256)": "6406c10c",
    "concatenation(string,string)": "0e329357",
    "confirmBurnRequest(bytes32)": "60daba33",
    "confirmMintRequest(bytes32,uint256)": "64a9b8f7",
    "custodianWallet()": "1e106e99",
    "externalJobId()": "a8b54bd4",
    "feeRate()": "978bbdb9",
    "fulfillAssetsData(bytes32,address[],uint256[])": "f14bea20",
    "getAllBurnRequests()": "1e7aa9f4",
    "getAllCustodianWallets()": "a34003f4",
    "getAllMintRequests()": "64c70d45",
    "getBurnRequest(uint256)": "e21c40c0",
    "getBurnRequestsLength()": "72f69a72",
    "getMintRequest(uint256)": "b69b22d8",
    "getMintRequestsLength()": "311104f3",
    "initialize(address,address,address,address,uint8,address,address,address,bytes32)": "e9d3e21f",
    "issuer()": "1d143848",
    "lastUpdateTime()": "c8f33c91",
    "latestFeeUpdate()": "011ced5f",
    "mintRequestNonce(bytes32)": "9ad4b86b",
    "mintRequests(uint256)": "424e6575",
    "mockFillAssetsList(address[],uint256[])": "addc70d1",
    "nft()": "47ccca02",
    "oracleCustodianList(uint256)": "c2275940",
    "oraclePayment()": "0c02e130",
    "oracleShareList(uint256)": "b9a5575b",
    "owner()": "8da5cb5b",
    "pause()": "8456cb59",
    "paused()": "5c975abb",
    "renounceOwnership()": "715018a6",
    "requestAssetsData()": "7ca58c55",
    "setCustodianWallet(address)": "9cc0fb5b",
    "setFeeRate(uint8)": "5177942a",
    "setIssuer(address)": "55cc4e57",
    "setNFT(address)": "f56e9c66",
    "setOracleInfo(address,bytes32)": "43482fc8",
    "setTokenAddress(address)": "26a4e8d2",
    "setUrl(string,string)": "a73e1cbf",
    "setUsdcAddress(address,uint8)": "eab2a711",
    "token()": "fc0c546a",
    "totalOracleList()": "c8599ded",
    "transferOwnership(address)": "f2fde38b",
    "unpause()": "3f4ba83a",
    "usdc()": "3e413bee",
    "usdcDecimals()": "7bf42165"
  },
  "id": 1
}