{
  "abi": [
    {
      "anonymous": false,
      "inputs": [
        {
          "indexed": true,
          "internalType": "uint256",
          "name": "nonce",
          "type": "uint256"
        },
        {
          "indexed": true,
          "internalType": "address",
          "name": "requester",
          "type": "address"
        },
        {
          "indexed": false,
          "internalType": "uint256",
          "name": "amount",
          "type": "uint256"
        },
        {
          "indexed": false,
          "internalType": "address",
          "name": "depositAddress",
          "type": "address"
        },
        {
          "indexed": false,
          "internalType": "uint256",
          "name": "timestamp",
          "type": "uint256"
        },
        {
          "indexed": false,
          "internalType": "bytes32",
          "name": "inputRequestHash",
          "type": "bytes32"
        }
      ],
      "name": "BurnConfirmed",
      "type": "event"
    },
    {
      "anonymous": false,
      "inputs": [
        {
          "indexed": true,
          "internalType": "uint256",
          "name": "nonce",
          "type": "uint256"
        },
        {
          "indexed": true,
          "internalType": "address",
          "name": "requester",
          "type": "address"
        },
        {
          "indexed": false,
          "internalType": "uint256",
          "name": "amount",
          "type": "uint256"
        },
        {
          "indexed": false,
          "internalType": "address",
          "name": "depositAddress",
          "type": "address"
        },
        {
          "indexed": false,
          "internalType": "uint256",
          "name": "timestamp",
          "type": "uint256"
        },
        {
          "indexed": false,
          "internalType": "bytes32",
          "name": "requestHash",
          "type": "bytes32"
        }
      ],
      "name": "Burned",
      "type": "event"
    },
    {
      "anonymous": false,
      "inputs": [
        {
          "indexed": true,
          "internalType": "address",
          "name": "custodian",
          "type": "address"
        }
      ],
      "name": "CustodianSet",
      "type": "event"
    },
    {
      "anonymous": false,
      "inputs": [
        {
          "indexed": false,
          "internalType": "uint8",
          "name": "version",
          "type": "uint8"
        }
      ],
      "name": "Initialized",
      "type": "event"
    },
    {
      "anonymous": false,
      "inputs": [
        {
          "indexed": true,
          "internalType": "address",
          "name": "merchant",
          "type": "address"
        },
        {
          "indexed": true,
          "internalType": "address",
          "name": "sender",
          "type": "address"
        },
        {
          "indexed": false,
          "internalType": "address",
          "name": "depositAddress",
          "type": "address"
        }
      ],
      "name": "IssuerDepositAddressSet",
      "type": "event"
    },
    {
      "anonymous": false,
      "inputs": [
        {
          "indexed": true,
          "internalType": "address",
          "name": "issuer",
          "type": "address"
        }
      ],
      "name": "IssuerSet",
      "type": "event"
    },
    {
      "anonymous": false,
      "inputs": [
        {
          "indexed": true,
          "internalType": "address",
          "name": "merchant",
          "type": "address"
        },
        {
          "indexed": false,
          "internalType": "address",
          "name": "depositAddress",
          "type": "address"
        }
      ],
      "name": "MerchantDepositAddressSet",
      "type": "event"
    },
    {
      "anonymous": false,
      "inputs": [
        {
          "indexed": true,
          "internalType": "uint256",
          "name": "nonce",
          "type": "uint256"
        },
        {
          "indexed": true,
          "internalType": "address",
          "name": "requester",
          "type": "address"
        },
        {
          "indexed": false,
          "internalType": "uint256",
          "name": "amount",
          "type": "uint256"
        },
        {
          "indexed": false,
          "internalType": "address",
          "name": "depositAddress",
          "type": "address"
        },
        {
          "indexed": false,
          "internalType": "uint256",
          "name": "timestamp",
          "type": "uint256"
        },
        {
          "indexed": false,
          "internalType": "bytes32",
          "name": "requestHash",
          "type": "bytes32"
        }
      ],
      "name": "MintConfirmed",
      "type": "event"
    },
    {
      "anonymous": false,
      "inputs": [
        {
          "indexed": true,
          "internalType": "uint256",
          "name": "nonce",
          "type": "uint256"
        },
        {
          "indexed": true,
          "internalType": "address",
          "name": "requester",
          "type": "address"
        },
        {
          "indexed": false,
          "internalType": "uint256",
          "name": "amount",
          "type": "uint256"
        },
        {
          "indexed": false,
          "internalType": "address",
          "name": "depositAddress",
          "type": "address"
        },
        {
          "indexed": false,
          "internalType": "uint256",
          "name": "timestamp",
          "type": "uint256"
        },
        {
          "indexed": false,
          "internalType": "bytes32",
          "name": "requestHash",
          "type": "bytes32"
        }
      ],
      "name": "MintRejected",
      "type": "event"
    },
    {
      "anonymous": false,
      "inputs": [
        {
          "indexed": true,
          "internalType": "uint256",
          "name": "nonce",
          "type": "uint256"
        },
        {
          "indexed": true,
          "internalType": "address",
          "name": "requester",
          "type": "address"
        },
        {
          "indexed": false,
          "internalType": "uint256",
          "name": "amount",
          "type": "uint256"
        },
        {
          "indexed": false,
          "internalType": "address",
          "name": "depositAddress",
          "type": "address"
        },
        {
          "indexed": false,
          "internalType": "uint256",
          "name": "timestamp",
          "type": "uint256"
        },
        {
          "indexed": false,
          "internalType": "bytes32",
          "name": "requestHash",
          "type": "bytes32"
        }
      ],
      "name": "MintRequestAdd",
      "type": "event"
    },
    {
      "anonymous": false,
      "inputs": [
        {
          "indexed": true,
          "internalType": "uint256",
          "name": "nonce",
          "type": "uint256"
        },
        {
          "indexed": true,
          "internalType": "address",
          "name": "requester",
          "type": "address"
        },
        {
          "indexed": false,
          "internalType": "bytes32",
          "name": "requestHash",
          "type": "bytes32"
        }
      ],
      "name": "MintRequestCancel",
      "type": "event"
    },
    {
      "anonymous": false,
      "inputs": [
        {
          "indexed": true,
          "internalType": "address",
          "name": "nft",
          "type": "address"
        }
      ],
      "name": "NFTSet",
      "type": "event"
    },
    {
      "anonymous": false,
      "inputs": [
        {
          "indexed": true,
          "internalType": "address",
          "name": "previousOwner",
          "type": "address"
        },
        {
          "indexed": true,
          "internalType": "address",
          "name": "newOwner",
          "type": "address"
        }
      ],
      "name": "OwnershipTransferred",
      "type": "event"
    },
    {
      "anonymous": false,
      "inputs": [
        {
          "indexed": false,
          "internalType": "address",
          "name": "account",
          "type": "address"
        }
      ],
      "name": "Paused",
      "type": "event"
    },
    {
      "anonymous": false,
      "inputs": [
        {
          "indexed": true,
          "internalType": "address",
          "name": "token",
          "type": "address"
        },
        {
          "indexed": false,
          "internalType": "uint256",
          "name": "time",
          "type": "uint256"
        }
      ],
      "name": "TokenAddressSet",
      "type": "event"
    },
    {
      "anonymous": false,
      "inputs": [
        {
          "indexed": false,
          "internalType": "address",
          "name": "account",
          "type": "address"
        }
      ],
      "name": "Unpaused",
      "type": "event"
    },
    {
      "anonymous": false,
      "inputs": [
        {
          "indexed": true,
          "internalType": "address",
          "name": "usdc",
          "type": "address"
        },
        {
          "indexed": true,
          "internalType": "uint8",
          "name": "decimals",
          "type": "uint8"
        },
        {
          "indexed": false,
          "internalType": "uint256",
          "name": "time",
          "type": "uint256"
        }
      ],
      "name": "UsdcAddressSet",
      "type": "event"
    },
    {
      "inputs": [
        {
          "internalType": "uint256",
          "name": "amount",
          "type": "uint256"
        }
      ],
      "name": "addMintRequest",
      "outputs": [
        {
          "internalType": "uint256",
          "name": "",
          "type": "uint256"
        },
        {
          "internalType": "bytes32",
          "name": "",
          "type": "bytes32"
        }
      ],
      "stateMutability": "nonpayable",
      "type": "function"
    },
    {
      "inputs": [
        {
          "internalType": "uint256",
          "name": "amount",
          "type": "uint256"
        }
      ],
      "name": "burn",
      "outputs": [
        {
          "internalType": "uint256",
          "name": "",
          "type": "uint256"
        },
        {
          "internalType": "bytes32",
          "name": "",
          "type": "bytes32"
        }
      ],
      "stateMutability": "nonpayable",
      "type": "function"
    },
    {
      "inputs": [
        {
          "internalType": "bytes32",
          "name": "",
          "type": "bytes32"
        }
      ],
      "name": "burnRequestNonce",
      "outputs": [
        {
          "internalType": "uint256",
          "name": "",
          "type": "uint256"
        }
      ],
      "stateMutability": "view",
      "type": "function"
    },
    {
      "inputs": [
        {
          "internalType": "uint256",
          "name": "",
          "type": "uint256"
        }
      ],
      "name": "burnRequests",
      "outputs": [
        {
          "internalType": "address",
          "name": "requester",
          "type": "address"
        },
        {
          "internalType": "uint256",
          "name": "amount",
          "type": "uint256"
        },
        {
          "internalType": "address",
          "name": "depositAddress",
          "type": "address"
        },
        {
          "internalType": "uint256",
          "name": "nonce",
          "type": "uint256"
        },
        {
          "internalType": "uint256",
          "name": "timestamp",
          "type": "uint256"
        },
        {
          "internalType": "enum IndexFactoryInterface.RequestStatus",
          "name": "status",
          "type": "uint8"
        }
      ],
      "stateMutability": "view",
      "type": "function"
    },
    {
      "inputs": [
        {
          "internalType": "bytes32",
          "name": "requestHash",
          "type": "bytes32"
        }
      ],
      "name": "confirmBurnRequest",
      "outputs": [
        {
          "internalType": "bool",
          "name": "",
          "type": "bool"
        }
      ],
      "stateMutability": "nonpayable",
      "type": "function"
    },
    {
      "inputs": [
        {
          "internalType": "bytes32",
          "name": "requestHash",
          "type": "bytes32"
        },
        {
          "internalType": "uint256",
          "name": "_tokenAmount",
          "type": "uint256"
        }
      ],
      "name": "confirmMintRequest",
      "outputs": [
        {
          "internalType": "bool",
          "name": "",
          "type": "bool"
        }
      ],
      "stateMutability": "nonpayable",
      "type": "function"
    },
    {
      "inputs": [],
      "name": "custodianWallet",
      "outputs": [
        {
          "internalType": "address",
          "name": "",
          "type": "address"
        }
      ],
      "stateMutability": "view",
      "type": "function"
    },
    {
      "inputs": [],
      "name": "feeRate",
      "outputs": [
        {
          "internalType": "uint8",
          "name": "",
          "type": "uint8"
        }
      ],
      "stateMutability": "view",
      "type": "function"
    },
    {
      "inputs": [],
      "name": "getAllBurnRequests",
      "outputs": [
        {
          "components": [
            {
              "internalType": "address",
              "name": "requester",
              "type": "address"
            },
            {
              "internalType": "uint256",
              "name": "amount",
              "type": "uint256"
            },
            {
              "internalType": "address",
              "name": "depositAddress",
              "type": "address"
            },
            {
              "internalType": "uint256",
              "name": "nonce",
              "type": "uint256"
            },
            {
              "internalType": "uint256",
              "name": "timestamp",
              "type": "uint256"
            },
            {
              "internalType": "enum IndexFactoryInterface.RequestStatus",
              "name": "status",
              "type": "uint8"
            }
          ],
          "internalType": "struct IndexFactoryInterface.Request[]",
          "name": "",
          "type": "tuple[]"
        }
      ],
      "stateMutability": "view",
      "type": "function"
    },
    {
      "inputs": [],
      "name": "getAllMintRequests",
      "outputs": [
        {
          "components": [
            {
              "internalType": "address",
              "name": "requester",
              "type": "address"
            },
            {
              "internalType": "uint256",
              "name": "amount",
              "type": "uint256"
            },
            {
              "internalType": "address",
              "name": "depositAddress",
              "type": "address"
            },
            {
              "internalType": "uint256",
              "name": "nonce",
              "type": "uint256"
            },
            {
              "internalType": "uint256",
              "name": "timestamp",
              "type": "uint256"
            },
            {
              "internalType": "enum IndexFactoryInterface.RequestStatus",
              "name": "status",
              "type": "uint8"
            }
          ],
          "internalType": "struct IndexFactoryInterface.Request[]",
          "name": "",
          "type": "tuple[]"
        }
      ],
      "stateMutability": "view",
      "type": "function"
    },
    {
      "inputs": [
        {
          "internalType": "uint256",
          "name": "nonce",
          "type": "uint256"
        }
      ],
      "name": "getBurnRequest",
      "outputs": [
        {
          "internalType": "uint256",
          "name": "requestNonce",
          "type": "uint256"
        },
        {
          "internalType": "address",
          "name": "requester",
          "type": "address"
        },
        {
          "internalType": "uint256",
          "name": "amount",
          "type": "uint256"
        },
        {
          "internalType": "address",
          "name": "depositAddress",
          "type": "address"
        },
        {
          "internalType": "uint256",
          "name": "timestamp",
          "type": "uint256"
        },
        {
          "internalType": "string",
          "name": "status",
          "type": "string"
        },
        {
          "internalType": "bytes32",
          "name": "requestHash",
          "type": "bytes32"
        }
      ],
      "stateMutability": "view",
      "type": "function"
    },
    {
      "inputs": [],
      "name": "getBurnRequestsLength",
      "outputs": [
        {
          "internalType": "uint256",
          "name": "length",
          "type": "uint256"
        }
      ],
      "stateMutability": "view",
      "type": "function"
    },
    {
      "inputs": [
        {
          "internalType": "uint256",
          "name": "nonce",
          "type": "uint256"
        }
      ],
      "name": "getMintRequest",
      "outputs": [
        {
          "internalType": "uint256",
          "name": "requestNonce",
          "type": "uint256"
        },
        {
          "internalType": "address",
          "name": "requester",
          "type": "address"
        },
        {
          "internalType": "uint256",
          "name": "amount",
          "type": "uint256"
        },
        {
          "internalType": "address",
          "name": "depositAddress",
          "type": "address"
        },
        {
          "internalType": "uint256",
          "name": "timestamp",
          "type": "uint256"
        },
        {
          "internalType": "string",
          "name": "status",
          "type": "string"
        },
        {
          "internalType": "bytes32",
          "name": "requestHash",
          "type": "bytes32"
        }
      ],
      "stateMutability": "view",
      "type": "function"
    },
    {
      "inputs": [],
      "name": "getMintRequestsLength",
      "outputs": [
        {
          "internalType": "uint256",
          "name": "length",
          "type": "uint256"
        }
      ],
      "stateMutability": "view",
      "type": "function"
    },
    {
      "inputs": [
        {
          "internalType": "address",
          "name": "_custodianWallet",
          "type": "address"
        },
        {
          "internalType": "address",
          "name": "_issuer",
          "type": "address"
        },
        {
          "internalType": "address",
          "name": "_token",
          "type": "address"
        },
        {
          "internalType": "address",
          "name": "_usdc",
          "type": "address"
        },
        {
          "internalType": "uint8",
          "name": "_usdcDecimals",
          "type": "uint8"
        },
        {
          "internalType": "address",
          "name": "_nft",
          "type": "address"
        }
      ],
      "name": "initialize",
      "outputs": [],
      "stateMutability": "nonpayable",
      "type": "function"
    },
    {
      "inputs": [],
      "name": "issuer",
      "outputs": [
        {
          "internalType": "address",
          "name": "",
          "type": "address"
        }
      ],
      "stateMutability": "view",
      "type": "function"
    },
    {
      "inputs": [],
      "name": "latestFeeUpdate",
      "outputs": [
        {
          "internalType": "uint256",
          "name": "",
          "type": "uint256"
        }
      ],
      "stateMutability": "view",
      "type": "function"
    },
    {
      "inputs": [
        {
          "internalType": "bytes32",
          "name": "",
          "type": "bytes32"
        }
      ],
      "name": "mintRequestNonce",
      "outputs": [
        {
          "internalType": "uint256",
          "name": "",
          "type": "uint256"
        }
      ],
      "stateMutability": "view",
      "type": "function"
    },
    {
      "inputs": [
        {
          "internalType": "uint256",
          "name": "",
          "type": "uint256"
        }
      ],
      "name": "mintRequests",
      "outputs": [
        {
          "internalType": "address",
          "name": "requester",
          "type": "address"
        },
        {
          "internalType": "uint256",
          "name": "amount",
          "type": "uint256"
        },
        {
          "internalType": "address",
          "name": "depositAddress",
          "type": "address"
        },
        {
          "internalType": "uint256",
          "name": "nonce",
          "type": "uint256"
        },
        {
          "internalType": "uint256",
          "name": "timestamp",
          "type": "uint256"
        },
        {
          "internalType": "enum IndexFactoryInterface.RequestStatus",
          "name": "status",
          "type": "uint8"
        }
      ],
      "stateMutability": "view",
      "type": "function"
    },
    {
      "inputs": [],
      "name": "nft",
      "outputs": [
        {
          "internalType": "contract RequestNFT",
          "name": "",
          "type": "address"
        }
      ],
      "stateMutability": "view",
      "type": "function"
    },
    {
      "inputs": [],
      "name": "owner",
      "outputs": [
        {
          "internalType": "address",
          "name": "",
          "type": "address"
        }
      ],
      "stateMutability": "view",
      "type": "function"
    },
    {
      "inputs": [],
      "name": "pause",
      "outputs": [],
      "stateMutability": "nonpayable",
      "type": "function"
    },
    {
      "inputs": [],
      "name": "paused",
      "outputs": [
        {
          "internalType": "bool",
          "name": "",
          "type": "bool"
        }
      ],
      "stateMutability": "view",
      "type": "function"
    },
    {
      "inputs": [],
      "name": "renounceOwnership",
      "outputs": [],
      "stateMutability": "nonpayable",
      "type": "function"
    },
    {
      "inputs": [
        {
          "internalType": "address",
          "name": "_custodianWallet",
          "type": "address"
        }
      ],
      "name": "setCustodianWallet",
      "outputs": [
        {
          "internalType": "bool",
          "name": "",
          "type": "bool"
        }
      ],
      "stateMutability": "nonpayable",
      "type": "function"
    },
    {
      "inputs": [
        {
          "internalType": "uint8",
          "name": "_newFee",
          "type": "uint8"
        }
      ],
      "name": "setFeeRate",
      "outputs": [],
      "stateMutability": "nonpayable",
      "type": "function"
    },
    {
      "inputs": [
        {
          "internalType": "address",
          "name": "_issuer",
          "type": "address"
        }
      ],
      "name": "setIssuer",
      "outputs": [
        {
          "internalType": "bool",
          "name": "",
          "type": "bool"
        }
      ],
      "stateMutability": "nonpayable",
      "type": "function"
    },
    {
      "inputs": [
        {
          "internalType": "address",
          "name": "_nft",
          "type": "address"
        }
      ],
      "name": "setNFT",
      "outputs": [
        {
          "internalType": "bool",
          "name": "",
          "type": "bool"
        }
      ],
      "stateMutability": "nonpayable",
      "type": "function"
    },
    {
      "inputs": [
        {
          "internalType": "address",
          "name": "_token",
          "type": "address"
        }
      ],
      "name": "setTokenAddress",
      "outputs": [
        {
          "internalType": "bool",
          "name": "",
          "type": "bool"
        }
      ],
      "stateMutability": "nonpayable",
      "type": "function"
    },
    {
      "inputs": [
        {
          "internalType": "address",
          "name": "_usdc",
          "type": "address"
        },
        {
          "internalType": "uint8",
          "name": "_usdcDecimals",
          "type": "uint8"
        }
      ],
      "name": "setUsdcAddress",
      "outputs": [
        {
          "internalType": "bool",
          "name": "",
          "type": "bool"
        }
      ],
      "stateMutability": "nonpayable",
      "type": "function"
    },
    {
      "inputs": [],
      "name": "token",
      "outputs": [
        {
          "internalType": "contract IndexToken",
          "name": "",
          "type": "address"
        }
      ],
      "stateMutability": "view",
      "type": "function"
    },
    {
      "inputs": [
        {
          "internalType": "address",
          "name": "newOwner",
          "type": "address"
        }
      ],
      "name": "transferOwnership",
      "outputs": [],
      "stateMutability": "nonpayable",
      "type": "function"
    },
    {
      "inputs": [],
      "name": "unpause",
      "outputs": [],
      "stateMutability": "nonpayable",
      "type": "function"
    },
    {
      "inputs": [],
      "name": "usdc",
      "outputs": [
        {
          "internalType": "address",
          "name": "",
          "type": "address"
        }
      ],
      "stateMutability": "view",
      "type": "function"
    },
    {
      "inputs": [],
      "name": "usdcDecimals",
      "outputs": [
        {
          "internalType": "uint8",
          "name": "",
          "type": "uint8"
        }
      ],
      "stateMutability": "view",
      "type": "function"
    }
  ],
  "bytecode": {
    "object": "0x6080604052609a805460ff60a81b1916600560a91b17905534801561002357600080fd5b506126a6806100336000396000f3fe608060405234801561001057600080fd5b50600436106102115760003560e01c806364c70d45116101255780639cc0fb5b116100ad578063e21c40c01161007c578063e21c40c0146104a1578063eab2a711146104b4578063f2fde38b146104c7578063f56e9c66146104da578063fc0c546a146104ed57600080fd5b80639cc0fb5b14610435578063b69b22d814610448578063b92997a11461046e578063c72551be1461048157600080fd5b80637bf42165116100f45780637bf42165146103c25780638456cb59146103e85780638da5cb5b146103f0578063978bbdb9146104015780639ad4b86b1461041557600080fd5b806364c70d4514610397578063715018a61461039f57806372f69a72146103a75780637683c027146103af57600080fd5b8063424e6575116101a857806355cc4e571161017757806355cc4e57146103405780635c975abb1461035357806360daba331461035e5780636406c10c1461037157806364a9b8f71461038457600080fd5b8063424e6575146102cd57806342966c68146102f257806347ccca021461031a5780635177942a1461032d57600080fd5b806326a4e8d2116101e457806326a4e8d214610285578063311104f3146102a85780633e413bee146102b05780633f4ba83a146102c357600080fd5b8063011ced5f146102165780631d143848146102325780631e106e991461025d5780631e7aa9f414610270575b600080fd5b61021f609b5481565b6040519081526020015b60405180910390f35b609954610245906001600160a01b031681565b6040516001600160a01b039091168152602001610229565b609854610245906001600160a01b031681565b610278610500565b6040516102299190612444565b61029861029336600461225f565b6105d3565b6040519015158152602001610229565b609e5461021f565b609a54610245906001600160a01b031681565b6102cb61068a565b005b6102e06102db36600461234a565b61069c565b6040516102299695949392919061240a565b61030561030036600461234a565b6106f3565b60408051928352602083019190915201610229565b60a054610245906001600160a01b031681565b6102cb61033b366004612385565b6109cb565b61029861034e36600461225f565b610b15565b60655460ff16610298565b61029861036c36600461234a565b610bbd565b6102e061037f36600461234a565b610cd9565b610298610392366004612363565b610ce9565b610278610e69565b6102cb610f33565b609f5461021f565b6103056103bd36600461234a565b610f45565b609a546103d690600160a01b900460ff1681565b60405160ff9091168152602001610229565b6102cb611246565b6033546001600160a01b0316610245565b609a546103d690600160a81b900460ff1681565b61021f61042336600461234a565b609c6020526000908152604090205481565b61029861044336600461225f565b611256565b61045b61045636600461234a565b611305565b6040516102299796959493929190612532565b6102cb61047c366004612281565b611406565b61021f61048f36600461234a565b609d6020526000908152604090205481565b61045b6104af36600461234a565b611590565b6102986104c23660046122f5565b6116ea565b6102cb6104d536600461225f565b6117ad565b6102986104e836600461225f565b611826565b609754610245906001600160a01b031681565b6060609f805480602002602001604051908101604052809291908181526020016000905b828210156105ca5760008481526020908190206040805160c0810182526006860290920180546001600160a01b039081168452600182015494840194909452600281015490931690820152600382015460608201526004808301546080830152600583015491929160a084019160ff909116908111156105a6576105a6612644565b60048111156105b7576105b7612644565b8152505081526020019060010190610524565b50505050905090565b60006105dd6118cb565b6001600160a01b0382166106305760405162461bcd60e51b8152602060048201526015602482015274696e76616c696420746f6b656e206164647265737360581b60448201526064015b60405180910390fd5b609780546001600160a01b0319166001600160a01b0384169081179091556040514281527f2d65e2eeacd42ac25aa023ad49c935dd4697a70e62b53317b7514f14096ff3899060200160405180910390a25060015b919050565b6106926118cb565b61069a611925565b565b609e81815481106106ac57600080fd5b60009182526020909120600690910201805460018201546002830154600384015460048501546005909501546001600160a01b039485169650929491909316929160ff1686565b6000806106fe611977565b609f546040805160c081018252338082526020820187905291810191909152606081018290524260808201819052600160a083015290600061073f826119bd565b6000818152609d60209081526040808320889055609f8054600180820183559190945286517f0bc14066c33013fe88f66e314e4cf150b0b2d4d6451a1a51dbbd1c27cd11de28600690950294850180546001600160a01b03199081166001600160a01b03938416178255948901517f0bc14066c33013fe88f66e314e4cf150b0b2d4d6451a1a51dbbd1c27cd11de29870155928801517f0bc14066c33013fe88f66e314e4cf150b0b2d4d6451a1a51dbbd1c27cd11de2a8601805490951691161790925560608601517f0bc14066c33013fe88f66e314e4cf150b0b2d4d6451a1a51dbbd1c27cd11de2b84015560808601517f0bc14066c33013fe88f66e314e4cf150b0b2d4d6451a1a51dbbd1c27cd11de2c84015560a08601517f0bc14066c33013fe88f66e314e4cf150b0b2d4d6451a1a51dbbd1c27cd11de2d90930180549495508694919392909160ff1916908360048111156108a1576108a1612644565b021790555050609754604051632770a7eb60e21b8152336004820152602481018a90526001600160a01b039091169150639dc29fac90604401600060405180830381600087803b1580156108f457600080fd5b505af1158015610908573d6000803e3d6000fd5b505060a0546040516319c5df4360e01b8152336004820152602481018b90526001600160a01b0390911692506319c5df439150604401600060405180830381600087803b15801561095857600080fd5b505af115801561096c573d6000803e3d6000fd5b50506098546040513393508792507fe6962694158a281204f611e0b1efc743e9ad587dd4b4dce387ec6fdef9cb9276916109b5918c916001600160a01b03169089908890612586565b60405180910390a392945091925050505b915091565b6109d36118cb565b6000609b54426109e391906125eb565b9050600c603c6109f381846125aa565b6109fd91906125aa565b11610a705760405162461bcd60e51b815260206004820152603960248201527f596f752073686f756c642077616974206174206c6561737420313220686f757260448201527f7320616674657220746865206c617465737420757064617465000000000000006064820152608401610627565b60648260ff1611158015610a88575060018260ff1610155b610af05760405162461bcd60e51b815260206004820152603360248201527f546865206e65774665652073686f756c64206265206265747765656e203120616044820152726e64203130302028302e303125202d2031252960681b6064820152608401610627565b50609a805460ff909216600160a81b0260ff60a81b1990921691909117905542609b55565b6000610b1f6118cb565b6001600160a01b038216610b6e5760405162461bcd60e51b8152602060048201526016602482015275696e76616c696420697373756572206164647265737360501b6044820152606401610627565b609980546001600160a01b0319166001600160a01b0384169081179091556040517f141c634522c8bfcf25beba4c524ac0c87de0db74ebe83168cf5f3bf4d45fd89890600090a2506001919050565b6099546000906001600160a01b03163314610c115760405162461bcd60e51b815260206004820152601460248201527339b2b73232b9103737ba10309034b9b9bab2b91760611b6044820152606401610627565b6000610c1b612204565b610c2484611a34565b80925081935050506003609f8381548110610c4157610c4161265a565b60009182526020909120600560069092020101805460ff19166001836004811115610c6e57610c6e612644565b021790555080600001516001600160a01b031681606001517f9d34e90560c4a3acdc3e2538823a0f15daae0cab079543a5341e13635ea88d1483602001518460400151856080015189604051610cc79493929190612586565b60405180910390a35060019392505050565b609f81815481106106ac57600080fd5b6099546000906001600160a01b03163314610d3d5760405162461bcd60e51b815260206004820152601460248201527339b2b73232b9103737ba10309034b9b9bab2b91760611b6044820152606401610627565b6000610d47612204565b610d5085611b41565b80925081935050506003609e8381548110610d6d57610d6d61265a565b60009182526020909120600560069092020101805460ff19166001836004811115610d9a57610d9a612644565b021790555060975481516040516340c10f1960e01b81526001600160a01b039182166004820152602481018790529116906340c10f1990604401600060405180830381600087803b158015610dee57600080fd5b505af1158015610e02573d6000803e3d6000fd5b5050505080600001516001600160a01b031681606001517ff319776600e931b90301da43f4a0e4b931f831b2e13f71b6746fdaa715f0f58c86846040015185608001518a604051610e569493929190612586565b60405180910390a3506001949350505050565b6060609e805480602002602001604051908101604052809291908181526020016000905b828210156105ca5760008481526020908190206040805160c0810182526006860290920180546001600160a01b039081168452600182015494840194909452600281015490931690820152600382015460608201526004808301546080830152600583015491929160a084019160ff90911690811115610f0f57610f0f612644565b6004811115610f2057610f20612644565b8152505081526020019060010190610e8d565b610f3b6118cb565b61069a6000611bb3565b600080610f50611977565b609a5460009061271090610f6e90600160a81b900460ff16866125cc565b610f7891906125aa565b90506000610f8682866125eb565b609a54609854919250610fa8916001600160a01b039182169133911684611c05565b609a54610fd1906001600160a01b031633610fcb6033546001600160a01b031690565b85611c05565b609e546040805160c081018252338152602081018490526098546001600160a01b031691810191909152606081018290524260808201819052600160a083015290600061101d826119bd565b6000818152609c60209081526040808320889055609e8054600180820183559190945286517fcfe2a20ff701a1f3e14f63bd70d6c6bc6fba8172ec6d5a505cdab3927c0a9de6600690950294850180546001600160a01b03199081166001600160a01b03938416178255948901517fcfe2a20ff701a1f3e14f63bd70d6c6bc6fba8172ec6d5a505cdab3927c0a9de7870155928801517fcfe2a20ff701a1f3e14f63bd70d6c6bc6fba8172ec6d5a505cdab3927c0a9de88601805490951691161790925560608601517fcfe2a20ff701a1f3e14f63bd70d6c6bc6fba8172ec6d5a505cdab3927c0a9de984015560808601517fcfe2a20ff701a1f3e14f63bd70d6c6bc6fba8172ec6d5a505cdab3927c0a9dea84015560a08601517fcfe2a20ff701a1f3e14f63bd70d6c6bc6fba8172ec6d5a505cdab3927c0a9deb90930180549495508694919392909160ff19169083600481111561117f5761117f612644565b02179055505060a054604051636703a9b160e11b8152336004820152602481018890526001600160a01b03909116915063ce07536290604401600060405180830381600087803b1580156111d257600080fd5b505af11580156111e6573d6000803e3d6000fd5b50506098546040513393508792507fa410db190881128a918f76d46896d4accc2a2a48ad20485fe31f4f55d21b0ae39161122f918a916001600160a01b03169089908890612586565b60405180910390a392965091945050505050915091565b61124e6118cb565b61069a611c65565b60006112606118cb565b6001600160a01b0382166112b65760405162461bcd60e51b815260206004820181905260248201527f696e76616c696420637573746f6469616e2077616c6c657420616464726573736044820152606401610627565b609880546001600160a01b0319166001600160a01b0384169081179091556040517fb88c20a211c5d7677ba2a26c317d8ae6b25aa492016dc8ceca2469761d063d8090600090a2506001919050565b60008060008060006060600080609e89815481106113255761132561265a565b60009182526020918290206040805160c081018252600690930290910180546001600160a01b039081168452600182015494840194909452600281015490931690820152600382015460608201526004808301546080830152600583015491929160a084019160ff909116908111156113a0576113a0612644565b60048111156113b1576113b1612644565b81525050905060006113c68260a00151611ca2565b905081606001519850816000015197508160200151965081604001519550816080015194508093506113f7826119bd565b92505050919395979092949650565b600054610100900460ff16158080156114265750600054600160ff909116105b806114405750303b158015611440575060005460ff166001145b6114a35760405162461bcd60e51b815260206004820152602e60248201527f496e697469616c697a61626c653a20636f6e747261637420697320616c72656160448201526d191e481a5b9a5d1a585b1a5e995960921b6064820152608401610627565b6000805460ff1916600117905580156114c6576000805461ff0019166101001790555b609880546001600160a01b03808a166001600160a01b0319928316179092556099805489841690831617905560978054888416908316179055609a805460ff8716600160a01b026001600160a81b03199091168885161717905560a0805492851692909116919091179055611539611dbe565b611541611ded565b8015611587576000805461ff0019169055604051600181527f7f26b83ff96e1f2b6a682f133852f6798a09c465da95921460cefb38474024989060200160405180910390a15b50505050505050565b60008060008060006060600080609f89815481106115b0576115b061265a565b6000918252602082206005600690920201908101549092506115d49060ff16611ca2565b9050816003015498508160000160009054906101000a90046001600160a01b03169750816001015496508160020160009054906101000a90046001600160a01b03169550816004015494508093506113f7826040518060c00160405290816000820160009054906101000a90046001600160a01b03166001600160a01b03166001600160a01b03168152602001600182015481526020016002820160009054906101000a90046001600160a01b03166001600160a01b03166001600160a01b0316815260200160038201548152602001600482015481526020016005820160009054906101000a900460ff1660048111156116d1576116d1612644565b60048111156116e2576116e2612644565b9052506119bd565b60006116f46118cb565b6001600160a01b0383166117425760405162461bcd60e51b8152602060048201526015602482015274696e76616c696420746f6b656e206164647265737360581b6044820152606401610627565b609a80546001600160a01b0385166001600160a81b03199091168117600160a01b60ff8616908102919091179092556040514281527f47f70abc5eafc71015adda71f3628949d17bd87cb6199008a1243dca856ceaaf9060200160405180910390a350600192915050565b6117b56118cb565b6001600160a01b03811661181a5760405162461bcd60e51b815260206004820152602660248201527f4f776e61626c653a206e6577206f776e657220697320746865207a65726f206160448201526564647265737360d01b6064820152608401610627565b61182381611bb3565b50565b60006118306118cb565b6001600160a01b03821661187c5760405162461bcd60e51b8152602060048201526013602482015272696e76616c6964206e6674206164647265737360681b6044820152606401610627565b60a080546001600160a01b0319166001600160a01b0384169081179091556040517f75fc4fdf6d5e94402ecc584683c37c192cfde2ea99b612d59a6864204919c7e490600090a2506001919050565b6033546001600160a01b0316331461069a5760405162461bcd60e51b815260206004820181905260248201527f4f776e61626c653a2063616c6c6572206973206e6f7420746865206f776e65726044820152606401610627565b61192d611e1c565b6065805460ff191690557f5db9ee0a495bf2e6ff9c91a7834c1ba4fdd244a5e8aa4e537bd38aeae4b073aa335b6040516001600160a01b03909116815260200160405180910390a1565b60655460ff161561069a5760405162461bcd60e51b815260206004820152601060248201526f14185d5cd8589b194e881c185d5cd95960821b6044820152606401610627565b8051602080830151604080850151606086015160808701519251600096611a179690959491016001600160a01b03958616815260208101949094529190931660408301526060820192909252608081019190915260a00190565b604051602081830303815290604052805190602001209050919050565b6000611a3e612204565b82611a7f5760405162461bcd60e51b81526020600482015260116024820152700726571756573742068617368206973203607c1b6044820152606401610627565b6000838152609d6020526040902054609f80549193509083908110611aa657611aa661265a565b60009182526020918290206040805160c081018252600690930290910180546001600160a01b039081168452600182015494840194909452600281015490931690820152600382015460608201526004808301546080830152600583015491929160a084019160ff90911690811115611b2157611b21612644565b6004811115611b3257611b32612644565b90525090506109c68184611e65565b6000611b4b612204565b82611b8c5760405162461bcd60e51b81526020600482015260116024820152700726571756573742068617368206973203607c1b6044820152606401610627565b6000838152609c6020526040902054609e80549193509083908110611aa657611aa661265a565b603380546001600160a01b038381166001600160a01b0319831681179093556040519116919082907f8be0079c531659141344cd1fd0a4f28419497f9722a3daafe3b4186f6b6457e090600090a35050565b604080516001600160a01b0385811660248301528416604482015260648082018490528251808303909101815260849091019091526020810180516001600160e01b03166323b872dd60e01b179052611c5f908590611f3a565b50505050565b611c6d611977565b6065805460ff191660011790557f62e78cea01bee320cd4e420270b5ea74000d11b0c9f74754ebdbfc544b05a25861195a3390565b60606001826004811115611cb857611cb8612644565b1415611ce157505060408051808201909152600781526670656e64696e6760c81b602082015290565b6002826004811115611cf557611cf5612644565b1415611d1f57505060408051808201909152600881526718d85b98d95b195960c21b602082015290565b6003826004811115611d3357611d33612644565b1415611d5d575050604080518082019091526008815267185c1c1c9bdd995960c21b602082015290565b6004826004811115611d7157611d71612644565b1415611d9b5750506040805180820190915260088152671c995a9958dd195960c21b602082015290565b50506040805180820190915260078152663ab735b737bbb760c91b602082015290565b600054610100900460ff16611de55760405162461bcd60e51b8152600401610627906124e7565b61069a612014565b600054610100900460ff16611e145760405162461bcd60e51b8152600401610627906124e7565b61069a612044565b60655460ff1661069a5760405162461bcd60e51b815260206004820152601460248201527314185d5cd8589b194e881b9bdd081c185d5cd95960621b6044820152606401610627565b60018260a001516004811115611e7d57611e7d612644565b14611ec35760405162461bcd60e51b815260206004820152601660248201527572657175657374206973206e6f742070656e64696e6760501b6044820152606401610627565b611ecc826119bd565b8114611f365760405162461bcd60e51b815260206004820152603360248201527f676976656e2072657175657374206861736820646f6573206e6f74206d6174636044820152721a0818481c195b991a5b99c81c995c5d595cdd606a1b6064820152608401610627565b5050565b6000611f8f826040518060400160405280602081526020017f5361666545524332303a206c6f772d6c6576656c2063616c6c206661696c6564815250856001600160a01b03166120779092919063ffffffff16565b9050805160001480611fb0575080806020019051810190611fb09190612328565b61200f5760405162461bcd60e51b815260206004820152602a60248201527f5361666545524332303a204552433230206f7065726174696f6e20646964206e6044820152691bdd081cdd58d8d9595960b21b6064820152608401610627565b505050565b600054610100900460ff1661203b5760405162461bcd60e51b8152600401610627906124e7565b61069a33611bb3565b600054610100900460ff1661206b5760405162461bcd60e51b8152600401610627906124e7565b6065805460ff19169055565b6060612086848460008561208e565b949350505050565b6060824710156120ef5760405162461bcd60e51b815260206004820152602660248201527f416464726573733a20696e73756666696369656e742062616c616e636520666f6044820152651c8818d85b1b60d21b6064820152608401610627565b600080866001600160a01b0316858760405161210b91906123ee565b60006040518083038185875af1925050503d8060008114612148576040519150601f19603f3d011682016040523d82523d6000602084013e61214d565b606091505b509150915061215e87838387612169565b979650505050505050565b606083156121d55782516121ce576001600160a01b0385163b6121ce5760405162461bcd60e51b815260206004820152601d60248201527f416464726573733a2063616c6c20746f206e6f6e2d636f6e74726163740000006044820152606401610627565b5081612086565b61208683838151156121ea5781518083602001fd5b8060405162461bcd60e51b815260040161062791906124d4565b6040805160c08101825260008082526020820181905291810182905260608101829052608081018290529060a082015290565b80356001600160a01b038116811461068557600080fd5b803560ff8116811461068557600080fd5b60006020828403121561227157600080fd5b61227a82612237565b9392505050565b60008060008060008060c0878903121561229a57600080fd5b6122a387612237565b95506122b160208801612237565b94506122bf60408801612237565b93506122cd60608801612237565b92506122db6080880161224e565b91506122e960a08801612237565b90509295509295509295565b6000806040838503121561230857600080fd5b61231183612237565b915061231f6020840161224e565b90509250929050565b60006020828403121561233a57600080fd5b8151801515811461227a57600080fd5b60006020828403121561235c57600080fd5b5035919050565b6000806040838503121561237657600080fd5b50508035926020909101359150565b60006020828403121561239757600080fd5b61227a8261224e565b600581106123be57634e487b7160e01b600052602160045260246000fd5b9052565b600081518084526123da816020860160208601612602565b601f01601f19169290920160200192915050565b60008251612400818460208701612602565b9190910192915050565b6001600160a01b0387811682526020820187905285166040820152606081018490526080810183905260c0810161215e60a08301846123a0565b602080825282518282018190526000919060409081850190868401855b828110156124c757815180516001600160a01b0390811686528782015188870152868201511686860152606080820151908601526080808201519086015260a090810151906124b2868201836123a0565b505060c0939093019290850190600101612461565b5091979650505050505050565b60208152600061227a60208301846123c2565b6020808252602b908201527f496e697469616c697a61626c653a20636f6e7472616374206973206e6f74206960408201526a6e697469616c697a696e6760a81b606082015260800190565b8781526001600160a01b03878116602083015260408201879052851660608201526080810184905260e060a08201819052600090612572908301856123c2565b90508260c083015298975050505050505050565b9384526001600160a01b039290921660208401526040830152606082015260800190565b6000826125c757634e487b7160e01b600052601260045260246000fd5b500490565b60008160001904831182151516156125e6576125e661262e565b500290565b6000828210156125fd576125fd61262e565b500390565b60005b8381101561261d578181015183820152602001612605565b83811115611c5f5750506000910152565b634e487b7160e01b600052601160045260246000fd5b634e487b7160e01b600052602160045260246000fd5b634e487b7160e01b600052603260045260246000fdfea26469706673582212202515462e528a70773d429b35cd30cee69ad91853394ef8d5702372a7f10d61b564736f6c63430008070033",
    "linkReferences": {}
  },
  "methodIdentifiers": {
    "addMintRequest(uint256)": "7683c027",
    "burn(uint256)": "42966c68",
    "burnRequestNonce(bytes32)": "c72551be",
    "burnRequests(uint256)": "6406c10c",
    "confirmBurnRequest(bytes32)": "60daba33",
    "confirmMintRequest(bytes32,uint256)": "64a9b8f7",
    "custodianWallet()": "1e106e99",
    "feeRate()": "978bbdb9",
    "getAllBurnRequests()": "1e7aa9f4",
    "getAllMintRequests()": "64c70d45",
    "getBurnRequest(uint256)": "e21c40c0",
    "getBurnRequestsLength()": "72f69a72",
    "getMintRequest(uint256)": "b69b22d8",
    "getMintRequestsLength()": "311104f3",
    "initialize(address,address,address,address,uint8,address)": "b92997a1",
    "issuer()": "1d143848",
    "latestFeeUpdate()": "011ced5f",
    "mintRequestNonce(bytes32)": "9ad4b86b",
    "mintRequests(uint256)": "424e6575",
    "nft()": "47ccca02",
    "owner()": "8da5cb5b",
    "pause()": "8456cb59",
    "paused()": "5c975abb",
    "renounceOwnership()": "715018a6",
    "setCustodianWallet(address)": "9cc0fb5b",
    "setFeeRate(uint8)": "5177942a",
    "setIssuer(address)": "55cc4e57",
    "setNFT(address)": "f56e9c66",
    "setTokenAddress(address)": "26a4e8d2",
    "setUsdcAddress(address,uint8)": "eab2a711",
    "token()": "fc0c546a",
    "transferOwnership(address)": "f2fde38b",
    "unpause()": "3f4ba83a",
    "usdc()": "3e413bee",
    "usdcDecimals()": "7bf42165"
  },
  "id": 0
}