{
  "abi": [
    {
      "anonymous": false,
      "inputs": [
        {
          "indexed": true,
          "internalType": "uint256",
          "name": "nonce",
          "type": "uint256"
        },
        {
          "indexed": true,
          "internalType": "address",
          "name": "requester",
          "type": "address"
        },
        {
          "indexed": false,
          "internalType": "uint256",
          "name": "amount",
          "type": "uint256"
        },
        {
          "indexed": false,
          "internalType": "address[]",
          "name": "depositAddresses",
          "type": "address[]"
        },
        {
          "indexed": false,
          "internalType": "uint256",
          "name": "timestamp",
          "type": "uint256"
        },
        {
          "indexed": false,
          "internalType": "bytes32",
          "name": "inputRequestHash",
          "type": "bytes32"
        }
      ],
      "name": "BurnConfirmed",
      "type": "event"
    },
    {
      "anonymous": false,
      "inputs": [
        {
          "indexed": true,
          "internalType": "uint256",
          "name": "nonce",
          "type": "uint256"
        },
        {
          "indexed": true,
          "internalType": "address",
          "name": "requester",
          "type": "address"
        },
        {
          "indexed": false,
          "internalType": "uint256",
          "name": "amount",
          "type": "uint256"
        },
        {
          "indexed": false,
          "internalType": "address[]",
          "name": "depositAddresses",
          "type": "address[]"
        },
        {
          "indexed": false,
          "internalType": "uint256",
          "name": "timestamp",
          "type": "uint256"
        },
        {
          "indexed": false,
          "internalType": "bytes32",
          "name": "requestHash",
          "type": "bytes32"
        }
      ],
      "name": "Burned",
      "type": "event"
    },
    {
      "anonymous": false,
      "inputs": [
        {
          "indexed": true,
          "internalType": "bytes32",
          "name": "id",
          "type": "bytes32"
        }
      ],
      "name": "ChainlinkCancelled",
      "type": "event"
    },
    {
      "anonymous": false,
      "inputs": [
        {
          "indexed": true,
          "internalType": "bytes32",
          "name": "id",
          "type": "bytes32"
        }
      ],
      "name": "ChainlinkFulfilled",
      "type": "event"
    },
    {
      "anonymous": false,
      "inputs": [
        {
          "indexed": true,
          "internalType": "bytes32",
          "name": "id",
          "type": "bytes32"
        }
      ],
      "name": "ChainlinkRequested",
      "type": "event"
    },
    {
      "anonymous": false,
      "inputs": [
        {
          "indexed": true,
          "internalType": "address",
          "name": "custodian",
          "type": "address"
        }
      ],
      "name": "CustodianSet",
      "type": "event"
    },
    {
      "anonymous": false,
      "inputs": [
        {
          "indexed": true,
          "internalType": "address[]",
          "name": "addresses",
          "type": "address[]"
        },
        {
          "indexed": false,
          "internalType": "uint256[]",
          "name": "marketShares",
          "type": "uint256[]"
        }
      ],
      "name": "ExchangeWalletsSet",
      "type": "event"
    },
    {
      "anonymous": false,
      "inputs": [
        {
          "indexed": false,
          "internalType": "uint8",
          "name": "version",
          "type": "uint8"
        }
      ],
      "name": "Initialized",
      "type": "event"
    },
    {
      "anonymous": false,
      "inputs": [
        {
          "indexed": true,
          "internalType": "address",
          "name": "merchant",
          "type": "address"
        },
        {
          "indexed": true,
          "internalType": "address",
          "name": "sender",
          "type": "address"
        },
        {
          "indexed": false,
          "internalType": "address",
          "name": "depositAddress",
          "type": "address"
        }
      ],
      "name": "IssuerDepositAddressSet",
      "type": "event"
    },
    {
      "anonymous": false,
      "inputs": [
        {
          "indexed": true,
          "internalType": "address",
          "name": "issuer",
          "type": "address"
        }
      ],
      "name": "IssuerSet",
      "type": "event"
    },
    {
      "anonymous": false,
      "inputs": [
        {
          "indexed": true,
          "internalType": "address",
          "name": "merchant",
          "type": "address"
        },
        {
          "indexed": false,
          "internalType": "address",
          "name": "depositAddress",
          "type": "address"
        }
      ],
      "name": "MerchantDepositAddressSet",
      "type": "event"
    },
    {
      "anonymous": false,
      "inputs": [
        {
          "indexed": true,
          "internalType": "uint256",
          "name": "nonce",
          "type": "uint256"
        },
        {
          "indexed": true,
          "internalType": "address",
          "name": "requester",
          "type": "address"
        },
        {
          "indexed": false,
          "internalType": "uint256",
          "name": "amount",
          "type": "uint256"
        },
        {
          "indexed": false,
          "internalType": "address[]",
          "name": "depositAddresses",
          "type": "address[]"
        },
        {
          "indexed": false,
          "internalType": "uint256",
          "name": "timestamp",
          "type": "uint256"
        },
        {
          "indexed": false,
          "internalType": "bytes32",
          "name": "requestHash",
          "type": "bytes32"
        }
      ],
      "name": "MintConfirmed",
      "type": "event"
    },
    {
      "anonymous": false,
      "inputs": [
        {
          "indexed": true,
          "internalType": "uint256",
          "name": "nonce",
          "type": "uint256"
        },
        {
          "indexed": true,
          "internalType": "address",
          "name": "requester",
          "type": "address"
        },
        {
          "indexed": false,
          "internalType": "uint256",
          "name": "amount",
          "type": "uint256"
        },
        {
          "indexed": false,
          "internalType": "address[]",
          "name": "depositAddresses",
          "type": "address[]"
        },
        {
          "indexed": false,
          "internalType": "uint256",
          "name": "timestamp",
          "type": "uint256"
        },
        {
          "indexed": false,
          "internalType": "bytes32",
          "name": "requestHash",
          "type": "bytes32"
        }
      ],
      "name": "MintRejected",
      "type": "event"
    },
    {
      "anonymous": false,
      "inputs": [
        {
          "indexed": true,
          "internalType": "uint256",
          "name": "nonce",
          "type": "uint256"
        },
        {
          "indexed": true,
          "internalType": "address",
          "name": "requester",
          "type": "address"
        },
        {
          "indexed": false,
          "internalType": "uint256",
          "name": "amount",
          "type": "uint256"
        },
        {
          "indexed": false,
          "internalType": "address[]",
          "name": "depositAddresses",
          "type": "address[]"
        },
        {
          "indexed": false,
          "internalType": "uint256",
          "name": "timestamp",
          "type": "uint256"
        },
        {
          "indexed": false,
          "internalType": "bytes32",
          "name": "requestHash",
          "type": "bytes32"
        }
      ],
      "name": "MintRequestAdd",
      "type": "event"
    },
    {
      "anonymous": false,
      "inputs": [
        {
          "indexed": true,
          "internalType": "uint256",
          "name": "nonce",
          "type": "uint256"
        },
        {
          "indexed": true,
          "internalType": "address",
          "name": "requester",
          "type": "address"
        },
        {
          "indexed": false,
          "internalType": "bytes32",
          "name": "requestHash",
          "type": "bytes32"
        }
      ],
      "name": "MintRequestCancel",
      "type": "event"
    },
    {
      "anonymous": false,
      "inputs": [
        {
          "indexed": true,
          "internalType": "address",
          "name": "nft",
          "type": "address"
        }
      ],
      "name": "NFTSet",
      "type": "event"
    },
    {
      "anonymous": false,
      "inputs": [
        {
          "indexed": true,
          "internalType": "address",
          "name": "previousOwner",
          "type": "address"
        },
        {
          "indexed": true,
          "internalType": "address",
          "name": "newOwner",
          "type": "address"
        }
      ],
      "name": "OwnershipTransferred",
      "type": "event"
    },
    {
      "anonymous": false,
      "inputs": [
        {
          "indexed": false,
          "internalType": "address",
          "name": "account",
          "type": "address"
        }
      ],
      "name": "Paused",
      "type": "event"
    },
    {
      "anonymous": false,
      "inputs": [
        {
          "indexed": true,
          "internalType": "address",
          "name": "token",
          "type": "address"
        },
        {
          "indexed": false,
          "internalType": "uint256",
          "name": "time",
          "type": "uint256"
        }
      ],
      "name": "TokenAddressSet",
      "type": "event"
    },
    {
      "anonymous": false,
      "inputs": [
        {
          "indexed": false,
          "internalType": "address",
          "name": "account",
          "type": "address"
        }
      ],
      "name": "Unpaused",
      "type": "event"
    },
    {
      "anonymous": false,
      "inputs": [
        {
          "indexed": true,
          "internalType": "address",
          "name": "usdc",
          "type": "address"
        },
        {
          "indexed": true,
          "internalType": "uint8",
          "name": "decimals",
          "type": "uint8"
        },
        {
          "indexed": false,
          "internalType": "uint256",
          "name": "time",
          "type": "uint256"
        }
      ],
      "name": "UsdcAddressSet",
      "type": "event"
    },
    {
      "inputs": [
        {
          "internalType": "uint256",
          "name": "amount",
          "type": "uint256"
        },
        {
          "internalType": "address",
          "name": "user",
          "type": "address"
        }
      ],
      "name": "addMintRequest",
      "outputs": [
        {
          "internalType": "uint256",
          "name": "",
          "type": "uint256"
        },
        {
          "internalType": "bytes32",
          "name": "",
          "type": "bytes32"
        }
      ],
      "stateMutability": "nonpayable",
      "type": "function"
    },
    {
      "inputs": [
        {
          "internalType": "uint256",
          "name": "amount",
          "type": "uint256"
        },
        {
          "internalType": "address",
          "name": "user",
          "type": "address"
        }
      ],
      "name": "burn",
      "outputs": [
        {
          "internalType": "uint256",
          "name": "",
          "type": "uint256"
        },
        {
          "internalType": "bytes32",
          "name": "",
          "type": "bytes32"
        }
      ],
      "stateMutability": "nonpayable",
      "type": "function"
    },
    {
      "inputs": [
        {
          "internalType": "bytes32",
          "name": "",
          "type": "bytes32"
        }
      ],
      "name": "burnRequestNonce",
      "outputs": [
        {
          "internalType": "uint256",
          "name": "",
          "type": "uint256"
        }
      ],
      "stateMutability": "view",
      "type": "function"
    },
    {
      "inputs": [
        {
          "internalType": "uint256",
          "name": "",
          "type": "uint256"
        }
      ],
      "name": "burnRequests",
      "outputs": [
        {
          "internalType": "address",
          "name": "requester",
          "type": "address"
        },
        {
          "internalType": "uint256",
          "name": "amount",
          "type": "uint256"
        },
        {
          "internalType": "uint256",
          "name": "nonce",
          "type": "uint256"
        },
        {
          "internalType": "uint256",
          "name": "timestamp",
          "type": "uint256"
        },
        {
          "internalType": "enum IndexFactoryInterface.RequestStatus",
          "name": "status",
          "type": "uint8"
        }
      ],
      "stateMutability": "view",
      "type": "function"
    },
    {
      "inputs": [
        {
          "internalType": "string",
          "name": "a",
          "type": "string"
        },
        {
          "internalType": "string",
          "name": "b",
          "type": "string"
        }
      ],
      "name": "concatenation",
      "outputs": [
        {
          "internalType": "string",
          "name": "",
          "type": "string"
        }
      ],
      "stateMutability": "pure",
      "type": "function"
    },
    {
      "inputs": [
        {
          "internalType": "bytes32",
          "name": "requestHash",
          "type": "bytes32"
        }
      ],
      "name": "confirmBurnRequest",
      "outputs": [
        {
          "internalType": "bool",
          "name": "",
          "type": "bool"
        }
      ],
      "stateMutability": "nonpayable",
      "type": "function"
    },
    {
      "inputs": [
        {
          "internalType": "bytes32",
          "name": "requestHash",
          "type": "bytes32"
        },
        {
          "internalType": "uint256",
          "name": "_tokenAmount",
          "type": "uint256"
        }
      ],
      "name": "confirmMintRequest",
      "outputs": [
        {
          "internalType": "bool",
          "name": "",
          "type": "bool"
        }
      ],
      "stateMutability": "nonpayable",
      "type": "function"
    },
    {
      "inputs": [],
      "name": "custodianWallet",
      "outputs": [
        {
          "internalType": "address",
          "name": "",
          "type": "address"
        }
      ],
      "stateMutability": "view",
      "type": "function"
    },
    {
      "inputs": [],
      "name": "externalJobId",
      "outputs": [
        {
          "internalType": "bytes32",
          "name": "",
          "type": "bytes32"
        }
      ],
      "stateMutability": "view",
      "type": "function"
    },
    {
      "inputs": [],
      "name": "feeRate",
      "outputs": [
        {
          "internalType": "uint8",
          "name": "",
          "type": "uint8"
        }
      ],
      "stateMutability": "view",
      "type": "function"
    },
    {
      "inputs": [
        {
          "internalType": "bytes32",
          "name": "requestId",
          "type": "bytes32"
        },
        {
          "internalType": "address[]",
          "name": "_addresses",
          "type": "address[]"
        },
        {
          "internalType": "uint256[]",
          "name": "_marketShares",
          "type": "uint256[]"
        }
      ],
      "name": "fulfillAssetsData",
      "outputs": [],
      "stateMutability": "nonpayable",
      "type": "function"
    },
    {
      "inputs": [],
      "name": "getAllBurnRequests",
      "outputs": [
        {
          "components": [
            {
              "internalType": "address",
              "name": "requester",
              "type": "address"
            },
            {
              "internalType": "uint256",
              "name": "amount",
              "type": "uint256"
            },
            {
              "internalType": "address[]",
              "name": "depositAddresses",
              "type": "address[]"
            },
            {
              "internalType": "uint256",
              "name": "nonce",
              "type": "uint256"
            },
            {
              "internalType": "uint256",
              "name": "timestamp",
              "type": "uint256"
            },
            {
              "internalType": "enum IndexFactoryInterface.RequestStatus",
              "name": "status",
              "type": "uint8"
            }
          ],
          "internalType": "struct IndexFactoryInterface.Request[]",
          "name": "",
          "type": "tuple[]"
        }
      ],
      "stateMutability": "view",
      "type": "function"
    },
    {
      "inputs": [],
      "name": "getAllCustodianWallets",
      "outputs": [
        {
          "internalType": "address[]",
          "name": "",
          "type": "address[]"
        }
      ],
      "stateMutability": "view",
      "type": "function"
    },
    {
      "inputs": [],
      "name": "getAllMintRequests",
      "outputs": [
        {
          "components": [
            {
              "internalType": "address",
              "name": "requester",
              "type": "address"
            },
            {
              "internalType": "uint256",
              "name": "amount",
              "type": "uint256"
            },
            {
              "internalType": "address[]",
              "name": "depositAddresses",
              "type": "address[]"
            },
            {
              "internalType": "uint256",
              "name": "nonce",
              "type": "uint256"
            },
            {
              "internalType": "uint256",
              "name": "timestamp",
              "type": "uint256"
            },
            {
              "internalType": "enum IndexFactoryInterface.RequestStatus",
              "name": "status",
              "type": "uint8"
            }
          ],
          "internalType": "struct IndexFactoryInterface.Request[]",
          "name": "",
          "type": "tuple[]"
        }
      ],
      "stateMutability": "view",
      "type": "function"
    },
    {
      "inputs": [
        {
          "internalType": "uint256",
          "name": "nonce",
          "type": "uint256"
        }
      ],
      "name": "getBurnRequest",
      "outputs": [
        {
          "internalType": "uint256",
          "name": "requestNonce",
          "type": "uint256"
        },
        {
          "internalType": "address",
          "name": "requester",
          "type": "address"
        },
        {
          "internalType": "uint256",
          "name": "amount",
          "type": "uint256"
        },
        {
          "internalType": "address[]",
          "name": "depositAddresses",
          "type": "address[]"
        },
        {
          "internalType": "uint256",
          "name": "timestamp",
          "type": "uint256"
        },
        {
          "internalType": "string",
          "name": "status",
          "type": "string"
        },
        {
          "internalType": "bytes32",
          "name": "requestHash",
          "type": "bytes32"
        }
      ],
      "stateMutability": "view",
      "type": "function"
    },
    {
      "inputs": [],
      "name": "getBurnRequestsLength",
      "outputs": [
        {
          "internalType": "uint256",
          "name": "length",
          "type": "uint256"
        }
      ],
      "stateMutability": "view",
      "type": "function"
    },
    {
      "inputs": [
        {
          "internalType": "uint256",
          "name": "nonce",
          "type": "uint256"
        }
      ],
      "name": "getMintRequest",
      "outputs": [
        {
          "internalType": "uint256",
          "name": "requestNonce",
          "type": "uint256"
        },
        {
          "internalType": "address",
          "name": "requester",
          "type": "address"
        },
        {
          "internalType": "uint256",
          "name": "amount",
          "type": "uint256"
        },
        {
          "internalType": "address[]",
          "name": "depositAddresses",
          "type": "address[]"
        },
        {
          "internalType": "uint256",
          "name": "timestamp",
          "type": "uint256"
        },
        {
          "internalType": "string",
          "name": "status",
          "type": "string"
        },
        {
          "internalType": "bytes32",
          "name": "requestHash",
          "type": "bytes32"
        }
      ],
      "stateMutability": "view",
      "type": "function"
    },
    {
      "inputs": [],
      "name": "getMintRequestsLength",
      "outputs": [
        {
          "internalType": "uint256",
          "name": "length",
          "type": "uint256"
        }
      ],
      "stateMutability": "view",
      "type": "function"
    },
    {
      "inputs": [
        {
          "internalType": "address",
          "name": "_custodianWallet",
          "type": "address"
        },
        {
          "internalType": "address",
          "name": "_issuer",
          "type": "address"
        },
        {
          "internalType": "address",
          "name": "_token",
          "type": "address"
        },
        {
          "internalType": "address",
          "name": "_usdc",
          "type": "address"
        },
        {
          "internalType": "uint8",
          "name": "_usdcDecimals",
          "type": "uint8"
        },
        {
          "internalType": "address",
          "name": "_nft",
          "type": "address"
        },
        {
          "internalType": "address",
          "name": "_chainlinkToken",
          "type": "address"
        },
        {
          "internalType": "address",
          "name": "_oracleAddress",
          "type": "address"
        },
        {
          "internalType": "bytes32",
          "name": "_externalJobId",
          "type": "bytes32"
        }
      ],
      "name": "initialize",
      "outputs": [],
      "stateMutability": "nonpayable",
      "type": "function"
    },
    {
      "inputs": [],
      "name": "issuer",
      "outputs": [
        {
          "internalType": "address",
          "name": "",
          "type": "address"
        }
      ],
      "stateMutability": "view",
      "type": "function"
    },
    {
      "inputs": [],
      "name": "lastUpdateTime",
      "outputs": [
        {
          "internalType": "uint256",
          "name": "",
          "type": "uint256"
        }
      ],
      "stateMutability": "view",
      "type": "function"
    },
    {
      "inputs": [],
      "name": "latestFeeUpdate",
      "outputs": [
        {
          "internalType": "uint256",
          "name": "",
          "type": "uint256"
        }
      ],
      "stateMutability": "view",
      "type": "function"
    },
    {
      "inputs": [
        {
          "internalType": "bytes32",
          "name": "",
          "type": "bytes32"
        }
      ],
      "name": "mintRequestNonce",
      "outputs": [
        {
          "internalType": "uint256",
          "name": "",
          "type": "uint256"
        }
      ],
      "stateMutability": "view",
      "type": "function"
    },
    {
      "inputs": [
        {
          "internalType": "uint256",
          "name": "",
          "type": "uint256"
        }
      ],
      "name": "mintRequests",
      "outputs": [
        {
          "internalType": "address",
          "name": "requester",
          "type": "address"
        },
        {
          "internalType": "uint256",
          "name": "amount",
          "type": "uint256"
        },
        {
          "internalType": "uint256",
          "name": "nonce",
          "type": "uint256"
        },
        {
          "internalType": "uint256",
          "name": "timestamp",
          "type": "uint256"
        },
        {
          "internalType": "enum IndexFactoryInterface.RequestStatus",
          "name": "status",
          "type": "uint8"
        }
      ],
      "stateMutability": "view",
      "type": "function"
    },
    {
      "inputs": [
        {
          "internalType": "address[]",
          "name": "_addresses",
          "type": "address[]"
        },
        {
          "internalType": "uint256[]",
          "name": "_marketShares",
          "type": "uint256[]"
        }
      ],
      "name": "mockFillAssetsList",
      "outputs": [],
      "stateMutability": "nonpayable",
      "type": "function"
    },
    {
      "inputs": [],
      "name": "nft",
      "outputs": [
        {
          "internalType": "contract RequestNFT",
          "name": "",
          "type": "address"
        }
      ],
      "stateMutability": "view",
      "type": "function"
    },
    {
      "inputs": [
        {
          "internalType": "uint256",
          "name": "",
          "type": "uint256"
        }
      ],
      "name": "oracleCustodianList",
      "outputs": [
        {
          "internalType": "address",
          "name": "",
          "type": "address"
        }
      ],
      "stateMutability": "view",
      "type": "function"
    },
    {
      "inputs": [],
      "name": "oraclePayment",
      "outputs": [
        {
          "internalType": "uint256",
          "name": "",
          "type": "uint256"
        }
      ],
      "stateMutability": "view",
      "type": "function"
    },
    {
      "inputs": [
        {
          "internalType": "uint256",
          "name": "",
          "type": "uint256"
        }
      ],
      "name": "oracleShareList",
      "outputs": [
        {
          "internalType": "uint256",
          "name": "",
          "type": "uint256"
        }
      ],
      "stateMutability": "view",
      "type": "function"
    },
    {
      "inputs": [],
      "name": "owner",
      "outputs": [
        {
          "internalType": "address",
          "name": "",
          "type": "address"
        }
      ],
      "stateMutability": "view",
      "type": "function"
    },
    {
      "inputs": [],
      "name": "pause",
      "outputs": [],
      "stateMutability": "nonpayable",
      "type": "function"
    },
    {
      "inputs": [],
      "name": "paused",
      "outputs": [
        {
          "internalType": "bool",
          "name": "",
          "type": "bool"
        }
      ],
      "stateMutability": "view",
      "type": "function"
    },
    {
      "inputs": [],
      "name": "renounceOwnership",
      "outputs": [],
      "stateMutability": "nonpayable",
      "type": "function"
    },
    {
      "inputs": [],
      "name": "requestAssetsData",
      "outputs": [
        {
          "internalType": "bytes32",
          "name": "",
          "type": "bytes32"
        }
      ],
      "stateMutability": "nonpayable",
      "type": "function"
    },
    {
      "inputs": [
        {
          "internalType": "address",
          "name": "_custodianWallet",
          "type": "address"
        }
      ],
      "name": "setCustodianWallet",
      "outputs": [
        {
          "internalType": "bool",
          "name": "",
          "type": "bool"
        }
      ],
      "stateMutability": "nonpayable",
      "type": "function"
    },
    {
      "inputs": [
        {
          "internalType": "uint8",
          "name": "_newFee",
          "type": "uint8"
        }
      ],
      "name": "setFeeRate",
      "outputs": [],
      "stateMutability": "nonpayable",
      "type": "function"
    },
    {
      "inputs": [
        {
          "internalType": "address",
          "name": "_issuer",
          "type": "address"
        }
      ],
      "name": "setIssuer",
      "outputs": [
        {
          "internalType": "bool",
          "name": "",
          "type": "bool"
        }
      ],
      "stateMutability": "nonpayable",
      "type": "function"
    },
    {
      "inputs": [
        {
          "internalType": "address",
          "name": "_nft",
          "type": "address"
        }
      ],
      "name": "setNFT",
      "outputs": [
        {
          "internalType": "bool",
          "name": "",
          "type": "bool"
        }
      ],
      "stateMutability": "nonpayable",
      "type": "function"
    },
    {
      "inputs": [
        {
          "internalType": "address",
          "name": "_token",
          "type": "address"
        }
      ],
      "name": "setTokenAddress",
      "outputs": [
        {
          "internalType": "bool",
          "name": "",
          "type": "bool"
        }
      ],
      "stateMutability": "nonpayable",
      "type": "function"
    },
    {
      "inputs": [
        {
          "internalType": "string",
          "name": "_beforeAddress",
          "type": "string"
        },
        {
          "internalType": "string",
          "name": "_afterAddress",
          "type": "string"
        }
      ],
      "name": "setUrl",
      "outputs": [],
      "stateMutability": "nonpayable",
      "type": "function"
    },
    {
      "inputs": [
        {
          "internalType": "address",
          "name": "_usdc",
          "type": "address"
        },
        {
          "internalType": "uint8",
          "name": "_usdcDecimals",
          "type": "uint8"
        }
      ],
      "name": "setUsdcAddress",
      "outputs": [
        {
          "internalType": "bool",
          "name": "",
          "type": "bool"
        }
      ],
      "stateMutability": "nonpayable",
      "type": "function"
    },
    {
      "inputs": [],
      "name": "token",
      "outputs": [
        {
          "internalType": "contract IndexToken",
          "name": "",
          "type": "address"
        }
      ],
      "stateMutability": "view",
      "type": "function"
    },
    {
      "inputs": [],
      "name": "totalOracleList",
      "outputs": [
        {
          "internalType": "uint256",
          "name": "",
          "type": "uint256"
        }
      ],
      "stateMutability": "view",
      "type": "function"
    },
    {
      "inputs": [
        {
          "internalType": "address",
          "name": "newOwner",
          "type": "address"
        }
      ],
      "name": "transferOwnership",
      "outputs": [],
      "stateMutability": "nonpayable",
      "type": "function"
    },
    {
      "inputs": [],
      "name": "unpause",
      "outputs": [],
      "stateMutability": "nonpayable",
      "type": "function"
    },
    {
      "inputs": [],
      "name": "usdc",
      "outputs": [
        {
          "internalType": "address",
          "name": "",
          "type": "address"
        }
      ],
      "stateMutability": "view",
      "type": "function"
    },
    {
      "inputs": [],
      "name": "usdcDecimals",
      "outputs": [
        {
          "internalType": "uint8",
          "name": "",
          "type": "uint8"
        }
      ],
      "stateMutability": "view",
      "type": "function"
    }
  ],
  "bytecode": {
    "object": "0x608060405234801561001057600080fd5b50613f96806100206000396000f3fe608060405234801561001057600080fd5b50600436106102955760003560e01c80638456cb5911610167578063c72551be116100ce578063f14bea2011610087578063f14bea20146105df578063f2fde38b146105f2578063f56e9c6614610605578063f89b8f2314610618578063fc0c546a14610640578063fcd3533c1461065357600080fd5b8063c72551be14610574578063c8599ded14610594578063c8f33c911461059d578063e21c40c0146105a6578063e9d3e21f146105b9578063eab2a711146105cc57600080fd5b8063a73e1cbf11610120578063a73e1cbf146104d6578063a8b54bd4146104e9578063addc70d1146104f2578063b69b22d814610505578063b9a5575b1461052b578063c22759401461054b57600080fd5b80638456cb59146104615780638da5cb5b14610469578063978bbdb91461047a5780639ad4b86b1461048e5780639cc0fb5b146104ae578063a34003f4146104c157600080fd5b806347ccca021161020b57806364a9b8f7116101c457806364a9b8f71461040857806364c70d451461041b578063715018a61461042357806372f69a721461042b5780637bf42165146104335780637ca58c551461045957600080fd5b806347ccca021461039e5780635177942a146103b157806355cc4e57146103c45780635c975abb146103d757806360daba33146103e25780636406c10c146103f557600080fd5b80631e7aa9f41161025d5780631e7aa9f41461031d57806326a4e8d214610332578063311104f3146103555780633e413bee1461035d5780633f4ba83a14610370578063424e65751461037a57600080fd5b8063011ced5f1461029a5780630c02e130146102b65780630e329357146102bf5780631d143848146102df5780631e106e991461030a575b600080fd5b6102a360ae5481565b6040519081526020015b60405180910390f35b6102a360a05481565b6102d26102cd366004613780565b610666565b6040516102ad9190613b31565b60a7546102f2906001600160a01b031681565b6040516001600160a01b0390911681526020016102ad565b60a6546102f2906001600160a01b031681565b610325610693565b6040516102ad9190613a37565b6103456103403660046134f8565b6107af565b60405190151581526020016102ad565b60ab546102a3565b60a8546102f2906001600160a01b031681565b610378610866565b005b61038d61038836600461366c565b610878565b6040516102ad9594939291906139f2565b60ad546102f2906001600160a01b031681565b6103786103bf3660046137fc565b6108c6565b6103456103d23660046134f8565b610a10565b606b5460ff16610345565b6103456103f036600461366c565b610ab8565b61038d61040336600461366c565b610bd4565b6103456104163660046136f1565b610be4565b610325610d64565b610378610e77565b60ac546102a3565b60a85461044790600160a01b900460ff1681565b60405160ff90911681526020016102ad565b6102a3610e89565b6103786110c9565b6039546001600160a01b03166102f2565b60a85461044790600160a81b900460ff1681565b6102a361049c36600461366c565b60a96020526000908152604090205481565b6103456104bc3660046134f8565b6110d9565b6104c9611188565b6040516102ad9190613a24565b6103786104e4366004613780565b61123e565b6102a3609f5481565b6103786105003660046135e7565b611272565b61051861051336600461366c565b611288565b6040516102ad9796959493929190613bbd565b6102a361053936600461366c565b60a46020526000908152604090205481565b6102f261055936600461366c565b60a3602052600090815260409020546001600160a01b031681565b6102a361058236600461366c565b60aa6020526000908152604090205481565b6102a360a25481565b6102a360a15481565b6105186105b436600461366c565b6113d3565b6103786105c7366004613513565b611579565b6103456105da3660046135b4565b6117d1565b6103786105ed366004613685565b611894565b6103786106003660046134f8565b611960565b6103456106133660046134f8565b6119d9565b61062b6106263660046137d9565b611a7e565b604080519283526020830191909152016102ad565b60a5546102f2906001600160a01b031681565b61062b6106613660046137d9565b611e0a565b6060828260405160200161067b9291906138f9565b60405160208183030381529060405290505b92915050565b606060ac805480602002602001604051908101604052809291908181526020016000905b828210156107a65760008481526020908190206040805160c0810182526006860290920180546001600160a01b03168352600181015483850152600281018054835181870281018701855281815294959294938601939283018282801561074757602002820191906000526020600020905b81546001600160a01b03168152600190910190602001808311610729575b5050509183525050600382015460208201526004808301546040830152600583015460609092019160ff169081111561078257610782613ec6565b600481111561079357610793613ec6565b81525050815260200190600101906106b7565b50505050905090565b60006107b961217d565b6001600160a01b03821661080c5760405162461bcd60e51b8152602060048201526015602482015274696e76616c696420746f6b656e206164647265737360581b60448201526064015b60405180910390fd5b60a580546001600160a01b0319166001600160a01b0384169081179091556040514281527f2d65e2eeacd42ac25aa023ad49c935dd4697a70e62b53317b7514f14096ff3899060200160405180910390a25060015b919050565b61086e61217d565b6108766121d7565b565b60ab818154811061088857600080fd5b6000918252602090912060069091020180546001820154600383015460048401546005909401546001600160a01b0390931694509092909160ff1685565b6108ce61217d565b600060ae54426108de9190613df3565b9050600c603c6108ee8184613cd5565b6108f89190613cd5565b1161096b5760405162461bcd60e51b815260206004820152603960248201527f596f752073686f756c642077616974206174206c6561737420313220686f757260448201527f7320616674657220746865206c617465737420757064617465000000000000006064820152608401610803565b60648260ff1611158015610983575060018260ff1610155b6109eb5760405162461bcd60e51b815260206004820152603360248201527f546865206e65774665652073686f756c64206265206265747765656e203120616044820152726e64203130302028302e303125202d2031252960681b6064820152608401610803565b5060a8805460ff909216600160a81b0260ff60a81b199092169190911790554260ae55565b6000610a1a61217d565b6001600160a01b038216610a695760405162461bcd60e51b8152602060048201526016602482015275696e76616c696420697373756572206164647265737360501b6044820152606401610803565b60a780546001600160a01b0319166001600160a01b0384169081179091556040517f141c634522c8bfcf25beba4c524ac0c87de0db74ebe83168cf5f3bf4d45fd89890600090a2506001919050565b60a7546000906001600160a01b03163314610b0c5760405162461bcd60e51b815260206004820152601460248201527339b2b73232b9103737ba10309034b9b9bab2b91760611b6044820152606401610803565b6000610b1661322e565b610b1f84612229565b8092508193505050600360ac8381548110610b3c57610b3c613edc565b60009182526020909120600560069092020101805460ff19166001836004811115610b6957610b69613ec6565b021790555080600001516001600160a01b031681606001517ffa90590fee8622abdd363195477587c362cc162fbb631bb0430063f7fccccb4d83602001518460400151856080015189604051610bc29493929190613c17565b60405180910390a35060019392505050565b60ac818154811061088857600080fd5b60a7546000906001600160a01b03163314610c385760405162461bcd60e51b815260206004820152601460248201527339b2b73232b9103737ba10309034b9b9bab2b91760611b6044820152606401610803565b6000610c4261322e565b610c4b85612384565b8092508193505050600360ab8381548110610c6857610c68613edc565b60009182526020909120600560069092020101805460ff19166001836004811115610c9557610c95613ec6565b021790555060a55481516040516340c10f1960e01b81526001600160a01b039182166004820152602481018790529116906340c10f1990604401600060405180830381600087803b158015610ce957600080fd5b505af1158015610cfd573d6000803e3d6000fd5b5050505080600001516001600160a01b031681606001517f0f68b38538e0e8ee6fecbbedee04ccc18fcb16f18c260bcbe35e8b8bead6a87b86846040015185608001518a604051610d519493929190613c17565b60405180910390a3506001949350505050565b606060ab805480602002602001604051908101604052809291908181526020016000905b828210156107a65760008481526020908190206040805160c0810182526006860290920180546001600160a01b031683526001810154838501526002810180548351818702810187018552818152949592949386019392830182828015610e1857602002820191906000526020600020905b81546001600160a01b03168152600190910190602001808311610dfa575b5050509183525050600382015460208201526004808301546040830152600583015460609092019160ff1690811115610e5357610e53613ec6565b6004811115610e6457610e64613ec6565b8152505081526020019060010190610d88565b610e7f61217d565b61087660006123f6565b600080610faa609d8054610e9c90613e36565b80601f0160208091040260200160405190810160405280929190818152602001828054610ec890613e36565b8015610f155780601f10610eea57610100808354040283529160200191610f15565b820191906000526020600020905b815481529060010190602001808311610ef857829003601f168201915b5050505050609e8054610f2790613e36565b80601f0160208091040260200160405190810160405280929190818152602001828054610f5390613e36565b8015610fa05780601f10610f7557610100808354040283529160200191610fa0565b820191906000526020600020905b815481529060010190602001808311610f8357829003601f168201915b5050505050610666565b90506000610fc2609f543063f14bea2060e01b612448565b60408051808201909152600381526219d95d60ea1b6020820152909150610feb9082908461246d565b61104660405180604001604052806005815260200164706174683160d81b81525060405180604001604052806011815260200170726573756c74732c61646472657373657360781b8152508361246d9092919063ffffffff16565b6110a4604051806040016040528060058152602001643830ba341960d91b81525060405180604001604052806014815260200173726573756c74732c6d61726b657453686172657360601b8152508361246d9092919063ffffffff16565b6110c26110b96003546001600160a01b031690565b8260a05461248b565b9250505090565b6110d161217d565b61087661251e565b60006110e361217d565b6001600160a01b0382166111395760405162461bcd60e51b815260206004820181905260248201527f696e76616c696420637573746f6469616e2077616c6c657420616464726573736044820152606401610803565b60a680546001600160a01b0319166001600160a01b0384169081179091556040517fb88c20a211c5d7677ba2a26c317d8ae6b25aa492016dc8ceca2469761d063d8090600090a2506001919050565b6060600060a2546001600160401b038111156111a6576111a6613ef2565b6040519080825280602002602001820160405280156111cf578160200160208202803683370190505b50905060005b60a25481101561123857600081815260a3602052604090205482516001600160a01b039091169083908390811061120e5761120e613edc565b6001600160a01b03909216602092830291909101909101528061123081613e6b565b9150506111d5565b50919050565b61124661217d565b815161125990609d90602085019061327d565b50805161126d90609e90602084019061327d565b505050565b61127a61217d565b611284828261255b565b5050565b600080600060606000606060008060ab89815481106112a9576112a9613edc565b60009182526020918290206040805160c081018252600690930290910180546001600160a01b03168352600181015483850152600281018054835181870281018701855281815294959294938601939283018282801561133257602002820191906000526020600020905b81546001600160a01b03168152600190910190602001808311611314575b5050509183525050600382015460208201526004808301546040830152600583015460609092019160ff169081111561136d5761136d613ec6565b600481111561137e5761137e613ec6565b81525050905060006113938260a00151612657565b905081606001519850816000015197508160200151965081604001519550816080015194508093506113c482612773565b92505050919395979092949650565b600080600060606000606060008060ac89815481106113f4576113f4613edc565b6000918252602082206005600690920201908101549092506114189060ff16612657565b60038301548354600185015460028601805460408051602080840282018101909252828152959f506001600160a01b039094169d50919b509394509192919083018282801561149057602002820191906000526020600020905b81546001600160a01b03168152600190910190602001808311611472575b5050505060048401546040805160c08101825286546001600160a01b0316815260018701546020808301919091526002880180548451818402810184018652818152979d50949b5096995089966113c496929550889493860193909183018282801561152557602002820191906000526020600020905b81546001600160a01b03168152600190910190602001808311611507575b5050509183525050600382015460208201526004808301546040830152600583015460609092019160ff169081111561156057611560613ec6565b600481111561157157611571613ec6565b905250612773565b600654610100900460ff16158080156115995750600654600160ff909116105b806115b35750303b1580156115b3575060065460ff166001145b6116165760405162461bcd60e51b815260206004820152602e60248201527f496e697469616c697a61626c653a20636f6e747261637420697320616c72656160448201526d191e481a5b9a5d1a585b1a5e995960921b6064820152608401610803565b6006805460ff191660011790558015611639576006805461ff0019166101001790555b60a680546001600160a01b03808d166001600160a01b03199283161790925560a780548c841690831617905560a580548b841690831617905560a8805460ff8a16600160a01b026001600160a81b03199091168b85161717905560ad8054928816929091169190911790556116ac6127bb565b6116b46127ea565b60a8805460ff60a81b1916600560a91b179055600280546001600160a01b0319166001600160a01b038616179055600380546001600160a01b0319166001600160a01b038516179055609f829055600a611717670de0b6b3a76400006001613dd4565b6117219190613cd5565b60a0556040805160608101909152602a808252613f096020830139805161175091609d9160209091019061327d565b506040518060600160405280602e8152602001613f33602e9139805161177e91609e9160209091019061327d565b5080156117c5576006805461ff0019169055604051600181527f7f26b83ff96e1f2b6a682f133852f6798a09c465da95921460cefb38474024989060200160405180910390a15b50505050505050505050565b60006117db61217d565b6001600160a01b0383166118295760405162461bcd60e51b8152602060048201526015602482015274696e76616c696420746f6b656e206164647265737360581b6044820152606401610803565b60a880546001600160a01b0385166001600160a81b03199091168117600160a01b60ff8616908102919091179092556040514281527f47f70abc5eafc71015adda71f3628949d17bd87cb6199008a1243dca856ceaaf9060200160405180910390a350600192915050565b60008381526005602052604090205483906001600160a01b0316331461190d5760405162461bcd60e51b815260206004820152602860248201527f536f75726365206d75737420626520746865206f7261636c65206f6620746865604482015267081c995c5d595cdd60c21b6064820152608401610803565b60008181526005602052604080822080546001600160a01b03191690555182917f7cc135e0cebb02c3480ae5d74d377283180a2601f8f644edf7987b009316c63a91a261195a838361255b565b50505050565b61196861217d565b6001600160a01b0381166119cd5760405162461bcd60e51b815260206004820152602660248201527f4f776e61626c653a206e6577206f776e657220697320746865207a65726f206160448201526564647265737360d01b6064820152608401610803565b6119d6816123f6565b50565b60006119e361217d565b6001600160a01b038216611a2f5760405162461bcd60e51b8152602060048201526013602482015272696e76616c6964206e6674206164647265737360681b6044820152606401610803565b60ad80546001600160a01b0319166001600160a01b0384169081179091556040517f75fc4fdf6d5e94402ecc584683c37c192cfde2ea99b612d59a6864204919c7e490600090a2506001919050565b600080611a89612819565b60a85460009061271090611aa790600160a81b900460ff1687613dd4565b611ab19190613cd5565b90506000611abf8287613cbd565b905060005b60a254811015611b375760a854600082815260a3602090815260408083205460a490925290912054611b25926001600160a01b0390811692339291169068056bc75e2d6310000090611b16908d613dd4565b611b209190613cd5565b61285f565b80611b2f81613e6b565b915050611ac4565b5060a854611b61906001600160a01b031633611b5b6039546001600160a01b031690565b8561285f565b60ab54600042905060006040518060c00160405280896001600160a01b031681526020018a8152602001611b93611188565b815260208101859052604081018490526060016001905290506000611bb782612773565b600081815260a96020908152604080832088905560ab8054600181018255935285517ffc377260a69a39dd786235c89f4bcd5d9639157731cac38071a0508750eb115a600690940293840180546001600160a01b0319166001600160a01b03909216919091178155868301517ffc377260a69a39dd786235c89f4bcd5d9639157731cac38071a0508750eb115b85015590860151805194955086949193611c85937ffc377260a69a39dd786235c89f4bcd5d9639157731cac38071a0508750eb115c90910192910190613301565b50606082015181600301556080820151816004015560a08201518160050160006101000a81548160ff02191690836004811115611cc457611cc4613ec6565b02179055505060ad5460a554604080516306fdde0360e01b815290516001600160a01b0393841694506359a4326d93909216916306fdde0391600480820192600092909190829003018186803b158015611d1d57600080fd5b505afa158015611d31573d6000803e3d6000fd5b505050506040513d6000823e601f3d908101601f19168201604052611d599190810190613713565b8b8d6040518463ffffffff1660e01b8152600401611d7993929190613b44565b600060405180830381600087803b158015611d9357600080fd5b505af1158015611da7573d6000803e3d6000fd5b50505050886001600160a01b0316847f5451b00315df1843662f0967aa9d6ab74b6771df02cfb4a2ca70b0dddcf07ee68c611de0611188565b8786604051611df29493929190613c17565b60405180910390a39299929850919650505050505050565b600080611e15612819565b60ac54604080516001808252818301909252429160009190602080830190803683370190505090508581600081518110611e5157611e51613edc565b60200260200101906001600160a01b031690816001600160a01b03168152505060006040518060c00160405280886001600160a01b0316815260200189815260200183815260200185815260200184815260200160016004811115611eb857611eb8613ec6565b905290506000611ec782612773565b600081815260aa6020908152604080832089905560ac8054600181018255935285517f0a0a1bcadd9f6a5539376fa82276e043ae3cb4499daaaf8136572ecb1f9f0d60600690940293840180546001600160a01b0319166001600160a01b03909216919091178155868301517f0a0a1bcadd9f6a5539376fa82276e043ae3cb4499daaaf8136572ecb1f9f0d6185015590860151805194955086949193611f95937f0a0a1bcadd9f6a5539376fa82276e043ae3cb4499daaaf8136572ecb1f9f0d6290910192910190613301565b50606082015181600301556080820151816004015560a08201518160050160006101000a81548160ff02191690836004811115611fd457611fd4613ec6565b02179055505060a554604051632770a7eb60e21b8152336004820152602481018c90526001600160a01b039091169150639dc29fac90604401600060405180830381600087803b15801561202757600080fd5b505af115801561203b573d6000803e3d6000fd5b505060ad5460a554604080516306fdde0360e01b815290516001600160a01b03938416955063d7c63ed1945091909216916306fdde03916004808301926000929190829003018186803b15801561209157600080fd5b505afa1580156120a5573d6000803e3d6000fd5b505050506040513d6000823e601f3d908101601f191682016040526120cd9190810190613713565b8a8c6040518463ffffffff1660e01b81526004016120ed93929190613b44565b600060405180830381600087803b15801561210757600080fd5b505af115801561211b573d6000803e3d6000fd5b50505050876001600160a01b0316857f1e56929c494b9bcad8c67bdcb55f874da5cbe9c29b5bc0ab151ea2a3ad306a008b612154611188565b88866040516121669493929190613c17565b60405180910390a393989397509295505050505050565b6039546001600160a01b031633146108765760405162461bcd60e51b815260206004820181905260248201527f4f776e61626c653a2063616c6c6572206973206e6f7420746865206f776e65726044820152606401610803565b6121df6128b9565b606b805460ff191690557f5db9ee0a495bf2e6ff9c91a7834c1ba4fdd244a5e8aa4e537bd38aeae4b073aa335b6040516001600160a01b03909116815260200160405180910390a1565b600061223361322e565b826122745760405162461bcd60e51b81526020600482015260116024820152700726571756573742068617368206973203607c1b6044820152606401610803565b600083815260aa602052604090205460ac8054919350908390811061229b5761229b613edc565b60009182526020918290206040805160c081018252600690930290910180546001600160a01b03168352600181015483850152600281018054835181870281018701855281815294959294938601939283018282801561232457602002820191906000526020600020905b81546001600160a01b03168152600190910190602001808311612306575b5050509183525050600382015460208201526004808301546040830152600583015460609092019160ff169081111561235f5761235f613ec6565b600481111561237057612370613ec6565b905250905061237f8184612902565b915091565b600061238e61322e565b826123cf5760405162461bcd60e51b81526020600482015260116024820152700726571756573742068617368206973203607c1b6044820152606401610803565b600083815260a9602052604090205460ab8054919350908390811061229b5761229b613edc565b603980546001600160a01b038381166001600160a01b0319831681179093556040519116919082907f8be0079c531659141344cd1fd0a4f28419497f9722a3daafe3b4186f6b6457e090600090a35050565b612450613356565b612458613356565b612464818686866129d3565b95945050505050565b608083015161247c9083612a19565b608083015161126d9082612a19565b60045460009061249c816001613cbd565b600455835160408086015160808701515191516000936320214ca360e11b936124d49386938493923092918a91600191602401613963565b60408051601f198184030181529190526020810180516001600160e01b03166001600160e01b031990931692909217909152905061251486838684612a30565b9695505050505050565b612526612819565b606b805460ff191660011790557f62e78cea01bee320cd4e420270b5ea74000d11b0c9f74754ebdbfc544b05a25861220c3390565b818160005b82518110156125fa5782818151811061257b5761257b613edc565b602002602001015160a3600083815260200190815260200160002060006101000a8154816001600160a01b0302191690836001600160a01b031602179055508381815181106125cc576125cc613edc565b602090810291909101810151600083815260a4909252604090912055806125f281613e6b565b915050612560565b50815160a2554260a15560405161261290859061389e565b60405180910390207ff32c718cfcfde649cd1b7798a926c8707fda06cda4e8d4731eb86ca6772623d9846040516126499190613aed565b60405180910390a250505050565b6060600182600481111561266d5761266d613ec6565b141561269657505060408051808201909152600781526670656e64696e6760c81b602082015290565b60028260048111156126aa576126aa613ec6565b14156126d457505060408051808201909152600881526718d85b98d95b195960c21b602082015290565b60038260048111156126e8576126e8613ec6565b1415612712575050604080518082019091526008815267185c1c1c9bdd995960c21b602082015290565b600482600481111561272657612726613ec6565b14156127505750506040805180820190915260088152671c995a9958dd195960c21b602082015290565b50506040805180820190915260078152663ab735b737bbb760c91b602082015290565b805160208083015160408085015160608601516080870151925160009661279e969095949101613928565b604051602081830303815290604052805190602001209050919050565b600654610100900460ff166127e25760405162461bcd60e51b815260040161080390613b72565b610876612b9d565b600654610100900460ff166128115760405162461bcd60e51b815260040161080390613b72565b610876612bcd565b606b5460ff16156108765760405162461bcd60e51b815260206004820152601060248201526f14185d5cd8589b194e881c185d5cd95960821b6044820152606401610803565b604080516001600160a01b0385811660248301528416604482015260648082018490528251808303909101815260849091019091526020810180516001600160e01b03166323b872dd60e01b17905261195a908590612c00565b606b5460ff166108765760405162461bcd60e51b815260206004820152601460248201527314185d5cd8589b194e881b9bdd081c185d5cd95960621b6044820152606401610803565b60018260a00151600481111561291a5761291a613ec6565b146129605760405162461bcd60e51b815260206004820152601660248201527572657175657374206973206e6f742070656e64696e6760501b6044820152606401610803565b61296982612773565b81146112845760405162461bcd60e51b815260206004820152603360248201527f676976656e2072657175657374206861736820646f6573206e6f74206d6174636044820152721a0818481c195b991a5b99c81c995c5d595cdd606a1b6064820152608401610803565b6129db613356565b6129eb8560800151610100612cd5565b50508284526001600160a01b03821660208501526001600160e01b031981166040850152835b949350505050565b612a268260038351612d3a565b61126d8282612e41565b6040516bffffffffffffffffffffffff193060601b1660208201526034810184905260009060540160408051808303601f1901815282825280516020918201206000818152600590925291812080546001600160a01b0319166001600160a01b038a1617905590925082917fb5e6e01e79f91267dc17b4e6314d5d4d03593d2ceee0fbb452b750bd70ea5af99190a2600254604051630200057560e51b81526001600160a01b0390911690634000aea090612af3908890879087906004016139cb565b602060405180830381600087803b158015612b0d57600080fd5b505af1158015612b21573d6000803e3d6000fd5b505050506040513d601f19601f82011682018060405250810190612b45919061364a565b612a115760405162461bcd60e51b815260206004820152602360248201527f756e61626c6520746f207472616e73666572416e6443616c6c20746f206f7261604482015262636c6560e81b6064820152608401610803565b600654610100900460ff16612bc45760405162461bcd60e51b815260040161080390613b72565b610876336123f6565b600654610100900460ff16612bf45760405162461bcd60e51b815260040161080390613b72565b606b805460ff19169055565b6000612c55826040518060400160405280602081526020017f5361666545524332303a206c6f772d6c6576656c2063616c6c206661696c6564815250856001600160a01b0316612e6f9092919063ffffffff16565b9050805160001480612c76575080806020019051810190612c76919061364a565b61126d5760405162461bcd60e51b815260206004820152602a60248201527f5361666545524332303a204552433230206f7065726174696f6e20646964206e6044820152691bdd081cdd58d8d9595960b21b6064820152608401610803565b604080518082019091526060815260006020820152612cf5602083613e86565b15612d1d57612d05602083613e86565b612d10906020613df3565b612d1a9083613cbd565b91505b506020828101829052604080518085526000815290920101905290565b6017816001600160401b031611612d5e5761195a8360e0600585901b168317612e7e565b60ff816001600160401b031611612d9a57612d84836018611fe0600586901b1617612e7e565b5061195a836001600160401b0383166001612ea3565b61ffff816001600160401b031611612dd757612dc1836019611fe0600586901b1617612e7e565b5061195a836001600160401b0383166002612ea3565b63ffffffff816001600160401b031611612e1657612e0083601a611fe0600586901b1617612e7e565b5061195a836001600160401b0383166004612ea3565b612e2b83601b611fe0600586901b1617612e7e565b5061195a836001600160401b0383166008612ea3565b604080518082019091526060815260006020820152612e6883846000015151848551612ec9565b9392505050565b6060612a118484600085612fb3565b604080518082019091526060815260006020820152612e68838460000151518461308e565b604080518082019091526060815260006020820152612a118485600001515185856130ea565b6040805180820190915260608152600060208201528251821115612eec57600080fd5b6020850151612efb8386613cbd565b1115612f2e57612f2e85612f1e87602001518786612f199190613cbd565b61316b565b612f29906002613dd4565b61317c565b600080865180518760208301019350808887011115612f4d5787860182525b505050602084015b60208410612f8d5780518252612f6c602083613cbd565b9150612f79602082613cbd565b9050612f86602085613df3565b9350612f55565b51815160001960208690036101000a019081169019919091161790525083949350505050565b6060824710156130145760405162461bcd60e51b815260206004820152602660248201527f416464726573733a20696e73756666696369656e742062616c616e636520666f6044820152651c8818d85b1b60d21b6064820152608401610803565b600080866001600160a01b0316858760405161303091906138dd565b60006040518083038185875af1925050503d806000811461306d576040519150601f19603f3d011682016040523d82523d6000602084013e613072565b606091505b509150915061308387838387613193565b979650505050505050565b604080518082019091526060815260006020820152836020015183106130c3576130c38485602001516002612f299190613dd4565b8351805160208583010184815350808514156130e0576001810182525b5093949350505050565b604080518082019091526060815260006020820152602085015161310e8584613cbd565b11156131225761312285612f1e8685613cbd565b6000600161313284610100613d2c565b61313c9190613df3565b90508551838682010185831982511617815250805184870111156131605783860181525b509495945050505050565b60008183111561123857508161068d565b81516131888383612cd5565b5061195a8382612e41565b606083156131ff5782516131f8576001600160a01b0385163b6131f85760405162461bcd60e51b815260206004820152601d60248201527f416464726573733a2063616c6c20746f206e6f6e2d636f6e74726163740000006044820152606401610803565b5081612a11565b612a1183838151156132145781518083602001fd5b8060405162461bcd60e51b81526004016108039190613b31565b6040518060c0016040528060006001600160a01b03168152602001600081526020016060815260200160008152602001600081526020016000600481111561327857613278613ec6565b905290565b82805461328990613e36565b90600052602060002090601f0160209004810192826132ab57600085556132f1565b82601f106132c457805160ff19168380011785556132f1565b828001600101855582156132f1579182015b828111156132f15782518255916020019190600101906132d6565b506132fd929150613391565b5090565b8280548282559060005260206000209081019282156132f1579160200282015b828111156132f157825182546001600160a01b0319166001600160a01b03909116178255602090920191600190910190613321565b6040805160a0810182526000808252602080830182905282840182905260608084018390528451808601909552845283015290608082015290565b5b808211156132fd5760008155600101613392565b80356001600160a01b038116811461086157600080fd5b600082601f8301126133ce57600080fd5b813560206133e36133de83613c73565b613c43565b80838252828201915082860187848660051b890101111561340357600080fd5b60005b8581101561342957613417826133a6565b84529284019290840190600101613406565b5090979650505050505050565b600082601f83011261344757600080fd5b813560206134576133de83613c73565b80838252828201915082860187848660051b890101111561347757600080fd5b60005b858110156134295781358452928401929084019060010161347a565b600082601f8301126134a757600080fd5b81356134b56133de82613c96565b8181528460208386010111156134ca57600080fd5b816020850160208301376000918101602001919091529392505050565b803560ff8116811461086157600080fd5b60006020828403121561350a57600080fd5b612e68826133a6565b60008060008060008060008060006101208a8c03121561353257600080fd5b61353b8a6133a6565b985061354960208b016133a6565b975061355760408b016133a6565b965061356560608b016133a6565b955061357360808b016134e7565b945061358160a08b016133a6565b935061358f60c08b016133a6565b925061359d60e08b016133a6565b91506101008a013590509295985092959850929598565b600080604083850312156135c757600080fd5b6135d0836133a6565b91506135de602084016134e7565b90509250929050565b600080604083850312156135fa57600080fd5b82356001600160401b038082111561361157600080fd5b61361d868387016133bd565b9350602085013591508082111561363357600080fd5b5061364085828601613436565b9150509250929050565b60006020828403121561365c57600080fd5b81518015158114612e6857600080fd5b60006020828403121561367e57600080fd5b5035919050565b60008060006060848603121561369a57600080fd5b8335925060208401356001600160401b03808211156136b857600080fd5b6136c4878388016133bd565b935060408601359150808211156136da57600080fd5b506136e786828701613436565b9150509250925092565b6000806040838503121561370457600080fd5b50508035926020909101359150565b60006020828403121561372557600080fd5b81516001600160401b0381111561373b57600080fd5b8201601f8101841361374c57600080fd5b805161375a6133de82613c96565b81815285602083850101111561376f57600080fd5b612464826020830160208601613e0a565b6000806040838503121561379357600080fd5b82356001600160401b03808211156137aa57600080fd5b6137b686838701613496565b935060208501359150808211156137cc57600080fd5b5061364085828601613496565b600080604083850312156137ec57600080fd5b823591506135de602084016133a6565b60006020828403121561380e57600080fd5b612e68826134e7565b600081518084526020808501945080840160005b838110156131605781516001600160a01b03168752958201959082019060010161382b565b60008151808452613868816020860160208601613e0a565b601f01601f19169290920160200192915050565b6005811061389a57634e487b7160e01b600052602160045260246000fd5b9052565b815160009082906020808601845b838110156138d15781516001600160a01b0316855293820193908201906001016138ac565b50929695505050505050565b600082516138ef818460208701613e0a565b9190910192915050565b6000835161390b818460208801613e0a565b83519083019061391f818360208801613e0a565b01949350505050565b60018060a01b038616815284602082015260a06040820152600061394f60a0830186613817565b606083019490945250608001529392505050565b6001600160a01b0389811682526020820189905260408201889052861660608201526001600160e01b03198516608082015260a0810184905260c0810183905261010060e082018190526000906139bc83820185613850565b9b9a5050505050505050505050565b60018060a01b03841681528260208201526060604082015260006124646060830184613850565b6001600160a01b038616815260208101859052604081018490526060810183905260a08101612514608083018461387c565b602081526000612e686020830184613817565b60006020808301818452808551808352604092508286019150828160051b87010184880160005b83811015613adf57888303603f19018552815180516001600160a01b0316845287810151888501528681015160c088860181905290613a9f82870182613817565b606084810151908801526080808501519088015260a093840151939092509050613acb8187018461387c565b509588019593505090860190600101613a5e565b509098975050505050505050565b6020808252825182820181905260009190848201906040850190845b81811015613b2557835183529284019291840191600101613b09565b50909695505050505050565b602081526000612e686020830184613850565b606081526000613b576060830186613850565b6001600160a01b039490941660208301525060400152919050565b6020808252602b908201527f496e697469616c697a61626c653a20636f6e7472616374206973206e6f74206960408201526a6e697469616c697a696e6760a81b606082015260800190565b87815260018060a01b038716602082015285604082015260e060608201526000613bea60e0830187613817565b85608084015282810360a0840152613c028186613850565b9150508260c083015298975050505050505050565b848152608060208201526000613c306080830186613817565b6040830194909452506060015292915050565b604051601f8201601f191681016001600160401b0381118282101715613c6b57613c6b613ef2565b604052919050565b60006001600160401b03821115613c8c57613c8c613ef2565b5060051b60200190565b60006001600160401b03821115613caf57613caf613ef2565b50601f01601f191660200190565b60008219821115613cd057613cd0613e9a565b500190565b600082613ce457613ce4613eb0565b500490565b600181815b80851115613d24578160001904821115613d0a57613d0a613e9a565b80851615613d1757918102915b93841c9390800290613cee565b509250929050565b6000612e688383600082613d425750600161068d565b81613d4f5750600061068d565b8160018114613d655760028114613d6f57613d8b565b600191505061068d565b60ff841115613d8057613d80613e9a565b50506001821b61068d565b5060208310610133831016604e8410600b8410161715613dae575081810a61068d565b613db88383613ce9565b8060001904821115613dcc57613dcc613e9a565b029392505050565b6000816000190483118215151615613dee57613dee613e9a565b500290565b600082821015613e0557613e05613e9a565b500390565b60005b83811015613e25578181015183820152602001613e0d565b8381111561195a5750506000910152565b600181811c90821680613e4a57607f821691505b6020821081141561123857634e487b7160e01b600052602260045260246000fd5b6000600019821415613e7f57613e7f613e9a565b5060010190565b600082613e9557613e95613eb0565b500690565b634e487b7160e01b600052601160045260246000fd5b634e487b7160e01b600052601260045260246000fd5b634e487b7160e01b600052602160045260246000fd5b634e487b7160e01b600052603260045260246000fd5b634e487b7160e01b600052604160045260246000fdfe68747470733a2f2f6170702e6e65786c6162732e696f2f6170692f616c6c46756e64696e6752617465733f6d756c7469706c7946756e633d31382674696d65734e656746756e643d74727565266172726179733d74727565a2646970667358221220bf4fc46e1fd16de0e0f8ea42f3e948282b284b9f86871ba4f14703e1c3d385a464736f6c63430008070033",
    "linkReferences": {}
  },
  "methodIdentifiers": {
    "addMintRequest(uint256,address)": "f89b8f23",
    "burn(uint256,address)": "fcd3533c",
    "burnRequestNonce(bytes32)": "c72551be",
    "burnRequests(uint256)": "6406c10c",
    "concatenation(string,string)": "0e329357",
    "confirmBurnRequest(bytes32)": "60daba33",
    "confirmMintRequest(bytes32,uint256)": "64a9b8f7",
    "custodianWallet()": "1e106e99",
    "externalJobId()": "a8b54bd4",
    "feeRate()": "978bbdb9",
    "fulfillAssetsData(bytes32,address[],uint256[])": "f14bea20",
    "getAllBurnRequests()": "1e7aa9f4",
    "getAllCustodianWallets()": "a34003f4",
    "getAllMintRequests()": "64c70d45",
    "getBurnRequest(uint256)": "e21c40c0",
    "getBurnRequestsLength()": "72f69a72",
    "getMintRequest(uint256)": "b69b22d8",
    "getMintRequestsLength()": "311104f3",
    "initialize(address,address,address,address,uint8,address,address,address,bytes32)": "e9d3e21f",
    "issuer()": "1d143848",
    "lastUpdateTime()": "c8f33c91",
    "latestFeeUpdate()": "011ced5f",
    "mintRequestNonce(bytes32)": "9ad4b86b",
    "mintRequests(uint256)": "424e6575",
    "mockFillAssetsList(address[],uint256[])": "addc70d1",
    "nft()": "47ccca02",
    "oracleCustodianList(uint256)": "c2275940",
    "oraclePayment()": "0c02e130",
    "oracleShareList(uint256)": "b9a5575b",
    "owner()": "8da5cb5b",
    "pause()": "8456cb59",
    "paused()": "5c975abb",
    "renounceOwnership()": "715018a6",
    "requestAssetsData()": "7ca58c55",
    "setCustodianWallet(address)": "9cc0fb5b",
    "setFeeRate(uint8)": "5177942a",
    "setIssuer(address)": "55cc4e57",
    "setNFT(address)": "f56e9c66",
    "setTokenAddress(address)": "26a4e8d2",
    "setUrl(string,string)": "a73e1cbf",
    "setUsdcAddress(address,uint8)": "eab2a711",
    "token()": "fc0c546a",
    "totalOracleList()": "c8599ded",
    "transferOwnership(address)": "f2fde38b",
    "unpause()": "3f4ba83a",
    "usdc()": "3e413bee",
    "usdcDecimals()": "7bf42165"
  },
  "id": 1
}