{
  "abi": [
    {
      "anonymous": false,
      "inputs": [
        {
          "indexed": true,
          "internalType": "uint256",
          "name": "nonce",
          "type": "uint256"
        },
        {
          "indexed": true,
          "internalType": "address",
          "name": "requester",
          "type": "address"
        },
        {
          "indexed": false,
          "internalType": "uint256",
          "name": "amount",
          "type": "uint256"
        },
        {
          "indexed": false,
          "internalType": "address",
          "name": "depositAddress",
          "type": "address"
        },
        {
          "indexed": false,
          "internalType": "uint256",
          "name": "timestamp",
          "type": "uint256"
        },
        {
          "indexed": false,
          "internalType": "bytes32",
          "name": "inputRequestHash",
          "type": "bytes32"
        }
      ],
      "name": "BurnConfirmed",
      "type": "event"
    },
    {
      "anonymous": false,
      "inputs": [
        {
          "indexed": true,
          "internalType": "uint256",
          "name": "nonce",
          "type": "uint256"
        },
        {
          "indexed": true,
          "internalType": "address",
          "name": "requester",
          "type": "address"
        },
        {
          "indexed": false,
          "internalType": "uint256",
          "name": "amount",
          "type": "uint256"
        },
        {
          "indexed": false,
          "internalType": "address",
          "name": "depositAddress",
          "type": "address"
        },
        {
          "indexed": false,
          "internalType": "uint256",
          "name": "timestamp",
          "type": "uint256"
        },
        {
          "indexed": false,
          "internalType": "bytes32",
          "name": "requestHash",
          "type": "bytes32"
        }
      ],
      "name": "Burned",
      "type": "event"
    },
    {
      "anonymous": false,
      "inputs": [
        {
          "indexed": true,
          "internalType": "address",
          "name": "custodian",
          "type": "address"
        }
      ],
      "name": "CustodianSet",
      "type": "event"
    },
    {
      "anonymous": false,
      "inputs": [
        {
          "indexed": false,
          "internalType": "uint8",
          "name": "version",
          "type": "uint8"
        }
      ],
      "name": "Initialized",
      "type": "event"
    },
    {
      "anonymous": false,
      "inputs": [
        {
          "indexed": true,
          "internalType": "address",
          "name": "merchant",
          "type": "address"
        },
        {
          "indexed": true,
          "internalType": "address",
          "name": "sender",
          "type": "address"
        },
        {
          "indexed": false,
          "internalType": "address",
          "name": "depositAddress",
          "type": "address"
        }
      ],
      "name": "IssuerDepositAddressSet",
      "type": "event"
    },
    {
      "anonymous": false,
      "inputs": [
        {
          "indexed": true,
          "internalType": "address",
          "name": "issuer",
          "type": "address"
        }
      ],
      "name": "IssuerSet",
      "type": "event"
    },
    {
      "anonymous": false,
      "inputs": [
        {
          "indexed": true,
          "internalType": "address",
          "name": "merchant",
          "type": "address"
        },
        {
          "indexed": false,
          "internalType": "address",
          "name": "depositAddress",
          "type": "address"
        }
      ],
      "name": "MerchantDepositAddressSet",
      "type": "event"
    },
    {
      "anonymous": false,
      "inputs": [
        {
          "indexed": true,
          "internalType": "uint256",
          "name": "nonce",
          "type": "uint256"
        },
        {
          "indexed": true,
          "internalType": "address",
          "name": "requester",
          "type": "address"
        },
        {
          "indexed": false,
          "internalType": "uint256",
          "name": "amount",
          "type": "uint256"
        },
        {
          "indexed": false,
          "internalType": "address",
          "name": "depositAddress",
          "type": "address"
        },
        {
          "indexed": false,
          "internalType": "uint256",
          "name": "timestamp",
          "type": "uint256"
        },
        {
          "indexed": false,
          "internalType": "bytes32",
          "name": "requestHash",
          "type": "bytes32"
        }
      ],
      "name": "MintConfirmed",
      "type": "event"
    },
    {
      "anonymous": false,
      "inputs": [
        {
          "indexed": true,
          "internalType": "uint256",
          "name": "nonce",
          "type": "uint256"
        },
        {
          "indexed": true,
          "internalType": "address",
          "name": "requester",
          "type": "address"
        },
        {
          "indexed": false,
          "internalType": "uint256",
          "name": "amount",
          "type": "uint256"
        },
        {
          "indexed": false,
          "internalType": "address",
          "name": "depositAddress",
          "type": "address"
        },
        {
          "indexed": false,
          "internalType": "uint256",
          "name": "timestamp",
          "type": "uint256"
        },
        {
          "indexed": false,
          "internalType": "bytes32",
          "name": "requestHash",
          "type": "bytes32"
        }
      ],
      "name": "MintRejected",
      "type": "event"
    },
    {
      "anonymous": false,
      "inputs": [
        {
          "indexed": true,
          "internalType": "uint256",
          "name": "nonce",
          "type": "uint256"
        },
        {
          "indexed": true,
          "internalType": "address",
          "name": "requester",
          "type": "address"
        },
        {
          "indexed": false,
          "internalType": "uint256",
          "name": "amount",
          "type": "uint256"
        },
        {
          "indexed": false,
          "internalType": "address",
          "name": "depositAddress",
          "type": "address"
        },
        {
          "indexed": false,
          "internalType": "uint256",
          "name": "timestamp",
          "type": "uint256"
        },
        {
          "indexed": false,
          "internalType": "bytes32",
          "name": "requestHash",
          "type": "bytes32"
        }
      ],
      "name": "MintRequestAdd",
      "type": "event"
    },
    {
      "anonymous": false,
      "inputs": [
        {
          "indexed": true,
          "internalType": "uint256",
          "name": "nonce",
          "type": "uint256"
        },
        {
          "indexed": true,
          "internalType": "address",
          "name": "requester",
          "type": "address"
        },
        {
          "indexed": false,
          "internalType": "bytes32",
          "name": "requestHash",
          "type": "bytes32"
        }
      ],
      "name": "MintRequestCancel",
      "type": "event"
    },
    {
      "anonymous": false,
      "inputs": [
        {
          "indexed": true,
          "internalType": "address",
          "name": "nft",
          "type": "address"
        }
      ],
      "name": "NFTSet",
      "type": "event"
    },
    {
      "anonymous": false,
      "inputs": [
        {
          "indexed": true,
          "internalType": "address",
          "name": "previousOwner",
          "type": "address"
        },
        {
          "indexed": true,
          "internalType": "address",
          "name": "newOwner",
          "type": "address"
        }
      ],
      "name": "OwnershipTransferred",
      "type": "event"
    },
    {
      "anonymous": false,
      "inputs": [
        {
          "indexed": false,
          "internalType": "address",
          "name": "account",
          "type": "address"
        }
      ],
      "name": "Paused",
      "type": "event"
    },
    {
      "anonymous": false,
      "inputs": [
        {
          "indexed": true,
          "internalType": "address",
          "name": "token",
          "type": "address"
        },
        {
          "indexed": false,
          "internalType": "uint256",
          "name": "time",
          "type": "uint256"
        }
      ],
      "name": "TokenAddressSet",
      "type": "event"
    },
    {
      "anonymous": false,
      "inputs": [
        {
          "indexed": false,
          "internalType": "address",
          "name": "account",
          "type": "address"
        }
      ],
      "name": "Unpaused",
      "type": "event"
    },
    {
      "anonymous": false,
      "inputs": [
        {
          "indexed": true,
          "internalType": "address",
          "name": "usdc",
          "type": "address"
        },
        {
          "indexed": true,
          "internalType": "uint8",
          "name": "decimals",
          "type": "uint8"
        },
        {
          "indexed": false,
          "internalType": "uint256",
          "name": "time",
          "type": "uint256"
        }
      ],
      "name": "UsdcAddressSet",
      "type": "event"
    },
    {
      "inputs": [
        {
          "internalType": "uint256",
          "name": "amount",
          "type": "uint256"
        }
      ],
      "name": "addMintRequest",
      "outputs": [
        {
          "internalType": "uint256",
          "name": "",
          "type": "uint256"
        },
        {
          "internalType": "bytes32",
          "name": "",
          "type": "bytes32"
        }
      ],
      "stateMutability": "nonpayable",
      "type": "function"
    },
    {
      "inputs": [
        {
          "internalType": "uint256",
          "name": "amount",
          "type": "uint256"
        }
      ],
      "name": "burn",
      "outputs": [
        {
          "internalType": "uint256",
          "name": "",
          "type": "uint256"
        },
        {
          "internalType": "bytes32",
          "name": "",
          "type": "bytes32"
        }
      ],
      "stateMutability": "nonpayable",
      "type": "function"
    },
    {
      "inputs": [
        {
          "internalType": "bytes32",
          "name": "",
          "type": "bytes32"
        }
      ],
      "name": "burnRequestNonce",
      "outputs": [
        {
          "internalType": "uint256",
          "name": "",
          "type": "uint256"
        }
      ],
      "stateMutability": "view",
      "type": "function"
    },
    {
      "inputs": [
        {
          "internalType": "uint256",
          "name": "",
          "type": "uint256"
        }
      ],
      "name": "burnRequests",
      "outputs": [
        {
          "internalType": "address",
          "name": "requester",
          "type": "address"
        },
        {
          "internalType": "uint256",
          "name": "amount",
          "type": "uint256"
        },
        {
          "internalType": "address",
          "name": "depositAddress",
          "type": "address"
        },
        {
          "internalType": "uint256",
          "name": "nonce",
          "type": "uint256"
        },
        {
          "internalType": "uint256",
          "name": "timestamp",
          "type": "uint256"
        },
        {
          "internalType": "enum IndexFactoryInterface.RequestStatus",
          "name": "status",
          "type": "uint8"
        }
      ],
      "stateMutability": "view",
      "type": "function"
    },
    {
      "inputs": [
        {
          "internalType": "bytes32",
          "name": "requestHash",
          "type": "bytes32"
        }
      ],
      "name": "confirmBurnRequest",
      "outputs": [
        {
          "internalType": "bool",
          "name": "",
          "type": "bool"
        }
      ],
      "stateMutability": "nonpayable",
      "type": "function"
    },
    {
      "inputs": [
        {
          "internalType": "bytes32",
          "name": "requestHash",
          "type": "bytes32"
        },
        {
          "internalType": "uint256",
          "name": "_tokenAmount",
          "type": "uint256"
        }
      ],
      "name": "confirmMintRequest",
      "outputs": [
        {
          "internalType": "bool",
          "name": "",
          "type": "bool"
        }
      ],
      "stateMutability": "nonpayable",
      "type": "function"
    },
    {
      "inputs": [],
      "name": "custodianWallet",
      "outputs": [
        {
          "internalType": "address",
          "name": "",
          "type": "address"
        }
      ],
      "stateMutability": "view",
      "type": "function"
    },
    {
      "inputs": [],
      "name": "getAllBurnRequests",
      "outputs": [
        {
          "components": [
            {
              "internalType": "address",
              "name": "requester",
              "type": "address"
            },
            {
              "internalType": "uint256",
              "name": "amount",
              "type": "uint256"
            },
            {
              "internalType": "address",
              "name": "depositAddress",
              "type": "address"
            },
            {
              "internalType": "uint256",
              "name": "nonce",
              "type": "uint256"
            },
            {
              "internalType": "uint256",
              "name": "timestamp",
              "type": "uint256"
            },
            {
              "internalType": "enum IndexFactoryInterface.RequestStatus",
              "name": "status",
              "type": "uint8"
            }
          ],
          "internalType": "struct IndexFactoryInterface.Request[]",
          "name": "",
          "type": "tuple[]"
        }
      ],
      "stateMutability": "view",
      "type": "function"
    },
    {
      "inputs": [],
      "name": "getAllMintRequests",
      "outputs": [
        {
          "components": [
            {
              "internalType": "address",
              "name": "requester",
              "type": "address"
            },
            {
              "internalType": "uint256",
              "name": "amount",
              "type": "uint256"
            },
            {
              "internalType": "address",
              "name": "depositAddress",
              "type": "address"
            },
            {
              "internalType": "uint256",
              "name": "nonce",
              "type": "uint256"
            },
            {
              "internalType": "uint256",
              "name": "timestamp",
              "type": "uint256"
            },
            {
              "internalType": "enum IndexFactoryInterface.RequestStatus",
              "name": "status",
              "type": "uint8"
            }
          ],
          "internalType": "struct IndexFactoryInterface.Request[]",
          "name": "",
          "type": "tuple[]"
        }
      ],
      "stateMutability": "view",
      "type": "function"
    },
    {
      "inputs": [
        {
          "internalType": "uint256",
          "name": "nonce",
          "type": "uint256"
        }
      ],
      "name": "getBurnRequest",
      "outputs": [
        {
          "internalType": "uint256",
          "name": "requestNonce",
          "type": "uint256"
        },
        {
          "internalType": "address",
          "name": "requester",
          "type": "address"
        },
        {
          "internalType": "uint256",
          "name": "amount",
          "type": "uint256"
        },
        {
          "internalType": "address",
          "name": "depositAddress",
          "type": "address"
        },
        {
          "internalType": "uint256",
          "name": "timestamp",
          "type": "uint256"
        },
        {
          "internalType": "string",
          "name": "status",
          "type": "string"
        },
        {
          "internalType": "bytes32",
          "name": "requestHash",
          "type": "bytes32"
        }
      ],
      "stateMutability": "view",
      "type": "function"
    },
    {
      "inputs": [],
      "name": "getBurnRequestsLength",
      "outputs": [
        {
          "internalType": "uint256",
          "name": "length",
          "type": "uint256"
        }
      ],
      "stateMutability": "view",
      "type": "function"
    },
    {
      "inputs": [
        {
          "internalType": "uint256",
          "name": "nonce",
          "type": "uint256"
        }
      ],
      "name": "getMintRequest",
      "outputs": [
        {
          "internalType": "uint256",
          "name": "requestNonce",
          "type": "uint256"
        },
        {
          "internalType": "address",
          "name": "requester",
          "type": "address"
        },
        {
          "internalType": "uint256",
          "name": "amount",
          "type": "uint256"
        },
        {
          "internalType": "address",
          "name": "depositAddress",
          "type": "address"
        },
        {
          "internalType": "uint256",
          "name": "timestamp",
          "type": "uint256"
        },
        {
          "internalType": "string",
          "name": "status",
          "type": "string"
        },
        {
          "internalType": "bytes32",
          "name": "requestHash",
          "type": "bytes32"
        }
      ],
      "stateMutability": "view",
      "type": "function"
    },
    {
      "inputs": [],
      "name": "getMintRequestsLength",
      "outputs": [
        {
          "internalType": "uint256",
          "name": "length",
          "type": "uint256"
        }
      ],
      "stateMutability": "view",
      "type": "function"
    },
    {
      "inputs": [
        {
          "internalType": "address",
          "name": "_custodianWallet",
          "type": "address"
        },
        {
          "internalType": "address",
          "name": "_issuer",
          "type": "address"
        },
        {
          "internalType": "address",
          "name": "_token",
          "type": "address"
        },
        {
          "internalType": "address",
          "name": "_usdc",
          "type": "address"
        },
        {
          "internalType": "uint8",
          "name": "_usdcDecimals",
          "type": "uint8"
        },
        {
          "internalType": "address",
          "name": "_nft",
          "type": "address"
        }
      ],
      "name": "initialize",
      "outputs": [],
      "stateMutability": "nonpayable",
      "type": "function"
    },
    {
      "inputs": [],
      "name": "issuer",
      "outputs": [
        {
          "internalType": "address",
          "name": "",
          "type": "address"
        }
      ],
      "stateMutability": "view",
      "type": "function"
    },
    {
      "inputs": [
        {
          "internalType": "bytes32",
          "name": "",
          "type": "bytes32"
        }
      ],
      "name": "mintRequestNonce",
      "outputs": [
        {
          "internalType": "uint256",
          "name": "",
          "type": "uint256"
        }
      ],
      "stateMutability": "view",
      "type": "function"
    },
    {
      "inputs": [
        {
          "internalType": "uint256",
          "name": "",
          "type": "uint256"
        }
      ],
      "name": "mintRequests",
      "outputs": [
        {
          "internalType": "address",
          "name": "requester",
          "type": "address"
        },
        {
          "internalType": "uint256",
          "name": "amount",
          "type": "uint256"
        },
        {
          "internalType": "address",
          "name": "depositAddress",
          "type": "address"
        },
        {
          "internalType": "uint256",
          "name": "nonce",
          "type": "uint256"
        },
        {
          "internalType": "uint256",
          "name": "timestamp",
          "type": "uint256"
        },
        {
          "internalType": "enum IndexFactoryInterface.RequestStatus",
          "name": "status",
          "type": "uint8"
        }
      ],
      "stateMutability": "view",
      "type": "function"
    },
    {
      "inputs": [],
      "name": "nft",
      "outputs": [
        {
          "internalType": "contract RequestNFT",
          "name": "",
          "type": "address"
        }
      ],
      "stateMutability": "view",
      "type": "function"
    },
    {
      "inputs": [],
      "name": "owner",
      "outputs": [
        {
          "internalType": "address",
          "name": "",
          "type": "address"
        }
      ],
      "stateMutability": "view",
      "type": "function"
    },
    {
      "inputs": [],
      "name": "pause",
      "outputs": [],
      "stateMutability": "nonpayable",
      "type": "function"
    },
    {
      "inputs": [],
      "name": "paused",
      "outputs": [
        {
          "internalType": "bool",
          "name": "",
          "type": "bool"
        }
      ],
      "stateMutability": "view",
      "type": "function"
    },
    {
      "inputs": [],
      "name": "renounceOwnership",
      "outputs": [],
      "stateMutability": "nonpayable",
      "type": "function"
    },
    {
      "inputs": [
        {
          "internalType": "address",
          "name": "_custodianWallet",
          "type": "address"
        }
      ],
      "name": "setCustodianWallet",
      "outputs": [
        {
          "internalType": "bool",
          "name": "",
          "type": "bool"
        }
      ],
      "stateMutability": "nonpayable",
      "type": "function"
    },
    {
      "inputs": [
        {
          "internalType": "address",
          "name": "_issuer",
          "type": "address"
        }
      ],
      "name": "setIssuer",
      "outputs": [
        {
          "internalType": "bool",
          "name": "",
          "type": "bool"
        }
      ],
      "stateMutability": "nonpayable",
      "type": "function"
    },
    {
      "inputs": [
        {
          "internalType": "address",
          "name": "_nft",
          "type": "address"
        }
      ],
      "name": "setNFT",
      "outputs": [
        {
          "internalType": "bool",
          "name": "",
          "type": "bool"
        }
      ],
      "stateMutability": "nonpayable",
      "type": "function"
    },
    {
      "inputs": [
        {
          "internalType": "address",
          "name": "_token",
          "type": "address"
        }
      ],
      "name": "setTokenAddress",
      "outputs": [
        {
          "internalType": "bool",
          "name": "",
          "type": "bool"
        }
      ],
      "stateMutability": "nonpayable",
      "type": "function"
    },
    {
      "inputs": [
        {
          "internalType": "address",
          "name": "_usdc",
          "type": "address"
        },
        {
          "internalType": "uint8",
          "name": "_usdcDecimals",
          "type": "uint8"
        }
      ],
      "name": "setUsdcAddress",
      "outputs": [
        {
          "internalType": "bool",
          "name": "",
          "type": "bool"
        }
      ],
      "stateMutability": "nonpayable",
      "type": "function"
    },
    {
      "inputs": [],
      "name": "token",
      "outputs": [
        {
          "internalType": "contract IndexToken",
          "name": "",
          "type": "address"
        }
      ],
      "stateMutability": "view",
      "type": "function"
    },
    {
      "inputs": [
        {
          "internalType": "address",
          "name": "newOwner",
          "type": "address"
        }
      ],
      "name": "transferOwnership",
      "outputs": [],
      "stateMutability": "nonpayable",
      "type": "function"
    },
    {
      "inputs": [],
      "name": "unpause",
      "outputs": [],
      "stateMutability": "nonpayable",
      "type": "function"
    },
    {
      "inputs": [],
      "name": "usdc",
      "outputs": [
        {
          "internalType": "address",
          "name": "",
          "type": "address"
        }
      ],
      "stateMutability": "view",
      "type": "function"
    },
    {
      "inputs": [],
      "name": "usdcDecimals",
      "outputs": [
        {
          "internalType": "uint8",
          "name": "",
          "type": "uint8"
        }
      ],
      "stateMutability": "view",
      "type": "function"
    }
  ],
  "bytecode": {
    "object": "0x608060405234801561001057600080fd5b50612405806100206000396000f3fe608060405234801561001057600080fd5b50600436106101f05760003560e01c8063715018a61161010f578063b69b22d8116100a2578063eab2a71111610071578063eab2a7111461045f578063f2fde38b14610472578063f56e9c6614610485578063fc0c546a1461049857600080fd5b8063b69b22d8146103f3578063b92997a114610419578063c72551be1461042c578063e21c40c01461044c57600080fd5b80638456cb59116100de5780638456cb59146103a75780638da5cb5b146103af5780639ad4b86b146103c05780639cc0fb5b146103e057600080fd5b8063715018a61461035e57806372f69a72146103665780637683c0271461036e5780637bf421651461038157600080fd5b806342966c681161018757806360daba331161015657806360daba331461031d5780636406c10c1461033057806364a9b8f71461034357806364c70d451461035657600080fd5b806342966c68146102c457806347ccca02146102ec57806355cc4e57146102ff5780635c975abb1461031257600080fd5b8063311104f3116101c3578063311104f3146102705780633e413bee146102825780633f4ba83a14610295578063424e65751461029f57600080fd5b80631d143848146101f55780631e106e99146102255780631e7aa9f41461023857806326a4e8d21461024d575b600080fd5b609a54610208906001600160a01b031681565b6040516001600160a01b0390911681526020015b60405180910390f35b609954610208906001600160a01b031681565b6102406104ab565b60405161021c9190612211565b61026061025b366004612047565b61057e565b604051901515815260200161021c565b609e545b60405190815260200161021c565b609b54610208906001600160a01b031681565b61029d610635565b005b6102b26102ad366004612132565b610647565b60405161021c969594939291906121d7565b6102d76102d2366004612132565b61069e565b6040805192835260208301919091520161021c565b609854610208906001600160a01b031681565b61026061030d366004612047565b610976565b60655460ff16610260565b61026061032b366004612132565b610a1e565b6102b261033e366004612132565b610b3a565b61026061035136600461214b565b610b4a565b610240610cca565b61029d610d94565b609f54610274565b6102d761037c366004612132565b610da6565b609b5461039590600160a01b900460ff1681565b60405160ff909116815260200161021c565b61029d61102e565b6033546001600160a01b0316610208565b6102746103ce366004612132565b609c6020526000908152604090205481565b6102606103ee366004612047565b61103e565b610406610401366004612132565b6110ed565b60405161021c97969594939291906122ff565b61029d610427366004612069565b6111ee565b61027461043a366004612132565b609d6020526000908152604090205481565b61040661045a366004612132565b611378565b61026061046d3660046120dd565b6114d2565b61029d610480366004612047565b611595565b610260610493366004612047565b61160e565b609754610208906001600160a01b031681565b6060609f805480602002602001604051908101604052809291908181526020016000905b828210156105755760008481526020908190206040805160c0810182526006860290920180546001600160a01b039081168452600182015494840194909452600281015490931690820152600382015460608201526004808301546080830152600583015491929160a084019160ff90911690811115610551576105516123a3565b6004811115610562576105626123a3565b81525050815260200190600101906104cf565b50505050905090565b60006105886116b3565b6001600160a01b0382166105db5760405162461bcd60e51b8152602060048201526015602482015274696e76616c696420746f6b656e206164647265737360581b60448201526064015b60405180910390fd5b609780546001600160a01b0319166001600160a01b0384169081179091556040514281527f2d65e2eeacd42ac25aa023ad49c935dd4697a70e62b53317b7514f14096ff3899060200160405180910390a25060015b919050565b61063d6116b3565b61064561170d565b565b609e818154811061065757600080fd5b60009182526020909120600690910201805460018201546002830154600384015460048501546005909501546001600160a01b039485169650929491909316929160ff1686565b6000806106a961175f565b609f546040805160c081018252338082526020820187905291810191909152606081018290524260808201819052600160a08301529060006106ea826117a5565b6000818152609d60209081526040808320889055609f8054600180820183559190945286517f0bc14066c33013fe88f66e314e4cf150b0b2d4d6451a1a51dbbd1c27cd11de28600690950294850180546001600160a01b03199081166001600160a01b03938416178255948901517f0bc14066c33013fe88f66e314e4cf150b0b2d4d6451a1a51dbbd1c27cd11de29870155928801517f0bc14066c33013fe88f66e314e4cf150b0b2d4d6451a1a51dbbd1c27cd11de2a8601805490951691161790925560608601517f0bc14066c33013fe88f66e314e4cf150b0b2d4d6451a1a51dbbd1c27cd11de2b84015560808601517f0bc14066c33013fe88f66e314e4cf150b0b2d4d6451a1a51dbbd1c27cd11de2c84015560a08601517f0bc14066c33013fe88f66e314e4cf150b0b2d4d6451a1a51dbbd1c27cd11de2d90930180549495508694919392909160ff19169083600481111561084c5761084c6123a3565b021790555050609754604051632770a7eb60e21b8152336004820152602481018a90526001600160a01b039091169150639dc29fac90604401600060405180830381600087803b15801561089f57600080fd5b505af11580156108b3573d6000803e3d6000fd5b50506098546040516319c5df4360e01b8152336004820152602481018b90526001600160a01b0390911692506319c5df439150604401600060405180830381600087803b15801561090357600080fd5b505af1158015610917573d6000803e3d6000fd5b50506099546040513393508792507fe6962694158a281204f611e0b1efc743e9ad587dd4b4dce387ec6fdef9cb927691610960918c916001600160a01b03169089908890612353565b60405180910390a392945091925050505b915091565b60006109806116b3565b6001600160a01b0382166109cf5760405162461bcd60e51b8152602060048201526016602482015275696e76616c696420697373756572206164647265737360501b60448201526064016105d2565b609a80546001600160a01b0319166001600160a01b0384169081179091556040517f141c634522c8bfcf25beba4c524ac0c87de0db74ebe83168cf5f3bf4d45fd89890600090a2506001919050565b609a546000906001600160a01b03163314610a725760405162461bcd60e51b815260206004820152601460248201527339b2b73232b9103737ba10309034b9b9bab2b91760611b60448201526064016105d2565b6000610a7c611fec565b610a858461181c565b80925081935050506003609f8381548110610aa257610aa26123b9565b60009182526020909120600560069092020101805460ff19166001836004811115610acf57610acf6123a3565b021790555080600001516001600160a01b031681606001517f9d34e90560c4a3acdc3e2538823a0f15daae0cab079543a5341e13635ea88d1483602001518460400151856080015189604051610b289493929190612353565b60405180910390a35060019392505050565b609f818154811061065757600080fd5b609a546000906001600160a01b03163314610b9e5760405162461bcd60e51b815260206004820152601460248201527339b2b73232b9103737ba10309034b9b9bab2b91760611b60448201526064016105d2565b6000610ba8611fec565b610bb185611929565b80925081935050506003609e8381548110610bce57610bce6123b9565b60009182526020909120600560069092020101805460ff19166001836004811115610bfb57610bfb6123a3565b021790555060975481516040516340c10f1960e01b81526001600160a01b039182166004820152602481018790529116906340c10f1990604401600060405180830381600087803b158015610c4f57600080fd5b505af1158015610c63573d6000803e3d6000fd5b5050505080600001516001600160a01b031681606001517ff319776600e931b90301da43f4a0e4b931f831b2e13f71b6746fdaa715f0f58c86846040015185608001518a604051610cb79493929190612353565b60405180910390a3506001949350505050565b6060609e805480602002602001604051908101604052809291908181526020016000905b828210156105755760008481526020908190206040805160c0810182526006860290920180546001600160a01b039081168452600182015494840194909452600281015490931690820152600382015460608201526004808301546080830152600583015491929160a084019160ff90911690811115610d7057610d706123a3565b6004811115610d8157610d816123a3565b8152505081526020019060010190610cee565b610d9c6116b3565b610645600061199b565b600080610db161175f565b609b54609954610dd0916001600160a01b0390811691339116866119ed565b609e546040805160c081018252338152602081018690526099546001600160a01b031691810191909152606081018290524260808201819052600160a0830152906000610e1c826117a5565b6000818152609c60209081526040808320889055609e8054600180820183559190945286517fcfe2a20ff701a1f3e14f63bd70d6c6bc6fba8172ec6d5a505cdab3927c0a9de6600690950294850180546001600160a01b03199081166001600160a01b03938416178255948901517fcfe2a20ff701a1f3e14f63bd70d6c6bc6fba8172ec6d5a505cdab3927c0a9de7870155928801517fcfe2a20ff701a1f3e14f63bd70d6c6bc6fba8172ec6d5a505cdab3927c0a9de88601805490951691161790925560608601517fcfe2a20ff701a1f3e14f63bd70d6c6bc6fba8172ec6d5a505cdab3927c0a9de984015560808601517fcfe2a20ff701a1f3e14f63bd70d6c6bc6fba8172ec6d5a505cdab3927c0a9dea84015560a08601517fcfe2a20ff701a1f3e14f63bd70d6c6bc6fba8172ec6d5a505cdab3927c0a9deb90930180549495508694919392909160ff191690836004811115610f7e57610f7e6123a3565b021790555050609854604051636703a9b160e11b8152336004820152602481018a90526001600160a01b03909116915063ce07536290604401600060405180830381600087803b158015610fd157600080fd5b505af1158015610fe5573d6000803e3d6000fd5b50506099546040513393508792507fa410db190881128a918f76d46896d4accc2a2a48ad20485fe31f4f55d21b0ae391610960918c916001600160a01b03169089908890612353565b6110366116b3565b610645611a4d565b60006110486116b3565b6001600160a01b03821661109e5760405162461bcd60e51b815260206004820181905260248201527f696e76616c696420637573746f6469616e2077616c6c6574206164647265737360448201526064016105d2565b609980546001600160a01b0319166001600160a01b0384169081179091556040517fb88c20a211c5d7677ba2a26c317d8ae6b25aa492016dc8ceca2469761d063d8090600090a2506001919050565b60008060008060006060600080609e898154811061110d5761110d6123b9565b60009182526020918290206040805160c081018252600690930290910180546001600160a01b039081168452600182015494840194909452600281015490931690820152600382015460608201526004808301546080830152600583015491929160a084019160ff90911690811115611188576111886123a3565b6004811115611199576111996123a3565b81525050905060006111ae8260a00151611a8a565b905081606001519850816000015197508160200151965081604001519550816080015194508093506111df826117a5565b92505050919395979092949650565b600054610100900460ff161580801561120e5750600054600160ff909116105b806112285750303b158015611228575060005460ff166001145b61128b5760405162461bcd60e51b815260206004820152602e60248201527f496e697469616c697a61626c653a20636f6e747261637420697320616c72656160448201526d191e481a5b9a5d1a585b1a5e995960921b60648201526084016105d2565b6000805460ff1916600117905580156112ae576000805461ff0019166101001790555b609980546001600160a01b03808a166001600160a01b031992831617909255609a805489841690831617905560978054888416908316179055609b805460ff8716600160a01b026001600160a81b0319909116888516171790556098805492851692909116919091179055611321611ba6565b611329611bd5565b801561136f576000805461ff0019169055604051600181527f7f26b83ff96e1f2b6a682f133852f6798a09c465da95921460cefb38474024989060200160405180910390a15b50505050505050565b60008060008060006060600080609f8981548110611398576113986123b9565b6000918252602082206005600690920201908101549092506113bc9060ff16611a8a565b9050816003015498508160000160009054906101000a90046001600160a01b03169750816001015496508160020160009054906101000a90046001600160a01b03169550816004015494508093506111df826040518060c00160405290816000820160009054906101000a90046001600160a01b03166001600160a01b03166001600160a01b03168152602001600182015481526020016002820160009054906101000a90046001600160a01b03166001600160a01b03166001600160a01b0316815260200160038201548152602001600482015481526020016005820160009054906101000a900460ff1660048111156114b9576114b96123a3565b60048111156114ca576114ca6123a3565b9052506117a5565b60006114dc6116b3565b6001600160a01b03831661152a5760405162461bcd60e51b8152602060048201526015602482015274696e76616c696420746f6b656e206164647265737360581b60448201526064016105d2565b609b80546001600160a01b0385166001600160a81b03199091168117600160a01b60ff8616908102919091179092556040514281527f47f70abc5eafc71015adda71f3628949d17bd87cb6199008a1243dca856ceaaf9060200160405180910390a350600192915050565b61159d6116b3565b6001600160a01b0381166116025760405162461bcd60e51b815260206004820152602660248201527f4f776e61626c653a206e6577206f776e657220697320746865207a65726f206160448201526564647265737360d01b60648201526084016105d2565b61160b8161199b565b50565b60006116186116b3565b6001600160a01b0382166116645760405162461bcd60e51b8152602060048201526013602482015272696e76616c6964206e6674206164647265737360681b60448201526064016105d2565b609880546001600160a01b0319166001600160a01b0384169081179091556040517f75fc4fdf6d5e94402ecc584683c37c192cfde2ea99b612d59a6864204919c7e490600090a2506001919050565b6033546001600160a01b031633146106455760405162461bcd60e51b815260206004820181905260248201527f4f776e61626c653a2063616c6c6572206973206e6f7420746865206f776e657260448201526064016105d2565b611715611c04565b6065805460ff191690557f5db9ee0a495bf2e6ff9c91a7834c1ba4fdd244a5e8aa4e537bd38aeae4b073aa335b6040516001600160a01b03909116815260200160405180910390a1565b60655460ff16156106455760405162461bcd60e51b815260206004820152601060248201526f14185d5cd8589b194e881c185d5cd95960821b60448201526064016105d2565b80516020808301516040808501516060860151608087015192516000966117ff9690959491016001600160a01b03958616815260208101949094529190931660408301526060820192909252608081019190915260a00190565b604051602081830303815290604052805190602001209050919050565b6000611826611fec565b826118675760405162461bcd60e51b81526020600482015260116024820152700726571756573742068617368206973203607c1b60448201526064016105d2565b6000838152609d6020526040902054609f8054919350908390811061188e5761188e6123b9565b60009182526020918290206040805160c081018252600690930290910180546001600160a01b039081168452600182015494840194909452600281015490931690820152600382015460608201526004808301546080830152600583015491929160a084019160ff90911690811115611909576119096123a3565b600481111561191a5761191a6123a3565b90525090506109718184611c4d565b6000611933611fec565b826119745760405162461bcd60e51b81526020600482015260116024820152700726571756573742068617368206973203607c1b60448201526064016105d2565b6000838152609c6020526040902054609e8054919350908390811061188e5761188e6123b9565b603380546001600160a01b038381166001600160a01b0319831681179093556040519116919082907f8be0079c531659141344cd1fd0a4f28419497f9722a3daafe3b4186f6b6457e090600090a35050565b604080516001600160a01b0385811660248301528416604482015260648082018490528251808303909101815260849091019091526020810180516001600160e01b03166323b872dd60e01b179052611a47908590611d22565b50505050565b611a5561175f565b6065805460ff191660011790557f62e78cea01bee320cd4e420270b5ea74000d11b0c9f74754ebdbfc544b05a2586117423390565b60606001826004811115611aa057611aa06123a3565b1415611ac957505060408051808201909152600781526670656e64696e6760c81b602082015290565b6002826004811115611add57611add6123a3565b1415611b0757505060408051808201909152600881526718d85b98d95b195960c21b602082015290565b6003826004811115611b1b57611b1b6123a3565b1415611b45575050604080518082019091526008815267185c1c1c9bdd995960c21b602082015290565b6004826004811115611b5957611b596123a3565b1415611b835750506040805180820190915260088152671c995a9958dd195960c21b602082015290565b50506040805180820190915260078152663ab735b737bbb760c91b602082015290565b600054610100900460ff16611bcd5760405162461bcd60e51b81526004016105d2906122b4565b610645611dfc565b600054610100900460ff16611bfc5760405162461bcd60e51b81526004016105d2906122b4565b610645611e2c565b60655460ff166106455760405162461bcd60e51b815260206004820152601460248201527314185d5cd8589b194e881b9bdd081c185d5cd95960621b60448201526064016105d2565b60018260a001516004811115611c6557611c656123a3565b14611cab5760405162461bcd60e51b815260206004820152601660248201527572657175657374206973206e6f742070656e64696e6760501b60448201526064016105d2565b611cb4826117a5565b8114611d1e5760405162461bcd60e51b815260206004820152603360248201527f676976656e2072657175657374206861736820646f6573206e6f74206d6174636044820152721a0818481c195b991a5b99c81c995c5d595cdd606a1b60648201526084016105d2565b5050565b6000611d77826040518060400160405280602081526020017f5361666545524332303a206c6f772d6c6576656c2063616c6c206661696c6564815250856001600160a01b0316611e5f9092919063ffffffff16565b9050805160001480611d98575080806020019051810190611d989190612110565b611df75760405162461bcd60e51b815260206004820152602a60248201527f5361666545524332303a204552433230206f7065726174696f6e20646964206e6044820152691bdd081cdd58d8d9595960b21b60648201526084016105d2565b505050565b600054610100900460ff16611e235760405162461bcd60e51b81526004016105d2906122b4565b6106453361199b565b600054610100900460ff16611e535760405162461bcd60e51b81526004016105d2906122b4565b6065805460ff19169055565b6060611e6e8484600085611e76565b949350505050565b606082471015611ed75760405162461bcd60e51b815260206004820152602660248201527f416464726573733a20696e73756666696369656e742062616c616e636520666f6044820152651c8818d85b1b60d21b60648201526084016105d2565b600080866001600160a01b03168587604051611ef391906121bb565b60006040518083038185875af1925050503d8060008114611f30576040519150601f19603f3d011682016040523d82523d6000602084013e611f35565b606091505b5091509150611f4687838387611f51565b979650505050505050565b60608315611fbd578251611fb6576001600160a01b0385163b611fb65760405162461bcd60e51b815260206004820152601d60248201527f416464726573733a2063616c6c20746f206e6f6e2d636f6e747261637400000060448201526064016105d2565b5081611e6e565b611e6e8383815115611fd25781518083602001fd5b8060405162461bcd60e51b81526004016105d291906122a1565b6040805160c08101825260008082526020820181905291810182905260608101829052608081018290529060a082015290565b80356001600160a01b038116811461063057600080fd5b803560ff8116811461063057600080fd5b60006020828403121561205957600080fd5b6120628261201f565b9392505050565b60008060008060008060c0878903121561208257600080fd5b61208b8761201f565b95506120996020880161201f565b94506120a76040880161201f565b93506120b56060880161201f565b92506120c360808801612036565b91506120d160a0880161201f565b90509295509295509295565b600080604083850312156120f057600080fd5b6120f98361201f565b915061210760208401612036565b90509250929050565b60006020828403121561212257600080fd5b8151801515811461206257600080fd5b60006020828403121561214457600080fd5b5035919050565b6000806040838503121561215e57600080fd5b50508035926020909101359150565b6005811061218b57634e487b7160e01b600052602160045260246000fd5b9052565b600081518084526121a7816020860160208601612377565b601f01601f19169290920160200192915050565b600082516121cd818460208701612377565b9190910192915050565b6001600160a01b0387811682526020820187905285166040820152606081018490526080810183905260c08101611f4660a083018461216d565b602080825282518282018190526000919060409081850190868401855b8281101561229457815180516001600160a01b0390811686528782015188870152868201511686860152606080820151908601526080808201519086015260a0908101519061227f8682018361216d565b505060c093909301929085019060010161222e565b5091979650505050505050565b602081526000612062602083018461218f565b6020808252602b908201527f496e697469616c697a61626c653a20636f6e7472616374206973206e6f74206960408201526a6e697469616c697a696e6760a81b606082015260800190565b8781526001600160a01b03878116602083015260408201879052851660608201526080810184905260e060a0820181905260009061233f9083018561218f565b90508260c083015298975050505050505050565b9384526001600160a01b039290921660208401526040830152606082015260800190565b60005b8381101561239257818101518382015260200161237a565b83811115611a475750506000910152565b634e487b7160e01b600052602160045260246000fd5b634e487b7160e01b600052603260045260246000fdfea26469706673582212204e5fe75bd5c99f09633027a37f4cb5a3047d7ddcdb5b8182a2bd561b36243e8664736f6c63430008070033",
    "linkReferences": {}
  },
  "methodIdentifiers": {
    "addMintRequest(uint256)": "7683c027",
    "burn(uint256)": "42966c68",
    "burnRequestNonce(bytes32)": "c72551be",
    "burnRequests(uint256)": "6406c10c",
    "confirmBurnRequest(bytes32)": "60daba33",
    "confirmMintRequest(bytes32,uint256)": "64a9b8f7",
    "custodianWallet()": "1e106e99",
    "getAllBurnRequests()": "1e7aa9f4",
    "getAllMintRequests()": "64c70d45",
    "getBurnRequest(uint256)": "e21c40c0",
    "getBurnRequestsLength()": "72f69a72",
    "getMintRequest(uint256)": "b69b22d8",
    "getMintRequestsLength()": "311104f3",
    "initialize(address,address,address,address,uint8,address)": "b92997a1",
    "issuer()": "1d143848",
    "mintRequestNonce(bytes32)": "9ad4b86b",
    "mintRequests(uint256)": "424e6575",
    "nft()": "47ccca02",
    "owner()": "8da5cb5b",
    "pause()": "8456cb59",
    "paused()": "5c975abb",
    "renounceOwnership()": "715018a6",
    "setCustodianWallet(address)": "9cc0fb5b",
    "setIssuer(address)": "55cc4e57",
    "setNFT(address)": "f56e9c66",
    "setTokenAddress(address)": "26a4e8d2",
    "setUsdcAddress(address,uint8)": "eab2a711",
    "token()": "fc0c546a",
    "transferOwnership(address)": "f2fde38b",
    "unpause()": "3f4ba83a",
    "usdc()": "3e413bee",
    "usdcDecimals()": "7bf42165"
  },
  "id": 0
}