{
  "abi": [
    {
      "anonymous": false,
      "inputs": [
        {
          "indexed": true,
          "internalType": "uint256",
          "name": "nonce",
          "type": "uint256"
        },
        {
          "indexed": true,
          "internalType": "address",
          "name": "requester",
          "type": "address"
        },
        {
          "indexed": false,
          "internalType": "uint256",
          "name": "amount",
          "type": "uint256"
        },
        {
          "indexed": false,
          "internalType": "address",
          "name": "depositAddress",
          "type": "address"
        },
        {
          "indexed": false,
          "internalType": "uint256",
          "name": "timestamp",
          "type": "uint256"
        },
        {
          "indexed": false,
          "internalType": "bytes32",
          "name": "inputRequestHash",
          "type": "bytes32"
        }
      ],
      "name": "BurnConfirmed",
      "type": "event"
    },
    {
      "anonymous": false,
      "inputs": [
        {
          "indexed": true,
          "internalType": "uint256",
          "name": "nonce",
          "type": "uint256"
        },
        {
          "indexed": true,
          "internalType": "address",
          "name": "requester",
          "type": "address"
        },
        {
          "indexed": false,
          "internalType": "uint256",
          "name": "amount",
          "type": "uint256"
        },
        {
          "indexed": false,
          "internalType": "address",
          "name": "depositAddress",
          "type": "address"
        },
        {
          "indexed": false,
          "internalType": "uint256",
          "name": "timestamp",
          "type": "uint256"
        },
        {
          "indexed": false,
          "internalType": "bytes32",
          "name": "requestHash",
          "type": "bytes32"
        }
      ],
      "name": "Burned",
      "type": "event"
    },
    {
      "anonymous": false,
      "inputs": [
        {
          "indexed": true,
          "internalType": "address",
          "name": "custodian",
          "type": "address"
        }
      ],
      "name": "CustodianSet",
      "type": "event"
    },
    {
      "anonymous": false,
      "inputs": [
        {
          "indexed": false,
          "internalType": "uint8",
          "name": "version",
          "type": "uint8"
        }
      ],
      "name": "Initialized",
      "type": "event"
    },
    {
      "anonymous": false,
      "inputs": [
        {
          "indexed": true,
          "internalType": "address",
          "name": "merchant",
          "type": "address"
        },
        {
          "indexed": true,
          "internalType": "address",
          "name": "sender",
          "type": "address"
        },
        {
          "indexed": false,
          "internalType": "address",
          "name": "depositAddress",
          "type": "address"
        }
      ],
      "name": "IssuerDepositAddressSet",
      "type": "event"
    },
    {
      "anonymous": false,
      "inputs": [
        {
          "indexed": true,
          "internalType": "address",
          "name": "issuer",
          "type": "address"
        }
      ],
      "name": "IssuerSet",
      "type": "event"
    },
    {
      "anonymous": false,
      "inputs": [
        {
          "indexed": true,
          "internalType": "address",
          "name": "merchant",
          "type": "address"
        },
        {
          "indexed": false,
          "internalType": "address",
          "name": "depositAddress",
          "type": "address"
        }
      ],
      "name": "MerchantDepositAddressSet",
      "type": "event"
    },
    {
      "anonymous": false,
      "inputs": [
        {
          "indexed": true,
          "internalType": "uint256",
          "name": "nonce",
          "type": "uint256"
        },
        {
          "indexed": true,
          "internalType": "address",
          "name": "requester",
          "type": "address"
        },
        {
          "indexed": false,
          "internalType": "uint256",
          "name": "amount",
          "type": "uint256"
        },
        {
          "indexed": false,
          "internalType": "address",
          "name": "depositAddress",
          "type": "address"
        },
        {
          "indexed": false,
          "internalType": "uint256",
          "name": "timestamp",
          "type": "uint256"
        },
        {
          "indexed": false,
          "internalType": "bytes32",
          "name": "requestHash",
          "type": "bytes32"
        }
      ],
      "name": "MintConfirmed",
      "type": "event"
    },
    {
      "anonymous": false,
      "inputs": [
        {
          "indexed": true,
          "internalType": "uint256",
          "name": "nonce",
          "type": "uint256"
        },
        {
          "indexed": true,
          "internalType": "address",
          "name": "requester",
          "type": "address"
        },
        {
          "indexed": false,
          "internalType": "uint256",
          "name": "amount",
          "type": "uint256"
        },
        {
          "indexed": false,
          "internalType": "address",
          "name": "depositAddress",
          "type": "address"
        },
        {
          "indexed": false,
          "internalType": "uint256",
          "name": "timestamp",
          "type": "uint256"
        },
        {
          "indexed": false,
          "internalType": "bytes32",
          "name": "requestHash",
          "type": "bytes32"
        }
      ],
      "name": "MintRejected",
      "type": "event"
    },
    {
      "anonymous": false,
      "inputs": [
        {
          "indexed": true,
          "internalType": "uint256",
          "name": "nonce",
          "type": "uint256"
        },
        {
          "indexed": true,
          "internalType": "address",
          "name": "requester",
          "type": "address"
        },
        {
          "indexed": false,
          "internalType": "uint256",
          "name": "amount",
          "type": "uint256"
        },
        {
          "indexed": false,
          "internalType": "address",
          "name": "depositAddress",
          "type": "address"
        },
        {
          "indexed": false,
          "internalType": "uint256",
          "name": "timestamp",
          "type": "uint256"
        },
        {
          "indexed": false,
          "internalType": "bytes32",
          "name": "requestHash",
          "type": "bytes32"
        }
      ],
      "name": "MintRequestAdd",
      "type": "event"
    },
    {
      "anonymous": false,
      "inputs": [
        {
          "indexed": true,
          "internalType": "uint256",
          "name": "nonce",
          "type": "uint256"
        },
        {
          "indexed": true,
          "internalType": "address",
          "name": "requester",
          "type": "address"
        },
        {
          "indexed": false,
          "internalType": "bytes32",
          "name": "requestHash",
          "type": "bytes32"
        }
      ],
      "name": "MintRequestCancel",
      "type": "event"
    },
    {
      "anonymous": false,
      "inputs": [
        {
          "indexed": true,
          "internalType": "address",
          "name": "previousOwner",
          "type": "address"
        },
        {
          "indexed": true,
          "internalType": "address",
          "name": "newOwner",
          "type": "address"
        }
      ],
      "name": "OwnershipTransferred",
      "type": "event"
    },
    {
      "anonymous": false,
      "inputs": [
        {
          "indexed": false,
          "internalType": "address",
          "name": "account",
          "type": "address"
        }
      ],
      "name": "Paused",
      "type": "event"
    },
    {
      "anonymous": false,
      "inputs": [
        {
          "indexed": true,
          "internalType": "address",
          "name": "token",
          "type": "address"
        },
        {
          "indexed": false,
          "internalType": "uint256",
          "name": "time",
          "type": "uint256"
        }
      ],
      "name": "TokenAddressSet",
      "type": "event"
    },
    {
      "anonymous": false,
      "inputs": [
        {
          "indexed": false,
          "internalType": "address",
          "name": "account",
          "type": "address"
        }
      ],
      "name": "Unpaused",
      "type": "event"
    },
    {
      "anonymous": false,
      "inputs": [
        {
          "indexed": true,
          "internalType": "address",
          "name": "usdc",
          "type": "address"
        },
        {
          "indexed": true,
          "internalType": "uint8",
          "name": "decimals",
          "type": "uint8"
        },
        {
          "indexed": false,
          "internalType": "uint256",
          "name": "time",
          "type": "uint256"
        }
      ],
      "name": "UsdcAddressSet",
      "type": "event"
    },
    {
      "inputs": [
        {
          "internalType": "uint256",
          "name": "amount",
          "type": "uint256"
        }
      ],
      "name": "addMintRequest",
      "outputs": [
        {
          "internalType": "uint256",
          "name": "",
          "type": "uint256"
        },
        {
          "internalType": "bytes32",
          "name": "",
          "type": "bytes32"
        }
      ],
      "stateMutability": "nonpayable",
      "type": "function"
    },
    {
      "inputs": [
        {
          "internalType": "uint256",
          "name": "amount",
          "type": "uint256"
        }
      ],
      "name": "burn",
      "outputs": [
        {
          "internalType": "uint256",
          "name": "",
          "type": "uint256"
        },
        {
          "internalType": "bytes32",
          "name": "",
          "type": "bytes32"
        }
      ],
      "stateMutability": "nonpayable",
      "type": "function"
    },
    {
      "inputs": [
        {
          "internalType": "bytes32",
          "name": "",
          "type": "bytes32"
        }
      ],
      "name": "burnRequestNonce",
      "outputs": [
        {
          "internalType": "uint256",
          "name": "",
          "type": "uint256"
        }
      ],
      "stateMutability": "view",
      "type": "function"
    },
    {
      "inputs": [
        {
          "internalType": "uint256",
          "name": "",
          "type": "uint256"
        }
      ],
      "name": "burnRequests",
      "outputs": [
        {
          "internalType": "address",
          "name": "requester",
          "type": "address"
        },
        {
          "internalType": "uint256",
          "name": "amount",
          "type": "uint256"
        },
        {
          "internalType": "address",
          "name": "depositAddress",
          "type": "address"
        },
        {
          "internalType": "uint256",
          "name": "nonce",
          "type": "uint256"
        },
        {
          "internalType": "uint256",
          "name": "timestamp",
          "type": "uint256"
        },
        {
          "internalType": "enum IndexFactoryInterface.RequestStatus",
          "name": "status",
          "type": "uint8"
        }
      ],
      "stateMutability": "view",
      "type": "function"
    },
    {
      "inputs": [
        {
          "internalType": "bytes32",
          "name": "requestHash",
          "type": "bytes32"
        }
      ],
      "name": "confirmBurnRequest",
      "outputs": [
        {
          "internalType": "bool",
          "name": "",
          "type": "bool"
        }
      ],
      "stateMutability": "nonpayable",
      "type": "function"
    },
    {
      "inputs": [
        {
          "internalType": "bytes32",
          "name": "requestHash",
          "type": "bytes32"
        },
        {
          "internalType": "uint256",
          "name": "_tokenAmount",
          "type": "uint256"
        }
      ],
      "name": "confirmMintRequest",
      "outputs": [
        {
          "internalType": "bool",
          "name": "",
          "type": "bool"
        }
      ],
      "stateMutability": "nonpayable",
      "type": "function"
    },
    {
      "inputs": [],
      "name": "custodianWallet",
      "outputs": [
        {
          "internalType": "address",
          "name": "",
          "type": "address"
        }
      ],
      "stateMutability": "view",
      "type": "function"
    },
    {
      "inputs": [],
      "name": "getAllBurnRequests",
      "outputs": [
        {
          "components": [
            {
              "internalType": "address",
              "name": "requester",
              "type": "address"
            },
            {
              "internalType": "uint256",
              "name": "amount",
              "type": "uint256"
            },
            {
              "internalType": "address",
              "name": "depositAddress",
              "type": "address"
            },
            {
              "internalType": "uint256",
              "name": "nonce",
              "type": "uint256"
            },
            {
              "internalType": "uint256",
              "name": "timestamp",
              "type": "uint256"
            },
            {
              "internalType": "enum IndexFactoryInterface.RequestStatus",
              "name": "status",
              "type": "uint8"
            }
          ],
          "internalType": "struct IndexFactoryInterface.Request[]",
          "name": "",
          "type": "tuple[]"
        }
      ],
      "stateMutability": "view",
      "type": "function"
    },
    {
      "inputs": [],
      "name": "getAllMintRequests",
      "outputs": [
        {
          "components": [
            {
              "internalType": "address",
              "name": "requester",
              "type": "address"
            },
            {
              "internalType": "uint256",
              "name": "amount",
              "type": "uint256"
            },
            {
              "internalType": "address",
              "name": "depositAddress",
              "type": "address"
            },
            {
              "internalType": "uint256",
              "name": "nonce",
              "type": "uint256"
            },
            {
              "internalType": "uint256",
              "name": "timestamp",
              "type": "uint256"
            },
            {
              "internalType": "enum IndexFactoryInterface.RequestStatus",
              "name": "status",
              "type": "uint8"
            }
          ],
          "internalType": "struct IndexFactoryInterface.Request[]",
          "name": "",
          "type": "tuple[]"
        }
      ],
      "stateMutability": "view",
      "type": "function"
    },
    {
      "inputs": [
        {
          "internalType": "uint256",
          "name": "nonce",
          "type": "uint256"
        }
      ],
      "name": "getBurnRequest",
      "outputs": [
        {
          "internalType": "uint256",
          "name": "requestNonce",
          "type": "uint256"
        },
        {
          "internalType": "address",
          "name": "requester",
          "type": "address"
        },
        {
          "internalType": "uint256",
          "name": "amount",
          "type": "uint256"
        },
        {
          "internalType": "address",
          "name": "depositAddress",
          "type": "address"
        },
        {
          "internalType": "uint256",
          "name": "timestamp",
          "type": "uint256"
        },
        {
          "internalType": "string",
          "name": "status",
          "type": "string"
        },
        {
          "internalType": "bytes32",
          "name": "requestHash",
          "type": "bytes32"
        }
      ],
      "stateMutability": "view",
      "type": "function"
    },
    {
      "inputs": [],
      "name": "getBurnRequestsLength",
      "outputs": [
        {
          "internalType": "uint256",
          "name": "length",
          "type": "uint256"
        }
      ],
      "stateMutability": "view",
      "type": "function"
    },
    {
      "inputs": [
        {
          "internalType": "uint256",
          "name": "nonce",
          "type": "uint256"
        }
      ],
      "name": "getMintRequest",
      "outputs": [
        {
          "internalType": "uint256",
          "name": "requestNonce",
          "type": "uint256"
        },
        {
          "internalType": "address",
          "name": "requester",
          "type": "address"
        },
        {
          "internalType": "uint256",
          "name": "amount",
          "type": "uint256"
        },
        {
          "internalType": "address",
          "name": "depositAddress",
          "type": "address"
        },
        {
          "internalType": "uint256",
          "name": "timestamp",
          "type": "uint256"
        },
        {
          "internalType": "string",
          "name": "status",
          "type": "string"
        },
        {
          "internalType": "bytes32",
          "name": "requestHash",
          "type": "bytes32"
        }
      ],
      "stateMutability": "view",
      "type": "function"
    },
    {
      "inputs": [],
      "name": "getMintRequestsLength",
      "outputs": [
        {
          "internalType": "uint256",
          "name": "length",
          "type": "uint256"
        }
      ],
      "stateMutability": "view",
      "type": "function"
    },
    {
      "inputs": [
        {
          "internalType": "address",
          "name": "_custodianWallet",
          "type": "address"
        },
        {
          "internalType": "address",
          "name": "_issuer",
          "type": "address"
        },
        {
          "internalType": "address",
          "name": "_token",
          "type": "address"
        },
        {
          "internalType": "address",
          "name": "_usdc",
          "type": "address"
        },
        {
          "internalType": "uint8",
          "name": "_usdcDecimals",
          "type": "uint8"
        }
      ],
      "name": "initialize",
      "outputs": [],
      "stateMutability": "nonpayable",
      "type": "function"
    },
    {
      "inputs": [],
      "name": "issuer",
      "outputs": [
        {
          "internalType": "address",
          "name": "",
          "type": "address"
        }
      ],
      "stateMutability": "view",
      "type": "function"
    },
    {
      "inputs": [
        {
          "internalType": "bytes32",
          "name": "",
          "type": "bytes32"
        }
      ],
      "name": "mintRequestNonce",
      "outputs": [
        {
          "internalType": "uint256",
          "name": "",
          "type": "uint256"
        }
      ],
      "stateMutability": "view",
      "type": "function"
    },
    {
      "inputs": [
        {
          "internalType": "uint256",
          "name": "",
          "type": "uint256"
        }
      ],
      "name": "mintRequests",
      "outputs": [
        {
          "internalType": "address",
          "name": "requester",
          "type": "address"
        },
        {
          "internalType": "uint256",
          "name": "amount",
          "type": "uint256"
        },
        {
          "internalType": "address",
          "name": "depositAddress",
          "type": "address"
        },
        {
          "internalType": "uint256",
          "name": "nonce",
          "type": "uint256"
        },
        {
          "internalType": "uint256",
          "name": "timestamp",
          "type": "uint256"
        },
        {
          "internalType": "enum IndexFactoryInterface.RequestStatus",
          "name": "status",
          "type": "uint8"
        }
      ],
      "stateMutability": "view",
      "type": "function"
    },
    {
      "inputs": [],
      "name": "owner",
      "outputs": [
        {
          "internalType": "address",
          "name": "",
          "type": "address"
        }
      ],
      "stateMutability": "view",
      "type": "function"
    },
    {
      "inputs": [],
      "name": "pause",
      "outputs": [],
      "stateMutability": "nonpayable",
      "type": "function"
    },
    {
      "inputs": [],
      "name": "paused",
      "outputs": [
        {
          "internalType": "bool",
          "name": "",
          "type": "bool"
        }
      ],
      "stateMutability": "view",
      "type": "function"
    },
    {
      "inputs": [],
      "name": "renounceOwnership",
      "outputs": [],
      "stateMutability": "nonpayable",
      "type": "function"
    },
    {
      "inputs": [
        {
          "internalType": "address",
          "name": "_custodianWallet",
          "type": "address"
        }
      ],
      "name": "setCustodianWallet",
      "outputs": [
        {
          "internalType": "bool",
          "name": "",
          "type": "bool"
        }
      ],
      "stateMutability": "nonpayable",
      "type": "function"
    },
    {
      "inputs": [
        {
          "internalType": "address",
          "name": "_issuer",
          "type": "address"
        }
      ],
      "name": "setIssuer",
      "outputs": [
        {
          "internalType": "bool",
          "name": "",
          "type": "bool"
        }
      ],
      "stateMutability": "nonpayable",
      "type": "function"
    },
    {
      "inputs": [
        {
          "internalType": "address",
          "name": "_token",
          "type": "address"
        }
      ],
      "name": "setTokenAddress",
      "outputs": [
        {
          "internalType": "bool",
          "name": "",
          "type": "bool"
        }
      ],
      "stateMutability": "nonpayable",
      "type": "function"
    },
    {
      "inputs": [
        {
          "internalType": "address",
          "name": "_usdc",
          "type": "address"
        },
        {
          "internalType": "uint8",
          "name": "_usdcDecimals",
          "type": "uint8"
        }
      ],
      "name": "setUsdcAddress",
      "outputs": [
        {
          "internalType": "bool",
          "name": "",
          "type": "bool"
        }
      ],
      "stateMutability": "nonpayable",
      "type": "function"
    },
    {
      "inputs": [],
      "name": "token",
      "outputs": [
        {
          "internalType": "contract IndexToken",
          "name": "",
          "type": "address"
        }
      ],
      "stateMutability": "view",
      "type": "function"
    },
    {
      "inputs": [
        {
          "internalType": "address",
          "name": "newOwner",
          "type": "address"
        }
      ],
      "name": "transferOwnership",
      "outputs": [],
      "stateMutability": "nonpayable",
      "type": "function"
    },
    {
      "inputs": [],
      "name": "unpause",
      "outputs": [],
      "stateMutability": "nonpayable",
      "type": "function"
    },
    {
      "inputs": [],
      "name": "usdc",
      "outputs": [
        {
          "internalType": "address",
          "name": "",
          "type": "address"
        }
      ],
      "stateMutability": "view",
      "type": "function"
    },
    {
      "inputs": [],
      "name": "usdcDecimals",
      "outputs": [
        {
          "internalType": "uint8",
          "name": "",
          "type": "uint8"
        }
      ],
      "stateMutability": "view",
      "type": "function"
    }
  ],
  "bytecode": {
    "object": "0x608060405234801561001057600080fd5b50612241806100206000396000f3fe608060405234801561001057600080fd5b50600436106101d95760003560e01c806364c70d45116101045780639ad4b86b116100a2578063e21c40c011610071578063e21c40c014610422578063eab2a71114610435578063f2fde38b14610448578063fc0c546a1461045b57600080fd5b80639ad4b86b146103a95780639cc0fb5b146103c9578063b69b22d8146103dc578063c72551be1461040257600080fd5b80637683c027116100de5780637683c027146103575780637bf421651461036a5780638456cb59146103905780638da5cb5b1461039857600080fd5b806364c70d451461033f578063715018a61461034757806372f69a721461034f57600080fd5b80633f4ba83a1161017c5780635c975abb1161014b5780635c975abb146102fb57806360daba33146103065780636406c10c1461031957806364a9b8f71461032c57600080fd5b80633f4ba83a14610293578063424e65751461029b57806342966c68146102c057806355cc4e57146102e857600080fd5b80631e7aa9f4116101b85780631e7aa9f41461023657806326a4e8d21461024b578063311104f31461026e5780633e413bee1461028057600080fd5b80628c2676146101de5780631d143848146101f35780631e106e9914610223575b600080fd5b6101f16101ec366004611eb4565b61046e565b005b609954610206906001600160a01b031681565b6040516001600160a01b0390911681526020015b60405180910390f35b609854610206906001600160a01b031681565b61023e6105f0565b60405161021a919061204d565b61025e610259366004611e92565b6106c3565b604051901515815260200161021a565b609d545b60405190815260200161021a565b609a54610206906001600160a01b031681565b6101f1610775565b6102ae6102a9366004611f6e565b610787565b60405161021a96959493929190612013565b6102d36102ce366004611f6e565b6107de565b6040805192835260208301919091520161021a565b61025e6102f6366004611e92565b610a52565b60655460ff1661025e565b61025e610314366004611f6e565b610afa565b6102ae610327366004611f6e565b610c16565b61025e61033a366004611f87565b610c26565b61023e610da6565b6101f1610e70565b609e54610272565b6102d3610365366004611f6e565b610e82565b609a5461037e90600160a01b900460ff1681565b60405160ff909116815260200161021a565b6101f16110a8565b6033546001600160a01b0316610206565b6102726103b7366004611f6e565b609b6020526000908152604090205481565b61025e6103d7366004611e92565b6110b8565b6103ef6103ea366004611f6e565b611167565b60405161021a979695949392919061213b565b610272610410366004611f6e565b609c6020526000908152604090205481565b6103ef610430366004611f6e565b611268565b61025e610443366004611f19565b6113c2565b6101f1610456366004611e92565b611485565b609754610206906001600160a01b031681565b600054610100900460ff161580801561048e5750600054600160ff909116105b806104a85750303b1580156104a8575060005460ff166001145b6105105760405162461bcd60e51b815260206004820152602e60248201527f496e697469616c697a61626c653a20636f6e747261637420697320616c72656160448201526d191e481a5b9a5d1a585b1a5e995960921b60648201526084015b60405180910390fd5b6000805460ff191660011790558015610533576000805461ff0019166101001790555b609880546001600160a01b03199081166001600160a01b038981169190911790925560998054821688841617905560978054909116868316179055609a80549185166001600160a81b031990921691909117600160a01b60ff85160217905561059a6114fe565b6105a261152d565b80156105e8576000805461ff0019169055604051600181527f7f26b83ff96e1f2b6a682f133852f6798a09c465da95921460cefb38474024989060200160405180910390a15b505050505050565b6060609e805480602002602001604051908101604052809291908181526020016000905b828210156106ba5760008481526020908190206040805160c0810182526006860290920180546001600160a01b039081168452600182015494840194909452600281015490931690820152600382015460608201526004808301546080830152600583015491929160a084019160ff90911690811115610696576106966121df565b60048111156106a7576106a76121df565b8152505081526020019060010190610614565b50505050905090565b60006106cd61155c565b6001600160a01b03821661071b5760405162461bcd60e51b8152602060048201526015602482015274696e76616c696420746f6b656e206164647265737360581b6044820152606401610507565b609780546001600160a01b0319166001600160a01b0384169081179091556040514281527f2d65e2eeacd42ac25aa023ad49c935dd4697a70e62b53317b7514f14096ff3899060200160405180910390a25060015b919050565b61077d61155c565b6107856115b6565b565b609d818154811061079757600080fd5b60009182526020909120600690910201805460018201546002830154600384015460048501546005909501546001600160a01b039485169650929491909316929160ff1686565b6000806107e9611608565b609e546040805160c081018252338082526020820187905291810191909152606081018290524260808201819052600160a083015290600061082a8261164e565b6000818152609c60209081526040808320889055609e8054600180820183559190945286517fcfe2a20ff701a1f3e14f63bd70d6c6bc6fba8172ec6d5a505cdab3927c0a9de6600690950294850180546001600160a01b03199081166001600160a01b03938416178255948901517fcfe2a20ff701a1f3e14f63bd70d6c6bc6fba8172ec6d5a505cdab3927c0a9de7870155928801517fcfe2a20ff701a1f3e14f63bd70d6c6bc6fba8172ec6d5a505cdab3927c0a9de88601805490951691161790925560608601517fcfe2a20ff701a1f3e14f63bd70d6c6bc6fba8172ec6d5a505cdab3927c0a9de984015560808601517fcfe2a20ff701a1f3e14f63bd70d6c6bc6fba8172ec6d5a505cdab3927c0a9dea84015560a08601517fcfe2a20ff701a1f3e14f63bd70d6c6bc6fba8172ec6d5a505cdab3927c0a9deb90930180549495508694919392909160ff19169083600481111561098c5761098c6121df565b021790555050609754604051632770a7eb60e21b8152336004820152602481018a90526001600160a01b039091169150639dc29fac90604401600060405180830381600087803b1580156109df57600080fd5b505af11580156109f3573d6000803e3d6000fd5b50506098546040513393508792507fe6962694158a281204f611e0b1efc743e9ad587dd4b4dce387ec6fdef9cb927691610a3c918c916001600160a01b0316908990889061218f565b60405180910390a392945091925050505b915091565b6000610a5c61155c565b6001600160a01b038216610aab5760405162461bcd60e51b8152602060048201526016602482015275696e76616c696420697373756572206164647265737360501b6044820152606401610507565b609980546001600160a01b0319166001600160a01b0384169081179091556040517f141c634522c8bfcf25beba4c524ac0c87de0db74ebe83168cf5f3bf4d45fd89890600090a2506001919050565b6099546000906001600160a01b03163314610b4e5760405162461bcd60e51b815260206004820152601460248201527339b2b73232b9103737ba10309034b9b9bab2b91760611b6044820152606401610507565b6000610b58611e37565b610b61846116c5565b80925081935050506003609e8381548110610b7e57610b7e6121f5565b60009182526020909120600560069092020101805460ff19166001836004811115610bab57610bab6121df565b021790555080600001516001600160a01b031681606001517f9d34e90560c4a3acdc3e2538823a0f15daae0cab079543a5341e13635ea88d1483602001518460400151856080015189604051610c04949392919061218f565b60405180910390a35060019392505050565b609e818154811061079757600080fd5b6099546000906001600160a01b03163314610c7a5760405162461bcd60e51b815260206004820152601460248201527339b2b73232b9103737ba10309034b9b9bab2b91760611b6044820152606401610507565b6000610c84611e37565b610c8d856117d2565b80925081935050506003609d8381548110610caa57610caa6121f5565b60009182526020909120600560069092020101805460ff19166001836004811115610cd757610cd76121df565b021790555060975481516040516340c10f1960e01b81526001600160a01b039182166004820152602481018790529116906340c10f1990604401600060405180830381600087803b158015610d2b57600080fd5b505af1158015610d3f573d6000803e3d6000fd5b5050505080600001516001600160a01b031681606001517ff319776600e931b90301da43f4a0e4b931f831b2e13f71b6746fdaa715f0f58c86846040015185608001518a604051610d93949392919061218f565b60405180910390a3506001949350505050565b6060609d805480602002602001604051908101604052809291908181526020016000905b828210156106ba5760008481526020908190206040805160c0810182526006860290920180546001600160a01b039081168452600182015494840194909452600281015490931690820152600382015460608201526004808301546080830152600583015491929160a084019160ff90911690811115610e4c57610e4c6121df565b6004811115610e5d57610e5d6121df565b8152505081526020019060010190610dca565b610e7861155c565b6107856000611844565b600080610e8d611608565b609a54609854610eac916001600160a01b039081169133911686611896565b609d546040805160c081018252338152602081018690526098546001600160a01b031691810191909152606081018290524260808201819052600160a0830152906000610ef88261164e565b6000818152609b60209081526040808320889055609d8054600180820183559190945286517fd26e832454299e9fabb89e0e5fffdc046d4e14431bc1bf607ffb2e8a1ddecf7b600690950294850180546001600160a01b03199081166001600160a01b03938416178255948901517fd26e832454299e9fabb89e0e5fffdc046d4e14431bc1bf607ffb2e8a1ddecf7c870155928801517fd26e832454299e9fabb89e0e5fffdc046d4e14431bc1bf607ffb2e8a1ddecf7d8601805490951691161790925560608601517fd26e832454299e9fabb89e0e5fffdc046d4e14431bc1bf607ffb2e8a1ddecf7e84015560808601517fd26e832454299e9fabb89e0e5fffdc046d4e14431bc1bf607ffb2e8a1ddecf7f84015560a08601517fd26e832454299e9fabb89e0e5fffdc046d4e14431bc1bf607ffb2e8a1ddecf8090930180549495508694919392909160ff19169083600481111561105a5761105a6121df565b02179055505060985460405133925086917fa410db190881128a918f76d46896d4accc2a2a48ad20485fe31f4f55d21b0ae391610a3c918c916001600160a01b03909116908990889061218f565b6110b061155c565b6107856118f6565b60006110c261155c565b6001600160a01b0382166111185760405162461bcd60e51b815260206004820181905260248201527f696e76616c696420637573746f6469616e2077616c6c657420616464726573736044820152606401610507565b609880546001600160a01b0319166001600160a01b0384169081179091556040517fb88c20a211c5d7677ba2a26c317d8ae6b25aa492016dc8ceca2469761d063d8090600090a2506001919050565b60008060008060006060600080609d8981548110611187576111876121f5565b60009182526020918290206040805160c081018252600690930290910180546001600160a01b039081168452600182015494840194909452600281015490931690820152600382015460608201526004808301546080830152600583015491929160a084019160ff90911690811115611202576112026121df565b6004811115611213576112136121df565b81525050905060006112288260a00151611933565b905081606001519850816000015197508160200151965081604001519550816080015194508093506112598261164e565b92505050919395979092949650565b60008060008060006060600080609e8981548110611288576112886121f5565b6000918252602082206005600690920201908101549092506112ac9060ff16611933565b9050816003015498508160000160009054906101000a90046001600160a01b03169750816001015496508160020160009054906101000a90046001600160a01b0316955081600401549450809350611259826040518060c00160405290816000820160009054906101000a90046001600160a01b03166001600160a01b03166001600160a01b03168152602001600182015481526020016002820160009054906101000a90046001600160a01b03166001600160a01b03166001600160a01b0316815260200160038201548152602001600482015481526020016005820160009054906101000a900460ff1660048111156113a9576113a96121df565b60048111156113ba576113ba6121df565b90525061164e565b60006113cc61155c565b6001600160a01b03831661141a5760405162461bcd60e51b8152602060048201526015602482015274696e76616c696420746f6b656e206164647265737360581b6044820152606401610507565b609a80546001600160a01b0385166001600160a81b03199091168117600160a01b60ff8616908102919091179092556040514281527f47f70abc5eafc71015adda71f3628949d17bd87cb6199008a1243dca856ceaaf9060200160405180910390a350600192915050565b61148d61155c565b6001600160a01b0381166114f25760405162461bcd60e51b815260206004820152602660248201527f4f776e61626c653a206e6577206f776e657220697320746865207a65726f206160448201526564647265737360d01b6064820152608401610507565b6114fb81611844565b50565b600054610100900460ff166115255760405162461bcd60e51b8152600401610507906120f0565b610785611a4f565b600054610100900460ff166115545760405162461bcd60e51b8152600401610507906120f0565b610785611a7f565b6033546001600160a01b031633146107855760405162461bcd60e51b815260206004820181905260248201527f4f776e61626c653a2063616c6c6572206973206e6f7420746865206f776e65726044820152606401610507565b6115be611ab2565b6065805460ff191690557f5db9ee0a495bf2e6ff9c91a7834c1ba4fdd244a5e8aa4e537bd38aeae4b073aa335b6040516001600160a01b03909116815260200160405180910390a1565b60655460ff16156107855760405162461bcd60e51b815260206004820152601060248201526f14185d5cd8589b194e881c185d5cd95960821b6044820152606401610507565b80516020808301516040808501516060860151608087015192516000966116a89690959491016001600160a01b03958616815260208101949094529190931660408301526060820192909252608081019190915260a00190565b604051602081830303815290604052805190602001209050919050565b60006116cf611e37565b826117105760405162461bcd60e51b81526020600482015260116024820152700726571756573742068617368206973203607c1b6044820152606401610507565b6000838152609c6020526040902054609e80549193509083908110611737576117376121f5565b60009182526020918290206040805160c081018252600690930290910180546001600160a01b039081168452600182015494840194909452600281015490931690820152600382015460608201526004808301546080830152600583015491929160a084019160ff909116908111156117b2576117b26121df565b60048111156117c3576117c36121df565b9052509050610a4d8184611afb565b60006117dc611e37565b8261181d5760405162461bcd60e51b81526020600482015260116024820152700726571756573742068617368206973203607c1b6044820152606401610507565b6000838152609b6020526040902054609d80549193509083908110611737576117376121f5565b603380546001600160a01b038381166001600160a01b0319831681179093556040519116919082907f8be0079c531659141344cd1fd0a4f28419497f9722a3daafe3b4186f6b6457e090600090a35050565b604080516001600160a01b0385811660248301528416604482015260648082018490528251808303909101815260849091019091526020810180516001600160e01b03166323b872dd60e01b1790526118f0908590611bd0565b50505050565b6118fe611608565b6065805460ff191660011790557f62e78cea01bee320cd4e420270b5ea74000d11b0c9f74754ebdbfc544b05a2586115eb3390565b60606001826004811115611949576119496121df565b141561197257505060408051808201909152600781526670656e64696e6760c81b602082015290565b6002826004811115611986576119866121df565b14156119b057505060408051808201909152600881526718d85b98d95b195960c21b602082015290565b60038260048111156119c4576119c46121df565b14156119ee575050604080518082019091526008815267185c1c1c9bdd995960c21b602082015290565b6004826004811115611a0257611a026121df565b1415611a2c5750506040805180820190915260088152671c995a9958dd195960c21b602082015290565b50506040805180820190915260078152663ab735b737bbb760c91b602082015290565b600054610100900460ff16611a765760405162461bcd60e51b8152600401610507906120f0565b61078533611844565b600054610100900460ff16611aa65760405162461bcd60e51b8152600401610507906120f0565b6065805460ff19169055565b60655460ff166107855760405162461bcd60e51b815260206004820152601460248201527314185d5cd8589b194e881b9bdd081c185d5cd95960621b6044820152606401610507565b60018260a001516004811115611b1357611b136121df565b14611b595760405162461bcd60e51b815260206004820152601660248201527572657175657374206973206e6f742070656e64696e6760501b6044820152606401610507565b611b628261164e565b8114611bcc5760405162461bcd60e51b815260206004820152603360248201527f676976656e2072657175657374206861736820646f6573206e6f74206d6174636044820152721a0818481c195b991a5b99c81c995c5d595cdd606a1b6064820152608401610507565b5050565b6000611c25826040518060400160405280602081526020017f5361666545524332303a206c6f772d6c6576656c2063616c6c206661696c6564815250856001600160a01b0316611caa9092919063ffffffff16565b9050805160001480611c46575080806020019051810190611c469190611f4c565b611ca55760405162461bcd60e51b815260206004820152602a60248201527f5361666545524332303a204552433230206f7065726174696f6e20646964206e6044820152691bdd081cdd58d8d9595960b21b6064820152608401610507565b505050565b6060611cb98484600085611cc1565b949350505050565b606082471015611d225760405162461bcd60e51b815260206004820152602660248201527f416464726573733a20696e73756666696369656e742062616c616e636520666f6044820152651c8818d85b1b60d21b6064820152608401610507565b600080866001600160a01b03168587604051611d3e9190611ff7565b60006040518083038185875af1925050503d8060008114611d7b576040519150601f19603f3d011682016040523d82523d6000602084013e611d80565b606091505b5091509150611d9187838387611d9c565b979650505050505050565b60608315611e08578251611e01576001600160a01b0385163b611e015760405162461bcd60e51b815260206004820152601d60248201527f416464726573733a2063616c6c20746f206e6f6e2d636f6e74726163740000006044820152606401610507565b5081611cb9565b611cb98383815115611e1d5781518083602001fd5b8060405162461bcd60e51b815260040161050791906120dd565b6040805160c08101825260008082526020820181905291810182905260608101829052608081018290529060a082015290565b80356001600160a01b038116811461077057600080fd5b803560ff8116811461077057600080fd5b600060208284031215611ea457600080fd5b611ead82611e6a565b9392505050565b600080600080600060a08688031215611ecc57600080fd5b611ed586611e6a565b9450611ee360208701611e6a565b9350611ef160408701611e6a565b9250611eff60608701611e6a565b9150611f0d60808701611e81565b90509295509295909350565b60008060408385031215611f2c57600080fd5b611f3583611e6a565b9150611f4360208401611e81565b90509250929050565b600060208284031215611f5e57600080fd5b81518015158114611ead57600080fd5b600060208284031215611f8057600080fd5b5035919050565b60008060408385031215611f9a57600080fd5b50508035926020909101359150565b60058110611fc757634e487b7160e01b600052602160045260246000fd5b9052565b60008151808452611fe38160208601602086016121b3565b601f01601f19169290920160200192915050565b600082516120098184602087016121b3565b9190910192915050565b6001600160a01b0387811682526020820187905285166040820152606081018490526080810183905260c08101611d9160a0830184611fa9565b602080825282518282018190526000919060409081850190868401855b828110156120d057815180516001600160a01b0390811686528782015188870152868201511686860152606080820151908601526080808201519086015260a090810151906120bb86820183611fa9565b505060c093909301929085019060010161206a565b5091979650505050505050565b602081526000611ead6020830184611fcb565b6020808252602b908201527f496e697469616c697a61626c653a20636f6e7472616374206973206e6f74206960408201526a6e697469616c697a696e6760a81b606082015260800190565b8781526001600160a01b03878116602083015260408201879052851660608201526080810184905260e060a0820181905260009061217b90830185611fcb565b90508260c083015298975050505050505050565b9384526001600160a01b039290921660208401526040830152606082015260800190565b60005b838110156121ce5781810151838201526020016121b6565b838111156118f05750506000910152565b634e487b7160e01b600052602160045260246000fd5b634e487b7160e01b600052603260045260246000fdfea26469706673582212202128de6efc6f39cb71a8d20b7a6a4f9f1d23eb5dcb40148d45f52b2b9854453e64736f6c63430008070033",
    "linkReferences": {}
  },
  "methodIdentifiers": {
    "addMintRequest(uint256)": "7683c027",
    "burn(uint256)": "42966c68",
    "burnRequestNonce(bytes32)": "c72551be",
    "burnRequests(uint256)": "6406c10c",
    "confirmBurnRequest(bytes32)": "60daba33",
    "confirmMintRequest(bytes32,uint256)": "64a9b8f7",
    "custodianWallet()": "1e106e99",
    "getAllBurnRequests()": "1e7aa9f4",
    "getAllMintRequests()": "64c70d45",
    "getBurnRequest(uint256)": "e21c40c0",
    "getBurnRequestsLength()": "72f69a72",
    "getMintRequest(uint256)": "b69b22d8",
    "getMintRequestsLength()": "311104f3",
    "initialize(address,address,address,address,uint8)": "008c2676",
    "issuer()": "1d143848",
    "mintRequestNonce(bytes32)": "9ad4b86b",
    "mintRequests(uint256)": "424e6575",
    "owner()": "8da5cb5b",
    "pause()": "8456cb59",
    "paused()": "5c975abb",
    "renounceOwnership()": "715018a6",
    "setCustodianWallet(address)": "9cc0fb5b",
    "setIssuer(address)": "55cc4e57",
    "setTokenAddress(address)": "26a4e8d2",
    "setUsdcAddress(address,uint8)": "eab2a711",
    "token()": "fc0c546a",
    "transferOwnership(address)": "f2fde38b",
    "unpause()": "3f4ba83a",
    "usdc()": "3e413bee",
    "usdcDecimals()": "7bf42165"
  },
  "id": 0
}