{
  "abi": [
    {
      "anonymous": false,
      "inputs": [
        {
          "indexed": true,
          "internalType": "uint256",
          "name": "nonce",
          "type": "uint256"
        },
        {
          "indexed": true,
          "internalType": "address",
          "name": "requester",
          "type": "address"
        },
        {
          "indexed": false,
          "internalType": "uint256",
          "name": "amount",
          "type": "uint256"
        },
        {
          "indexed": false,
          "internalType": "address",
          "name": "depositAddress",
          "type": "address"
        },
        {
          "indexed": false,
          "internalType": "uint256",
          "name": "timestamp",
          "type": "uint256"
        },
        {
          "indexed": false,
          "internalType": "bytes32",
          "name": "inputRequestHash",
          "type": "bytes32"
        }
      ],
      "name": "BurnConfirmed",
      "type": "event"
    },
    {
      "anonymous": false,
      "inputs": [
        {
          "indexed": true,
          "internalType": "uint256",
          "name": "nonce",
          "type": "uint256"
        },
        {
          "indexed": true,
          "internalType": "address",
          "name": "requester",
          "type": "address"
        },
        {
          "indexed": false,
          "internalType": "uint256",
          "name": "amount",
          "type": "uint256"
        },
        {
          "indexed": false,
          "internalType": "address",
          "name": "depositAddress",
          "type": "address"
        },
        {
          "indexed": false,
          "internalType": "uint256",
          "name": "timestamp",
          "type": "uint256"
        },
        {
          "indexed": false,
          "internalType": "bytes32",
          "name": "requestHash",
          "type": "bytes32"
        }
      ],
      "name": "Burned",
      "type": "event"
    },
    {
      "anonymous": false,
      "inputs": [
        {
          "indexed": true,
          "internalType": "address",
          "name": "custodian",
          "type": "address"
        }
      ],
      "name": "CustodianSet",
      "type": "event"
    },
    {
      "anonymous": false,
      "inputs": [
        {
          "indexed": false,
          "internalType": "uint8",
          "name": "version",
          "type": "uint8"
        }
      ],
      "name": "Initialized",
      "type": "event"
    },
    {
      "anonymous": false,
      "inputs": [
        {
          "indexed": true,
          "internalType": "address",
          "name": "merchant",
          "type": "address"
        },
        {
          "indexed": true,
          "internalType": "address",
          "name": "sender",
          "type": "address"
        },
        {
          "indexed": false,
          "internalType": "address",
          "name": "depositAddress",
          "type": "address"
        }
      ],
      "name": "IssuerDepositAddressSet",
      "type": "event"
    },
    {
      "anonymous": false,
      "inputs": [
        {
          "indexed": true,
          "internalType": "address",
          "name": "issuer",
          "type": "address"
        }
      ],
      "name": "IssuerSet",
      "type": "event"
    },
    {
      "anonymous": false,
      "inputs": [
        {
          "indexed": true,
          "internalType": "address",
          "name": "merchant",
          "type": "address"
        },
        {
          "indexed": false,
          "internalType": "address",
          "name": "depositAddress",
          "type": "address"
        }
      ],
      "name": "MerchantDepositAddressSet",
      "type": "event"
    },
    {
      "anonymous": false,
      "inputs": [
        {
          "indexed": true,
          "internalType": "uint256",
          "name": "nonce",
          "type": "uint256"
        },
        {
          "indexed": true,
          "internalType": "address",
          "name": "requester",
          "type": "address"
        },
        {
          "indexed": false,
          "internalType": "uint256",
          "name": "amount",
          "type": "uint256"
        },
        {
          "indexed": false,
          "internalType": "address",
          "name": "depositAddress",
          "type": "address"
        },
        {
          "indexed": false,
          "internalType": "uint256",
          "name": "timestamp",
          "type": "uint256"
        },
        {
          "indexed": false,
          "internalType": "bytes32",
          "name": "requestHash",
          "type": "bytes32"
        }
      ],
      "name": "MintConfirmed",
      "type": "event"
    },
    {
      "anonymous": false,
      "inputs": [
        {
          "indexed": true,
          "internalType": "uint256",
          "name": "nonce",
          "type": "uint256"
        },
        {
          "indexed": true,
          "internalType": "address",
          "name": "requester",
          "type": "address"
        },
        {
          "indexed": false,
          "internalType": "uint256",
          "name": "amount",
          "type": "uint256"
        },
        {
          "indexed": false,
          "internalType": "address",
          "name": "depositAddress",
          "type": "address"
        },
        {
          "indexed": false,
          "internalType": "uint256",
          "name": "timestamp",
          "type": "uint256"
        },
        {
          "indexed": false,
          "internalType": "bytes32",
          "name": "requestHash",
          "type": "bytes32"
        }
      ],
      "name": "MintRejected",
      "type": "event"
    },
    {
      "anonymous": false,
      "inputs": [
        {
          "indexed": true,
          "internalType": "uint256",
          "name": "nonce",
          "type": "uint256"
        },
        {
          "indexed": true,
          "internalType": "address",
          "name": "requester",
          "type": "address"
        },
        {
          "indexed": false,
          "internalType": "uint256",
          "name": "amount",
          "type": "uint256"
        },
        {
          "indexed": false,
          "internalType": "address",
          "name": "depositAddress",
          "type": "address"
        },
        {
          "indexed": false,
          "internalType": "uint256",
          "name": "timestamp",
          "type": "uint256"
        },
        {
          "indexed": false,
          "internalType": "bytes32",
          "name": "requestHash",
          "type": "bytes32"
        }
      ],
      "name": "MintRequestAdd",
      "type": "event"
    },
    {
      "anonymous": false,
      "inputs": [
        {
          "indexed": true,
          "internalType": "uint256",
          "name": "nonce",
          "type": "uint256"
        },
        {
          "indexed": true,
          "internalType": "address",
          "name": "requester",
          "type": "address"
        },
        {
          "indexed": false,
          "internalType": "bytes32",
          "name": "requestHash",
          "type": "bytes32"
        }
      ],
      "name": "MintRequestCancel",
      "type": "event"
    },
    {
      "anonymous": false,
      "inputs": [
        {
          "indexed": true,
          "internalType": "address",
          "name": "previousOwner",
          "type": "address"
        },
        {
          "indexed": true,
          "internalType": "address",
          "name": "newOwner",
          "type": "address"
        }
      ],
      "name": "OwnershipTransferred",
      "type": "event"
    },
    {
      "anonymous": false,
      "inputs": [
        {
          "indexed": false,
          "internalType": "address",
          "name": "account",
          "type": "address"
        }
      ],
      "name": "Paused",
      "type": "event"
    },
    {
      "anonymous": false,
      "inputs": [
        {
          "indexed": true,
          "internalType": "address",
          "name": "token",
          "type": "address"
        },
        {
          "indexed": false,
          "internalType": "uint256",
          "name": "time",
          "type": "uint256"
        }
      ],
      "name": "TokenAddressSet",
      "type": "event"
    },
    {
      "anonymous": false,
      "inputs": [
        {
          "indexed": false,
          "internalType": "address",
          "name": "account",
          "type": "address"
        }
      ],
      "name": "Unpaused",
      "type": "event"
    },
    {
      "anonymous": false,
      "inputs": [
        {
          "indexed": true,
          "internalType": "address",
          "name": "usdc",
          "type": "address"
        },
        {
          "indexed": true,
          "internalType": "uint8",
          "name": "decimals",
          "type": "uint8"
        },
        {
          "indexed": false,
          "internalType": "uint256",
          "name": "time",
          "type": "uint256"
        }
      ],
      "name": "UsdcAddressSet",
      "type": "event"
    },
    {
      "inputs": [
        {
          "internalType": "uint256",
          "name": "amount",
          "type": "uint256"
        }
      ],
      "name": "addMintRequest",
      "outputs": [
        {
          "internalType": "uint256",
          "name": "",
          "type": "uint256"
        },
        {
          "internalType": "bytes32",
          "name": "",
          "type": "bytes32"
        }
      ],
      "stateMutability": "nonpayable",
      "type": "function"
    },
    {
      "inputs": [
        {
          "internalType": "uint256",
          "name": "amount",
          "type": "uint256"
        }
      ],
      "name": "burn",
      "outputs": [
        {
          "internalType": "uint256",
          "name": "",
          "type": "uint256"
        },
        {
          "internalType": "bytes32",
          "name": "",
          "type": "bytes32"
        }
      ],
      "stateMutability": "nonpayable",
      "type": "function"
    },
    {
      "inputs": [
        {
          "internalType": "bytes32",
          "name": "",
          "type": "bytes32"
        }
      ],
      "name": "burnRequestNonce",
      "outputs": [
        {
          "internalType": "uint256",
          "name": "",
          "type": "uint256"
        }
      ],
      "stateMutability": "view",
      "type": "function"
    },
    {
      "inputs": [
        {
          "internalType": "uint256",
          "name": "",
          "type": "uint256"
        }
      ],
      "name": "burnRequests",
      "outputs": [
        {
          "internalType": "address",
          "name": "requester",
          "type": "address"
        },
        {
          "internalType": "uint256",
          "name": "amount",
          "type": "uint256"
        },
        {
          "internalType": "address",
          "name": "depositAddress",
          "type": "address"
        },
        {
          "internalType": "uint256",
          "name": "nonce",
          "type": "uint256"
        },
        {
          "internalType": "uint256",
          "name": "timestamp",
          "type": "uint256"
        },
        {
          "internalType": "enum IndexFactoryInterface.RequestStatus",
          "name": "status",
          "type": "uint8"
        }
      ],
      "stateMutability": "view",
      "type": "function"
    },
    {
      "inputs": [
        {
          "internalType": "bytes32",
          "name": "requestHash",
          "type": "bytes32"
        }
      ],
      "name": "cancelMintRequest",
      "outputs": [
        {
          "internalType": "bool",
          "name": "",
          "type": "bool"
        }
      ],
      "stateMutability": "nonpayable",
      "type": "function"
    },
    {
      "inputs": [
        {
          "internalType": "bytes32",
          "name": "requestHash",
          "type": "bytes32"
        }
      ],
      "name": "confirmBurnRequest",
      "outputs": [
        {
          "internalType": "bool",
          "name": "",
          "type": "bool"
        }
      ],
      "stateMutability": "nonpayable",
      "type": "function"
    },
    {
      "inputs": [
        {
          "internalType": "bytes32",
          "name": "requestHash",
          "type": "bytes32"
        },
        {
          "internalType": "uint256",
          "name": "_tokenAmount",
          "type": "uint256"
        }
      ],
      "name": "confirmMintRequest",
      "outputs": [
        {
          "internalType": "bool",
          "name": "",
          "type": "bool"
        }
      ],
      "stateMutability": "nonpayable",
      "type": "function"
    },
    {
      "inputs": [],
      "name": "custodianWallet",
      "outputs": [
        {
          "internalType": "address",
          "name": "",
          "type": "address"
        }
      ],
      "stateMutability": "view",
      "type": "function"
    },
    {
      "inputs": [],
      "name": "getAllBurnRequests",
      "outputs": [
        {
          "components": [
            {
              "internalType": "address",
              "name": "requester",
              "type": "address"
            },
            {
              "internalType": "uint256",
              "name": "amount",
              "type": "uint256"
            },
            {
              "internalType": "address",
              "name": "depositAddress",
              "type": "address"
            },
            {
              "internalType": "uint256",
              "name": "nonce",
              "type": "uint256"
            },
            {
              "internalType": "uint256",
              "name": "timestamp",
              "type": "uint256"
            },
            {
              "internalType": "enum IndexFactoryInterface.RequestStatus",
              "name": "status",
              "type": "uint8"
            }
          ],
          "internalType": "struct IndexFactoryInterface.Request[]",
          "name": "",
          "type": "tuple[]"
        }
      ],
      "stateMutability": "view",
      "type": "function"
    },
    {
      "inputs": [],
      "name": "getAllMintRequests",
      "outputs": [
        {
          "components": [
            {
              "internalType": "address",
              "name": "requester",
              "type": "address"
            },
            {
              "internalType": "uint256",
              "name": "amount",
              "type": "uint256"
            },
            {
              "internalType": "address",
              "name": "depositAddress",
              "type": "address"
            },
            {
              "internalType": "uint256",
              "name": "nonce",
              "type": "uint256"
            },
            {
              "internalType": "uint256",
              "name": "timestamp",
              "type": "uint256"
            },
            {
              "internalType": "enum IndexFactoryInterface.RequestStatus",
              "name": "status",
              "type": "uint8"
            }
          ],
          "internalType": "struct IndexFactoryInterface.Request[]",
          "name": "",
          "type": "tuple[]"
        }
      ],
      "stateMutability": "view",
      "type": "function"
    },
    {
      "inputs": [
        {
          "internalType": "uint256",
          "name": "nonce",
          "type": "uint256"
        }
      ],
      "name": "getBurnRequest",
      "outputs": [
        {
          "internalType": "uint256",
          "name": "requestNonce",
          "type": "uint256"
        },
        {
          "internalType": "address",
          "name": "requester",
          "type": "address"
        },
        {
          "internalType": "uint256",
          "name": "amount",
          "type": "uint256"
        },
        {
          "internalType": "address",
          "name": "depositAddress",
          "type": "address"
        },
        {
          "internalType": "uint256",
          "name": "timestamp",
          "type": "uint256"
        },
        {
          "internalType": "string",
          "name": "status",
          "type": "string"
        },
        {
          "internalType": "bytes32",
          "name": "requestHash",
          "type": "bytes32"
        }
      ],
      "stateMutability": "view",
      "type": "function"
    },
    {
      "inputs": [],
      "name": "getBurnRequestsLength",
      "outputs": [
        {
          "internalType": "uint256",
          "name": "length",
          "type": "uint256"
        }
      ],
      "stateMutability": "view",
      "type": "function"
    },
    {
      "inputs": [
        {
          "internalType": "uint256",
          "name": "nonce",
          "type": "uint256"
        }
      ],
      "name": "getMintRequest",
      "outputs": [
        {
          "internalType": "uint256",
          "name": "requestNonce",
          "type": "uint256"
        },
        {
          "internalType": "address",
          "name": "requester",
          "type": "address"
        },
        {
          "internalType": "uint256",
          "name": "amount",
          "type": "uint256"
        },
        {
          "internalType": "address",
          "name": "depositAddress",
          "type": "address"
        },
        {
          "internalType": "uint256",
          "name": "timestamp",
          "type": "uint256"
        },
        {
          "internalType": "string",
          "name": "status",
          "type": "string"
        },
        {
          "internalType": "bytes32",
          "name": "requestHash",
          "type": "bytes32"
        }
      ],
      "stateMutability": "view",
      "type": "function"
    },
    {
      "inputs": [],
      "name": "getMintRequestsLength",
      "outputs": [
        {
          "internalType": "uint256",
          "name": "length",
          "type": "uint256"
        }
      ],
      "stateMutability": "view",
      "type": "function"
    },
    {
      "inputs": [
        {
          "internalType": "address",
          "name": "_custodianWallet",
          "type": "address"
        },
        {
          "internalType": "address",
          "name": "_issuer",
          "type": "address"
        },
        {
          "internalType": "address",
          "name": "_token",
          "type": "address"
        },
        {
          "internalType": "address",
          "name": "_usdc",
          "type": "address"
        },
        {
          "internalType": "uint8",
          "name": "_usdcDecimals",
          "type": "uint8"
        }
      ],
      "name": "initialize",
      "outputs": [],
      "stateMutability": "nonpayable",
      "type": "function"
    },
    {
      "inputs": [],
      "name": "issuer",
      "outputs": [
        {
          "internalType": "address",
          "name": "",
          "type": "address"
        }
      ],
      "stateMutability": "view",
      "type": "function"
    },
    {
      "inputs": [
        {
          "internalType": "bytes32",
          "name": "",
          "type": "bytes32"
        }
      ],
      "name": "mintRequestNonce",
      "outputs": [
        {
          "internalType": "uint256",
          "name": "",
          "type": "uint256"
        }
      ],
      "stateMutability": "view",
      "type": "function"
    },
    {
      "inputs": [
        {
          "internalType": "uint256",
          "name": "",
          "type": "uint256"
        }
      ],
      "name": "mintRequests",
      "outputs": [
        {
          "internalType": "address",
          "name": "requester",
          "type": "address"
        },
        {
          "internalType": "uint256",
          "name": "amount",
          "type": "uint256"
        },
        {
          "internalType": "address",
          "name": "depositAddress",
          "type": "address"
        },
        {
          "internalType": "uint256",
          "name": "nonce",
          "type": "uint256"
        },
        {
          "internalType": "uint256",
          "name": "timestamp",
          "type": "uint256"
        },
        {
          "internalType": "enum IndexFactoryInterface.RequestStatus",
          "name": "status",
          "type": "uint8"
        }
      ],
      "stateMutability": "view",
      "type": "function"
    },
    {
      "inputs": [],
      "name": "owner",
      "outputs": [
        {
          "internalType": "address",
          "name": "",
          "type": "address"
        }
      ],
      "stateMutability": "view",
      "type": "function"
    },
    {
      "inputs": [],
      "name": "pause",
      "outputs": [],
      "stateMutability": "nonpayable",
      "type": "function"
    },
    {
      "inputs": [],
      "name": "paused",
      "outputs": [
        {
          "internalType": "bool",
          "name": "",
          "type": "bool"
        }
      ],
      "stateMutability": "view",
      "type": "function"
    },
    {
      "inputs": [
        {
          "internalType": "bytes32",
          "name": "requestHash",
          "type": "bytes32"
        }
      ],
      "name": "rejectMintRequest",
      "outputs": [
        {
          "internalType": "bool",
          "name": "",
          "type": "bool"
        }
      ],
      "stateMutability": "nonpayable",
      "type": "function"
    },
    {
      "inputs": [],
      "name": "renounceOwnership",
      "outputs": [],
      "stateMutability": "nonpayable",
      "type": "function"
    },
    {
      "inputs": [],
      "name": "rr",
      "outputs": [
        {
          "internalType": "address",
          "name": "",
          "type": "address"
        }
      ],
      "stateMutability": "view",
      "type": "function"
    },
    {
      "inputs": [
        {
          "internalType": "address",
          "name": "_custodianWallet",
          "type": "address"
        }
      ],
      "name": "setCustodianWallet",
      "outputs": [
        {
          "internalType": "bool",
          "name": "",
          "type": "bool"
        }
      ],
      "stateMutability": "nonpayable",
      "type": "function"
    },
    {
      "inputs": [
        {
          "internalType": "address",
          "name": "_issuer",
          "type": "address"
        }
      ],
      "name": "setIssuer",
      "outputs": [
        {
          "internalType": "bool",
          "name": "",
          "type": "bool"
        }
      ],
      "stateMutability": "nonpayable",
      "type": "function"
    },
    {
      "inputs": [
        {
          "internalType": "address",
          "name": "_token",
          "type": "address"
        }
      ],
      "name": "setTokenAddress",
      "outputs": [
        {
          "internalType": "bool",
          "name": "",
          "type": "bool"
        }
      ],
      "stateMutability": "nonpayable",
      "type": "function"
    },
    {
      "inputs": [
        {
          "internalType": "address",
          "name": "_usdc",
          "type": "address"
        },
        {
          "internalType": "uint8",
          "name": "_usdcDecimals",
          "type": "uint8"
        }
      ],
      "name": "setUsdcAddress",
      "outputs": [
        {
          "internalType": "bool",
          "name": "",
          "type": "bool"
        }
      ],
      "stateMutability": "nonpayable",
      "type": "function"
    },
    {
      "inputs": [],
      "name": "token",
      "outputs": [
        {
          "internalType": "contract IndexToken",
          "name": "",
          "type": "address"
        }
      ],
      "stateMutability": "view",
      "type": "function"
    },
    {
      "inputs": [
        {
          "internalType": "address",
          "name": "newOwner",
          "type": "address"
        }
      ],
      "name": "transferOwnership",
      "outputs": [],
      "stateMutability": "nonpayable",
      "type": "function"
    },
    {
      "inputs": [],
      "name": "unpause",
      "outputs": [],
      "stateMutability": "nonpayable",
      "type": "function"
    },
    {
      "inputs": [],
      "name": "usdc",
      "outputs": [
        {
          "internalType": "address",
          "name": "",
          "type": "address"
        }
      ],
      "stateMutability": "view",
      "type": "function"
    },
    {
      "inputs": [],
      "name": "usdcDecimals",
      "outputs": [
        {
          "internalType": "uint8",
          "name": "",
          "type": "uint8"
        }
      ],
      "stateMutability": "view",
      "type": "function"
    }
  ],
  "bytecode": {
    "object": "0x608060405234801561001057600080fd5b5061249b806100206000396000f3fe608060405234801561001057600080fd5b50600436106101fa5760003560e01c806364c70d451161011a5780639ad4b86b116100ad578063c72551be1161007c578063c72551be1461045c578063e21c40c01461047c578063eab2a7111461048f578063f2fde38b146104a2578063fc0c546a146104b557600080fd5b80639ad4b86b146103f05780639cc0fb5b14610410578063b69b22d814610423578063c06e2d241461044957600080fd5b80637bf42165116100e95780637bf421651461039e5780638456cb59146103c4578063861f92a8146103cc5780638da5cb5b146103df57600080fd5b806364c70d4514610373578063715018a61461037b57806372f69a72146103835780637683c0271461038b57600080fd5b80633f4ba83a116101925780635c975abb116101615780635c975abb1461032f57806360daba331461033a5780636406c10c1461034d57806364a9b8f71461036057600080fd5b80633f4ba83a146102c7578063424e6575146102cf57806342966c68146102f457806355cc4e571461031c57600080fd5b80631e7aa9f4116101ce5780631e7aa9f41461026a57806326a4e8d21461027f578063311104f3146102a25780633e413bee146102b457600080fd5b80628c2676146101ff57806312539cc3146102145780631d143848146102445780631e106e9914610257575b600080fd5b61021261020d3660046120e0565b6104c8565b005b609f54610227906001600160a01b031681565b6040516001600160a01b0390911681526020015b60405180910390f35b609954610227906001600160a01b031681565b609854610227906001600160a01b031681565b61027261064a565b60405161023b9190612279565b61029261028d3660046120be565b61071d565b604051901515815260200161023b565b609d545b60405190815260200161023b565b609a54610227906001600160a01b031681565b6102126107cf565b6102e26102dd36600461219a565b6107e1565b60405161023b9695949392919061223f565b61030761030236600461219a565b610838565b6040805192835260208301919091520161023b565b61029261032a3660046120be565b610aac565b60655460ff16610292565b61029261034836600461219a565b610b54565b6102e261035b36600461219a565b610c49565b61029261036e3660046121b3565b610c59565b610272610dd3565b610212610e9d565b609e546102a6565b61030761039936600461219a565b610eaf565b609a546103b290600160a01b900460ff1681565b60405160ff909116815260200161023b565b6102126110d5565b6102926103da36600461219a565b6110e5565b6033546001600160a01b0316610227565b6102a66103fe36600461219a565b609b6020526000908152604090205481565b61029261041e3660046120be565b6111c8565b61043661043136600461219a565b611277565b60405161023b9796959493929190612395565b61029261045736600461219a565b611378565b6102a661046a36600461219a565b609c6020526000908152604090205481565b61043661048a36600461219a565b611494565b61029261049d366004612145565b6115ee565b6102126104b03660046120be565b6116b1565b609754610227906001600160a01b031681565b600054610100900460ff16158080156104e85750600054600160ff909116105b806105025750303b158015610502575060005460ff166001145b61056a5760405162461bcd60e51b815260206004820152602e60248201527f496e697469616c697a61626c653a20636f6e747261637420697320616c72656160448201526d191e481a5b9a5d1a585b1a5e995960921b60648201526084015b60405180910390fd5b6000805460ff19166001179055801561058d576000805461ff0019166101001790555b609880546001600160a01b03199081166001600160a01b038981169190911790925560998054821688841617905560978054909116868316179055609a80549185166001600160a81b031990921691909117600160a01b60ff8516021790556105f461172a565b6105fc611759565b8015610642576000805461ff0019169055604051600181527f7f26b83ff96e1f2b6a682f133852f6798a09c465da95921460cefb38474024989060200160405180910390a15b505050505050565b6060609e805480602002602001604051908101604052809291908181526020016000905b828210156107145760008481526020908190206040805160c0810182526006860290920180546001600160a01b039081168452600182015494840194909452600281015490931690820152600382015460608201526004808301546080830152600583015491929160a084019160ff909116908111156106f0576106f0612439565b600481111561070157610701612439565b815250508152602001906001019061066e565b50505050905090565b6000610727611788565b6001600160a01b0382166107755760405162461bcd60e51b8152602060048201526015602482015274696e76616c696420746f6b656e206164647265737360581b6044820152606401610561565b609780546001600160a01b0319166001600160a01b0384169081179091556040514281527f2d65e2eeacd42ac25aa023ad49c935dd4697a70e62b53317b7514f14096ff3899060200160405180910390a25060015b919050565b6107d7611788565b6107df6117e2565b565b609d81815481106107f157600080fd5b60009182526020909120600690910201805460018201546002830154600384015460048501546005909501546001600160a01b039485169650929491909316929160ff1686565b600080610843611834565b609e546040805160c081018252338082526020820187905291810191909152606081018290524260808201819052600160a08301529060006108848261187a565b6000818152609c60209081526040808320889055609e8054600180820183559190945286517fcfe2a20ff701a1f3e14f63bd70d6c6bc6fba8172ec6d5a505cdab3927c0a9de6600690950294850180546001600160a01b03199081166001600160a01b03938416178255948901517fcfe2a20ff701a1f3e14f63bd70d6c6bc6fba8172ec6d5a505cdab3927c0a9de7870155928801517fcfe2a20ff701a1f3e14f63bd70d6c6bc6fba8172ec6d5a505cdab3927c0a9de88601805490951691161790925560608601517fcfe2a20ff701a1f3e14f63bd70d6c6bc6fba8172ec6d5a505cdab3927c0a9de984015560808601517fcfe2a20ff701a1f3e14f63bd70d6c6bc6fba8172ec6d5a505cdab3927c0a9dea84015560a08601517fcfe2a20ff701a1f3e14f63bd70d6c6bc6fba8172ec6d5a505cdab3927c0a9deb90930180549495508694919392909160ff1916908360048111156109e6576109e6612439565b021790555050609754604051632770a7eb60e21b8152336004820152602481018a90526001600160a01b039091169150639dc29fac90604401600060405180830381600087803b158015610a3957600080fd5b505af1158015610a4d573d6000803e3d6000fd5b50506098546040513393508792507fe6962694158a281204f611e0b1efc743e9ad587dd4b4dce387ec6fdef9cb927691610a96918c916001600160a01b031690899088906123e9565b60405180910390a392945091925050505b915091565b6000610ab6611788565b6001600160a01b038216610b055760405162461bcd60e51b8152602060048201526016602482015275696e76616c696420697373756572206164647265737360501b6044820152606401610561565b609980546001600160a01b0319166001600160a01b0384169081179091556040517f141c634522c8bfcf25beba4c524ac0c87de0db74ebe83168cf5f3bf4d45fd89890600090a2506001919050565b6099546000906001600160a01b03163314610b815760405162461bcd60e51b81526004016105619061231c565b6000610b8b612063565b610b94846118f1565b80925081935050506003609e8381548110610bb157610bb161244f565b60009182526020909120600560069092020101805460ff19166001836004811115610bde57610bde612439565b021790555080600001516001600160a01b031681606001517f9d34e90560c4a3acdc3e2538823a0f15daae0cab079543a5341e13635ea88d1483602001518460400151856080015189604051610c3794939291906123e9565b60405180910390a35060019392505050565b609e81815481106107f157600080fd5b6099546000906001600160a01b03163314610c865760405162461bcd60e51b81526004016105619061231c565b6000610c90612063565b610c99856119fe565b8051609f80546001600160a01b0319166001600160a01b03909216919091179055609d805492945090925060039184908110610cd757610cd761244f565b60009182526020909120600560069092020101805460ff19166001836004811115610d0457610d04612439565b021790555060975481516040516340c10f1960e01b81526001600160a01b039182166004820152602481018790529116906340c10f1990604401600060405180830381600087803b158015610d5857600080fd5b505af1158015610d6c573d6000803e3d6000fd5b5050505080600001516001600160a01b031681606001517ff319776600e931b90301da43f4a0e4b931f831b2e13f71b6746fdaa715f0f58c86846040015185608001518a604051610dc094939291906123e9565b60405180910390a3506001949350505050565b6060609d805480602002602001604051908101604052809291908181526020016000905b828210156107145760008481526020908190206040805160c0810182526006860290920180546001600160a01b039081168452600182015494840194909452600281015490931690820152600382015460608201526004808301546080830152600583015491929160a084019160ff90911690811115610e7957610e79612439565b6004811115610e8a57610e8a612439565b8152505081526020019060010190610df7565b610ea5611788565b6107df6000611a70565b600080610eba611834565b609a54609854610ed9916001600160a01b039081169133911686611ac2565b609d546040805160c081018252338152602081018690526098546001600160a01b031691810191909152606081018290524260808201819052600160a0830152906000610f258261187a565b6000818152609b60209081526040808320889055609d8054600180820183559190945286517fd26e832454299e9fabb89e0e5fffdc046d4e14431bc1bf607ffb2e8a1ddecf7b600690950294850180546001600160a01b03199081166001600160a01b03938416178255948901517fd26e832454299e9fabb89e0e5fffdc046d4e14431bc1bf607ffb2e8a1ddecf7c870155928801517fd26e832454299e9fabb89e0e5fffdc046d4e14431bc1bf607ffb2e8a1ddecf7d8601805490951691161790925560608601517fd26e832454299e9fabb89e0e5fffdc046d4e14431bc1bf607ffb2e8a1ddecf7e84015560808601517fd26e832454299e9fabb89e0e5fffdc046d4e14431bc1bf607ffb2e8a1ddecf7f84015560a08601517fd26e832454299e9fabb89e0e5fffdc046d4e14431bc1bf607ffb2e8a1ddecf8090930180549495508694919392909160ff19169083600481111561108757611087612439565b02179055505060985460405133925086917fa410db190881128a918f76d46896d4accc2a2a48ad20485fe31f4f55d21b0ae391610a96918c916001600160a01b0390911690899088906123e9565b6110dd611788565b6107df611b22565b6099546000906001600160a01b031633146111125760405162461bcd60e51b81526004016105619061231c565b600061111c612063565b611125846119fe565b80925081935050506004609d83815481106111425761114261244f565b60009182526020909120600560069092020101805460ff1916600183600481111561116f5761116f612439565b021790555080600001516001600160a01b031681606001517fa7d4878597766ddaff5535aaa308739d4fa198ae6837bc35566403829c3aa3bf83602001518460400151856080015189604051610c3794939291906123e9565b60006111d2611788565b6001600160a01b0382166112285760405162461bcd60e51b815260206004820181905260248201527f696e76616c696420637573746f6469616e2077616c6c657420616464726573736044820152606401610561565b609880546001600160a01b0319166001600160a01b0384169081179091556040517fb88c20a211c5d7677ba2a26c317d8ae6b25aa492016dc8ceca2469761d063d8090600090a2506001919050565b60008060008060006060600080609d89815481106112975761129761244f565b60009182526020918290206040805160c081018252600690930290910180546001600160a01b039081168452600182015494840194909452600281015490931690820152600382015460608201526004808301546080830152600583015491929160a084019160ff9091169081111561131257611312612439565b600481111561132357611323612439565b81525050905060006113388260a00151611b5f565b905081606001519850816000015197508160200151965081604001519550816080015194508093506113698261187a565b92505050919395979092949650565b6000611382611834565b600061138c612063565b611395846119fe565b805191935091506001600160a01b031633146114195760405162461bcd60e51b815260206004820152603960248201527f63616e63656c2073656e64657220697320646966666572656e74207468616e2060448201527f70656e64696e67207265717565737420696e69746961746f72000000000000006064820152608401610561565b6002609d838154811061142e5761142e61244f565b60009182526020909120600560069092020101805460ff1916600183600481111561145b5761145b612439565b0217905550604051848152339083907fb419f275eebfa354bbab2709955ee0c0e25ca95fae50a8e3672c5e3d9c931f5890602001610c37565b60008060008060006060600080609e89815481106114b4576114b461244f565b6000918252602082206005600690920201908101549092506114d89060ff16611b5f565b9050816003015498508160000160009054906101000a90046001600160a01b03169750816001015496508160020160009054906101000a90046001600160a01b0316955081600401549450809350611369826040518060c00160405290816000820160009054906101000a90046001600160a01b03166001600160a01b03166001600160a01b03168152602001600182015481526020016002820160009054906101000a90046001600160a01b03166001600160a01b03166001600160a01b0316815260200160038201548152602001600482015481526020016005820160009054906101000a900460ff1660048111156115d5576115d5612439565b60048111156115e6576115e6612439565b90525061187a565b60006115f8611788565b6001600160a01b0383166116465760405162461bcd60e51b8152602060048201526015602482015274696e76616c696420746f6b656e206164647265737360581b6044820152606401610561565b609a80546001600160a01b0385166001600160a81b03199091168117600160a01b60ff8616908102919091179092556040514281527f47f70abc5eafc71015adda71f3628949d17bd87cb6199008a1243dca856ceaaf9060200160405180910390a350600192915050565b6116b9611788565b6001600160a01b03811661171e5760405162461bcd60e51b815260206004820152602660248201527f4f776e61626c653a206e6577206f776e657220697320746865207a65726f206160448201526564647265737360d01b6064820152608401610561565b61172781611a70565b50565b600054610100900460ff166117515760405162461bcd60e51b81526004016105619061234a565b6107df611c7b565b600054610100900460ff166117805760405162461bcd60e51b81526004016105619061234a565b6107df611cab565b6033546001600160a01b031633146107df5760405162461bcd60e51b815260206004820181905260248201527f4f776e61626c653a2063616c6c6572206973206e6f7420746865206f776e65726044820152606401610561565b6117ea611cde565b6065805460ff191690557f5db9ee0a495bf2e6ff9c91a7834c1ba4fdd244a5e8aa4e537bd38aeae4b073aa335b6040516001600160a01b03909116815260200160405180910390a1565b60655460ff16156107df5760405162461bcd60e51b815260206004820152601060248201526f14185d5cd8589b194e881c185d5cd95960821b6044820152606401610561565b80516020808301516040808501516060860151608087015192516000966118d49690959491016001600160a01b03958616815260208101949094529190931660408301526060820192909252608081019190915260a00190565b604051602081830303815290604052805190602001209050919050565b60006118fb612063565b8261193c5760405162461bcd60e51b81526020600482015260116024820152700726571756573742068617368206973203607c1b6044820152606401610561565b6000838152609c6020526040902054609e805491935090839081106119635761196361244f565b60009182526020918290206040805160c081018252600690930290910180546001600160a01b039081168452600182015494840194909452600281015490931690820152600382015460608201526004808301546080830152600583015491929160a084019160ff909116908111156119de576119de612439565b60048111156119ef576119ef612439565b9052509050610aa78184611d27565b6000611a08612063565b82611a495760405162461bcd60e51b81526020600482015260116024820152700726571756573742068617368206973203607c1b6044820152606401610561565b6000838152609b6020526040902054609d805491935090839081106119635761196361244f565b603380546001600160a01b038381166001600160a01b0319831681179093556040519116919082907f8be0079c531659141344cd1fd0a4f28419497f9722a3daafe3b4186f6b6457e090600090a35050565b604080516001600160a01b0385811660248301528416604482015260648082018490528251808303909101815260849091019091526020810180516001600160e01b03166323b872dd60e01b179052611b1c908590611dfc565b50505050565b611b2a611834565b6065805460ff191660011790557f62e78cea01bee320cd4e420270b5ea74000d11b0c9f74754ebdbfc544b05a2586118173390565b60606001826004811115611b7557611b75612439565b1415611b9e57505060408051808201909152600781526670656e64696e6760c81b602082015290565b6002826004811115611bb257611bb2612439565b1415611bdc57505060408051808201909152600881526718d85b98d95b195960c21b602082015290565b6003826004811115611bf057611bf0612439565b1415611c1a575050604080518082019091526008815267185c1c1c9bdd995960c21b602082015290565b6004826004811115611c2e57611c2e612439565b1415611c585750506040805180820190915260088152671c995a9958dd195960c21b602082015290565b50506040805180820190915260078152663ab735b737bbb760c91b602082015290565b600054610100900460ff16611ca25760405162461bcd60e51b81526004016105619061234a565b6107df33611a70565b600054610100900460ff16611cd25760405162461bcd60e51b81526004016105619061234a565b6065805460ff19169055565b60655460ff166107df5760405162461bcd60e51b815260206004820152601460248201527314185d5cd8589b194e881b9bdd081c185d5cd95960621b6044820152606401610561565b60018260a001516004811115611d3f57611d3f612439565b14611d855760405162461bcd60e51b815260206004820152601660248201527572657175657374206973206e6f742070656e64696e6760501b6044820152606401610561565b611d8e8261187a565b8114611df85760405162461bcd60e51b815260206004820152603360248201527f676976656e2072657175657374206861736820646f6573206e6f74206d6174636044820152721a0818481c195b991a5b99c81c995c5d595cdd606a1b6064820152608401610561565b5050565b6000611e51826040518060400160405280602081526020017f5361666545524332303a206c6f772d6c6576656c2063616c6c206661696c6564815250856001600160a01b0316611ed69092919063ffffffff16565b9050805160001480611e72575080806020019051810190611e729190612178565b611ed15760405162461bcd60e51b815260206004820152602a60248201527f5361666545524332303a204552433230206f7065726174696f6e20646964206e6044820152691bdd081cdd58d8d9595960b21b6064820152608401610561565b505050565b6060611ee58484600085611eed565b949350505050565b606082471015611f4e5760405162461bcd60e51b815260206004820152602660248201527f416464726573733a20696e73756666696369656e742062616c616e636520666f6044820152651c8818d85b1b60d21b6064820152608401610561565b600080866001600160a01b03168587604051611f6a9190612223565b60006040518083038185875af1925050503d8060008114611fa7576040519150601f19603f3d011682016040523d82523d6000602084013e611fac565b606091505b5091509150611fbd87838387611fc8565b979650505050505050565b6060831561203457825161202d576001600160a01b0385163b61202d5760405162461bcd60e51b815260206004820152601d60248201527f416464726573733a2063616c6c20746f206e6f6e2d636f6e74726163740000006044820152606401610561565b5081611ee5565b611ee583838151156120495781518083602001fd5b8060405162461bcd60e51b81526004016105619190612309565b6040805160c08101825260008082526020820181905291810182905260608101829052608081018290529060a082015290565b80356001600160a01b03811681146107ca57600080fd5b803560ff811681146107ca57600080fd5b6000602082840312156120d057600080fd5b6120d982612096565b9392505050565b600080600080600060a086880312156120f857600080fd5b61210186612096565b945061210f60208701612096565b935061211d60408701612096565b925061212b60608701612096565b9150612139608087016120ad565b90509295509295909350565b6000806040838503121561215857600080fd5b61216183612096565b915061216f602084016120ad565b90509250929050565b60006020828403121561218a57600080fd5b815180151581146120d957600080fd5b6000602082840312156121ac57600080fd5b5035919050565b600080604083850312156121c657600080fd5b50508035926020909101359150565b600581106121f357634e487b7160e01b600052602160045260246000fd5b9052565b6000815180845261220f81602086016020860161240d565b601f01601f19169290920160200192915050565b6000825161223581846020870161240d565b9190910192915050565b6001600160a01b0387811682526020820187905285166040820152606081018490526080810183905260c08101611fbd60a08301846121d5565b602080825282518282018190526000919060409081850190868401855b828110156122fc57815180516001600160a01b0390811686528782015188870152868201511686860152606080820151908601526080808201519086015260a090810151906122e7868201836121d5565b505060c0939093019290850190600101612296565b5091979650505050505050565b6020815260006120d960208301846121f7565b60208082526014908201527339b2b73232b9103737ba10309034b9b9bab2b91760611b604082015260600190565b6020808252602b908201527f496e697469616c697a61626c653a20636f6e7472616374206973206e6f74206960408201526a6e697469616c697a696e6760a81b606082015260800190565b8781526001600160a01b03878116602083015260408201879052851660608201526080810184905260e060a082018190526000906123d5908301856121f7565b90508260c083015298975050505050505050565b9384526001600160a01b039290921660208401526040830152606082015260800190565b60005b83811015612428578181015183820152602001612410565b83811115611b1c5750506000910152565b634e487b7160e01b600052602160045260246000fd5b634e487b7160e01b600052603260045260246000fdfea2646970667358221220aba8755c7d3d7726d6cfdb19e1f5a89a19bc4b472478d25ed0a4aecd8cb0564564736f6c63430008070033",
    "linkReferences": {}
  },
  "methodIdentifiers": {
    "addMintRequest(uint256)": "7683c027",
    "burn(uint256)": "42966c68",
    "burnRequestNonce(bytes32)": "c72551be",
    "burnRequests(uint256)": "6406c10c",
    "cancelMintRequest(bytes32)": "c06e2d24",
    "confirmBurnRequest(bytes32)": "60daba33",
    "confirmMintRequest(bytes32,uint256)": "64a9b8f7",
    "custodianWallet()": "1e106e99",
    "getAllBurnRequests()": "1e7aa9f4",
    "getAllMintRequests()": "64c70d45",
    "getBurnRequest(uint256)": "e21c40c0",
    "getBurnRequestsLength()": "72f69a72",
    "getMintRequest(uint256)": "b69b22d8",
    "getMintRequestsLength()": "311104f3",
    "initialize(address,address,address,address,uint8)": "008c2676",
    "issuer()": "1d143848",
    "mintRequestNonce(bytes32)": "9ad4b86b",
    "mintRequests(uint256)": "424e6575",
    "owner()": "8da5cb5b",
    "pause()": "8456cb59",
    "paused()": "5c975abb",
    "rejectMintRequest(bytes32)": "861f92a8",
    "renounceOwnership()": "715018a6",
    "rr()": "12539cc3",
    "setCustodianWallet(address)": "9cc0fb5b",
    "setIssuer(address)": "55cc4e57",
    "setTokenAddress(address)": "26a4e8d2",
    "setUsdcAddress(address,uint8)": "eab2a711",
    "token()": "fc0c546a",
    "transferOwnership(address)": "f2fde38b",
    "unpause()": "3f4ba83a",
    "usdc()": "3e413bee",
    "usdcDecimals()": "7bf42165"
  },
  "id": 0
}