{
  "abi": [
    {
      "anonymous": false,
      "inputs": [
        {
          "indexed": true,
          "internalType": "uint256",
          "name": "nonce",
          "type": "uint256"
        },
        {
          "indexed": true,
          "internalType": "address",
          "name": "requester",
          "type": "address"
        },
        {
          "indexed": false,
          "internalType": "uint256",
          "name": "amount",
          "type": "uint256"
        },
        {
          "indexed": false,
          "internalType": "address",
          "name": "depositAddress",
          "type": "address"
        },
        {
          "indexed": false,
          "internalType": "uint256",
          "name": "timestamp",
          "type": "uint256"
        },
        {
          "indexed": false,
          "internalType": "bytes32",
          "name": "inputRequestHash",
          "type": "bytes32"
        }
      ],
      "name": "BurnConfirmed",
      "type": "event"
    },
    {
      "anonymous": false,
      "inputs": [
        {
          "indexed": true,
          "internalType": "uint256",
          "name": "nonce",
          "type": "uint256"
        },
        {
          "indexed": true,
          "internalType": "address",
          "name": "requester",
          "type": "address"
        },
        {
          "indexed": false,
          "internalType": "uint256",
          "name": "amount",
          "type": "uint256"
        },
        {
          "indexed": false,
          "internalType": "address",
          "name": "depositAddress",
          "type": "address"
        },
        {
          "indexed": false,
          "internalType": "uint256",
          "name": "timestamp",
          "type": "uint256"
        },
        {
          "indexed": false,
          "internalType": "bytes32",
          "name": "requestHash",
          "type": "bytes32"
        }
      ],
      "name": "Burned",
      "type": "event"
    },
    {
      "anonymous": false,
      "inputs": [
        {
          "indexed": false,
          "internalType": "uint8",
          "name": "version",
          "type": "uint8"
        }
      ],
      "name": "Initialized",
      "type": "event"
    },
    {
      "anonymous": false,
      "inputs": [
        {
          "indexed": true,
          "internalType": "address",
          "name": "merchant",
          "type": "address"
        },
        {
          "indexed": true,
          "internalType": "address",
          "name": "sender",
          "type": "address"
        },
        {
          "indexed": false,
          "internalType": "address",
          "name": "depositAddress",
          "type": "address"
        }
      ],
      "name": "IssuerDepositAddressSet",
      "type": "event"
    },
    {
      "anonymous": false,
      "inputs": [
        {
          "indexed": true,
          "internalType": "address",
          "name": "merchant",
          "type": "address"
        },
        {
          "indexed": false,
          "internalType": "address",
          "name": "depositAddress",
          "type": "address"
        }
      ],
      "name": "MerchantDepositAddressSet",
      "type": "event"
    },
    {
      "anonymous": false,
      "inputs": [
        {
          "indexed": true,
          "internalType": "uint256",
          "name": "nonce",
          "type": "uint256"
        },
        {
          "indexed": true,
          "internalType": "address",
          "name": "requester",
          "type": "address"
        },
        {
          "indexed": false,
          "internalType": "uint256",
          "name": "amount",
          "type": "uint256"
        },
        {
          "indexed": false,
          "internalType": "address",
          "name": "depositAddress",
          "type": "address"
        },
        {
          "indexed": false,
          "internalType": "uint256",
          "name": "timestamp",
          "type": "uint256"
        },
        {
          "indexed": false,
          "internalType": "bytes32",
          "name": "requestHash",
          "type": "bytes32"
        }
      ],
      "name": "MintConfirmed",
      "type": "event"
    },
    {
      "anonymous": false,
      "inputs": [
        {
          "indexed": true,
          "internalType": "uint256",
          "name": "nonce",
          "type": "uint256"
        },
        {
          "indexed": true,
          "internalType": "address",
          "name": "requester",
          "type": "address"
        },
        {
          "indexed": false,
          "internalType": "uint256",
          "name": "amount",
          "type": "uint256"
        },
        {
          "indexed": false,
          "internalType": "address",
          "name": "depositAddress",
          "type": "address"
        },
        {
          "indexed": false,
          "internalType": "uint256",
          "name": "timestamp",
          "type": "uint256"
        },
        {
          "indexed": false,
          "internalType": "bytes32",
          "name": "requestHash",
          "type": "bytes32"
        }
      ],
      "name": "MintRejected",
      "type": "event"
    },
    {
      "anonymous": false,
      "inputs": [
        {
          "indexed": true,
          "internalType": "uint256",
          "name": "nonce",
          "type": "uint256"
        },
        {
          "indexed": true,
          "internalType": "address",
          "name": "requester",
          "type": "address"
        },
        {
          "indexed": false,
          "internalType": "uint256",
          "name": "amount",
          "type": "uint256"
        },
        {
          "indexed": false,
          "internalType": "address",
          "name": "depositAddress",
          "type": "address"
        },
        {
          "indexed": false,
          "internalType": "uint256",
          "name": "timestamp",
          "type": "uint256"
        },
        {
          "indexed": false,
          "internalType": "bytes32",
          "name": "requestHash",
          "type": "bytes32"
        }
      ],
      "name": "MintRequestAdd",
      "type": "event"
    },
    {
      "anonymous": false,
      "inputs": [
        {
          "indexed": true,
          "internalType": "uint256",
          "name": "nonce",
          "type": "uint256"
        },
        {
          "indexed": true,
          "internalType": "address",
          "name": "requester",
          "type": "address"
        },
        {
          "indexed": false,
          "internalType": "bytes32",
          "name": "requestHash",
          "type": "bytes32"
        }
      ],
      "name": "MintRequestCancel",
      "type": "event"
    },
    {
      "anonymous": false,
      "inputs": [
        {
          "indexed": true,
          "internalType": "address",
          "name": "previousOwner",
          "type": "address"
        },
        {
          "indexed": true,
          "internalType": "address",
          "name": "newOwner",
          "type": "address"
        }
      ],
      "name": "OwnershipTransferred",
      "type": "event"
    },
    {
      "anonymous": false,
      "inputs": [
        {
          "indexed": false,
          "internalType": "address",
          "name": "account",
          "type": "address"
        }
      ],
      "name": "Paused",
      "type": "event"
    },
    {
      "anonymous": false,
      "inputs": [
        {
          "indexed": false,
          "internalType": "address",
          "name": "account",
          "type": "address"
        }
      ],
      "name": "Unpaused",
      "type": "event"
    },
    {
      "anonymous": false,
      "inputs": [
        {
          "indexed": true,
          "internalType": "address",
          "name": "usdc",
          "type": "address"
        },
        {
          "indexed": true,
          "internalType": "uint8",
          "name": "decimals",
          "type": "uint8"
        },
        {
          "indexed": false,
          "internalType": "uint256",
          "name": "time",
          "type": "uint256"
        }
      ],
      "name": "UsdcAddressSet",
      "type": "event"
    },
    {
      "inputs": [
        {
          "internalType": "uint256",
          "name": "amount",
          "type": "uint256"
        }
      ],
      "name": "addMintRequest",
      "outputs": [
        {
          "internalType": "uint256",
          "name": "",
          "type": "uint256"
        },
        {
          "internalType": "bytes32",
          "name": "",
          "type": "bytes32"
        }
      ],
      "stateMutability": "nonpayable",
      "type": "function"
    },
    {
      "inputs": [
        {
          "internalType": "uint256",
          "name": "amount",
          "type": "uint256"
        }
      ],
      "name": "burn",
      "outputs": [
        {
          "internalType": "bool",
          "name": "",
          "type": "bool"
        }
      ],
      "stateMutability": "nonpayable",
      "type": "function"
    },
    {
      "inputs": [
        {
          "internalType": "bytes32",
          "name": "",
          "type": "bytes32"
        }
      ],
      "name": "burnRequestNonce",
      "outputs": [
        {
          "internalType": "uint256",
          "name": "",
          "type": "uint256"
        }
      ],
      "stateMutability": "view",
      "type": "function"
    },
    {
      "inputs": [
        {
          "internalType": "uint256",
          "name": "",
          "type": "uint256"
        }
      ],
      "name": "burnRequests",
      "outputs": [
        {
          "internalType": "address",
          "name": "requester",
          "type": "address"
        },
        {
          "internalType": "uint256",
          "name": "amount",
          "type": "uint256"
        },
        {
          "internalType": "address",
          "name": "depositAddress",
          "type": "address"
        },
        {
          "internalType": "uint256",
          "name": "nonce",
          "type": "uint256"
        },
        {
          "internalType": "uint256",
          "name": "timestamp",
          "type": "uint256"
        },
        {
          "internalType": "enum IndexFactoryInterface.RequestStatus",
          "name": "status",
          "type": "uint8"
        }
      ],
      "stateMutability": "view",
      "type": "function"
    },
    {
      "inputs": [
        {
          "internalType": "bytes32",
          "name": "requestHash",
          "type": "bytes32"
        }
      ],
      "name": "cancelMintRequest",
      "outputs": [
        {
          "internalType": "bool",
          "name": "",
          "type": "bool"
        }
      ],
      "stateMutability": "nonpayable",
      "type": "function"
    },
    {
      "inputs": [
        {
          "internalType": "bytes32",
          "name": "requestHash",
          "type": "bytes32"
        }
      ],
      "name": "confirmBurnRequest",
      "outputs": [
        {
          "internalType": "bool",
          "name": "",
          "type": "bool"
        }
      ],
      "stateMutability": "nonpayable",
      "type": "function"
    },
    {
      "inputs": [
        {
          "internalType": "bytes32",
          "name": "requestHash",
          "type": "bytes32"
        },
        {
          "internalType": "uint256",
          "name": "_tokenAmount",
          "type": "uint256"
        }
      ],
      "name": "confirmMintRequest",
      "outputs": [
        {
          "internalType": "bool",
          "name": "",
          "type": "bool"
        }
      ],
      "stateMutability": "nonpayable",
      "type": "function"
    },
    {
      "inputs": [],
      "name": "controller",
      "outputs": [
        {
          "internalType": "contract ControllerInterface",
          "name": "",
          "type": "address"
        }
      ],
      "stateMutability": "view",
      "type": "function"
    },
    {
      "inputs": [],
      "name": "getAllBurnRequests",
      "outputs": [
        {
          "components": [
            {
              "internalType": "address",
              "name": "requester",
              "type": "address"
            },
            {
              "internalType": "uint256",
              "name": "amount",
              "type": "uint256"
            },
            {
              "internalType": "address",
              "name": "depositAddress",
              "type": "address"
            },
            {
              "internalType": "uint256",
              "name": "nonce",
              "type": "uint256"
            },
            {
              "internalType": "uint256",
              "name": "timestamp",
              "type": "uint256"
            },
            {
              "internalType": "enum IndexFactoryInterface.RequestStatus",
              "name": "status",
              "type": "uint8"
            }
          ],
          "internalType": "struct IndexFactoryInterface.Request[]",
          "name": "",
          "type": "tuple[]"
        }
      ],
      "stateMutability": "view",
      "type": "function"
    },
    {
      "inputs": [],
      "name": "getAllMintRequests",
      "outputs": [
        {
          "components": [
            {
              "internalType": "address",
              "name": "requester",
              "type": "address"
            },
            {
              "internalType": "uint256",
              "name": "amount",
              "type": "uint256"
            },
            {
              "internalType": "address",
              "name": "depositAddress",
              "type": "address"
            },
            {
              "internalType": "uint256",
              "name": "nonce",
              "type": "uint256"
            },
            {
              "internalType": "uint256",
              "name": "timestamp",
              "type": "uint256"
            },
            {
              "internalType": "enum IndexFactoryInterface.RequestStatus",
              "name": "status",
              "type": "uint8"
            }
          ],
          "internalType": "struct IndexFactoryInterface.Request[]",
          "name": "",
          "type": "tuple[]"
        }
      ],
      "stateMutability": "view",
      "type": "function"
    },
    {
      "inputs": [
        {
          "internalType": "uint256",
          "name": "nonce",
          "type": "uint256"
        }
      ],
      "name": "getBurnRequest",
      "outputs": [
        {
          "internalType": "uint256",
          "name": "requestNonce",
          "type": "uint256"
        },
        {
          "internalType": "address",
          "name": "requester",
          "type": "address"
        },
        {
          "internalType": "uint256",
          "name": "amount",
          "type": "uint256"
        },
        {
          "internalType": "address",
          "name": "depositAddress",
          "type": "address"
        },
        {
          "internalType": "uint256",
          "name": "timestamp",
          "type": "uint256"
        },
        {
          "internalType": "string",
          "name": "status",
          "type": "string"
        },
        {
          "internalType": "bytes32",
          "name": "requestHash",
          "type": "bytes32"
        }
      ],
      "stateMutability": "view",
      "type": "function"
    },
    {
      "inputs": [],
      "name": "getBurnRequestsLength",
      "outputs": [
        {
          "internalType": "uint256",
          "name": "length",
          "type": "uint256"
        }
      ],
      "stateMutability": "view",
      "type": "function"
    },
    {
      "inputs": [
        {
          "internalType": "uint256",
          "name": "nonce",
          "type": "uint256"
        }
      ],
      "name": "getMintRequest",
      "outputs": [
        {
          "internalType": "uint256",
          "name": "requestNonce",
          "type": "uint256"
        },
        {
          "internalType": "address",
          "name": "requester",
          "type": "address"
        },
        {
          "internalType": "uint256",
          "name": "amount",
          "type": "uint256"
        },
        {
          "internalType": "address",
          "name": "depositAddress",
          "type": "address"
        },
        {
          "internalType": "uint256",
          "name": "timestamp",
          "type": "uint256"
        },
        {
          "internalType": "string",
          "name": "status",
          "type": "string"
        },
        {
          "internalType": "bytes32",
          "name": "requestHash",
          "type": "bytes32"
        }
      ],
      "stateMutability": "view",
      "type": "function"
    },
    {
      "inputs": [],
      "name": "getMintRequestsLength",
      "outputs": [
        {
          "internalType": "uint256",
          "name": "length",
          "type": "uint256"
        }
      ],
      "stateMutability": "view",
      "type": "function"
    },
    {
      "inputs": [
        {
          "internalType": "address",
          "name": "_controller",
          "type": "address"
        },
        {
          "internalType": "address",
          "name": "_usdc",
          "type": "address"
        },
        {
          "internalType": "uint8",
          "name": "_usdcDecimals",
          "type": "uint8"
        }
      ],
      "name": "initialize",
      "outputs": [],
      "stateMutability": "nonpayable",
      "type": "function"
    },
    {
      "inputs": [
        {
          "internalType": "bytes32",
          "name": "",
          "type": "bytes32"
        }
      ],
      "name": "mintRequestNonce",
      "outputs": [
        {
          "internalType": "uint256",
          "name": "",
          "type": "uint256"
        }
      ],
      "stateMutability": "view",
      "type": "function"
    },
    {
      "inputs": [
        {
          "internalType": "uint256",
          "name": "",
          "type": "uint256"
        }
      ],
      "name": "mintRequests",
      "outputs": [
        {
          "internalType": "address",
          "name": "requester",
          "type": "address"
        },
        {
          "internalType": "uint256",
          "name": "amount",
          "type": "uint256"
        },
        {
          "internalType": "address",
          "name": "depositAddress",
          "type": "address"
        },
        {
          "internalType": "uint256",
          "name": "nonce",
          "type": "uint256"
        },
        {
          "internalType": "uint256",
          "name": "timestamp",
          "type": "uint256"
        },
        {
          "internalType": "enum IndexFactoryInterface.RequestStatus",
          "name": "status",
          "type": "uint8"
        }
      ],
      "stateMutability": "view",
      "type": "function"
    },
    {
      "inputs": [],
      "name": "owner",
      "outputs": [
        {
          "internalType": "address",
          "name": "",
          "type": "address"
        }
      ],
      "stateMutability": "view",
      "type": "function"
    },
    {
      "inputs": [],
      "name": "pause",
      "outputs": [],
      "stateMutability": "nonpayable",
      "type": "function"
    },
    {
      "inputs": [],
      "name": "paused",
      "outputs": [
        {
          "internalType": "bool",
          "name": "",
          "type": "bool"
        }
      ],
      "stateMutability": "view",
      "type": "function"
    },
    {
      "inputs": [
        {
          "internalType": "bytes32",
          "name": "requestHash",
          "type": "bytes32"
        }
      ],
      "name": "rejectMintRequest",
      "outputs": [
        {
          "internalType": "bool",
          "name": "",
          "type": "bool"
        }
      ],
      "stateMutability": "nonpayable",
      "type": "function"
    },
    {
      "inputs": [],
      "name": "renounceOwnership",
      "outputs": [],
      "stateMutability": "nonpayable",
      "type": "function"
    },
    {
      "inputs": [],
      "name": "rr",
      "outputs": [
        {
          "internalType": "address",
          "name": "",
          "type": "address"
        }
      ],
      "stateMutability": "view",
      "type": "function"
    },
    {
      "inputs": [
        {
          "internalType": "address",
          "name": "_usdc",
          "type": "address"
        },
        {
          "internalType": "uint8",
          "name": "_usdcDecimals",
          "type": "uint8"
        }
      ],
      "name": "setUsdcAddress",
      "outputs": [
        {
          "internalType": "bool",
          "name": "",
          "type": "bool"
        }
      ],
      "stateMutability": "nonpayable",
      "type": "function"
    },
    {
      "inputs": [
        {
          "internalType": "address",
          "name": "newOwner",
          "type": "address"
        }
      ],
      "name": "transferOwnership",
      "outputs": [],
      "stateMutability": "nonpayable",
      "type": "function"
    },
    {
      "inputs": [],
      "name": "unpause",
      "outputs": [],
      "stateMutability": "nonpayable",
      "type": "function"
    },
    {
      "inputs": [],
      "name": "usdc",
      "outputs": [
        {
          "internalType": "address",
          "name": "",
          "type": "address"
        }
      ],
      "stateMutability": "view",
      "type": "function"
    },
    {
      "inputs": [],
      "name": "usdcDecimals",
      "outputs": [
        {
          "internalType": "uint8",
          "name": "",
          "type": "uint8"
        }
      ],
      "stateMutability": "view",
      "type": "function"
    }
  ],
  "bytecode": {
    "object": "0x608060405234801561001057600080fd5b5061261d806100206000396000f3fe608060405234801561001057600080fd5b50600436106101c45760003560e01c80637683c027116100f9578063b69b22d811610097578063e21c40c011610071578063e21c40c0146103e7578063eab2a711146103fa578063f2fde38b1461040d578063f77c47911461042057600080fd5b8063b69b22d81461038e578063c06e2d24146103b4578063c72551be146103c757600080fd5b8063861f92a8116100d3578063861f92a81461033757806389232a001461034a5780638da5cb5b1461035d5780639ad4b86b1461036e57600080fd5b80637683c027146102e15780637bf42165146103095780638456cb591461032f57600080fd5b80635c975abb1161016657806364a9b8f71161014057806364a9b8f7146102b657806364c70d45146102c9578063715018a6146102d157806372f69a72146102d957600080fd5b80635c975abb1461028557806360daba33146102905780636406c10c146102a357600080fd5b80633e413bee116101a25780633e413bee146102205780633f4ba83a14610233578063424e65751461023d57806342966c681461026257600080fd5b806312539cc3146101c95780631e7aa9f4146101f9578063311104f31461020e575b600080fd5b609d546101dc906001600160a01b031681565b6040516001600160a01b0390911681526020015b60405180910390f35b610201610433565b6040516101f091906123e6565b609b545b6040519081526020016101f0565b6098546101dc906001600160a01b031681565b61023b610506565b005b61025061024b366004612307565b610518565b6040516101f0969594939291906123ac565b610275610270366004612307565b61056f565b60405190151581526020016101f0565b60655460ff16610275565b61027561029e366004612307565b6108e3565b6102506102b1366004612307565b610a43565b6102756102c4366004612320565b610a53565b610201610c92565b61023b610d5c565b609c54610212565b6102f46102ef366004612307565b610d6e565b604080519283526020830191909152016101f0565b60985461031d90600160a01b900460ff1681565b60405160ff90911681526020016101f0565b61023b611038565b610275610345366004612307565b611048565b61023b610358366004612269565b611196565b6033546001600160a01b03166101dc565b61021261037c366004612307565b60996020526000908152604090205481565b6103a161039c366004612307565b6112ff565b6040516101f09796959493929190612502565b6102756103c2366004612307565b611400565b6102126103d5366004612307565b609a6020526000908152604090205481565b6103a16103f5366004612307565b6115db565b6102756104083660046122b0565b611735565b61023b61041b366004612228565b611838565b6097546101dc906001600160a01b031681565b6060609c805480602002602001604051908101604052809291908181526020016000905b828210156104fd5760008481526020908190206040805160c0810182526006860290920180546001600160a01b039081168452600182015494840194909452600281015490931690820152600382015460608201526004808301546080830152600583015491929160a084019160ff909116908111156104d9576104d96125a6565b60048111156104ea576104ea6125a6565b8152505081526020019060010190610457565b50505050905090565b61050e6118b1565b61051661190b565b565b609b818154811061052857600080fd5b60009182526020909120600690910201805460018201546002830154600384015460048501546005909501546001600160a01b039485169650929491909316929160ff1686565b600061057961195d565b6097546040805163d7bd6a8160e01b815290516000926001600160a01b03169163d7bd6a81916004808301926020929190829003018186803b1580156105be57600080fd5b505afa1580156105d2573d6000803e3d6000fd5b505050506040513d601f19601f820116820180604052508101906105f6919061224c565b609c54909150600042905060006040518060c00160405280336001600160a01b03168152602001878152602001336001600160a01b0316815260200184815260200183815260200160016004811115610651576106516125a6565b905290506000610660826119a3565b6000818152609a60209081526040808320889055609c8054600180820183559190945286517faf85b9071dfafeac1409d3f1d19bafc9bc7c37974cde8df0ee6168f0086e539c600690950294850180546001600160a01b03199081166001600160a01b03938416178255948901517faf85b9071dfafeac1409d3f1d19bafc9bc7c37974cde8df0ee6168f0086e539d870155928801517faf85b9071dfafeac1409d3f1d19bafc9bc7c37974cde8df0ee6168f0086e539e8601805490951691161790925560608601517faf85b9071dfafeac1409d3f1d19bafc9bc7c37974cde8df0ee6168f0086e539f84015560808601517faf85b9071dfafeac1409d3f1d19bafc9bc7c37974cde8df0ee6168f0086e53a084015560a08601517faf85b9071dfafeac1409d3f1d19bafc9bc7c37974cde8df0ee6168f0086e53a190930180549495508694919392909160ff1916908360048111156107c2576107c26125a6565b021790555050609754604051632770a7eb60e21b8152336004820152602481018a90526001600160a01b039091169150639dc29fac90604401602060405180830381600087803b15801561081557600080fd5b505af1158015610829573d6000803e3d6000fd5b505050506040513d601f19601f8201168201806040525081019061084d91906122e5565b61088c5760405162461bcd60e51b815260206004820152600b60248201526a189d5c9b8819985a5b195960aa1b60448201526064015b60405180910390fd5b336001600160a01b0316847fe6962694158a281204f611e0b1efc743e9ad587dd4b4dce387ec6fdef9cb9276898887866040516108cc9493929190612556565b60405180910390a36001955050505050505b919050565b60975460405163877b9a6760e01b81523360048201526000916001600160a01b03169063877b9a679060240160206040518083038186803b15801561092757600080fd5b505afa15801561093b573d6000803e3d6000fd5b505050506040513d601f19601f8201168201806040525081019061095f91906122e5565b61097b5760405162461bcd60e51b815260040161088390612489565b60006109856121e4565b61098e84611a1a565b80925081935050506003609c83815481106109ab576109ab6125bc565b60009182526020909120600560069092020101805460ff191660018360048111156109d8576109d86125a6565b021790555080600001516001600160a01b031681606001517f9d34e90560c4a3acdc3e2538823a0f15daae0cab079543a5341e13635ea88d1483602001518460400151856080015189604051610a319493929190612556565b60405180910390a35060019392505050565b609c818154811061052857600080fd5b60975460405163877b9a6760e01b81523360048201526000916001600160a01b03169063877b9a679060240160206040518083038186803b158015610a9757600080fd5b505afa158015610aab573d6000803e3d6000fd5b505050506040513d601f19601f82011682018060405250810190610acf91906122e5565b610aeb5760405162461bcd60e51b815260040161088390612489565b6000610af56121e4565b610afe85611b27565b8051609d80546001600160a01b0319166001600160a01b03909216919091179055609b805492945090925060039184908110610b3c57610b3c6125bc565b60009182526020909120600560069092020101805460ff19166001836004811115610b6957610b696125a6565b021790555060975481516040516340c10f1960e01b81526001600160a01b039182166004820152602481018790529116906340c10f1990604401602060405180830381600087803b158015610bbd57600080fd5b505af1158015610bd1573d6000803e3d6000fd5b505050506040513d601f19601f82011682018060405250810190610bf591906122e5565b610c2f5760405162461bcd60e51b815260206004820152600b60248201526a1b5a5b9d0819985a5b195960aa1b6044820152606401610883565b80600001516001600160a01b031681606001517ff319776600e931b90301da43f4a0e4b931f831b2e13f71b6746fdaa715f0f58c86846040015185608001518a604051610c7f9493929190612556565b60405180910390a3506001949350505050565b6060609b805480602002602001604051908101604052809291908181526020016000905b828210156104fd5760008481526020908190206040805160c0810182526006860290920180546001600160a01b039081168452600182015494840194909452600281015490931690820152600382015460608201526004808301546080830152600583015491929160a084019160ff90911690811115610d3857610d386125a6565b6004811115610d4957610d496125a6565b8152505081526020019060010190610cb6565b610d646118b1565b6105166000611b99565b600080610d7961195d565b6097546040805163d7bd6a8160e01b815290516000926001600160a01b03169163d7bd6a81916004808301926020929190829003018186803b158015610dbe57600080fd5b505afa158015610dd2573d6000803e3d6000fd5b505050506040513d601f19601f82011682018060405250810190610df6919061224c565b609854909150610e11906001600160a01b0316338387611beb565b609b54600042905060006040518060c00160405280336001600160a01b03168152602001888152602001856001600160a01b0316815260200184815260200183815260200160016004811115610e6957610e696125a6565b905290506000610e78826119a3565b6000818152609960209081526040808320889055609b8054600180820183559190945286517fbba9db4cdbea0a37c207bbb83e20f828cd4441c49891101dc94fd20dc8efc349600690950294850180546001600160a01b03199081166001600160a01b03938416178255948901517fbba9db4cdbea0a37c207bbb83e20f828cd4441c49891101dc94fd20dc8efc34a870155928801517fbba9db4cdbea0a37c207bbb83e20f828cd4441c49891101dc94fd20dc8efc34b8601805490951691161790925560608601517fbba9db4cdbea0a37c207bbb83e20f828cd4441c49891101dc94fd20dc8efc34c84015560808601517fbba9db4cdbea0a37c207bbb83e20f828cd4441c49891101dc94fd20dc8efc34d84015560a08601517fbba9db4cdbea0a37c207bbb83e20f828cd4441c49891101dc94fd20dc8efc34e90930180549495508694919392909160ff191690836004811115610fda57610fda6125a6565b02179055505050336001600160a01b0316847fa410db190881128a918f76d46896d4accc2a2a48ad20485fe31f4f55d21b0ae38a8887866040516110219493929190612556565b60405180910390a39295509193505050505b915091565b6110406118b1565b610516611c45565b60975460405163877b9a6760e01b81523360048201526000916001600160a01b03169063877b9a679060240160206040518083038186803b15801561108c57600080fd5b505afa1580156110a0573d6000803e3d6000fd5b505050506040513d601f19601f820116820180604052508101906110c491906122e5565b6110e05760405162461bcd60e51b815260040161088390612489565b60006110ea6121e4565b6110f384611b27565b80925081935050506004609b8381548110611110576111106125bc565b60009182526020909120600560069092020101805460ff1916600183600481111561113d5761113d6125a6565b021790555080600001516001600160a01b031681606001517fa7d4878597766ddaff5535aaa308739d4fa198ae6837bc35566403829c3aa3bf83602001518460400151856080015189604051610a319493929190612556565b600054610100900460ff16158080156111b65750600054600160ff909116105b806111d05750303b1580156111d0575060005460ff166001145b6112335760405162461bcd60e51b815260206004820152602e60248201527f496e697469616c697a61626c653a20636f6e747261637420697320616c72656160448201526d191e481a5b9a5d1a585b1a5e995960921b6064820152608401610883565b6000805460ff191660011790558015611256576000805461ff0019166101001790555b609780546001600160a01b0319166001600160a01b0386811691909117909155609880549185166001600160a81b031990921691909117600160a01b60ff8516021790556112a2611c82565b6112aa611cb1565b6112b384611838565b80156112f9576000805461ff0019169055604051600181527f7f26b83ff96e1f2b6a682f133852f6798a09c465da95921460cefb38474024989060200160405180910390a15b50505050565b60008060008060006060600080609b898154811061131f5761131f6125bc565b60009182526020918290206040805160c081018252600690930290910180546001600160a01b039081168452600182015494840194909452600281015490931690820152600382015460608201526004808301546080830152600583015491929160a084019160ff9091169081111561139a5761139a6125a6565b60048111156113ab576113ab6125a6565b81525050905060006113c08260a00151611ce0565b905081606001519850816000015197508160200151965081604001519550816080015194508093506113f1826119a3565b92505050919395979092949650565b609754604051631a2f716760e01b81523360048201526000916001600160a01b031690631a2f71679060240160206040518083038186803b15801561144457600080fd5b505afa158015611458573d6000803e3d6000fd5b505050506040513d601f19601f8201168201806040525081019061147c91906122e5565b6114c15760405162461bcd60e51b815260206004820152601660248201527539b2b73232b9103737ba10309036b2b931b430b73a1760511b6044820152606401610883565b6114c961195d565b60006114d36121e4565b6114dc84611b27565b805191935091506001600160a01b031633146115605760405162461bcd60e51b815260206004820152603960248201527f63616e63656c2073656e64657220697320646966666572656e74207468616e2060448201527f70656e64696e67207265717565737420696e69746961746f72000000000000006064820152608401610883565b6002609b8381548110611575576115756125bc565b60009182526020909120600560069092020101805460ff191660018360048111156115a2576115a26125a6565b0217905550604051848152339083907fb419f275eebfa354bbab2709955ee0c0e25ca95fae50a8e3672c5e3d9c931f5890602001610a31565b60008060008060006060600080609c89815481106115fb576115fb6125bc565b60009182526020822060056006909202019081015490925061161f9060ff16611ce0565b9050816003015498508160000160009054906101000a90046001600160a01b03169750816001015496508160020160009054906101000a90046001600160a01b03169550816004015494508093506113f1826040518060c00160405290816000820160009054906101000a90046001600160a01b03166001600160a01b03166001600160a01b03168152602001600182015481526020016002820160009054906101000a90046001600160a01b03166001600160a01b03166001600160a01b0316815260200160038201548152602001600482015481526020016005820160009054906101000a900460ff16600481111561171c5761171c6125a6565b600481111561172d5761172d6125a6565b9052506119a3565b60975460405163877b9a6760e01b81523360048201526000916001600160a01b03169063877b9a679060240160206040518083038186803b15801561177957600080fd5b505afa15801561178d573d6000803e3d6000fd5b505050506040513d601f19601f820116820180604052508101906117b191906122e5565b6117cd5760405162461bcd60e51b815260040161088390612489565b609880546001600160a01b0385166001600160a81b03199091168117600160a01b60ff8616908102919091179092556040514281527f47f70abc5eafc71015adda71f3628949d17bd87cb6199008a1243dca856ceaaf9060200160405180910390a350600192915050565b6118406118b1565b6001600160a01b0381166118a55760405162461bcd60e51b815260206004820152602660248201527f4f776e61626c653a206e6577206f776e657220697320746865207a65726f206160448201526564647265737360d01b6064820152608401610883565b6118ae81611b99565b50565b6033546001600160a01b031633146105165760405162461bcd60e51b815260206004820181905260248201527f4f776e61626c653a2063616c6c6572206973206e6f7420746865206f776e65726044820152606401610883565b611913611dfc565b6065805460ff191690557f5db9ee0a495bf2e6ff9c91a7834c1ba4fdd244a5e8aa4e537bd38aeae4b073aa335b6040516001600160a01b03909116815260200160405180910390a1565b60655460ff16156105165760405162461bcd60e51b815260206004820152601060248201526f14185d5cd8589b194e881c185d5cd95960821b6044820152606401610883565b80516020808301516040808501516060860151608087015192516000966119fd9690959491016001600160a01b03958616815260208101949094529190931660408301526060820192909252608081019190915260a00190565b604051602081830303815290604052805190602001209050919050565b6000611a246121e4565b82611a655760405162461bcd60e51b81526020600482015260116024820152700726571756573742068617368206973203607c1b6044820152606401610883565b6000838152609a6020526040902054609c80549193509083908110611a8c57611a8c6125bc565b60009182526020918290206040805160c081018252600690930290910180546001600160a01b039081168452600182015494840194909452600281015490931690820152600382015460608201526004808301546080830152600583015491929160a084019160ff90911690811115611b0757611b076125a6565b6004811115611b1857611b186125a6565b90525090506110338184611e45565b6000611b316121e4565b82611b725760405162461bcd60e51b81526020600482015260116024820152700726571756573742068617368206973203607c1b6044820152606401610883565b600083815260996020526040902054609b80549193509083908110611a8c57611a8c6125bc565b603380546001600160a01b038381166001600160a01b0319831681179093556040519116919082907f8be0079c531659141344cd1fd0a4f28419497f9722a3daafe3b4186f6b6457e090600090a35050565b604080516001600160a01b0385811660248301528416604482015260648082018490528251808303909101815260849091019091526020810180516001600160e01b03166323b872dd60e01b1790526112f9908590611f1a565b611c4d61195d565b6065805460ff191660011790557f62e78cea01bee320cd4e420270b5ea74000d11b0c9f74754ebdbfc544b05a2586119403390565b600054610100900460ff16611ca95760405162461bcd60e51b8152600401610883906124b7565b610516611ff4565b600054610100900460ff16611cd85760405162461bcd60e51b8152600401610883906124b7565b610516612024565b60606001826004811115611cf657611cf66125a6565b1415611d1f57505060408051808201909152600781526670656e64696e6760c81b602082015290565b6002826004811115611d3357611d336125a6565b1415611d5d57505060408051808201909152600881526718d85b98d95b195960c21b602082015290565b6003826004811115611d7157611d716125a6565b1415611d9b575050604080518082019091526008815267185c1c1c9bdd995960c21b602082015290565b6004826004811115611daf57611daf6125a6565b1415611dd95750506040805180820190915260088152671c995a9958dd195960c21b602082015290565b50506040805180820190915260078152663ab735b737bbb760c91b602082015290565b60655460ff166105165760405162461bcd60e51b815260206004820152601460248201527314185d5cd8589b194e881b9bdd081c185d5cd95960621b6044820152606401610883565b60018260a001516004811115611e5d57611e5d6125a6565b14611ea35760405162461bcd60e51b815260206004820152601660248201527572657175657374206973206e6f742070656e64696e6760501b6044820152606401610883565b611eac826119a3565b8114611f165760405162461bcd60e51b815260206004820152603360248201527f676976656e2072657175657374206861736820646f6573206e6f74206d6174636044820152721a0818481c195b991a5b99c81c995c5d595cdd606a1b6064820152608401610883565b5050565b6000611f6f826040518060400160405280602081526020017f5361666545524332303a206c6f772d6c6576656c2063616c6c206661696c6564815250856001600160a01b03166120579092919063ffffffff16565b9050805160001480611f90575080806020019051810190611f9091906122e5565b611fef5760405162461bcd60e51b815260206004820152602a60248201527f5361666545524332303a204552433230206f7065726174696f6e20646964206e6044820152691bdd081cdd58d8d9595960b21b6064820152608401610883565b505050565b600054610100900460ff1661201b5760405162461bcd60e51b8152600401610883906124b7565b61051633611b99565b600054610100900460ff1661204b5760405162461bcd60e51b8152600401610883906124b7565b6065805460ff19169055565b6060612066848460008561206e565b949350505050565b6060824710156120cf5760405162461bcd60e51b815260206004820152602660248201527f416464726573733a20696e73756666696369656e742062616c616e636520666f6044820152651c8818d85b1b60d21b6064820152608401610883565b600080866001600160a01b031685876040516120eb9190612390565b60006040518083038185875af1925050503d8060008114612128576040519150601f19603f3d011682016040523d82523d6000602084013e61212d565b606091505b509150915061213e87838387612149565b979650505050505050565b606083156121b55782516121ae576001600160a01b0385163b6121ae5760405162461bcd60e51b815260206004820152601d60248201527f416464726573733a2063616c6c20746f206e6f6e2d636f6e74726163740000006044820152606401610883565b5081612066565b61206683838151156121ca5781518083602001fd5b8060405162461bcd60e51b81526004016108839190612476565b6040805160c08101825260008082526020820181905291810182905260608101829052608081018290529060a082015290565b803560ff811681146108de57600080fd5b60006020828403121561223a57600080fd5b8135612245816125d2565b9392505050565b60006020828403121561225e57600080fd5b8151612245816125d2565b60008060006060848603121561227e57600080fd5b8335612289816125d2565b92506020840135612299816125d2565b91506122a760408501612217565b90509250925092565b600080604083850312156122c357600080fd5b82356122ce816125d2565b91506122dc60208401612217565b90509250929050565b6000602082840312156122f757600080fd5b8151801515811461224557600080fd5b60006020828403121561231957600080fd5b5035919050565b6000806040838503121561233357600080fd5b50508035926020909101359150565b6005811061236057634e487b7160e01b600052602160045260246000fd5b9052565b6000815180845261237c81602086016020860161257a565b601f01601f19169290920160200192915050565b600082516123a281846020870161257a565b9190910192915050565b6001600160a01b0387811682526020820187905285166040820152606081018490526080810183905260c0810161213e60a0830184612342565b602080825282518282018190526000919060409081850190868401855b8281101561246957815180516001600160a01b0390811686528782015188870152868201511686860152606080820151908601526080808201519086015260a0908101519061245486820183612342565b505060c0939093019290850190600101612403565b5091979650505050505050565b6020815260006122456020830184612364565b60208082526014908201527339b2b73232b9103737ba10309034b9b9bab2b91760611b604082015260600190565b6020808252602b908201527f496e697469616c697a61626c653a20636f6e7472616374206973206e6f74206960408201526a6e697469616c697a696e6760a81b606082015260800190565b8781526001600160a01b03878116602083015260408201879052851660608201526080810184905260e060a0820181905260009061254290830185612364565b90508260c083015298975050505050505050565b9384526001600160a01b039290921660208401526040830152606082015260800190565b60005b8381101561259557818101518382015260200161257d565b838111156112f95750506000910152565b634e487b7160e01b600052602160045260246000fd5b634e487b7160e01b600052603260045260246000fd5b6001600160a01b03811681146118ae57600080fdfea26469706673582212209eaacb9af8ba7d43a8b2c64278a1b9fbac355c811c1d34472bc4ba2ae6da808764736f6c63430008070033",
    "linkReferences": {}
  },
  "methodIdentifiers": {
    "addMintRequest(uint256)": "7683c027",
    "burn(uint256)": "42966c68",
    "burnRequestNonce(bytes32)": "c72551be",
    "burnRequests(uint256)": "6406c10c",
    "cancelMintRequest(bytes32)": "c06e2d24",
    "confirmBurnRequest(bytes32)": "60daba33",
    "confirmMintRequest(bytes32,uint256)": "64a9b8f7",
    "controller()": "f77c4791",
    "getAllBurnRequests()": "1e7aa9f4",
    "getAllMintRequests()": "64c70d45",
    "getBurnRequest(uint256)": "e21c40c0",
    "getBurnRequestsLength()": "72f69a72",
    "getMintRequest(uint256)": "b69b22d8",
    "getMintRequestsLength()": "311104f3",
    "initialize(address,address,uint8)": "89232a00",
    "mintRequestNonce(bytes32)": "9ad4b86b",
    "mintRequests(uint256)": "424e6575",
    "owner()": "8da5cb5b",
    "pause()": "8456cb59",
    "paused()": "5c975abb",
    "rejectMintRequest(bytes32)": "861f92a8",
    "renounceOwnership()": "715018a6",
    "rr()": "12539cc3",
    "setUsdcAddress(address,uint8)": "eab2a711",
    "transferOwnership(address)": "f2fde38b",
    "unpause()": "3f4ba83a",
    "usdc()": "3e413bee",
    "usdcDecimals()": "7bf42165"
  },
  "id": 3
}