{
  "abi": [
    {
      "anonymous": false,
      "inputs": [
        {
          "indexed": false,
          "internalType": "bool",
          "name": "pause",
          "type": "bool"
        }
      ],
      "name": "FactoryPause",
      "type": "event"
    },
    {
      "anonymous": false,
      "inputs": [
        {
          "indexed": true,
          "internalType": "contract FactoryInterface",
          "name": "factory",
          "type": "address"
        }
      ],
      "name": "FactorySet",
      "type": "event"
    },
    {
      "anonymous": false,
      "inputs": [
        {
          "indexed": false,
          "internalType": "uint8",
          "name": "version",
          "type": "uint8"
        }
      ],
      "name": "Initialized",
      "type": "event"
    },
    {
      "anonymous": false,
      "inputs": [
        {
          "indexed": true,
          "internalType": "contract MembersInterface",
          "name": "members",
          "type": "address"
        }
      ],
      "name": "MembersSet",
      "type": "event"
    },
    {
      "anonymous": false,
      "inputs": [
        {
          "indexed": true,
          "internalType": "address",
          "name": "previousOwner",
          "type": "address"
        },
        {
          "indexed": true,
          "internalType": "address",
          "name": "newOwner",
          "type": "address"
        }
      ],
      "name": "OwnershipTransferred",
      "type": "event"
    },
    {
      "inputs": [
        {
          "internalType": "address",
          "name": "from",
          "type": "address"
        },
        {
          "internalType": "uint256",
          "name": "value",
          "type": "uint256"
        }
      ],
      "name": "burn",
      "outputs": [
        {
          "internalType": "bool",
          "name": "",
          "type": "bool"
        }
      ],
      "stateMutability": "nonpayable",
      "type": "function"
    },
    {
      "inputs": [],
      "name": "factory",
      "outputs": [
        {
          "internalType": "contract FactoryInterface",
          "name": "",
          "type": "address"
        }
      ],
      "stateMutability": "view",
      "type": "function"
    },
    {
      "inputs": [
        {
          "internalType": "bool",
          "name": "pause",
          "type": "bool"
        }
      ],
      "name": "factoryPause",
      "outputs": [
        {
          "internalType": "bool",
          "name": "",
          "type": "bool"
        }
      ],
      "stateMutability": "nonpayable",
      "type": "function"
    },
    {
      "inputs": [],
      "name": "getCustodianWallet",
      "outputs": [
        {
          "internalType": "address",
          "name": "",
          "type": "address"
        }
      ],
      "stateMutability": "view",
      "type": "function"
    },
    {
      "inputs": [],
      "name": "getToken",
      "outputs": [
        {
          "internalType": "address",
          "name": "",
          "type": "address"
        }
      ],
      "stateMutability": "view",
      "type": "function"
    },
    {
      "inputs": [
        {
          "internalType": "address",
          "name": "_token",
          "type": "address"
        }
      ],
      "name": "initialize",
      "outputs": [],
      "stateMutability": "nonpayable",
      "type": "function"
    },
    {
      "inputs": [
        {
          "internalType": "address",
          "name": "addr",
          "type": "address"
        }
      ],
      "name": "isIssuer",
      "outputs": [
        {
          "internalType": "bool",
          "name": "",
          "type": "bool"
        }
      ],
      "stateMutability": "view",
      "type": "function"
    },
    {
      "inputs": [
        {
          "internalType": "address",
          "name": "addr",
          "type": "address"
        }
      ],
      "name": "isMerchant",
      "outputs": [
        {
          "internalType": "bool",
          "name": "",
          "type": "bool"
        }
      ],
      "stateMutability": "view",
      "type": "function"
    },
    {
      "inputs": [],
      "name": "members",
      "outputs": [
        {
          "internalType": "contract MembersInterface",
          "name": "",
          "type": "address"
        }
      ],
      "stateMutability": "view",
      "type": "function"
    },
    {
      "inputs": [
        {
          "internalType": "address",
          "name": "to",
          "type": "address"
        },
        {
          "internalType": "uint256",
          "name": "amount",
          "type": "uint256"
        }
      ],
      "name": "mint",
      "outputs": [
        {
          "internalType": "bool",
          "name": "",
          "type": "bool"
        }
      ],
      "stateMutability": "nonpayable",
      "type": "function"
    },
    {
      "inputs": [],
      "name": "owner",
      "outputs": [
        {
          "internalType": "address",
          "name": "",
          "type": "address"
        }
      ],
      "stateMutability": "view",
      "type": "function"
    },
    {
      "inputs": [
        {
          "internalType": "address",
          "name": "_proposedOwner",
          "type": "address"
        }
      ],
      "name": "proposeOwner",
      "outputs": [],
      "stateMutability": "nonpayable",
      "type": "function"
    },
    {
      "inputs": [],
      "name": "proposedOwner",
      "outputs": [
        {
          "internalType": "address",
          "name": "",
          "type": "address"
        }
      ],
      "stateMutability": "view",
      "type": "function"
    },
    {
      "inputs": [],
      "name": "renounceOwnership",
      "outputs": [],
      "stateMutability": "view",
      "type": "function"
    },
    {
      "inputs": [
        {
          "internalType": "address",
          "name": "_factory",
          "type": "address"
        }
      ],
      "name": "setFactory",
      "outputs": [
        {
          "internalType": "bool",
          "name": "",
          "type": "bool"
        }
      ],
      "stateMutability": "nonpayable",
      "type": "function"
    },
    {
      "inputs": [
        {
          "internalType": "address",
          "name": "_members",
          "type": "address"
        }
      ],
      "name": "setMembers",
      "outputs": [
        {
          "internalType": "bool",
          "name": "",
          "type": "bool"
        }
      ],
      "stateMutability": "nonpayable",
      "type": "function"
    },
    {
      "inputs": [],
      "name": "token",
      "outputs": [
        {
          "internalType": "contract IndexToken",
          "name": "",
          "type": "address"
        }
      ],
      "stateMutability": "view",
      "type": "function"
    },
    {
      "inputs": [
        {
          "internalType": "address",
          "name": "newOwner",
          "type": "address"
        }
      ],
      "name": "transferOwnership",
      "outputs": [],
      "stateMutability": "nonpayable",
      "type": "function"
    }
  ],
  "bytecode": {
    "object": "0x608060405234801561001057600080fd5b50610cd2806100206000396000f3fe608060405234801561001057600080fd5b50600436106101165760003560e01c8063b5ed298a116100a2578063d153b60c11610071578063d153b60c1461022e578063d7bd6a8114610241578063f2fde38b14610249578063f3796bdc1461025c578063fc0c546a1461026f57600080fd5b8063b5ed298a146101e2578063bdd4d18d146101f5578063c45a015514610208578063c4d66de81461021b57600080fd5b80635bb47808116100e95780635bb478081461018e578063715018a6146101a1578063877b9a67146101ab5780638da5cb5b146101be5780639dc29fac146101cf57600080fd5b80631a2f71671461011b57806321df0da71461014357806340c10f191461016857806353c3e3081461017b575b600080fd5b61012e610129366004610aea565b610282565b60405190151581526020015b60405180910390f35b6098546001600160a01b03165b6040516001600160a01b03909116815260200161013a565b61012e610176366004610b2b565b610307565b61012e610189366004610b57565b6103f8565b61012e61019c366004610aea565b61051b565b6101a9610574565b005b61012e6101b9366004610aea565b6105c4565b6033546001600160a01b0316610150565b61012e6101dd366004610b2b565b6105f7565b6101a96101f0366004610aea565b61065d565b609954610150906001600160a01b031681565b609a54610150906001600160a01b031681565b6101a9610229366004610aea565b6106ad565b606554610150906001600160a01b031681565b6101506107da565b6101a9610257366004610aea565b61085c565b61012e61026a366004610aea565b610984565b609854610150906001600160a01b031681565b609954604051631a2f716760e01b81526001600160a01b0383811660048301526000921690631a2f7167906024015b60206040518083038186803b1580156102c957600080fd5b505afa1580156102dd573d6000803e3d6000fd5b505050506040513d601f19601f820116820180604052508101906103019190610b74565b92915050565b609a546000906001600160a01b0316331461033d5760405162461bcd60e51b815260040161033490610b91565b60405180910390fd5b6001600160a01b0383166103885760405162461bcd60e51b8152602060048201526012602482015271696e76616c696420746f206164647265737360701b6044820152606401610334565b6098546040516340c10f1960e01b81526001600160a01b03858116600483015260248201859052909116906340c10f19906044015b600060405180830381600087803b1580156103d757600080fd5b505af11580156103eb573d6000803e3d6000fd5b5060019695505050505050565b60006104026109dd565b811561047557609a60009054906101000a90046001600160a01b03166001600160a01b0316638456cb596040518163ffffffff1660e01b8152600401600060405180830381600087803b15801561045857600080fd5b505af115801561046c573d6000803e3d6000fd5b505050506104de565b609a60009054906101000a90046001600160a01b03166001600160a01b0316633f4ba83a6040518163ffffffff1660e01b8152600401600060405180830381600087803b1580156104c557600080fd5b505af11580156104d9573d6000803e3d6000fd5b505050505b60405182151581527f65b1d18992f57a377d0193e70dde8c9b5ecccaeac65d84cfc0d457e98926e6359060200160405180910390a1506001919050565b60006105256109dd565b609a80546001600160a01b0319166001600160a01b0384169081179091556040517f1edf3afd4ac789736e00d216cd88be164ddcef26a6eedcc30cdb0cb62f3741b190600090a2506001919050565b61057c6109dd565b60405162461bcd60e51b815260206004820181905260248201527f72656e6f756e63696e67206f776e65727368697020697320626c6f636b65642e6044820152606401610334565b60995460405163877b9a6760e01b81526001600160a01b038381166004830152600092169063877b9a67906024016102b1565b609a546000906001600160a01b031633146106245760405162461bcd60e51b815260040161033490610b91565b609854604051632770a7eb60e21b81526001600160a01b0385811660048301526024820185905290911690639dc29fac906044016103bd565b6106656109dd565b6001600160a01b03811661068b5760405162461bcd60e51b815260040161033490610bde565b606580546001600160a01b0319166001600160a01b0392909216919091179055565b600054610100900460ff16158080156106cd5750600054600160ff909116105b806106e75750303b1580156106e7575060005460ff166001145b61074a5760405162461bcd60e51b815260206004820152602e60248201527f496e697469616c697a61626c653a20636f6e747261637420697320616c72656160448201526d191e481a5b9a5d1a585b1a5e995960921b6064820152608401610334565b6000805460ff19166001179055801561076d576000805461ff0019166101001790555b609880546001600160a01b0319166001600160a01b038416179055610790610a39565b80156107d6576000805461ff0019169055604051600181527f7f26b83ff96e1f2b6a682f133852f6798a09c465da95921460cefb38474024989060200160405180910390a15b5050565b6099546040805163d7bd6a8160e01b815290516000926001600160a01b03169163d7bd6a81916004808301926020929190829003018186803b15801561081f57600080fd5b505afa158015610833573d6000803e3d6000fd5b505050506040513d601f19601f820116820180604052508101906108579190610b0e565b905090565b6001600160a01b0381166108825760405162461bcd60e51b815260040161033490610bde565b6065546001600160a01b038281169116146108fa5760405162461bcd60e51b815260206004820152603260248201527f50726f706f7361626c654f776e61626c653a206e6577206f776e6572206973206044820152713737ba10383937b837b9b2b21037bbb732b960711b6064820152608401610334565b6001600160a01b03811633146109785760405162461bcd60e51b815260206004820152603a60248201527f50726f706f7361626c654f776e61626c653a20746869732063616c6c206d757360448201527f74206265206d61646520627920746865206e6577206f776e65720000000000006064820152608401610334565b61098181610a68565b50565b600061098e6109dd565b609980546001600160a01b0319166001600160a01b0384169081179091556040517fc1ab8227dcc82b3165b89762b5698f88dd96b65581d137b10770a84b27df6a9090600090a2506001919050565b6033546001600160a01b03163314610a375760405162461bcd60e51b815260206004820181905260248201527f4f776e61626c653a2063616c6c6572206973206e6f7420746865206f776e65726044820152606401610334565b565b600054610100900460ff16610a605760405162461bcd60e51b815260040161033490610c2e565b610a37610aba565b603380546001600160a01b038381166001600160a01b0319831681179093556040519116919082907f8be0079c531659141344cd1fd0a4f28419497f9722a3daafe3b4186f6b6457e090600090a35050565b600054610100900460ff16610ae15760405162461bcd60e51b815260040161033490610c2e565b610a3733610a68565b600060208284031215610afc57600080fd5b8135610b0781610c79565b9392505050565b600060208284031215610b2057600080fd5b8151610b0781610c79565b60008060408385031215610b3e57600080fd5b8235610b4981610c79565b946020939093013593505050565b600060208284031215610b6957600080fd5b8135610b0781610c8e565b600060208284031215610b8657600080fd5b8151610b0781610c8e565b6020808252602d908201527f73656e646572206e6f7420617574686f72697a656420666f72206d696e74696e60408201526c339037b910313ab93734b7339760991b606082015260800190565b60208082526030908201527f50726f706f7361626c654f776e61626c653a206e6577206f776e65722069732060408201526f746865207a65726f206164647265737360801b606082015260800190565b6020808252602b908201527f496e697469616c697a61626c653a20636f6e7472616374206973206e6f74206960408201526a6e697469616c697a696e6760a81b606082015260800190565b6001600160a01b038116811461098157600080fd5b801515811461098157600080fdfea26469706673582212205e04093c38c6f7e9b3fc36bf37b5e0bff4e5f491feac033953f637dfd13eeccc64736f6c63430008070033",
    "linkReferences": {}
  },
  "methodIdentifiers": {
    "burn(address,uint256)": "9dc29fac",
    "factory()": "c45a0155",
    "factoryPause(bool)": "53c3e308",
    "getCustodianWallet()": "d7bd6a81",
    "getToken()": "21df0da7",
    "initialize(address)": "c4d66de8",
    "isIssuer(address)": "877b9a67",
    "isMerchant(address)": "1a2f7167",
    "members()": "bdd4d18d",
    "mint(address,uint256)": "40c10f19",
    "owner()": "8da5cb5b",
    "proposeOwner(address)": "b5ed298a",
    "proposedOwner()": "d153b60c",
    "renounceOwnership()": "715018a6",
    "setFactory(address)": "5bb47808",
    "setMembers(address)": "f3796bdc",
    "token()": "fc0c546a",
    "transferOwnership(address)": "f2fde38b"
  },
  "id": 0
}