{
  "abi": [
    {
      "inputs": [
        {
          "internalType": "string",
          "name": "_name",
          "type": "string"
        },
        {
          "internalType": "string",
          "name": "_symbol",
          "type": "string"
        },
        {
          "internalType": "address",
          "name": "_minter",
          "type": "address"
        }
      ],
      "stateMutability": "nonpayable",
      "type": "constructor"
    },
    {
      "anonymous": false,
      "inputs": [
        {
          "indexed": true,
          "internalType": "address",
          "name": "_userAddress",
          "type": "address"
        },
        {
          "indexed": false,
          "internalType": "uint256",
          "name": "_amount",
          "type": "uint256"
        },
        {
          "indexed": false,
          "internalType": "uint256",
          "name": "_time",
          "type": "uint256"
        }
      ],
      "name": "AddBurnRequestNFT",
      "type": "event"
    },
    {
      "anonymous": false,
      "inputs": [
        {
          "indexed": true,
          "internalType": "address",
          "name": "_userAddress",
          "type": "address"
        },
        {
          "indexed": false,
          "internalType": "uint256",
          "name": "_amount",
          "type": "uint256"
        },
        {
          "indexed": false,
          "internalType": "uint256",
          "name": "_time",
          "type": "uint256"
        }
      ],
      "name": "AddMintRequestNFT",
      "type": "event"
    },
    {
      "anonymous": false,
      "inputs": [
        {
          "indexed": true,
          "internalType": "address",
          "name": "owner",
          "type": "address"
        },
        {
          "indexed": true,
          "internalType": "address",
          "name": "approved",
          "type": "address"
        },
        {
          "indexed": true,
          "internalType": "uint256",
          "name": "tokenId",
          "type": "uint256"
        }
      ],
      "name": "Approval",
      "type": "event"
    },
    {
      "anonymous": false,
      "inputs": [
        {
          "indexed": true,
          "internalType": "address",
          "name": "owner",
          "type": "address"
        },
        {
          "indexed": true,
          "internalType": "address",
          "name": "operator",
          "type": "address"
        },
        {
          "indexed": false,
          "internalType": "bool",
          "name": "approved",
          "type": "bool"
        }
      ],
      "name": "ApprovalForAll",
      "type": "event"
    },
    {
      "anonymous": false,
      "inputs": [
        {
          "indexed": false,
          "internalType": "uint256",
          "name": "_fromTokenId",
          "type": "uint256"
        },
        {
          "indexed": false,
          "internalType": "uint256",
          "name": "_toTokenId",
          "type": "uint256"
        }
      ],
      "name": "BatchMetadataUpdate",
      "type": "event"
    },
    {
      "anonymous": false,
      "inputs": [
        {
          "indexed": false,
          "internalType": "uint256",
          "name": "_tokenId",
          "type": "uint256"
        }
      ],
      "name": "MetadataUpdate",
      "type": "event"
    },
    {
      "anonymous": false,
      "inputs": [
        {
          "indexed": true,
          "internalType": "address",
          "name": "minter",
          "type": "address"
        }
      ],
      "name": "MinterSet",
      "type": "event"
    },
    {
      "anonymous": false,
      "inputs": [
        {
          "indexed": true,
          "internalType": "address",
          "name": "previousOwner",
          "type": "address"
        },
        {
          "indexed": true,
          "internalType": "address",
          "name": "newOwner",
          "type": "address"
        }
      ],
      "name": "OwnershipTransferred",
      "type": "event"
    },
    {
      "anonymous": false,
      "inputs": [
        {
          "indexed": true,
          "internalType": "address",
          "name": "from",
          "type": "address"
        },
        {
          "indexed": true,
          "internalType": "address",
          "name": "to",
          "type": "address"
        },
        {
          "indexed": true,
          "internalType": "uint256",
          "name": "tokenId",
          "type": "uint256"
        }
      ],
      "name": "Transfer",
      "type": "event"
    },
    {
      "inputs": [
        {
          "internalType": "address",
          "name": "_userAddress",
          "type": "address"
        },
        {
          "internalType": "uint256",
          "name": "_amount",
          "type": "uint256"
        }
      ],
      "name": "addBurnRequestNFT",
      "outputs": [],
      "stateMutability": "nonpayable",
      "type": "function"
    },
    {
      "inputs": [
        {
          "internalType": "address",
          "name": "_userAddress",
          "type": "address"
        },
        {
          "internalType": "uint256",
          "name": "_amount",
          "type": "uint256"
        }
      ],
      "name": "addMintRequestNFT",
      "outputs": [],
      "stateMutability": "nonpayable",
      "type": "function"
    },
    {
      "inputs": [
        {
          "internalType": "address",
          "name": "to",
          "type": "address"
        },
        {
          "internalType": "uint256",
          "name": "tokenId",
          "type": "uint256"
        }
      ],
      "name": "approve",
      "outputs": [],
      "stateMutability": "nonpayable",
      "type": "function"
    },
    {
      "inputs": [
        {
          "internalType": "address",
          "name": "owner",
          "type": "address"
        }
      ],
      "name": "balanceOf",
      "outputs": [
        {
          "internalType": "uint256",
          "name": "",
          "type": "uint256"
        }
      ],
      "stateMutability": "view",
      "type": "function"
    },
    {
      "inputs": [
        {
          "internalType": "uint256",
          "name": "tokenId",
          "type": "uint256"
        }
      ],
      "name": "getApproved",
      "outputs": [
        {
          "internalType": "address",
          "name": "",
          "type": "address"
        }
      ],
      "stateMutability": "view",
      "type": "function"
    },
    {
      "inputs": [
        {
          "internalType": "address",
          "name": "owner",
          "type": "address"
        },
        {
          "internalType": "address",
          "name": "operator",
          "type": "address"
        }
      ],
      "name": "isApprovedForAll",
      "outputs": [
        {
          "internalType": "bool",
          "name": "",
          "type": "bool"
        }
      ],
      "stateMutability": "view",
      "type": "function"
    },
    {
      "inputs": [],
      "name": "minter",
      "outputs": [
        {
          "internalType": "address",
          "name": "",
          "type": "address"
        }
      ],
      "stateMutability": "view",
      "type": "function"
    },
    {
      "inputs": [],
      "name": "name",
      "outputs": [
        {
          "internalType": "string",
          "name": "",
          "type": "string"
        }
      ],
      "stateMutability": "view",
      "type": "function"
    },
    {
      "inputs": [],
      "name": "owner",
      "outputs": [
        {
          "internalType": "address",
          "name": "",
          "type": "address"
        }
      ],
      "stateMutability": "view",
      "type": "function"
    },
    {
      "inputs": [
        {
          "internalType": "uint256",
          "name": "tokenId",
          "type": "uint256"
        }
      ],
      "name": "ownerOf",
      "outputs": [
        {
          "internalType": "address",
          "name": "",
          "type": "address"
        }
      ],
      "stateMutability": "view",
      "type": "function"
    },
    {
      "inputs": [],
      "name": "renounceOwnership",
      "outputs": [],
      "stateMutability": "nonpayable",
      "type": "function"
    },
    {
      "inputs": [
        {
          "internalType": "address",
          "name": "from",
          "type": "address"
        },
        {
          "internalType": "address",
          "name": "to",
          "type": "address"
        },
        {
          "internalType": "uint256",
          "name": "tokenId",
          "type": "uint256"
        }
      ],
      "name": "safeTransferFrom",
      "outputs": [],
      "stateMutability": "nonpayable",
      "type": "function"
    },
    {
      "inputs": [
        {
          "internalType": "address",
          "name": "from",
          "type": "address"
        },
        {
          "internalType": "address",
          "name": "to",
          "type": "address"
        },
        {
          "internalType": "uint256",
          "name": "tokenId",
          "type": "uint256"
        },
        {
          "internalType": "bytes",
          "name": "data",
          "type": "bytes"
        }
      ],
      "name": "safeTransferFrom",
      "outputs": [],
      "stateMutability": "nonpayable",
      "type": "function"
    },
    {
      "inputs": [
        {
          "internalType": "address",
          "name": "operator",
          "type": "address"
        },
        {
          "internalType": "bool",
          "name": "approved",
          "type": "bool"
        }
      ],
      "name": "setApprovalForAll",
      "outputs": [],
      "stateMutability": "nonpayable",
      "type": "function"
    },
    {
      "inputs": [
        {
          "internalType": "address",
          "name": "_minter",
          "type": "address"
        }
      ],
      "name": "setMinter",
      "outputs": [],
      "stateMutability": "nonpayable",
      "type": "function"
    },
    {
      "inputs": [
        {
          "internalType": "bytes4",
          "name": "interfaceId",
          "type": "bytes4"
        }
      ],
      "name": "supportsInterface",
      "outputs": [
        {
          "internalType": "bool",
          "name": "",
          "type": "bool"
        }
      ],
      "stateMutability": "view",
      "type": "function"
    },
    {
      "inputs": [],
      "name": "symbol",
      "outputs": [
        {
          "internalType": "string",
          "name": "",
          "type": "string"
        }
      ],
      "stateMutability": "view",
      "type": "function"
    },
    {
      "inputs": [
        {
          "internalType": "uint256",
          "name": "tokenId",
          "type": "uint256"
        }
      ],
      "name": "tokenURI",
      "outputs": [
        {
          "internalType": "string",
          "name": "",
          "type": "string"
        }
      ],
      "stateMutability": "view",
      "type": "function"
    },
    {
      "inputs": [],
      "name": "totalSupply",
      "outputs": [
        {
          "internalType": "uint256",
          "name": "",
          "type": "uint256"
        }
      ],
      "stateMutability": "view",
      "type": "function"
    },
    {
      "inputs": [
        {
          "internalType": "address",
          "name": "from",
          "type": "address"
        },
        {
          "internalType": "address",
          "name": "to",
          "type": "address"
        },
        {
          "internalType": "uint256",
          "name": "tokenId",
          "type": "uint256"
        }
      ],
      "name": "transferFrom",
      "outputs": [],
      "stateMutability": "nonpayable",
      "type": "function"
    },
    {
      "inputs": [
        {
          "internalType": "address",
          "name": "newOwner",
          "type": "address"
        }
      ],
      "name": "transferOwnership",
      "outputs": [],
      "stateMutability": "nonpayable",
      "type": "function"
    }
  ],
  "bytecode": {
    "object": "0x60806040523480156200001157600080fd5b506040516200257538038062002575833981016040819052620000349162000261565b8251839083906200004d90600090602085019062000104565b5080516200006390600190602084019062000104565b505050620000806200007a620000ae60201b60201c565b620000b2565b6001600855600980546001600160a01b0319166001600160a01b039290921691909117905550620003419050565b3390565b600780546001600160a01b038381166001600160a01b0319831681179093556040519116919082907f8be0079c531659141344cd1fd0a4f28419497f9722a3daafe3b4186f6b6457e090600090a35050565b8280546200011290620002ee565b90600052602060002090601f01602090048101928262000136576000855562000181565b82601f106200015157805160ff191683800117855562000181565b8280016001018555821562000181579182015b828111156200018157825182559160200191906001019062000164565b506200018f92915062000193565b5090565b5b808211156200018f576000815560010162000194565b600082601f830112620001bc57600080fd5b81516001600160401b0380821115620001d957620001d96200032b565b604051601f8301601f19908116603f011681019082821181831017156200020457620002046200032b565b816040528381526020925086838588010111156200022157600080fd5b600091505b8382101562000245578582018301518183018401529082019062000226565b83821115620002575760008385830101525b9695505050505050565b6000806000606084860312156200027757600080fd5b83516001600160401b03808211156200028f57600080fd5b6200029d87838801620001aa565b94506020860151915080821115620002b457600080fd5b50620002c386828701620001aa565b604086015190935090506001600160a01b0381168114620002e357600080fd5b809150509250925092565b600181811c908216806200030357607f821691505b602082108114156200032557634e487b7160e01b600052602260045260246000fd5b50919050565b634e487b7160e01b600052604160045260246000fd5b61222480620003516000396000f3fe608060405234801561001057600080fd5b50600436106101375760003560e01c806370a08231116100b8578063b88d4fde1161007c578063b88d4fde14610271578063c87b56dd14610284578063ce07536214610297578063e985e9c5146102aa578063f2fde38b146102e6578063fca3b5aa146102f957600080fd5b806370a082311461022a578063715018a61461023d5780638da5cb5b1461024557806395d89b4114610256578063a22cb4651461025e57600080fd5b806318160ddd116100ff57806318160ddd146101cc57806319c5df43146101de57806323b872dd146101f157806342842e0e146102045780636352211e1461021757600080fd5b806301ffc9a71461013c57806306fdde03146101645780630754617214610179578063081812fc146101a4578063095ea7b3146101b7575b600080fd5b61014f61014a366004611ab1565b61030c565b60405190151581526020015b60405180910390f35b61016c610337565b60405161015b9190611f51565b60095461018c906001600160a01b031681565b6040516001600160a01b03909116815260200161015b565b61018c6101b2366004611aeb565b6103c9565b6101ca6101c5366004611a87565b6103f0565b005b6008545b60405190815260200161015b565b6101ca6101ec366004611a87565b61050b565b6101ca6101ff366004611933565b6105c8565b6101ca610212366004611933565b6105f9565b61018c610225366004611aeb565b610614565b6101d06102383660046118e5565b610674565b6101ca6106fa565b6007546001600160a01b031661018c565b61016c61070e565b6101ca61026c366004611a4b565b61071d565b6101ca61027f36600461196f565b61072c565b61016c610292366004611aeb565b610764565b6101ca6102a5366004611a87565b610875565b61014f6102b8366004611900565b6001600160a01b03918216600090815260056020908152604080832093909416825291909152205460ff1690565b6101ca6102f43660046118e5565b610927565b6101ca6103073660046118e5565b6109a0565b60006001600160e01b03198216632483248360e11b1480610331575061033182610a05565b92915050565b606060008054610346906120d6565b80601f0160208091040260200160405190810160405280929190818152602001828054610372906120d6565b80156103bf5780601f10610394576101008083540402835291602001916103bf565b820191906000526020600020905b8154815290600101906020018083116103a257829003601f168201915b5050505050905090565b60006103d482610a55565b506000908152600460205260409020546001600160a01b031690565b60006103fb82610614565b9050806001600160a01b0316836001600160a01b0316141561046e5760405162461bcd60e51b815260206004820152602160248201527f4552433732313a20617070726f76616c20746f2063757272656e74206f776e656044820152603960f91b60648201526084015b60405180910390fd5b336001600160a01b038216148061048a575061048a81336102b8565b6104fc5760405162461bcd60e51b815260206004820152603d60248201527f4552433732313a20617070726f76652063616c6c6572206973206e6f7420746f60448201527f6b656e206f776e6572206f7220617070726f76656420666f7220616c6c0000006064820152608401610465565b6105068383610ab4565b505050565b6008546105188382610b22565b600061054f834260405180604001604052806012815260200171109d5c9b88151bdad95b8814995c5d595cdd60721b815250610cad565b9050600061055c82610cf5565b90506105688382610d53565b6008805490600061057883612111565b9091555050604080518581524260208201526001600160a01b038716917f8e800cce4e0bf26af71bb210013fa090bbf827f69265dfd34b59544b9f52a57a91015b60405180910390a25050505050565b6105d23382610e25565b6105ee5760405162461bcd60e51b815260040161046590611f64565b610506838383610ea3565b6105068383836040518060200160405280600081525061072c565b6000818152600260205260408120546001600160a01b0316806103315760405162461bcd60e51b8152602060048201526018602482015277115490cdcc8c4e881a5b9d985b1a59081d1bdad95b88125160421b6044820152606401610465565b60006001600160a01b0382166106de5760405162461bcd60e51b815260206004820152602960248201527f4552433732313a2061646472657373207a65726f206973206e6f7420612076616044820152683634b21037bbb732b960b91b6064820152608401610465565b506001600160a01b031660009081526003602052604090205490565b610702611007565b61070c6000611061565b565b606060018054610346906120d6565b6107283383836110b3565b5050565b6107363383610e25565b6107525760405162461bcd60e51b815260040161046590611f64565b61075e84848484611182565b50505050565b606061076f82610a55565b60008281526006602052604081208054610788906120d6565b80601f01602080910402602001604051908101604052809291908181526020018280546107b4906120d6565b80156108015780601f106107d657610100808354040283529160200191610801565b820191906000526020600020905b8154815290600101906020018083116107e457829003601f168201915b50505050509050600061081f60408051602081019091526000815290565b9050805160001415610832575092915050565b81511561086457808260405160200161084c929190611b4c565b60405160208183030381529060405292505050919050565b61086d846111b5565b949350505050565b6008546108828382610b22565b60006108b9834260405180604001604052806012815260200171135a5b9d08151bdad95b8814995c5d595cdd60721b815250610cad565b905060006108c682610cf5565b90506108d28382610d53565b600880549060006108e283612111565b9091555050604080518581524260208201526001600160a01b038716917f30c393af19b002c6f3a5996edbabe590b412465e30d645c919bd796293421b5191016105b9565b61092f611007565b6001600160a01b0381166109945760405162461bcd60e51b815260206004820152602660248201527f4f776e61626c653a206e6577206f776e657220697320746865207a65726f206160448201526564647265737360d01b6064820152608401610465565b61099d81611061565b50565b6109a8611007565b6001600160a01b0381166109bb57600080fd5b600980546001600160a01b0319166001600160a01b0383169081179091556040517f726b590ef91a8c76ad05bbe91a57ef84605276528f49cd47d787f558a4e755b690600090a250565b60006001600160e01b031982166380ac58cd60e01b1480610a3657506001600160e01b03198216635b5e139f60e01b145b8061033157506301ffc9a760e01b6001600160e01b0319831614610331565b6000818152600260205260409020546001600160a01b031661099d5760405162461bcd60e51b8152602060048201526018602482015277115490cdcc8c4e881a5b9d985b1a59081d1bdad95b88125160421b6044820152606401610465565b600081815260046020526040902080546001600160a01b0319166001600160a01b0384169081179091558190610ae982610614565b6001600160a01b03167f8c5be1e5ebec7d5bd14f71427d1e84f3dd0314c0f7b2291e5b200ac8c7c3b92560405160405180910390a45050565b6001600160a01b038216610b785760405162461bcd60e51b815260206004820181905260248201527f4552433732313a206d696e7420746f20746865207a65726f20616464726573736044820152606401610465565b6000818152600260205260409020546001600160a01b031615610bdd5760405162461bcd60e51b815260206004820152601c60248201527f4552433732313a20746f6b656e20616c7265616479206d696e746564000000006044820152606401610465565b6000818152600260205260409020546001600160a01b031615610c425760405162461bcd60e51b815260206004820152601c60248201527f4552433732313a20746f6b656e20616c7265616479206d696e746564000000006044820152606401610465565b6001600160a01b038216600081815260036020908152604080832080546001019055848352600290915280822080546001600160a01b0319168417905551839291907fddf252ad1be2c89b69c2b068fc378daa952ba7f163c4a11628f55a4df523b3ef908290a45050565b60606000610cba84611219565b9050600083610cc88761124a565b83604051602001610cdb93929190611b97565b60408051808303601f190181529190529695505050505050565b60606000610d0283611349565b604051602001610d129190611e1e565b6040516020818303038152906040529050610d2c81611349565b604051602001610d3c9190611ed9565b604051602081830303815290604052915050919050565b6000828152600260205260409020546001600160a01b0316610dce5760405162461bcd60e51b815260206004820152602e60248201527f45524337323155524953746f726167653a2055524920736574206f66206e6f6e60448201526d32bc34b9ba32b73a103a37b5b2b760911b6064820152608401610465565b60008281526006602090815260409091208251610ded92840190611830565b506040518281527ff8e1a15aba9398e019f0b49df1a4fde98ee17ae345cb5f6b5e2c27f5033e8ce79060200160405180910390a15050565b600080610e3183610614565b9050806001600160a01b0316846001600160a01b03161480610e7857506001600160a01b0380821660009081526005602090815260408083209388168352929052205460ff165b8061086d5750836001600160a01b0316610e91846103c9565b6001600160a01b031614949350505050565b826001600160a01b0316610eb682610614565b6001600160a01b031614610edc5760405162461bcd60e51b815260040161046590612003565b6001600160a01b038216610f3e5760405162461bcd60e51b8152602060048201526024808201527f4552433732313a207472616e7366657220746f20746865207a65726f206164646044820152637265737360e01b6064820152608401610465565b826001600160a01b0316610f5182610614565b6001600160a01b031614610f775760405162461bcd60e51b815260040161046590612003565b600081815260046020908152604080832080546001600160a01b03199081169091556001600160a01b0387811680865260038552838620805460001901905590871680865283862080546001019055868652600290945282852080549092168417909155905184937fddf252ad1be2c89b69c2b068fc378daa952ba7f163c4a11628f55a4df523b3ef91a4505050565b6007546001600160a01b0316331461070c5760405162461bcd60e51b815260206004820181905260248201527f4f776e61626c653a2063616c6c6572206973206e6f7420746865206f776e65726044820152606401610465565b600780546001600160a01b038381166001600160a01b0319831681179093556040519116919082907f8be0079c531659141344cd1fd0a4f28419497f9722a3daafe3b4186f6b6457e090600090a35050565b816001600160a01b0316836001600160a01b031614156111155760405162461bcd60e51b815260206004820152601960248201527f4552433732313a20617070726f766520746f2063616c6c6572000000000000006044820152606401610465565b6001600160a01b03838116600081815260056020908152604080832094871680845294825291829020805460ff191686151590811790915591519182527f17307eab39ab6107e8899845ad3d59bd9653f200f220920489ca2b5937696c31910160405180910390a3505050565b61118d848484610ea3565b611199848484846114af565b61075e5760405162461bcd60e51b815260040161046590611fb1565b60606111c082610a55565b60006111d760408051602081019091526000815290565b905060008151116111f75760405180602001604052806000815250611212565b80611201846115bc565b604051602001610d3c929190611b4c565b9392505050565b606061122482611659565b6040516020016112349190611b7b565b6040516020818303038152906040529050919050565b60608161126e5750506040805180820190915260018152600360fc1b602082015290565b8160005b8115611298578061128281612111565b91506112919050600a83612060565b9150611272565b60008167ffffffffffffffff8111156112b3576112b3612182565b6040519080825280601f01601f1916602001820160405280156112dd576020820181803683370190505b5090505b841561086d57816112f1816120bf565b92506113009050600a8661212c565b61130b906030612048565b60f81b8183815181106113205761132061216c565b60200101906001600160f81b031916908160001a905350611342600a86612060565b94506112e1565b606081516000141561136957505060408051602081019091526000815290565b60006040518060600160405280604081526020016121af60409139905060006003845160026113989190612048565b6113a29190612060565b6113ad906004612074565b905060006113bc826020612048565b67ffffffffffffffff8111156113d4576113d4612182565b6040519080825280601f01601f1916602001820160405280156113fe576020820181803683370190505b509050818152600183018586518101602084015b8183101561146a576003830192508251603f8160121c168501518253600182019150603f81600c1c168501518253600182019150603f8160061c168501518253600182019150603f8116850151825350600101611412565b6003895106600181146114845760028114611495576114a1565b613d3d60f01b6001198301526114a1565b603d60f81b6000198301525b509398975050505050505050565b60006001600160a01b0384163b156115b157604051630a85bd0160e11b81526001600160a01b0385169063150b7a02906114f3903390899088908890600401611f1e565b602060405180830381600087803b15801561150d57600080fd5b505af192505050801561153d575060408051601f3d908101601f1916820190925261153a91810190611ace565b60015b611597573d80801561156b576040519150601f19603f3d011682016040523d82523d6000602084013e611570565b606091505b50805161158f5760405162461bcd60e51b815260040161046590611fb1565b805181602001fd5b6001600160e01b031916630a85bd0160e11b14905061086d565b506001949350505050565b606060006115c983611758565b600101905060008167ffffffffffffffff8111156115e9576115e9612182565b6040519080825280601f01601f191660200182016040528015611613576020820181803683370190505b5090508181016020015b600019016f181899199a1a9b1b9c1cb0b131b232b360811b600a86061a8153600a850494508461164c57611651565b61161d565b509392505050565b60608161167d5750506040805180820190915260018152600360fc1b602082015290565b8160005b81156116a7578061169181612111565b91506116a09050600a83612060565b9150611681565b60008167ffffffffffffffff8111156116c2576116c2612182565b6040519080825280601f01601f1916602001820160405280156116ec576020820181803683370190505b5090505b841561086d5781611700816120bf565b925061170f9050600a8661212c565b61171a906030612048565b60f81b81838151811061172f5761172f61216c565b60200101906001600160f81b031916908160001a905350611751600a86612060565b94506116f0565b60008072184f03e93ff9f4daa797ed6e38ed64bf6a1f0160401b83106117975772184f03e93ff9f4daa797ed6e38ed64bf6a1f0160401b830492506040015b6d04ee2d6d415b85acef810000000083106117c3576d04ee2d6d415b85acef8100000000830492506020015b662386f26fc1000083106117e157662386f26fc10000830492506010015b6305f5e10083106117f9576305f5e100830492506008015b612710831061180d57612710830492506004015b6064831061181f576064830492506002015b600a83106103315760010192915050565b82805461183c906120d6565b90600052602060002090601f01602090048101928261185e57600085556118a4565b82601f1061187757805160ff19168380011785556118a4565b828001600101855582156118a4579182015b828111156118a4578251825591602001919060010190611889565b506118b09291506118b4565b5090565b5b808211156118b057600081556001016118b5565b80356001600160a01b03811681146118e057600080fd5b919050565b6000602082840312156118f757600080fd5b611212826118c9565b6000806040838503121561191357600080fd5b61191c836118c9565b915061192a602084016118c9565b90509250929050565b60008060006060848603121561194857600080fd5b611951846118c9565b925061195f602085016118c9565b9150604084013590509250925092565b6000806000806080858703121561198557600080fd5b61198e856118c9565b935061199c602086016118c9565b925060408501359150606085013567ffffffffffffffff808211156119c057600080fd5b818701915087601f8301126119d457600080fd5b8135818111156119e6576119e6612182565b604051601f8201601f19908116603f01168101908382118183101715611a0e57611a0e612182565b816040528281528a6020848701011115611a2757600080fd5b82602086016020830137600060208483010152809550505050505092959194509250565b60008060408385031215611a5e57600080fd5b611a67836118c9565b915060208301358015158114611a7c57600080fd5b809150509250929050565b60008060408385031215611a9a57600080fd5b611aa3836118c9565b946020939093013593505050565b600060208284031215611ac357600080fd5b813561121281612198565b600060208284031215611ae057600080fd5b815161121281612198565b600060208284031215611afd57600080fd5b5035919050565b60008151808452611b1c816020860160208601612093565b601f01601f19169290920160200192915050565b60008151611b42818560208601612093565b9290920192915050565b60008351611b5e818460208801612093565b835190830190611b72818360208801612093565b01949350505050565b60008251611b8d818460208701612093565b9190910192915050565b7f3c7376672077696474683d2232303022206865696768743d223230302220786d81527f6c6e733d22687474703a2f2f7777772e77332e6f72672f323030302f737667226020820152601f60f91b60408201527f3c726563742077696474683d223130302522206865696768743d223130302522604182015273103334b6361e913634b3b43a33b930bc9110179f60611b60618201527f3c7465787420783d223530252220793d223330252220646f6d696e616e742d6260758201527f6173656c696e653d226d6964646c652220746578742d616e63686f723d226d696095820152743232363291103337b73a16b9b4bd329e91189b111f60591b60b582015260008451611cac8160ca850160208901612093565b611e14611e02611d6a611dfc611dea611d7d611d6a611d64611d50611ce360ca8b8e0101661e17ba32bc3a1f60c91b815260070190565b7f3c7465787420783d223530252220793d223530252220646f6d696e616e742d6281527f6173656c696e653d226d6964646c652220746578742d616e63686f723d226d696020820152743232363291103337b73a16b9b4bd329e91189b111f60591b604082015260550190565b67020b6b7bab73a1d160c51b815260080190565b8c611b30565b661e17ba32bc3a1f60c91b815260070190565b7f3c7465787420783d223530252220793d223730252220646f6d696e616e742d6281527f6173656c696e653d226d6964646c652220746578742d616e63686f723d226d696020820152743232363291103337b73a16b9b4bd329e91189b111f60591b604082015260550190565b6502a34b6b29d160d51b815260060190565b87611b30565b651e17b9bb339f60d11b815260060190565b9695505050505050565b7f7b226e616d65223a2022546f6b656e205265636569707420230000000000000081527f222c20226465736372697074696f6e223a2022416e204e46542077697468206160198201527f6d6f756e7420616e642074696d65222c2022696d616765223a2022646174613a6039820152741a5b5859d94bdcdd99cade1b5b0ed8985cd94d8d0b605a1b605982015260008251611ec081606e850160208701612093565b61227d60f01b606e939091019283015250607001919050565b7f646174613a6170706c69636174696f6e2f6a736f6e3b6261736536342c000000815260008251611f1181601d850160208701612093565b91909101601d0192915050565b6001600160a01b0385811682528416602082015260408101839052608060608201819052600090611e1490830184611b04565b6020815260006112126020830184611b04565b6020808252602d908201527f4552433732313a2063616c6c6572206973206e6f7420746f6b656e206f776e6560408201526c1c881bdc88185c1c1c9bdd9959609a1b606082015260800190565b60208082526032908201527f4552433732313a207472616e7366657220746f206e6f6e20455243373231526560408201527131b2b4bb32b91034b6b83632b6b2b73a32b960711b606082015260800190565b60208082526025908201527f4552433732313a207472616e736665722066726f6d20696e636f72726563742060408201526437bbb732b960d91b606082015260800190565b6000821982111561205b5761205b612140565b500190565b60008261206f5761206f612156565b500490565b600081600019048311821515161561208e5761208e612140565b500290565b60005b838110156120ae578181015183820152602001612096565b8381111561075e5750506000910152565b6000816120ce576120ce612140565b506000190190565b600181811c908216806120ea57607f821691505b6020821081141561210b57634e487b7160e01b600052602260045260246000fd5b50919050565b600060001982141561212557612125612140565b5060010190565b60008261213b5761213b612156565b500690565b634e487b7160e01b600052601160045260246000fd5b634e487b7160e01b600052601260045260246000fd5b634e487b7160e01b600052603260045260246000fd5b634e487b7160e01b600052604160045260246000fd5b6001600160e01b03198116811461099d57600080fdfe4142434445464748494a4b4c4d4e4f505152535455565758595a6162636465666768696a6b6c6d6e6f707172737475767778797a303132333435363738392b2fa264697066735822122055942ffd3a0be65822f4b2bac516b30f1c31b446acf3297d9249ac050cfeec3b64736f6c63430008070033",
    "linkReferences": {}
  },
  "methodIdentifiers": {
    "addBurnRequestNFT(address,uint256)": "19c5df43",
    "addMintRequestNFT(address,uint256)": "ce075362",
    "approve(address,uint256)": "095ea7b3",
    "balanceOf(address)": "70a08231",
    "getApproved(uint256)": "081812fc",
    "isApprovedForAll(address,address)": "e985e9c5",
    "minter()": "07546172",
    "name()": "06fdde03",
    "owner()": "8da5cb5b",
    "ownerOf(uint256)": "6352211e",
    "renounceOwnership()": "715018a6",
    "safeTransferFrom(address,address,uint256)": "42842e0e",
    "safeTransferFrom(address,address,uint256,bytes)": "b88d4fde",
    "setApprovalForAll(address,bool)": "a22cb465",
    "setMinter(address)": "fca3b5aa",
    "supportsInterface(bytes4)": "01ffc9a7",
    "symbol()": "95d89b41",
    "tokenURI(uint256)": "c87b56dd",
    "totalSupply()": "18160ddd",
    "transferFrom(address,address,uint256)": "23b872dd",
    "transferOwnership(address)": "f2fde38b"
  },
  "id": 6
}