{
  "abi": [
    {
      "inputs": [
        {
          "internalType": "string",
          "name": "_name",
          "type": "string"
        },
        {
          "internalType": "string",
          "name": "_symbol",
          "type": "string"
        },
        {
          "internalType": "address",
          "name": "_minter",
          "type": "address"
        }
      ],
      "stateMutability": "nonpayable",
      "type": "constructor"
    },
    {
      "anonymous": false,
      "inputs": [
        {
          "indexed": true,
          "internalType": "address",
          "name": "_userAddress",
          "type": "address"
        },
        {
          "indexed": false,
          "internalType": "uint256",
          "name": "_amount",
          "type": "uint256"
        },
        {
          "indexed": false,
          "internalType": "uint256",
          "name": "_time",
          "type": "uint256"
        }
      ],
      "name": "AddBurnRequestNFT",
      "type": "event"
    },
    {
      "anonymous": false,
      "inputs": [
        {
          "indexed": true,
          "internalType": "address",
          "name": "_userAddress",
          "type": "address"
        },
        {
          "indexed": false,
          "internalType": "uint256",
          "name": "_amount",
          "type": "uint256"
        },
        {
          "indexed": false,
          "internalType": "uint256",
          "name": "_time",
          "type": "uint256"
        }
      ],
      "name": "AddMintRequestNFT",
      "type": "event"
    },
    {
      "anonymous": false,
      "inputs": [
        {
          "indexed": true,
          "internalType": "address",
          "name": "owner",
          "type": "address"
        },
        {
          "indexed": true,
          "internalType": "address",
          "name": "approved",
          "type": "address"
        },
        {
          "indexed": true,
          "internalType": "uint256",
          "name": "tokenId",
          "type": "uint256"
        }
      ],
      "name": "Approval",
      "type": "event"
    },
    {
      "anonymous": false,
      "inputs": [
        {
          "indexed": true,
          "internalType": "address",
          "name": "owner",
          "type": "address"
        },
        {
          "indexed": true,
          "internalType": "address",
          "name": "operator",
          "type": "address"
        },
        {
          "indexed": false,
          "internalType": "bool",
          "name": "approved",
          "type": "bool"
        }
      ],
      "name": "ApprovalForAll",
      "type": "event"
    },
    {
      "anonymous": false,
      "inputs": [
        {
          "indexed": false,
          "internalType": "uint256",
          "name": "_fromTokenId",
          "type": "uint256"
        },
        {
          "indexed": false,
          "internalType": "uint256",
          "name": "_toTokenId",
          "type": "uint256"
        }
      ],
      "name": "BatchMetadataUpdate",
      "type": "event"
    },
    {
      "anonymous": false,
      "inputs": [
        {
          "indexed": false,
          "internalType": "uint256",
          "name": "_tokenId",
          "type": "uint256"
        }
      ],
      "name": "MetadataUpdate",
      "type": "event"
    },
    {
      "anonymous": false,
      "inputs": [
        {
          "indexed": true,
          "internalType": "address",
          "name": "minter",
          "type": "address"
        }
      ],
      "name": "MinterSet",
      "type": "event"
    },
    {
      "anonymous": false,
      "inputs": [
        {
          "indexed": true,
          "internalType": "address",
          "name": "previousOwner",
          "type": "address"
        },
        {
          "indexed": true,
          "internalType": "address",
          "name": "newOwner",
          "type": "address"
        }
      ],
      "name": "OwnershipTransferred",
      "type": "event"
    },
    {
      "anonymous": false,
      "inputs": [
        {
          "indexed": true,
          "internalType": "address",
          "name": "from",
          "type": "address"
        },
        {
          "indexed": true,
          "internalType": "address",
          "name": "to",
          "type": "address"
        },
        {
          "indexed": true,
          "internalType": "uint256",
          "name": "tokenId",
          "type": "uint256"
        }
      ],
      "name": "Transfer",
      "type": "event"
    },
    {
      "inputs": [
        {
          "internalType": "address",
          "name": "_userAddress",
          "type": "address"
        },
        {
          "internalType": "uint256",
          "name": "_amount",
          "type": "uint256"
        }
      ],
      "name": "addBurnRequestNFT",
      "outputs": [],
      "stateMutability": "nonpayable",
      "type": "function"
    },
    {
      "inputs": [
        {
          "internalType": "address",
          "name": "_userAddress",
          "type": "address"
        },
        {
          "internalType": "uint256",
          "name": "_amount",
          "type": "uint256"
        }
      ],
      "name": "addMintRequestNFT",
      "outputs": [],
      "stateMutability": "nonpayable",
      "type": "function"
    },
    {
      "inputs": [
        {
          "internalType": "address",
          "name": "to",
          "type": "address"
        },
        {
          "internalType": "uint256",
          "name": "tokenId",
          "type": "uint256"
        }
      ],
      "name": "approve",
      "outputs": [],
      "stateMutability": "nonpayable",
      "type": "function"
    },
    {
      "inputs": [
        {
          "internalType": "address",
          "name": "owner",
          "type": "address"
        }
      ],
      "name": "balanceOf",
      "outputs": [
        {
          "internalType": "uint256",
          "name": "",
          "type": "uint256"
        }
      ],
      "stateMutability": "view",
      "type": "function"
    },
    {
      "inputs": [
        {
          "internalType": "uint256",
          "name": "tokenId",
          "type": "uint256"
        }
      ],
      "name": "getApproved",
      "outputs": [
        {
          "internalType": "address",
          "name": "",
          "type": "address"
        }
      ],
      "stateMutability": "view",
      "type": "function"
    },
    {
      "inputs": [
        {
          "internalType": "address",
          "name": "owner",
          "type": "address"
        },
        {
          "internalType": "address",
          "name": "operator",
          "type": "address"
        }
      ],
      "name": "isApprovedForAll",
      "outputs": [
        {
          "internalType": "bool",
          "name": "",
          "type": "bool"
        }
      ],
      "stateMutability": "view",
      "type": "function"
    },
    {
      "inputs": [],
      "name": "minter",
      "outputs": [
        {
          "internalType": "address",
          "name": "",
          "type": "address"
        }
      ],
      "stateMutability": "view",
      "type": "function"
    },
    {
      "inputs": [],
      "name": "name",
      "outputs": [
        {
          "internalType": "string",
          "name": "",
          "type": "string"
        }
      ],
      "stateMutability": "view",
      "type": "function"
    },
    {
      "inputs": [],
      "name": "owner",
      "outputs": [
        {
          "internalType": "address",
          "name": "",
          "type": "address"
        }
      ],
      "stateMutability": "view",
      "type": "function"
    },
    {
      "inputs": [
        {
          "internalType": "uint256",
          "name": "tokenId",
          "type": "uint256"
        }
      ],
      "name": "ownerOf",
      "outputs": [
        {
          "internalType": "address",
          "name": "",
          "type": "address"
        }
      ],
      "stateMutability": "view",
      "type": "function"
    },
    {
      "inputs": [],
      "name": "renounceOwnership",
      "outputs": [],
      "stateMutability": "nonpayable",
      "type": "function"
    },
    {
      "inputs": [
        {
          "internalType": "address",
          "name": "from",
          "type": "address"
        },
        {
          "internalType": "address",
          "name": "to",
          "type": "address"
        },
        {
          "internalType": "uint256",
          "name": "tokenId",
          "type": "uint256"
        }
      ],
      "name": "safeTransferFrom",
      "outputs": [],
      "stateMutability": "nonpayable",
      "type": "function"
    },
    {
      "inputs": [
        {
          "internalType": "address",
          "name": "from",
          "type": "address"
        },
        {
          "internalType": "address",
          "name": "to",
          "type": "address"
        },
        {
          "internalType": "uint256",
          "name": "tokenId",
          "type": "uint256"
        },
        {
          "internalType": "bytes",
          "name": "data",
          "type": "bytes"
        }
      ],
      "name": "safeTransferFrom",
      "outputs": [],
      "stateMutability": "nonpayable",
      "type": "function"
    },
    {
      "inputs": [
        {
          "internalType": "address",
          "name": "operator",
          "type": "address"
        },
        {
          "internalType": "bool",
          "name": "approved",
          "type": "bool"
        }
      ],
      "name": "setApprovalForAll",
      "outputs": [],
      "stateMutability": "nonpayable",
      "type": "function"
    },
    {
      "inputs": [
        {
          "internalType": "address",
          "name": "_minter",
          "type": "address"
        }
      ],
      "name": "setMinter",
      "outputs": [],
      "stateMutability": "nonpayable",
      "type": "function"
    },
    {
      "inputs": [
        {
          "internalType": "bytes4",
          "name": "interfaceId",
          "type": "bytes4"
        }
      ],
      "name": "supportsInterface",
      "outputs": [
        {
          "internalType": "bool",
          "name": "",
          "type": "bool"
        }
      ],
      "stateMutability": "view",
      "type": "function"
    },
    {
      "inputs": [],
      "name": "symbol",
      "outputs": [
        {
          "internalType": "string",
          "name": "",
          "type": "string"
        }
      ],
      "stateMutability": "view",
      "type": "function"
    },
    {
      "inputs": [
        {
          "internalType": "uint256",
          "name": "tokenId",
          "type": "uint256"
        }
      ],
      "name": "tokenURI",
      "outputs": [
        {
          "internalType": "string",
          "name": "",
          "type": "string"
        }
      ],
      "stateMutability": "view",
      "type": "function"
    },
    {
      "inputs": [],
      "name": "totalSupply",
      "outputs": [
        {
          "internalType": "uint256",
          "name": "",
          "type": "uint256"
        }
      ],
      "stateMutability": "view",
      "type": "function"
    },
    {
      "inputs": [
        {
          "internalType": "address",
          "name": "from",
          "type": "address"
        },
        {
          "internalType": "address",
          "name": "to",
          "type": "address"
        },
        {
          "internalType": "uint256",
          "name": "tokenId",
          "type": "uint256"
        }
      ],
      "name": "transferFrom",
      "outputs": [],
      "stateMutability": "nonpayable",
      "type": "function"
    },
    {
      "inputs": [
        {
          "internalType": "address",
          "name": "newOwner",
          "type": "address"
        }
      ],
      "name": "transferOwnership",
      "outputs": [],
      "stateMutability": "nonpayable",
      "type": "function"
    }
  ],
  "bytecode": {
    "object": "0x60806040523480156200001157600080fd5b50604051620025fc380380620025fc8339810160408190526200003491620001b9565b82826000620000448382620002d5565b506001620000538282620002d5565b505050620000706200006a6200009e60201b60201c565b620000a2565b6001600855600980546001600160a01b0319166001600160a01b039290921691909117905550620003a19050565b3390565b600780546001600160a01b038381166001600160a01b0319831681179093556040519116919082907f8be0079c531659141344cd1fd0a4f28419497f9722a3daafe3b4186f6b6457e090600090a35050565b634e487b7160e01b600052604160045260246000fd5b600082601f8301126200011c57600080fd5b81516001600160401b0380821115620001395762000139620000f4565b604051601f8301601f19908116603f01168101908282118183101715620001645762000164620000f4565b816040528381526020925086838588010111156200018157600080fd5b600091505b83821015620001a5578582018301518183018401529082019062000186565b600093810190920192909252949350505050565b600080600060608486031215620001cf57600080fd5b83516001600160401b0380821115620001e757600080fd5b620001f5878388016200010a565b945060208601519150808211156200020c57600080fd5b506200021b868287016200010a565b604086015190935090506001600160a01b03811681146200023b57600080fd5b809150509250925092565b600181811c908216806200025b57607f821691505b6020821081036200027c57634e487b7160e01b600052602260045260246000fd5b50919050565b601f821115620002d057600081815260208120601f850160051c81016020861015620002ab5750805b601f850160051c820191505b81811015620002cc57828155600101620002b7565b5050505b505050565b81516001600160401b03811115620002f157620002f1620000f4565b620003098162000302845462000246565b8462000282565b602080601f831160018114620003415760008415620003285750858301515b600019600386901b1c1916600185901b178555620002cc565b600085815260208120601f198616915b82811015620003725788860151825594840194600190910190840162000351565b5085821015620003915787850151600019600388901b60f8161c191681555b5050505050600190811b01905550565b61224b80620003b16000396000f3fe608060405234801561001057600080fd5b50600436106101375760003560e01c806370a08231116100b8578063b88d4fde1161007c578063b88d4fde14610271578063c87b56dd14610284578063ce07536214610297578063e985e9c5146102aa578063f2fde38b146102bd578063fca3b5aa146102d057600080fd5b806370a082311461022a578063715018a61461023d5780638da5cb5b1461024557806395d89b4114610256578063a22cb4651461025e57600080fd5b806318160ddd116100ff57806318160ddd146101cc57806319c5df43146101de57806323b872dd146101f157806342842e0e146102045780636352211e1461021757600080fd5b806301ffc9a71461013c57806306fdde03146101645780630754617214610179578063081812fc146101a4578063095ea7b3146101b7575b600080fd5b61014f61014a366004611810565b6102e3565b60405190151581526020015b60405180910390f35b61016c61030e565b60405161015b919061187d565b60095461018c906001600160a01b031681565b6040516001600160a01b03909116815260200161015b565b61018c6101b2366004611890565b6103a0565b6101ca6101c53660046118c5565b6103c7565b005b6008545b60405190815260200161015b565b6101ca6101ec3660046118c5565b6104e1565b6101ca6101ff3660046118ef565b61059e565b6101ca6102123660046118ef565b6105cf565b61018c610225366004611890565b6105ea565b6101d061023836600461192b565b61064a565b6101ca6106d0565b6007546001600160a01b031661018c565b61016c6106e4565b6101ca61026c366004611946565b6106f3565b6101ca61027f366004611998565b610702565b61016c610292366004611890565b61073a565b6101ca6102a53660046118c5565b61084a565b61014f6102b8366004611a74565b6108fc565b6101ca6102cb36600461192b565b61092a565b6101ca6102de36600461192b565b6109a3565b60006001600160e01b03198216632483248360e11b1480610308575061030882610a08565b92915050565b60606000805461031d90611aa7565b80601f016020809104026020016040519081016040528092919081815260200182805461034990611aa7565b80156103965780601f1061036b57610100808354040283529160200191610396565b820191906000526020600020905b81548152906001019060200180831161037957829003601f168201915b5050505050905090565b60006103ab82610a58565b506000908152600460205260409020546001600160a01b031690565b60006103d2826105ea565b9050806001600160a01b0316836001600160a01b0316036104445760405162461bcd60e51b815260206004820152602160248201527f4552433732313a20617070726f76616c20746f2063757272656e74206f776e656044820152603960f91b60648201526084015b60405180910390fd5b336001600160a01b0382161480610460575061046081336108fc565b6104d25760405162461bcd60e51b815260206004820152603d60248201527f4552433732313a20617070726f76652063616c6c6572206973206e6f7420746f60448201527f6b656e206f776e6572206f7220617070726f76656420666f7220616c6c000000606482015260840161043b565b6104dc8383610ab7565b505050565b6008546104ee8382610b25565b6000610525834260405180604001604052806012815260200171109d5c9b88151bdad95b8814995c5d595cdd60721b815250610cb0565b9050600061053282610cf8565b905061053e8382610d56565b6008805490600061054e83611af7565b9091555050604080518581524260208201526001600160a01b038716917f8e800cce4e0bf26af71bb210013fa090bbf827f69265dfd34b59544b9f52a57a91015b60405180910390a25050505050565b6105a83382610e21565b6105c45760405162461bcd60e51b815260040161043b90611b10565b6104dc838383610e7f565b6104dc83838360405180602001604052806000815250610702565b6000818152600260205260408120546001600160a01b0316806103085760405162461bcd60e51b8152602060048201526018602482015277115490cdcc8c4e881a5b9d985b1a59081d1bdad95b88125160421b604482015260640161043b565b60006001600160a01b0382166106b45760405162461bcd60e51b815260206004820152602960248201527f4552433732313a2061646472657373207a65726f206973206e6f7420612076616044820152683634b21037bbb732b960b91b606482015260840161043b565b506001600160a01b031660009081526003602052604090205490565b6106d8610fe3565b6106e2600061103d565b565b60606001805461031d90611aa7565b6106fe33838361108f565b5050565b61070c3383610e21565b6107285760405162461bcd60e51b815260040161043b90611b10565b6107348484848461115d565b50505050565b606061074582610a58565b6000828152600660205260408120805461075e90611aa7565b80601f016020809104026020016040519081016040528092919081815260200182805461078a90611aa7565b80156107d75780601f106107ac576101008083540402835291602001916107d7565b820191906000526020600020905b8154815290600101906020018083116107ba57829003601f168201915b5050505050905060006107f560408051602081019091526000815290565b90508051600003610807575092915050565b815115610839578082604051602001610821929190611b79565b60405160208183030381529060405292505050919050565b61084284611190565b949350505050565b6008546108578382610b25565b600061088e834260405180604001604052806012815260200171135a5b9d08151bdad95b8814995c5d595cdd60721b815250610cb0565b9050600061089b82610cf8565b90506108a78382610d56565b600880549060006108b783611af7565b9091555050604080518581524260208201526001600160a01b038716917f30c393af19b002c6f3a5996edbabe590b412465e30d645c919bd796293421b51910161058f565b6001600160a01b03918216600090815260056020908152604080832093909416825291909152205460ff1690565b610932610fe3565b6001600160a01b0381166109975760405162461bcd60e51b815260206004820152602660248201527f4f776e61626c653a206e6577206f776e657220697320746865207a65726f206160448201526564647265737360d01b606482015260840161043b565b6109a08161103d565b50565b6109ab610fe3565b6001600160a01b0381166109be57600080fd5b600980546001600160a01b0319166001600160a01b0383169081179091556040517f726b590ef91a8c76ad05bbe91a57ef84605276528f49cd47d787f558a4e755b690600090a250565b60006001600160e01b031982166380ac58cd60e01b1480610a3957506001600160e01b03198216635b5e139f60e01b145b8061030857506301ffc9a760e01b6001600160e01b0319831614610308565b6000818152600260205260409020546001600160a01b03166109a05760405162461bcd60e51b8152602060048201526018602482015277115490cdcc8c4e881a5b9d985b1a59081d1bdad95b88125160421b604482015260640161043b565b600081815260046020526040902080546001600160a01b0319166001600160a01b0384169081179091558190610aec826105ea565b6001600160a01b03167f8c5be1e5ebec7d5bd14f71427d1e84f3dd0314c0f7b2291e5b200ac8c7c3b92560405160405180910390a45050565b6001600160a01b038216610b7b5760405162461bcd60e51b815260206004820181905260248201527f4552433732313a206d696e7420746f20746865207a65726f2061646472657373604482015260640161043b565b6000818152600260205260409020546001600160a01b031615610be05760405162461bcd60e51b815260206004820152601c60248201527f4552433732313a20746f6b656e20616c7265616479206d696e74656400000000604482015260640161043b565b6000818152600260205260409020546001600160a01b031615610c455760405162461bcd60e51b815260206004820152601c60248201527f4552433732313a20746f6b656e20616c7265616479206d696e74656400000000604482015260640161043b565b6001600160a01b038216600081815260036020908152604080832080546001019055848352600290915280822080546001600160a01b0319168417905551839291907fddf252ad1be2c89b69c2b068fc378daa952ba7f163c4a11628f55a4df523b3ef908290a45050565b60606000610cbd846111f4565b9050600083610ccb87611225565b83604051602001610cde93929190611ba8565b60408051808303601f190181529190529695505050505050565b60606000610d0583611327565b604051602001610d159190611e2f565b6040516020818303038152906040529050610d2f81611327565b604051602001610d3f9190611eea565b604051602081830303815290604052915050919050565b6000828152600260205260409020546001600160a01b0316610dd15760405162461bcd60e51b815260206004820152602e60248201527f45524337323155524953746f726167653a2055524920736574206f66206e6f6e60448201526d32bc34b9ba32b73a103a37b5b2b760911b606482015260840161043b565b6000828152600660205260409020610de98282611f7d565b506040518281527ff8e1a15aba9398e019f0b49df1a4fde98ee17ae345cb5f6b5e2c27f5033e8ce79060200160405180910390a15050565b600080610e2d836105ea565b9050806001600160a01b0316846001600160a01b03161480610e545750610e5481856108fc565b806108425750836001600160a01b0316610e6d846103a0565b6001600160a01b031614949350505050565b826001600160a01b0316610e92826105ea565b6001600160a01b031614610eb85760405162461bcd60e51b815260040161043b9061203d565b6001600160a01b038216610f1a5760405162461bcd60e51b8152602060048201526024808201527f4552433732313a207472616e7366657220746f20746865207a65726f206164646044820152637265737360e01b606482015260840161043b565b826001600160a01b0316610f2d826105ea565b6001600160a01b031614610f535760405162461bcd60e51b815260040161043b9061203d565b600081815260046020908152604080832080546001600160a01b03199081169091556001600160a01b0387811680865260038552838620805460001901905590871680865283862080546001019055868652600290945282852080549092168417909155905184937fddf252ad1be2c89b69c2b068fc378daa952ba7f163c4a11628f55a4df523b3ef91a4505050565b6007546001600160a01b031633146106e25760405162461bcd60e51b815260206004820181905260248201527f4f776e61626c653a2063616c6c6572206973206e6f7420746865206f776e6572604482015260640161043b565b600780546001600160a01b038381166001600160a01b0319831681179093556040519116919082907f8be0079c531659141344cd1fd0a4f28419497f9722a3daafe3b4186f6b6457e090600090a35050565b816001600160a01b0316836001600160a01b0316036110f05760405162461bcd60e51b815260206004820152601960248201527f4552433732313a20617070726f766520746f2063616c6c657200000000000000604482015260640161043b565b6001600160a01b03838116600081815260056020908152604080832094871680845294825291829020805460ff191686151590811790915591519182527f17307eab39ab6107e8899845ad3d59bd9653f200f220920489ca2b5937696c31910160405180910390a3505050565b611168848484610e7f565b6111748484848461148c565b6107345760405162461bcd60e51b815260040161043b90612082565b606061119b82610a58565b60006111b260408051602081019091526000815290565b905060008151116111d257604051806020016040528060008152506111ed565b806111dc8461158d565b604051602001610d3f929190611b79565b9392505050565b60606111ff82611620565b60405160200161120f91906120d4565b6040516020818303038152906040529050919050565b60608160000361124c5750506040805180820190915260018152600360fc1b602082015290565b8160005b8115611276578061126081611af7565b915061126f9050600a83612106565b9150611250565b60008167ffffffffffffffff81111561129157611291611982565b6040519080825280601f01601f1916602001820160405280156112bb576020820181803683370190505b5090505b841561084257816112cf8161211a565b92506112de9050600a86612131565b6112e9906030612145565b60f81b8183815181106112fe576112fe612158565b60200101906001600160f81b031916908160001a905350611320600a86612106565b94506112bf565b6060815160000361134657505060408051602081019091526000815290565b60006040518060600160405280604081526020016121d660409139905060006003845160026113759190612145565b61137f9190612106565b61138a90600461216e565b90506000611399826020612145565b67ffffffffffffffff8111156113b1576113b1611982565b6040519080825280601f01601f1916602001820160405280156113db576020820181803683370190505b509050818152600183018586518101602084015b81831015611447576003830192508251603f8160121c168501518253600182019150603f81600c1c168501518253600182019150603f8160061c168501518253600182019150603f81168501518253506001016113ef565b60038951066001811461146157600281146114725761147e565b613d3d60f01b60011983015261147e565b603d60f81b6000198301525b509398975050505050505050565b60006001600160a01b0384163b1561158257604051630a85bd0160e11b81526001600160a01b0385169063150b7a02906114d0903390899088908890600401612185565b6020604051808303816000875af192505050801561150b575060408051601f3d908101601f19168201909252611508918101906121b8565b60015b611568573d808015611539576040519150601f19603f3d011682016040523d82523d6000602084013e61153e565b606091505b5080516000036115605760405162461bcd60e51b815260040161043b90612082565b805181602001fd5b6001600160e01b031916630a85bd0160e11b149050610842565b506001949350505050565b6060600061159a83611722565b600101905060008167ffffffffffffffff8111156115ba576115ba611982565b6040519080825280601f01601f1916602001820160405280156115e4576020820181803683370190505b5090508181016020015b600019016f181899199a1a9b1b9c1cb0b131b232b360811b600a86061a8153600a85049450846115ee57509392505050565b6060816000036116475750506040805180820190915260018152600360fc1b602082015290565b8160005b8115611671578061165b81611af7565b915061166a9050600a83612106565b915061164b565b60008167ffffffffffffffff81111561168c5761168c611982565b6040519080825280601f01601f1916602001820160405280156116b6576020820181803683370190505b5090505b841561084257816116ca8161211a565b92506116d99050600a86612131565b6116e4906030612145565b60f81b8183815181106116f9576116f9612158565b60200101906001600160f81b031916908160001a90535061171b600a86612106565b94506116ba565b60008072184f03e93ff9f4daa797ed6e38ed64bf6a1f0160401b83106117615772184f03e93ff9f4daa797ed6e38ed64bf6a1f0160401b830492506040015b6d04ee2d6d415b85acef8100000000831061178d576d04ee2d6d415b85acef8100000000830492506020015b662386f26fc1000083106117ab57662386f26fc10000830492506010015b6305f5e10083106117c3576305f5e100830492506008015b61271083106117d757612710830492506004015b606483106117e9576064830492506002015b600a83106103085760010192915050565b6001600160e01b0319811681146109a057600080fd5b60006020828403121561182257600080fd5b81356111ed816117fa565b60005b83811015611848578181015183820152602001611830565b50506000910152565b6000815180845261186981602086016020860161182d565b601f01601f19169290920160200192915050565b6020815260006111ed6020830184611851565b6000602082840312156118a257600080fd5b5035919050565b80356001600160a01b03811681146118c057600080fd5b919050565b600080604083850312156118d857600080fd5b6118e1836118a9565b946020939093013593505050565b60008060006060848603121561190457600080fd5b61190d846118a9565b925061191b602085016118a9565b9150604084013590509250925092565b60006020828403121561193d57600080fd5b6111ed826118a9565b6000806040838503121561195957600080fd5b611962836118a9565b91506020830135801515811461197757600080fd5b809150509250929050565b634e487b7160e01b600052604160045260246000fd5b600080600080608085870312156119ae57600080fd5b6119b7856118a9565b93506119c5602086016118a9565b925060408501359150606085013567ffffffffffffffff808211156119e957600080fd5b818701915087601f8301126119fd57600080fd5b813581811115611a0f57611a0f611982565b604051601f8201601f19908116603f01168101908382118183101715611a3757611a37611982565b816040528281528a6020848701011115611a5057600080fd5b82602086016020830137600060208483010152809550505050505092959194509250565b60008060408385031215611a8757600080fd5b611a90836118a9565b9150611a9e602084016118a9565b90509250929050565b600181811c90821680611abb57607f821691505b602082108103611adb57634e487b7160e01b600052602260045260246000fd5b50919050565b634e487b7160e01b600052601160045260246000fd5b600060018201611b0957611b09611ae1565b5060010190565b6020808252602d908201527f4552433732313a2063616c6c6572206973206e6f7420746f6b656e206f776e6560408201526c1c881bdc88185c1c1c9bdd9959609a1b606082015260800190565b60008151611b6f81856020860161182d565b9290920192915050565b60008351611b8b81846020880161182d565b835190830190611b9f81836020880161182d565b01949350505050565b7f3c7376672077696474683d2232303022206865696768743d223230302220786d81527f6c6e733d22687474703a2f2f7777772e77332e6f72672f323030302f737667226020820152601f60f91b60408201527f3c726563742077696474683d223130302522206865696768743d223130302522604182015273103334b6361e913634b3b43a33b930bc9110179f60611b60618201527f3c7465787420783d223530252220793d223330252220646f6d696e616e742d6260758201527f6173656c696e653d226d6964646c652220746578742d616e63686f723d226d696095820152743232363291103337b73a16b9b4bd329e91189b111f60591b60b582015260008451611cbd8160ca85016020890161182d565b611e25611e13611d7b611e0d611dfb611d8e611d7b611d75611d61611cf460ca8b8e0101661e17ba32bc3a1f60c91b815260070190565b7f3c7465787420783d223530252220793d223530252220646f6d696e616e742d6281527f6173656c696e653d226d6964646c652220746578742d616e63686f723d226d696020820152743232363291103337b73a16b9b4bd329e91189b111f60591b604082015260550190565b67020b6b7bab73a1d160c51b815260080190565b8c611b5d565b661e17ba32bc3a1f60c91b815260070190565b7f3c7465787420783d223530252220793d223730252220646f6d696e616e742d6281527f6173656c696e653d226d6964646c652220746578742d616e63686f723d226d696020820152743232363291103337b73a16b9b4bd329e91189b111f60591b604082015260550190565b6502a34b6b29d160d51b815260060190565b87611b5d565b651e17b9bb339f60d11b815260060190565b9695505050505050565b7f7b226e616d65223a2022546f6b656e205265636569707420230000000000000081527f222c20226465736372697074696f6e223a2022416e204e46542077697468206160198201527f6d6f756e7420616e642074696d65222c2022696d616765223a2022646174613a6039820152741a5b5859d94bdcdd99cade1b5b0ed8985cd94d8d0b605a1b605982015260008251611ed181606e85016020870161182d565b61227d60f01b606e939091019283015250607001919050565b7f646174613a6170706c69636174696f6e2f6a736f6e3b6261736536342c000000815260008251611f2281601d85016020870161182d565b91909101601d0192915050565b601f8211156104dc57600081815260208120601f850160051c81016020861015611f565750805b601f850160051c820191505b81811015611f7557828155600101611f62565b505050505050565b815167ffffffffffffffff811115611f9757611f97611982565b611fab81611fa58454611aa7565b84611f2f565b602080601f831160018114611fe05760008415611fc85750858301515b600019600386901b1c1916600185901b178555611f75565b600085815260208120601f198616915b8281101561200f57888601518255948401946001909101908401611ff0565b508582101561202d5787850151600019600388901b60f8161c191681555b5050505050600190811b01905550565b60208082526025908201527f4552433732313a207472616e736665722066726f6d20696e636f72726563742060408201526437bbb732b960d91b606082015260800190565b60208082526032908201527f4552433732313a207472616e7366657220746f206e6f6e20455243373231526560408201527131b2b4bb32b91034b6b83632b6b2b73a32b960711b606082015260800190565b600082516120e681846020870161182d565b9190910192915050565b634e487b7160e01b600052601260045260246000fd5b600082612115576121156120f0565b500490565b60008161212957612129611ae1565b506000190190565b600082612140576121406120f0565b500690565b8082018082111561030857610308611ae1565b634e487b7160e01b600052603260045260246000fd5b808202811582820484141761030857610308611ae1565b6001600160a01b0385811682528416602082015260408101839052608060608201819052600090611e2590830184611851565b6000602082840312156121ca57600080fd5b81516111ed816117fa56fe4142434445464748494a4b4c4d4e4f505152535455565758595a6162636465666768696a6b6c6d6e6f707172737475767778797a303132333435363738392b2fa2646970667358221220442a92c60f0880088ac21c5632f36249a7265a0fbb0ccf2499322c2691b7413064736f6c63430008110033",
    "linkReferences": {}
  },
  "methodIdentifiers": {
    "addBurnRequestNFT(address,uint256)": "19c5df43",
    "addMintRequestNFT(address,uint256)": "ce075362",
    "approve(address,uint256)": "095ea7b3",
    "balanceOf(address)": "70a08231",
    "getApproved(uint256)": "081812fc",
    "isApprovedForAll(address,address)": "e985e9c5",
    "minter()": "07546172",
    "name()": "06fdde03",
    "owner()": "8da5cb5b",
    "ownerOf(uint256)": "6352211e",
    "renounceOwnership()": "715018a6",
    "safeTransferFrom(address,address,uint256)": "42842e0e",
    "safeTransferFrom(address,address,uint256,bytes)": "b88d4fde",
    "setApprovalForAll(address,bool)": "a22cb465",
    "setMinter(address)": "fca3b5aa",
    "supportsInterface(bytes4)": "01ffc9a7",
    "symbol()": "95d89b41",
    "tokenURI(uint256)": "c87b56dd",
    "totalSupply()": "18160ddd",
    "transferFrom(address,address,uint256)": "23b872dd",
    "transferOwnership(address)": "f2fde38b"
  },
  "id": 1
}