{
  "abi": [
    {
      "inputs": [
        {
          "internalType": "string",
          "name": "_name",
          "type": "string"
        },
        {
          "internalType": "string",
          "name": "_symbol",
          "type": "string"
        },
        {
          "internalType": "address",
          "name": "_minter",
          "type": "address"
        }
      ],
      "stateMutability": "nonpayable",
      "type": "constructor"
    },
    {
      "anonymous": false,
      "inputs": [
        {
          "indexed": true,
          "internalType": "address",
          "name": "_userAddress",
          "type": "address"
        },
        {
          "indexed": false,
          "internalType": "uint256",
          "name": "_amount",
          "type": "uint256"
        },
        {
          "indexed": false,
          "internalType": "uint256",
          "name": "_time",
          "type": "uint256"
        }
      ],
      "name": "AddBurnRequestNFT",
      "type": "event"
    },
    {
      "anonymous": false,
      "inputs": [
        {
          "indexed": true,
          "internalType": "address",
          "name": "_userAddress",
          "type": "address"
        },
        {
          "indexed": false,
          "internalType": "uint256",
          "name": "_amount",
          "type": "uint256"
        },
        {
          "indexed": false,
          "internalType": "uint256",
          "name": "_time",
          "type": "uint256"
        }
      ],
      "name": "AddMintRequestNFT",
      "type": "event"
    },
    {
      "anonymous": false,
      "inputs": [
        {
          "indexed": true,
          "internalType": "address",
          "name": "owner",
          "type": "address"
        },
        {
          "indexed": true,
          "internalType": "address",
          "name": "approved",
          "type": "address"
        },
        {
          "indexed": true,
          "internalType": "uint256",
          "name": "tokenId",
          "type": "uint256"
        }
      ],
      "name": "Approval",
      "type": "event"
    },
    {
      "anonymous": false,
      "inputs": [
        {
          "indexed": true,
          "internalType": "address",
          "name": "owner",
          "type": "address"
        },
        {
          "indexed": true,
          "internalType": "address",
          "name": "operator",
          "type": "address"
        },
        {
          "indexed": false,
          "internalType": "bool",
          "name": "approved",
          "type": "bool"
        }
      ],
      "name": "ApprovalForAll",
      "type": "event"
    },
    {
      "anonymous": false,
      "inputs": [
        {
          "indexed": false,
          "internalType": "uint256",
          "name": "_fromTokenId",
          "type": "uint256"
        },
        {
          "indexed": false,
          "internalType": "uint256",
          "name": "_toTokenId",
          "type": "uint256"
        }
      ],
      "name": "BatchMetadataUpdate",
      "type": "event"
    },
    {
      "anonymous": false,
      "inputs": [
        {
          "indexed": false,
          "internalType": "uint256",
          "name": "_tokenId",
          "type": "uint256"
        }
      ],
      "name": "MetadataUpdate",
      "type": "event"
    },
    {
      "anonymous": false,
      "inputs": [
        {
          "indexed": true,
          "internalType": "address",
          "name": "minter",
          "type": "address"
        }
      ],
      "name": "MinterSet",
      "type": "event"
    },
    {
      "anonymous": false,
      "inputs": [
        {
          "indexed": true,
          "internalType": "address",
          "name": "previousOwner",
          "type": "address"
        },
        {
          "indexed": true,
          "internalType": "address",
          "name": "newOwner",
          "type": "address"
        }
      ],
      "name": "OwnershipTransferred",
      "type": "event"
    },
    {
      "anonymous": false,
      "inputs": [
        {
          "indexed": true,
          "internalType": "address",
          "name": "from",
          "type": "address"
        },
        {
          "indexed": true,
          "internalType": "address",
          "name": "to",
          "type": "address"
        },
        {
          "indexed": true,
          "internalType": "uint256",
          "name": "tokenId",
          "type": "uint256"
        }
      ],
      "name": "Transfer",
      "type": "event"
    },
    {
      "inputs": [
        {
          "internalType": "string",
          "name": "_indexName",
          "type": "string"
        },
        {
          "internalType": "address",
          "name": "_userAddress",
          "type": "address"
        },
        {
          "internalType": "uint256",
          "name": "_amount",
          "type": "uint256"
        }
      ],
      "name": "addBurnRequestNFT",
      "outputs": [],
      "stateMutability": "nonpayable",
      "type": "function"
    },
    {
      "inputs": [
        {
          "internalType": "string",
          "name": "_indexName",
          "type": "string"
        },
        {
          "internalType": "address",
          "name": "_userAddress",
          "type": "address"
        },
        {
          "internalType": "uint256",
          "name": "_amount",
          "type": "uint256"
        }
      ],
      "name": "addMintRequestNFT",
      "outputs": [],
      "stateMutability": "nonpayable",
      "type": "function"
    },
    {
      "inputs": [
        {
          "internalType": "address",
          "name": "to",
          "type": "address"
        },
        {
          "internalType": "uint256",
          "name": "tokenId",
          "type": "uint256"
        }
      ],
      "name": "approve",
      "outputs": [],
      "stateMutability": "nonpayable",
      "type": "function"
    },
    {
      "inputs": [
        {
          "internalType": "address",
          "name": "owner",
          "type": "address"
        }
      ],
      "name": "balanceOf",
      "outputs": [
        {
          "internalType": "uint256",
          "name": "",
          "type": "uint256"
        }
      ],
      "stateMutability": "view",
      "type": "function"
    },
    {
      "inputs": [],
      "name": "baseUrl",
      "outputs": [
        {
          "internalType": "string",
          "name": "",
          "type": "string"
        }
      ],
      "stateMutability": "view",
      "type": "function"
    },
    {
      "inputs": [],
      "name": "exampleURL",
      "outputs": [
        {
          "internalType": "string",
          "name": "",
          "type": "string"
        }
      ],
      "stateMutability": "view",
      "type": "function"
    },
    {
      "inputs": [
        {
          "internalType": "string",
          "name": "_indexName",
          "type": "string"
        },
        {
          "internalType": "string",
          "name": "_requestType",
          "type": "string"
        },
        {
          "internalType": "uint256",
          "name": "amount",
          "type": "uint256"
        },
        {
          "internalType": "uint256",
          "name": "_timestamp",
          "type": "uint256"
        }
      ],
      "name": "generateURI",
      "outputs": [
        {
          "internalType": "string",
          "name": "",
          "type": "string"
        }
      ],
      "stateMutability": "view",
      "type": "function"
    },
    {
      "inputs": [
        {
          "internalType": "uint256",
          "name": "tokenId",
          "type": "uint256"
        }
      ],
      "name": "getApproved",
      "outputs": [
        {
          "internalType": "address",
          "name": "",
          "type": "address"
        }
      ],
      "stateMutability": "view",
      "type": "function"
    },
    {
      "inputs": [
        {
          "internalType": "address",
          "name": "owner",
          "type": "address"
        },
        {
          "internalType": "address",
          "name": "operator",
          "type": "address"
        }
      ],
      "name": "isApprovedForAll",
      "outputs": [
        {
          "internalType": "bool",
          "name": "",
          "type": "bool"
        }
      ],
      "stateMutability": "view",
      "type": "function"
    },
    {
      "inputs": [],
      "name": "minter",
      "outputs": [
        {
          "internalType": "address",
          "name": "",
          "type": "address"
        }
      ],
      "stateMutability": "view",
      "type": "function"
    },
    {
      "inputs": [],
      "name": "name",
      "outputs": [
        {
          "internalType": "string",
          "name": "",
          "type": "string"
        }
      ],
      "stateMutability": "view",
      "type": "function"
    },
    {
      "inputs": [],
      "name": "owner",
      "outputs": [
        {
          "internalType": "address",
          "name": "",
          "type": "address"
        }
      ],
      "stateMutability": "view",
      "type": "function"
    },
    {
      "inputs": [
        {
          "internalType": "uint256",
          "name": "tokenId",
          "type": "uint256"
        }
      ],
      "name": "ownerOf",
      "outputs": [
        {
          "internalType": "address",
          "name": "",
          "type": "address"
        }
      ],
      "stateMutability": "view",
      "type": "function"
    },
    {
      "inputs": [],
      "name": "renounceOwnership",
      "outputs": [],
      "stateMutability": "nonpayable",
      "type": "function"
    },
    {
      "inputs": [
        {
          "internalType": "address",
          "name": "from",
          "type": "address"
        },
        {
          "internalType": "address",
          "name": "to",
          "type": "address"
        },
        {
          "internalType": "uint256",
          "name": "tokenId",
          "type": "uint256"
        }
      ],
      "name": "safeTransferFrom",
      "outputs": [],
      "stateMutability": "nonpayable",
      "type": "function"
    },
    {
      "inputs": [
        {
          "internalType": "address",
          "name": "from",
          "type": "address"
        },
        {
          "internalType": "address",
          "name": "to",
          "type": "address"
        },
        {
          "internalType": "uint256",
          "name": "tokenId",
          "type": "uint256"
        },
        {
          "internalType": "bytes",
          "name": "data",
          "type": "bytes"
        }
      ],
      "name": "safeTransferFrom",
      "outputs": [],
      "stateMutability": "nonpayable",
      "type": "function"
    },
    {
      "inputs": [
        {
          "internalType": "address",
          "name": "operator",
          "type": "address"
        },
        {
          "internalType": "bool",
          "name": "approved",
          "type": "bool"
        }
      ],
      "name": "setApprovalForAll",
      "outputs": [],
      "stateMutability": "nonpayable",
      "type": "function"
    },
    {
      "inputs": [
        {
          "internalType": "address",
          "name": "_minter",
          "type": "address"
        }
      ],
      "name": "setMinter",
      "outputs": [],
      "stateMutability": "nonpayable",
      "type": "function"
    },
    {
      "inputs": [
        {
          "internalType": "bytes4",
          "name": "interfaceId",
          "type": "bytes4"
        }
      ],
      "name": "supportsInterface",
      "outputs": [
        {
          "internalType": "bool",
          "name": "",
          "type": "bool"
        }
      ],
      "stateMutability": "view",
      "type": "function"
    },
    {
      "inputs": [],
      "name": "symbol",
      "outputs": [
        {
          "internalType": "string",
          "name": "",
          "type": "string"
        }
      ],
      "stateMutability": "view",
      "type": "function"
    },
    {
      "inputs": [
        {
          "internalType": "uint256",
          "name": "tokenId",
          "type": "uint256"
        }
      ],
      "name": "tokenURI",
      "outputs": [
        {
          "internalType": "string",
          "name": "",
          "type": "string"
        }
      ],
      "stateMutability": "view",
      "type": "function"
    },
    {
      "inputs": [],
      "name": "totalSupply",
      "outputs": [
        {
          "internalType": "uint256",
          "name": "",
          "type": "uint256"
        }
      ],
      "stateMutability": "view",
      "type": "function"
    },
    {
      "inputs": [
        {
          "internalType": "address",
          "name": "from",
          "type": "address"
        },
        {
          "internalType": "address",
          "name": "to",
          "type": "address"
        },
        {
          "internalType": "uint256",
          "name": "tokenId",
          "type": "uint256"
        }
      ],
      "name": "transferFrom",
      "outputs": [],
      "stateMutability": "nonpayable",
      "type": "function"
    },
    {
      "inputs": [
        {
          "internalType": "address",
          "name": "newOwner",
          "type": "address"
        }
      ],
      "name": "transferOwnership",
      "outputs": [],
      "stateMutability": "nonpayable",
      "type": "function"
    }
  ],
  "bytecode": {
    "object": "0x610100604052605c608081815290620025c760a03980516200002a91600a916020909101906200015c565b50604051806060016040528060338152602001620026236033913980516200005b91600b916020909101906200015c565b503480156200006957600080fd5b5060405162002656380380620026568339810160408190526200008c91620002b9565b825183908390620000a59060009060208501906200015c565b508051620000bb9060019060208401906200015c565b505050620000d8620000d26200010660201b60201c565b6200010a565b6001600855600980546001600160a01b0319166001600160a01b039290921691909117905550620003999050565b3390565b600780546001600160a01b038381166001600160a01b0319831681179093556040519116919082907f8be0079c531659141344cd1fd0a4f28419497f9722a3daafe3b4186f6b6457e090600090a35050565b8280546200016a9062000346565b90600052602060002090601f0160209004810192826200018e5760008555620001d9565b82601f10620001a957805160ff1916838001178555620001d9565b82800160010185558215620001d9579182015b82811115620001d9578251825591602001919060010190620001bc565b50620001e7929150620001eb565b5090565b5b80821115620001e75760008155600101620001ec565b600082601f8301126200021457600080fd5b81516001600160401b038082111562000231576200023162000383565b604051601f8301601f19908116603f011681019082821181831017156200025c576200025c62000383565b816040528381526020925086838588010111156200027957600080fd5b600091505b838210156200029d57858201830151818301840152908201906200027e565b83821115620002af5760008385830101525b9695505050505050565b600080600060608486031215620002cf57600080fd5b83516001600160401b0380821115620002e757600080fd5b620002f58783880162000202565b945060208601519150808211156200030c57600080fd5b506200031b8682870162000202565b604086015190935090506001600160a01b03811681146200033b57600080fd5b809150509250925092565b600181811c908216806200035b57607f821691505b602082108114156200037d57634e487b7160e01b600052602260045260246000fd5b50919050565b634e487b7160e01b600052604160045260246000fd5b61221e80620003a96000396000f3fe608060405234801561001057600080fd5b50600436106101585760003560e01c80636352211e116100c3578063b88d4fde1161007c578063b88d4fde146102b5578063c87b56dd146102c8578063d7c63ed1146102db578063e985e9c5146102ee578063f2fde38b1461032a578063fca3b5aa1461033d57600080fd5b80636352211e1461025b57806370a082311461026e578063715018a6146102815780638da5cb5b1461028957806395d89b411461029a578063a22cb465146102a257600080fd5b80630ab3862c116101155780630ab3862c1461020057806318160ddd1461020857806323b872dd1461021a57806342842e0e1461022d57806359a4326d146102405780635bcabf041461025357600080fd5b806301ffc9a71461015d57806304d131af1461018557806306fdde03146101a557806307546172146101ad578063081812fc146101d8578063095ea7b3146101eb575b600080fd5b61017061016b366004611b87565b610350565b60405190151581526020015b60405180910390f35b610198610193366004611c08565b61037b565b60405161017c9190611f4b565b6101986103c7565b6009546101c0906001600160a01b031681565b6040516001600160a01b03909116815260200161017c565b6101c06101e6366004611c7c565b610459565b6101fe6101f9366004611b5d565b610480565b005b61019861059b565b6008545b60405190815260200161017c565b6101fe610228366004611a69565b610629565b6101fe61023b366004611a69565b61065a565b6101fe61024e366004611bc1565b610675565b610198610718565b6101c0610269366004611c7c565b610725565b61020c61027c366004611a1b565b610785565b6101fe61080b565b6007546001600160a01b03166101c0565b61019861081f565b6101fe6102b0366004611b21565b61082e565b6101fe6102c3366004611aa5565b61083d565b6101986102d6366004611c7c565b610875565b6101fe6102e9366004611bc1565b61097e565b6101706102fc366004611a36565b6001600160a01b03918216600090815260056020908152604080832093909416825291909152205460ff1690565b6101fe610338366004611a1b565b610a16565b6101fe61034b366004611a1b565b610a8f565b60006001600160e01b03198216632483248360e11b1480610375575061037582610af4565b92915050565b6060600061038883610b44565b9050600b8561039686610b75565b83896040516020016103ac959493929190611d28565b6040516020818303038152906040529150505b949350505050565b6060600080546103d6906120d0565b80601f0160208091040260200160405190810160405280929190818152602001828054610402906120d0565b801561044f5780601f106104245761010080835404028352916020019161044f565b820191906000526020600020905b81548152906001019060200180831161043257829003601f168201915b5050505050905090565b600061046482610c74565b506000908152600460205260409020546001600160a01b031690565b600061048b82610725565b9050806001600160a01b0316836001600160a01b031614156104fe5760405162461bcd60e51b815260206004820152602160248201527f4552433732313a20617070726f76616c20746f2063757272656e74206f776e656044820152603960f91b60648201526084015b60405180910390fd5b336001600160a01b038216148061051a575061051a81336102fc565b61058c5760405162461bcd60e51b815260206004820152603d60248201527f4552433732313a20617070726f76652063616c6c6572206973206e6f7420746f60448201527f6b656e206f776e6572206f7220617070726f76656420666f7220616c6c00000060648201526084016104f5565b6105968383610cd3565b505050565b600a80546105a8906120d0565b80601f01602080910402602001604051908101604052809291908181526020018280546105d4906120d0565b80156106215780601f106105f657610100808354040283529160200191610621565b820191906000526020600020905b81548152906001019060200180831161060457829003601f168201915b505050505081565b6106333382610d41565b61064f5760405162461bcd60e51b81526004016104f590611f5e565b610596838383610dbf565b6105968383836040518060200160405280600081525061083d565b6008546106828382610f23565b60006106ac858442604051806040016040528060048152602001631b5a5b9d60e21b8152506110ae565b90506106b882826110f8565b600880549060006106c88361210b565b9091555050604080518481524260208201526001600160a01b038616917f30c393af19b002c6f3a5996edbabe590b412465e30d645c919bd796293421b5191015b60405180910390a25050505050565b600b80546105a8906120d0565b6000818152600260205260408120546001600160a01b0316806103755760405162461bcd60e51b8152602060048201526018602482015277115490cdcc8c4e881a5b9d985b1a59081d1bdad95b88125160421b60448201526064016104f5565b60006001600160a01b0382166107ef5760405162461bcd60e51b815260206004820152602960248201527f4552433732313a2061646472657373207a65726f206973206e6f7420612076616044820152683634b21037bbb732b960b91b60648201526084016104f5565b506001600160a01b031660009081526003602052604090205490565b6108136111ca565b61081d6000611224565b565b6060600180546103d6906120d0565b610839338383611276565b5050565b6108473383610d41565b6108635760405162461bcd60e51b81526004016104f590611f5e565b61086f84848484611345565b50505050565b606061088082610c74565b60008281526006602052604081208054610899906120d0565b80601f01602080910402602001604051908101604052809291908181526020018280546108c5906120d0565b80156109125780601f106108e757610100808354040283529160200191610912565b820191906000526020600020905b8154815290600101906020018083116108f557829003601f168201915b50505050509050600061093060408051602081019091526000815290565b9050805160001415610943575092915050565b81511561097557808260405160200161095d929190611cdd565b60405160208183030381529060405292505050919050565b6103bf84611378565b60085461098b8382610f23565b60006109b585844260405180604001604052806004815260200163313ab93760e11b8152506110ae565b90506109c182826110f8565b600880549060006109d18361210b565b9091555050604080518481524260208201526001600160a01b038616917f8e800cce4e0bf26af71bb210013fa090bbf827f69265dfd34b59544b9f52a57a9101610709565b610a1e6111ca565b6001600160a01b038116610a835760405162461bcd60e51b815260206004820152602660248201527f4f776e61626c653a206e6577206f776e657220697320746865207a65726f206160448201526564647265737360d01b60648201526084016104f5565b610a8c81611224565b50565b610a976111ca565b6001600160a01b038116610aaa57600080fd5b600980546001600160a01b0319166001600160a01b0383169081179091556040517f726b590ef91a8c76ad05bbe91a57ef84605276528f49cd47d787f558a4e755b690600090a250565b60006001600160e01b031982166380ac58cd60e01b1480610b2557506001600160e01b03198216635b5e139f60e01b145b8061037557506301ffc9a760e01b6001600160e01b0319831614610375565b6060610b4f826113ec565b604051602001610b5f9190611d0c565b6040516020818303038152906040529050919050565b606081610b995750506040805180820190915260018152600360fc1b602082015290565b8160005b8115610bc35780610bad8161210b565b9150610bbc9050600a8361205a565b9150610b9d565b60008167ffffffffffffffff811115610bde57610bde61217c565b6040519080825280601f01601f191660200182016040528015610c08576020820181803683370190505b5090505b84156103bf5781610c1c816120b9565b9250610c2b9050600a86612126565b610c36906030612042565b60f81b818381518110610c4b57610c4b612166565b60200101906001600160f81b031916908160001a905350610c6d600a8661205a565b9450610c0c565b6000818152600260205260409020546001600160a01b0316610a8c5760405162461bcd60e51b8152602060048201526018602482015277115490cdcc8c4e881a5b9d985b1a59081d1bdad95b88125160421b60448201526064016104f5565b600081815260046020526040902080546001600160a01b0319166001600160a01b0384169081179091558190610d0882610725565b6001600160a01b03167f8c5be1e5ebec7d5bd14f71427d1e84f3dd0314c0f7b2291e5b200ac8c7c3b92560405160405180910390a45050565b600080610d4d83610725565b9050806001600160a01b0316846001600160a01b03161480610d9457506001600160a01b0380821660009081526005602090815260408083209388168352929052205460ff165b806103bf5750836001600160a01b0316610dad84610459565b6001600160a01b031614949350505050565b826001600160a01b0316610dd282610725565b6001600160a01b031614610df85760405162461bcd60e51b81526004016104f590611ffd565b6001600160a01b038216610e5a5760405162461bcd60e51b8152602060048201526024808201527f4552433732313a207472616e7366657220746f20746865207a65726f206164646044820152637265737360e01b60648201526084016104f5565b826001600160a01b0316610e6d82610725565b6001600160a01b031614610e935760405162461bcd60e51b81526004016104f590611ffd565b600081815260046020908152604080832080546001600160a01b03199081169091556001600160a01b0387811680865260038552838620805460001901905590871680865283862080546001019055868652600290945282852080549092168417909155905184937fddf252ad1be2c89b69c2b068fc378daa952ba7f163c4a11628f55a4df523b3ef91a4505050565b6001600160a01b038216610f795760405162461bcd60e51b815260206004820181905260248201527f4552433732313a206d696e7420746f20746865207a65726f206164647265737360448201526064016104f5565b6000818152600260205260409020546001600160a01b031615610fde5760405162461bcd60e51b815260206004820152601c60248201527f4552433732313a20746f6b656e20616c7265616479206d696e7465640000000060448201526064016104f5565b6000818152600260205260409020546001600160a01b0316156110435760405162461bcd60e51b815260206004820152601c60248201527f4552433732313a20746f6b656e20616c7265616479206d696e7465640000000060448201526064016104f5565b6001600160a01b038216600081815260036020908152604080832080546001019055848352600290915280822080546001600160a01b0319168417905551839291907fddf252ad1be2c89b69c2b068fc378daa952ba7f163c4a11628f55a4df523b3ef908290a45050565b606060006110be8684878761037b565b90506110e8816040516020016110d49190611e78565b6040516020818303038152906040526114eb565b6040516020016103ac9190611e33565b6000828152600260205260409020546001600160a01b03166111735760405162461bcd60e51b815260206004820152602e60248201527f45524337323155524953746f726167653a2055524920736574206f66206e6f6e60448201526d32bc34b9ba32b73a103a37b5b2b760911b60648201526084016104f5565b60008281526006602090815260409091208251611192928401906118d0565b506040518281527ff8e1a15aba9398e019f0b49df1a4fde98ee17ae345cb5f6b5e2c27f5033e8ce79060200160405180910390a15050565b6007546001600160a01b0316331461081d5760405162461bcd60e51b815260206004820181905260248201527f4f776e61626c653a2063616c6c6572206973206e6f7420746865206f776e657260448201526064016104f5565b600780546001600160a01b038381166001600160a01b0319831681179093556040519116919082907f8be0079c531659141344cd1fd0a4f28419497f9722a3daafe3b4186f6b6457e090600090a35050565b816001600160a01b0316836001600160a01b031614156112d85760405162461bcd60e51b815260206004820152601960248201527f4552433732313a20617070726f766520746f2063616c6c65720000000000000060448201526064016104f5565b6001600160a01b03838116600081815260056020908152604080832094871680845294825291829020805460ff191686151590811790915591519182527f17307eab39ab6107e8899845ad3d59bd9653f200f220920489ca2b5937696c31910160405180910390a3505050565b611350848484610dbf565b61135c84848484611651565b61086f5760405162461bcd60e51b81526004016104f590611fab565b606061138382610c74565b600061139a60408051602081019091526000815290565b905060008151116113ba57604051806020016040528060008152506113e5565b806113c48461175b565b6040516020016113d5929190611cdd565b6040516020818303038152906040525b9392505050565b6060816114105750506040805180820190915260018152600360fc1b602082015290565b8160005b811561143a57806114248161210b565b91506114339050600a8361205a565b9150611414565b60008167ffffffffffffffff8111156114555761145561217c565b6040519080825280601f01601f19166020018201604052801561147f576020820181803683370190505b5090505b84156103bf5781611493816120b9565b92506114a29050600a86612126565b6114ad906030612042565b60f81b8183815181106114c2576114c2612166565b60200101906001600160f81b031916908160001a9053506114e4600a8661205a565b9450611483565b606081516000141561150b57505060408051602081019091526000815290565b60006040518060600160405280604081526020016121a9604091399050600060038451600261153a9190612042565b611544919061205a565b61154f90600461206e565b9050600061155e826020612042565b67ffffffffffffffff8111156115765761157661217c565b6040519080825280601f01601f1916602001820160405280156115a0576020820181803683370190505b509050818152600183018586518101602084015b8183101561160c576003830192508251603f8160121c168501518253600182019150603f81600c1c168501518253600182019150603f8160061c168501518253600182019150603f81168501518253506001016115b4565b600389510660018114611626576002811461163757611643565b613d3d60f01b600119830152611643565b603d60f81b6000198301525b509398975050505050505050565b60006001600160a01b0384163b1561175357604051630a85bd0160e11b81526001600160a01b0385169063150b7a0290611695903390899088908890600401611f0e565b602060405180830381600087803b1580156116af57600080fd5b505af19250505080156116df575060408051601f3d908101601f191682019092526116dc91810190611ba4565b60015b611739573d80801561170d576040519150601f19603f3d011682016040523d82523d6000602084013e611712565b606091505b5080516117315760405162461bcd60e51b81526004016104f590611fab565b805181602001fd5b6001600160e01b031916630a85bd0160e11b1490506103bf565b5060016103bf565b60606000611768836117f8565b600101905060008167ffffffffffffffff8111156117885761178861217c565b6040519080825280601f01601f1916602001820160405280156117b2576020820181803683370190505b5090508181016020015b600019016f181899199a1a9b1b9c1cb0b131b232b360811b600a86061a8153600a85049450846117eb576117f0565b6117bc565b509392505050565b60008072184f03e93ff9f4daa797ed6e38ed64bf6a1f0160401b83106118375772184f03e93ff9f4daa797ed6e38ed64bf6a1f0160401b830492506040015b6d04ee2d6d415b85acef81000000008310611863576d04ee2d6d415b85acef8100000000830492506020015b662386f26fc10000831061188157662386f26fc10000830492506010015b6305f5e1008310611899576305f5e100830492506008015b61271083106118ad57612710830492506004015b606483106118bf576064830492506002015b600a83106103755760010192915050565b8280546118dc906120d0565b90600052602060002090601f0160209004810192826118fe5760008555611944565b82601f1061191757805160ff1916838001178555611944565b82800160010185558215611944579182015b82811115611944578251825591602001919060010190611929565b50611950929150611954565b5090565b5b808211156119505760008155600101611955565b600067ffffffffffffffff808411156119845761198461217c565b604051601f8501601f19908116603f011681019082821181831017156119ac576119ac61217c565b816040528093508581528686860111156119c557600080fd5b858560208301376000602087830101525050509392505050565b80356001600160a01b03811681146119f657600080fd5b919050565b600082601f830112611a0c57600080fd5b6113e583833560208501611969565b600060208284031215611a2d57600080fd5b6113e5826119df565b60008060408385031215611a4957600080fd5b611a52836119df565b9150611a60602084016119df565b90509250929050565b600080600060608486031215611a7e57600080fd5b611a87846119df565b9250611a95602085016119df565b9150604084013590509250925092565b60008060008060808587031215611abb57600080fd5b611ac4856119df565b9350611ad2602086016119df565b925060408501359150606085013567ffffffffffffffff811115611af557600080fd5b8501601f81018713611b0657600080fd5b611b1587823560208401611969565b91505092959194509250565b60008060408385031215611b3457600080fd5b611b3d836119df565b915060208301358015158114611b5257600080fd5b809150509250929050565b60008060408385031215611b7057600080fd5b611b79836119df565b946020939093013593505050565b600060208284031215611b9957600080fd5b81356113e581612192565b600060208284031215611bb657600080fd5b81516113e581612192565b600080600060608486031215611bd657600080fd5b833567ffffffffffffffff811115611bed57600080fd5b611bf9868287016119fb565b935050611a95602085016119df565b60008060008060808587031215611c1e57600080fd5b843567ffffffffffffffff80821115611c3657600080fd5b611c42888389016119fb565b95506020870135915080821115611c5857600080fd5b50611c65878288016119fb565b949794965050505060408301359260600135919050565b600060208284031215611c8e57600080fd5b5035919050565b60008151808452611cad81602086016020860161208d565b601f01601f19169290920160200192915050565b60008151611cd381856020860161208d565b9290920192915050565b60008351611cef81846020880161208d565b835190830190611d0381836020880161208d565b01949350505050565b60008251611d1e81846020870161208d565b9190910192915050565b600080875481600182811c915080831680611d4457607f831692505b6020808410821415611d6457634e487b7160e01b86526022600452602486fd5b818015611d785760018114611d8957611db6565b60ff19861689528489019650611db6565b60008e81526020902060005b86811015611dae5781548b820152908501908301611d95565b505084890196505b505050505050611e27611e21611e0a611e04611df2611dec611dd8878e611cc1565b6726616d6f756e743d60c01b815260080190565b8b611cc1565b652674696d653d60d01b815260060190565b88611cc1565b6a26696e6465784e616d653d60a81b8152600b0190565b85611cc1565b98975050505050505050565b7f646174613a6170706c69636174696f6e2f6a736f6e3b6261736536342c000000815260008251611e6b81601d85016020870161208d565b91909101601d0192915050565b7f7b226e616d65223a2244796e616d6963204e4654222c2022646573637269707481527f696f6e223a2244796e616d6963204e46542054657374222c200000000000000060208201526801134b6b0b3b2911d160bd1b60398201526000601160f91b8060428401528351611ef381604386016020880161208d565b604393019283015250607d60f81b6044820152604501919050565b6001600160a01b0385811682528416602082015260408101839052608060608201819052600090611f4190830184611c95565b9695505050505050565b6020815260006113e56020830184611c95565b6020808252602d908201527f4552433732313a2063616c6c6572206973206e6f7420746f6b656e206f776e6560408201526c1c881bdc88185c1c1c9bdd9959609a1b606082015260800190565b60208082526032908201527f4552433732313a207472616e7366657220746f206e6f6e20455243373231526560408201527131b2b4bb32b91034b6b83632b6b2b73a32b960711b606082015260800190565b60208082526025908201527f4552433732313a207472616e736665722066726f6d20696e636f72726563742060408201526437bbb732b960d91b606082015260800190565b600082198211156120555761205561213a565b500190565b60008261206957612069612150565b500490565b60008160001904831182151516156120885761208861213a565b500290565b60005b838110156120a8578181015183820152602001612090565b8381111561086f5750506000910152565b6000816120c8576120c861213a565b506000190190565b600181811c908216806120e457607f821691505b6020821081141561210557634e487b7160e01b600052602260045260246000fd5b50919050565b600060001982141561211f5761211f61213a565b5060010190565b60008261213557612135612150565b500690565b634e487b7160e01b600052601160045260246000fd5b634e487b7160e01b600052601260045260246000fd5b634e487b7160e01b600052603260045260246000fd5b634e487b7160e01b600052604160045260246000fd5b6001600160e01b031981168114610a8c57600080fdfe4142434445464748494a4b4c4d4e4f505152535455565758595a6162636465666768696a6b6c6d6e6f707172737475767778797a303132333435363738392b2fa2646970667358221220bcdba6466ba4ccb5f3618b826abbecb56addccede19827107ef304996eabaa7064736f6c6343000807003368747470733a2f2f646170702d73706f742d696e6465782e76657263656c2e6170702f6170692f6765744e46543f747970653d6d696e7426616d6f756e743d31303030303030303030303030303030302674696d653d33353335333568747470733a2f2f646170702d73706f742d696e6465782e76657263656c2e6170702f6170692f6765744e46543f747970653d",
    "linkReferences": {}
  },
  "methodIdentifiers": {
    "addBurnRequestNFT(string,address,uint256)": "d7c63ed1",
    "addMintRequestNFT(string,address,uint256)": "59a4326d",
    "approve(address,uint256)": "095ea7b3",
    "balanceOf(address)": "70a08231",
    "baseUrl()": "5bcabf04",
    "exampleURL()": "0ab3862c",
    "generateURI(string,string,uint256,uint256)": "04d131af",
    "getApproved(uint256)": "081812fc",
    "isApprovedForAll(address,address)": "e985e9c5",
    "minter()": "07546172",
    "name()": "06fdde03",
    "owner()": "8da5cb5b",
    "ownerOf(uint256)": "6352211e",
    "renounceOwnership()": "715018a6",
    "safeTransferFrom(address,address,uint256)": "42842e0e",
    "safeTransferFrom(address,address,uint256,bytes)": "b88d4fde",
    "setApprovalForAll(address,bool)": "a22cb465",
    "setMinter(address)": "fca3b5aa",
    "supportsInterface(bytes4)": "01ffc9a7",
    "symbol()": "95d89b41",
    "tokenURI(uint256)": "c87b56dd",
    "totalSupply()": "18160ddd",
    "transferFrom(address,address,uint256)": "23b872dd",
    "transferOwnership(address)": "f2fde38b"
  },
  "id": 11
}