{
  "abi": [
    {
      "inputs": [],
      "stateMutability": "nonpayable",
      "type": "constructor"
    },
    {
      "anonymous": false,
      "inputs": [
        {
          "indexed": true,
          "internalType": "address",
          "name": "owner",
          "type": "address"
        },
        {
          "indexed": true,
          "internalType": "address",
          "name": "spender",
          "type": "address"
        },
        {
          "indexed": false,
          "internalType": "uint256",
          "name": "value",
          "type": "uint256"
        }
      ],
      "name": "Approval",
      "type": "event"
    },
    {
      "anonymous": false,
      "inputs": [
        {
          "indexed": true,
          "internalType": "address",
          "name": "from",
          "type": "address"
        },
        {
          "indexed": true,
          "internalType": "address",
          "name": "to",
          "type": "address"
        },
        {
          "indexed": false,
          "internalType": "uint256",
          "name": "value",
          "type": "uint256"
        },
        {
          "indexed": false,
          "internalType": "bytes",
          "name": "data",
          "type": "bytes"
        }
      ],
      "name": "Transfer",
      "type": "event"
    },
    {
      "anonymous": false,
      "inputs": [
        {
          "indexed": true,
          "internalType": "address",
          "name": "from",
          "type": "address"
        },
        {
          "indexed": true,
          "internalType": "address",
          "name": "to",
          "type": "address"
        },
        {
          "indexed": false,
          "internalType": "uint256",
          "name": "value",
          "type": "uint256"
        }
      ],
      "name": "Transfer",
      "type": "event"
    },
    {
      "inputs": [
        {
          "internalType": "address",
          "name": "owner",
          "type": "address"
        },
        {
          "internalType": "address",
          "name": "spender",
          "type": "address"
        }
      ],
      "name": "allowance",
      "outputs": [
        {
          "internalType": "uint256",
          "name": "",
          "type": "uint256"
        }
      ],
      "stateMutability": "view",
      "type": "function"
    },
    {
      "inputs": [
        {
          "internalType": "address",
          "name": "spender",
          "type": "address"
        },
        {
          "internalType": "uint256",
          "name": "amount",
          "type": "uint256"
        }
      ],
      "name": "approve",
      "outputs": [
        {
          "internalType": "bool",
          "name": "",
          "type": "bool"
        }
      ],
      "stateMutability": "nonpayable",
      "type": "function"
    },
    {
      "inputs": [
        {
          "internalType": "address",
          "name": "account",
          "type": "address"
        }
      ],
      "name": "balanceOf",
      "outputs": [
        {
          "internalType": "uint256",
          "name": "",
          "type": "uint256"
        }
      ],
      "stateMutability": "view",
      "type": "function"
    },
    {
      "inputs": [],
      "name": "decimals",
      "outputs": [
        {
          "internalType": "uint8",
          "name": "",
          "type": "uint8"
        }
      ],
      "stateMutability": "view",
      "type": "function"
    },
    {
      "inputs": [
        {
          "internalType": "address",
          "name": "spender",
          "type": "address"
        },
        {
          "internalType": "uint256",
          "name": "subtractedValue",
          "type": "uint256"
        }
      ],
      "name": "decreaseAllowance",
      "outputs": [
        {
          "internalType": "bool",
          "name": "",
          "type": "bool"
        }
      ],
      "stateMutability": "nonpayable",
      "type": "function"
    },
    {
      "inputs": [
        {
          "internalType": "address",
          "name": "spender",
          "type": "address"
        },
        {
          "internalType": "uint256",
          "name": "subtractedValue",
          "type": "uint256"
        }
      ],
      "name": "decreaseApproval",
      "outputs": [
        {
          "internalType": "bool",
          "name": "",
          "type": "bool"
        }
      ],
      "stateMutability": "nonpayable",
      "type": "function"
    },
    {
      "inputs": [
        {
          "internalType": "address",
          "name": "spender",
          "type": "address"
        },
        {
          "internalType": "uint256",
          "name": "addedValue",
          "type": "uint256"
        }
      ],
      "name": "increaseAllowance",
      "outputs": [
        {
          "internalType": "bool",
          "name": "",
          "type": "bool"
        }
      ],
      "stateMutability": "nonpayable",
      "type": "function"
    },
    {
      "inputs": [
        {
          "internalType": "address",
          "name": "spender",
          "type": "address"
        },
        {
          "internalType": "uint256",
          "name": "addedValue",
          "type": "uint256"
        }
      ],
      "name": "increaseApproval",
      "outputs": [
        {
          "internalType": "bool",
          "name": "",
          "type": "bool"
        }
      ],
      "stateMutability": "nonpayable",
      "type": "function"
    },
    {
      "inputs": [],
      "name": "name",
      "outputs": [
        {
          "internalType": "string",
          "name": "",
          "type": "string"
        }
      ],
      "stateMutability": "view",
      "type": "function"
    },
    {
      "inputs": [],
      "name": "symbol",
      "outputs": [
        {
          "internalType": "string",
          "name": "",
          "type": "string"
        }
      ],
      "stateMutability": "view",
      "type": "function"
    },
    {
      "inputs": [],
      "name": "totalSupply",
      "outputs": [
        {
          "internalType": "uint256",
          "name": "",
          "type": "uint256"
        }
      ],
      "stateMutability": "view",
      "type": "function"
    },
    {
      "inputs": [
        {
          "internalType": "address",
          "name": "to",
          "type": "address"
        },
        {
          "internalType": "uint256",
          "name": "amount",
          "type": "uint256"
        }
      ],
      "name": "transfer",
      "outputs": [
        {
          "internalType": "bool",
          "name": "",
          "type": "bool"
        }
      ],
      "stateMutability": "nonpayable",
      "type": "function"
    },
    {
      "inputs": [
        {
          "internalType": "address",
          "name": "_to",
          "type": "address"
        },
        {
          "internalType": "uint256",
          "name": "_value",
          "type": "uint256"
        },
        {
          "internalType": "bytes",
          "name": "_data",
          "type": "bytes"
        }
      ],
      "name": "transferAndCall",
      "outputs": [
        {
          "internalType": "bool",
          "name": "success",
          "type": "bool"
        }
      ],
      "stateMutability": "nonpayable",
      "type": "function"
    },
    {
      "inputs": [
        {
          "internalType": "address",
          "name": "from",
          "type": "address"
        },
        {
          "internalType": "address",
          "name": "to",
          "type": "address"
        },
        {
          "internalType": "uint256",
          "name": "amount",
          "type": "uint256"
        }
      ],
      "name": "transferFrom",
      "outputs": [
        {
          "internalType": "bool",
          "name": "",
          "type": "bool"
        }
      ],
      "stateMutability": "nonpayable",
      "type": "function"
    }
  ],
  "bytecode": {
    "object": "0x60806040523480156200001157600080fd5b50604080518082018252600f81526e21b430b4b72634b735902a37b5b2b760891b6020808301918252835180850190945260048452634c494e4b60e01b90840152815191929162000065916003916200016f565b5080516200007b9060049060208401906200016f565b50620000899150506200008f565b62000279565b620000a7336b033b2e3c9fd0803ce8000000620000a9565b565b6001600160a01b038216620001045760405162461bcd60e51b815260206004820152601f60248201527f45524332303a206d696e7420746f20746865207a65726f206164647265737300604482015260640160405180910390fd5b806002600082825462000118919062000215565b90915550506001600160a01b038216600081815260208181526040808320805486019055518481527fddf252ad1be2c89b69c2b068fc378daa952ba7f163c4a11628f55a4df523b3ef910160405180910390a35050565b8280546200017d906200023c565b90600052602060002090601f016020900481019282620001a15760008555620001ec565b82601f10620001bc57805160ff1916838001178555620001ec565b82800160010185558215620001ec579182015b82811115620001ec578251825591602001919060010190620001cf565b50620001fa929150620001fe565b5090565b5b80821115620001fa5760008155600101620001ff565b600082198211156200023757634e487b7160e01b600052601160045260246000fd5b500190565b600181811c908216806200025157607f821691505b602082108114156200027357634e487b7160e01b600052602260045260246000fd5b50919050565b610bc080620002896000396000f3fe608060405234801561001057600080fd5b50600436106100ea5760003560e01c8063661884631161008c578063a457c2d711610066578063a457c2d7146101ce578063a9059cbb146101e1578063d73dd623146101f4578063dd62ed3e1461020757600080fd5b8063661884631461018a57806370a082311461019d57806395d89b41146101c657600080fd5b806323b872dd116100c857806323b872dd14610142578063313ce5671461015557806339509351146101645780634000aea01461017757600080fd5b806306fdde03146100ef578063095ea7b31461010d57806318160ddd14610130575b600080fd5b6100f761021a565b6040516101049190610a8b565b60405180910390f35b61012061011b366004610919565b6102ac565b6040519015158152602001610104565b6002545b604051908152602001610104565b6101206101503660046108dd565b6102c4565b60405160128152602001610104565b610120610172366004610919565b6102e8565b610120610185366004610943565b61030a565b610120610198366004610919565b610376565b6101346101ab36600461088f565b6001600160a01b031660009081526020819052604090205490565b6100f7610389565b6101206101dc366004610919565b610398565b6101206101ef366004610919565b610418565b610120610202366004610919565b610426565b6101346102153660046108aa565b610432565b60606003805461022990610b39565b80601f016020809104026020016040519081016040528092919081815260200182805461025590610b39565b80156102a25780601f10610277576101008083540402835291602001916102a2565b820191906000526020600020905b81548152906001019060200180831161028557829003601f168201915b5050505050905090565b6000336102ba81858561045d565b5060019392505050565b6000336102d2858285610498565b6102dd85858561050c565b506001949350505050565b6000336102ba8185856102fb8383610432565b6103059190610b13565b61045d565b60006103168484610418565b50836001600160a01b0316336001600160a01b03167fe19260aff97b920c7df27010903aeb9c8d2be5d310a2c67824cf3f15396e4c16858560405161035c929190610af2565b60405180910390a3833b156102ba576102ba848484610541565b60006103828383610398565b9392505050565b60606004805461022990610b39565b600033816103a68286610432565b90508381101561040b5760405162461bcd60e51b815260206004820152602560248201527f45524332303a2064656372656173656420616c6c6f77616e63652062656c6f77604482015264207a65726f60d81b60648201526084015b60405180910390fd5b6102dd828686840361045d565b6000336102ba81858561050c565b600061038283836102e8565b6001600160a01b03918216600090815260016020908152604080832093909416825291909152205490565b816001600160a01b0381163014156104875760405162461bcd60e51b815260040161040290610a9e565b6104928484846105ab565b50505050565b60006104a48484610432565b9050600019811461049257818110156104ff5760405162461bcd60e51b815260206004820152601d60248201527f45524332303a20696e73756666696369656e7420616c6c6f77616e63650000006044820152606401610402565b610492848484840361045d565b816001600160a01b0381163014156105365760405162461bcd60e51b815260040161040290610a9e565b6104928484846106cf565b604051635260769b60e11b815283906001600160a01b0382169063a4c0ed369061057390339087908790600401610a5b565b600060405180830381600087803b15801561058d57600080fd5b505af11580156105a1573d6000803e3d6000fd5b5050505050505050565b6001600160a01b03831661060d5760405162461bcd60e51b8152602060048201526024808201527f45524332303a20617070726f76652066726f6d20746865207a65726f206164646044820152637265737360e01b6064820152608401610402565b6001600160a01b03821661066e5760405162461bcd60e51b815260206004820152602260248201527f45524332303a20617070726f766520746f20746865207a65726f206164647265604482015261737360f01b6064820152608401610402565b6001600160a01b0383811660008181526001602090815260408083209487168084529482529182902085905590518481527f8c5be1e5ebec7d5bd14f71427d1e84f3dd0314c0f7b2291e5b200ac8c7c3b925910160405180910390a3505050565b6001600160a01b0383166107335760405162461bcd60e51b815260206004820152602560248201527f45524332303a207472616e736665722066726f6d20746865207a65726f206164604482015264647265737360d81b6064820152608401610402565b6001600160a01b0382166107955760405162461bcd60e51b815260206004820152602360248201527f45524332303a207472616e7366657220746f20746865207a65726f206164647260448201526265737360e81b6064820152608401610402565b6001600160a01b0383166000908152602081905260409020548181101561080d5760405162461bcd60e51b815260206004820152602660248201527f45524332303a207472616e7366657220616d6f756e7420657863656564732062604482015265616c616e636560d01b6064820152608401610402565b6001600160a01b03848116600081815260208181526040808320878703905593871680835291849020805487019055925185815290927fddf252ad1be2c89b69c2b068fc378daa952ba7f163c4a11628f55a4df523b3ef910160405180910390a3610492565b80356001600160a01b038116811461088a57600080fd5b919050565b6000602082840312156108a157600080fd5b61038282610873565b600080604083850312156108bd57600080fd5b6108c683610873565b91506108d460208401610873565b90509250929050565b6000806000606084860312156108f257600080fd5b6108fb84610873565b925061090960208501610873565b9150604084013590509250925092565b6000806040838503121561092c57600080fd5b61093583610873565b946020939093013593505050565b60008060006060848603121561095857600080fd5b61096184610873565b925060208401359150604084013567ffffffffffffffff8082111561098557600080fd5b818601915086601f83011261099957600080fd5b8135818111156109ab576109ab610b74565b604051601f8201601f19908116603f011681019083821181831017156109d3576109d3610b74565b816040528281528960208487010111156109ec57600080fd5b8260208601602083013760006020848301015280955050505050509250925092565b6000815180845260005b81811015610a3457602081850181015186830182015201610a18565b81811115610a46576000602083870101525b50601f01601f19169290920160200192915050565b60018060a01b0384168152826020820152606060408201526000610a826060830184610a0e565b95945050505050565b6020815260006103826020830184610a0e565b60208082526034908201527f4c696e6b546f6b656e3a207472616e736665722f617070726f766520746f207460408201527368697320636f6e7472616374206164647265737360601b606082015260800190565b828152604060208201526000610b0b6040830184610a0e565b949350505050565b60008219821115610b3457634e487b7160e01b600052601160045260246000fd5b500190565b600181811c90821680610b4d57607f821691505b60208210811415610b6e57634e487b7160e01b600052602260045260246000fd5b50919050565b634e487b7160e01b600052604160045260246000fdfea2646970667358221220021c4fef359d9954a15b733add89b8d556ac3d137746a4e35d88ff61bf06eff464736f6c63430008070033",
    "linkReferences": {}
  },
  "methodIdentifiers": {
    "allowance(address,address)": "dd62ed3e",
    "approve(address,uint256)": "095ea7b3",
    "balanceOf(address)": "70a08231",
    "decimals()": "313ce567",
    "decreaseAllowance(address,uint256)": "a457c2d7",
    "decreaseApproval(address,uint256)": "66188463",
    "increaseAllowance(address,uint256)": "39509351",
    "increaseApproval(address,uint256)": "d73dd623",
    "name()": "06fdde03",
    "symbol()": "95d89b41",
    "totalSupply()": "18160ddd",
    "transfer(address,uint256)": "a9059cbb",
    "transferAndCall(address,uint256,bytes)": "4000aea0",
    "transferFrom(address,address,uint256)": "23b872dd"
  },
  "id": 5
}