{
  "abi": [
    {
      "inputs": [
        {
          "internalType": "address",
          "name": "newOwner",
          "type": "address"
        }
      ],
      "stateMutability": "nonpayable",
      "type": "constructor"
    },
    {
      "anonymous": false,
      "inputs": [
        {
          "indexed": true,
          "internalType": "address",
          "name": "custodian",
          "type": "address"
        }
      ],
      "name": "CustodianSet",
      "type": "event"
    },
    {
      "anonymous": false,
      "inputs": [
        {
          "indexed": true,
          "internalType": "address",
          "name": "issuer",
          "type": "address"
        }
      ],
      "name": "IssuerSet",
      "type": "event"
    },
    {
      "anonymous": false,
      "inputs": [
        {
          "indexed": true,
          "internalType": "address",
          "name": "merchant",
          "type": "address"
        }
      ],
      "name": "MerchantAdd",
      "type": "event"
    },
    {
      "anonymous": false,
      "inputs": [
        {
          "indexed": true,
          "internalType": "address",
          "name": "merchant",
          "type": "address"
        }
      ],
      "name": "MerchantRemove",
      "type": "event"
    },
    {
      "anonymous": false,
      "inputs": [
        {
          "indexed": true,
          "internalType": "address",
          "name": "previousOwner",
          "type": "address"
        },
        {
          "indexed": true,
          "internalType": "address",
          "name": "newOwner",
          "type": "address"
        }
      ],
      "name": "OwnershipTransferred",
      "type": "event"
    },
    {
      "inputs": [
        {
          "internalType": "address",
          "name": "merchant",
          "type": "address"
        }
      ],
      "name": "addMerchant",
      "outputs": [
        {
          "internalType": "bool",
          "name": "",
          "type": "bool"
        }
      ],
      "stateMutability": "nonpayable",
      "type": "function"
    },
    {
      "inputs": [],
      "name": "custodianWallet",
      "outputs": [
        {
          "internalType": "address",
          "name": "",
          "type": "address"
        }
      ],
      "stateMutability": "view",
      "type": "function"
    },
    {
      "inputs": [],
      "name": "getCustodianWallet",
      "outputs": [
        {
          "internalType": "address",
          "name": "",
          "type": "address"
        }
      ],
      "stateMutability": "view",
      "type": "function"
    },
    {
      "inputs": [
        {
          "internalType": "uint256",
          "name": "index",
          "type": "uint256"
        }
      ],
      "name": "getMerchant",
      "outputs": [
        {
          "internalType": "address",
          "name": "",
          "type": "address"
        }
      ],
      "stateMutability": "view",
      "type": "function"
    },
    {
      "inputs": [],
      "name": "getMerchants",
      "outputs": [
        {
          "internalType": "address[]",
          "name": "",
          "type": "address[]"
        }
      ],
      "stateMutability": "view",
      "type": "function"
    },
    {
      "inputs": [
        {
          "internalType": "address",
          "name": "addr",
          "type": "address"
        }
      ],
      "name": "isCustodian",
      "outputs": [
        {
          "internalType": "bool",
          "name": "",
          "type": "bool"
        }
      ],
      "stateMutability": "view",
      "type": "function"
    },
    {
      "inputs": [
        {
          "internalType": "address",
          "name": "addr",
          "type": "address"
        }
      ],
      "name": "isIssuer",
      "outputs": [
        {
          "internalType": "bool",
          "name": "",
          "type": "bool"
        }
      ],
      "stateMutability": "view",
      "type": "function"
    },
    {
      "inputs": [
        {
          "internalType": "address",
          "name": "addr",
          "type": "address"
        }
      ],
      "name": "isMerchant",
      "outputs": [
        {
          "internalType": "bool",
          "name": "",
          "type": "bool"
        }
      ],
      "stateMutability": "view",
      "type": "function"
    },
    {
      "inputs": [],
      "name": "issuer",
      "outputs": [
        {
          "internalType": "address",
          "name": "",
          "type": "address"
        }
      ],
      "stateMutability": "view",
      "type": "function"
    },
    {
      "inputs": [],
      "name": "merchantsLength",
      "outputs": [
        {
          "internalType": "uint256",
          "name": "",
          "type": "uint256"
        }
      ],
      "stateMutability": "view",
      "type": "function"
    },
    {
      "inputs": [],
      "name": "owner",
      "outputs": [
        {
          "internalType": "address",
          "name": "",
          "type": "address"
        }
      ],
      "stateMutability": "view",
      "type": "function"
    },
    {
      "inputs": [
        {
          "internalType": "address",
          "name": "_proposedOwner",
          "type": "address"
        }
      ],
      "name": "proposeOwner",
      "outputs": [],
      "stateMutability": "nonpayable",
      "type": "function"
    },
    {
      "inputs": [],
      "name": "proposedOwner",
      "outputs": [
        {
          "internalType": "address",
          "name": "",
          "type": "address"
        }
      ],
      "stateMutability": "view",
      "type": "function"
    },
    {
      "inputs": [
        {
          "internalType": "address",
          "name": "merchant",
          "type": "address"
        }
      ],
      "name": "removeMerchant",
      "outputs": [
        {
          "internalType": "bool",
          "name": "",
          "type": "bool"
        }
      ],
      "stateMutability": "nonpayable",
      "type": "function"
    },
    {
      "inputs": [],
      "name": "renounceOwnership",
      "outputs": [],
      "stateMutability": "nonpayable",
      "type": "function"
    },
    {
      "inputs": [
        {
          "internalType": "address",
          "name": "_custodianWallet",
          "type": "address"
        }
      ],
      "name": "setCustodianWallet",
      "outputs": [
        {
          "internalType": "bool",
          "name": "",
          "type": "bool"
        }
      ],
      "stateMutability": "nonpayable",
      "type": "function"
    },
    {
      "inputs": [
        {
          "internalType": "address",
          "name": "_issuer",
          "type": "address"
        }
      ],
      "name": "setIssuer",
      "outputs": [
        {
          "internalType": "bool",
          "name": "",
          "type": "bool"
        }
      ],
      "stateMutability": "nonpayable",
      "type": "function"
    },
    {
      "inputs": [
        {
          "internalType": "address",
          "name": "newOwner",
          "type": "address"
        }
      ],
      "name": "transferOwnership",
      "outputs": [],
      "stateMutability": "nonpayable",
      "type": "function"
    }
  ],
  "bytecode": {
    "object": "0x60806040523480156200001157600080fd5b5060405162000fe638038062000fe6833981016040819052620000349162000349565b6200003f33620000b8565b6001600160a01b0381166200009b5760405162461bcd60e51b815260206004820152601860248201527f696e76616c6964206e65774f776e65722061646472657373000000000000000060448201526064015b60405180910390fd5b620000a68162000108565b620000b18162000194565b506200037b565b600080546001600160a01b038381166001600160a01b0319831681178455604051919092169283917f8be0079c531659141344cd1fd0a4f28419497f9722a3daafe3b4186f6b6457e09190a35050565b62000112620002eb565b6001600160a01b038116620001725760405162461bcd60e51b8152602060048201526030602482015260008051602062000fc683398151915260448201526f746865207a65726f206164647265737360801b606482015260840162000092565b600180546001600160a01b0319166001600160a01b0392909216919091179055565b6001600160a01b038116620001f45760405162461bcd60e51b8152602060048201526030602482015260008051602062000fc683398151915260448201526f746865207a65726f206164647265737360801b606482015260840162000092565b6001546001600160a01b038281169116146200025d5760405162461bcd60e51b8152602060048201526032602482015260008051602062000fc68339815191526044820152713737ba10383937b837b9b2b21037bbb732b960711b606482015260840162000092565b6001600160a01b0381163314620002dd5760405162461bcd60e51b815260206004820152603a60248201527f50726f706f7361626c654f776e61626c653a20746869732063616c6c206d757360448201527f74206265206d61646520627920746865206e6577206f776e6572000000000000606482015260840162000092565b620002e881620000b8565b50565b6000546001600160a01b03163314620003475760405162461bcd60e51b815260206004820181905260248201527f4f776e61626c653a2063616c6c6572206973206e6f7420746865206f776e6572604482015260640162000092565b565b6000602082840312156200035c57600080fd5b81516001600160a01b03811681146200037457600080fd5b9392505050565b610c3b806200038b6000396000f3fe608060405234801561001057600080fd5b50600436106101165760003560e01c8063877b9a67116100a2578063bf76c0ef11610071578063bf76c0ef14610250578063d153b60c14610263578063d7bd6a8114610276578063e2d1800f14610287578063f2fde38b1461029c57600080fd5b8063877b9a67146101f75780638da5cb5b146102195780639cc0fb5b1461022a578063b5ed298a1461023d57600080fd5b806335c80c8c116100e957806335c80c8c146101945780634af1a378146101b657806355cc4e57146101c75780635d32798a146101da578063715018a6146101ed57600080fd5b8063133adab61461011b5780631a2f7167146101435780631d143848146101565780631e106e9914610181575b600080fd5b61012e610129366004610ace565b6102af565b60405190151581526020015b60405180910390f35b61012e610151366004610ace565b61039b565b600254610169906001600160a01b031681565b6040516001600160a01b03909116815260200161013a565b600354610169906001600160a01b031681565b61012e6101a2366004610ace565b6003546001600160a01b0391821691161490565b60065460405190815260200161013a565b61012e6101d5366004610ace565b6103be565b6101696101e8366004610afe565b610466565b6101f5610473565b005b61012e610205366004610ace565b6002546001600160a01b0391821691161490565b6000546001600160a01b0316610169565b61012e610238366004610ace565b610487565b6101f561024b366004610ace565b610536565b61012e61025e366004610ace565b610586565b600154610169906001600160a01b031681565b6003546001600160a01b0316610169565b61028f61066a565b60405161013a9190610b17565b6101f56102aa366004610ace565b61067b565b60006102b96107a3565b6001600160a01b03821661030f5760405162461bcd60e51b8152602060048201526018602482015277696e76616c6964206d65726368616e74206164647265737360401b60448201526064015b60405180910390fd5b61031a6004836107fd565b61035f5760405162461bcd60e51b81526020600482015260166024820152751b595c98da185b9d081c995b5bdd994819985a5b195960521b6044820152606401610306565b6040516001600160a01b038316907f992dc0f9ccd9e3a061bd113c6caf19dceacce1f3e2ec016588b03ade3649d00490600090a2506001919050565b6001600160a01b03811660009081526004602052604081205460ff165b92915050565b60006103c86107a3565b6001600160a01b0382166104175760405162461bcd60e51b8152602060048201526016602482015275696e76616c696420697373756572206164647265737360501b6044820152606401610306565b600280546001600160a01b0319166001600160a01b0384169081179091556040517f141c634522c8bfcf25beba4c524ac0c87de0db74ebe83168cf5f3bf4d45fd89890600090a2506001919050565b60006103b860048361093f565b61047b6107a3565b6104856000610972565b565b60006104916107a3565b6001600160a01b0382166104e75760405162461bcd60e51b815260206004820181905260248201527f696e76616c696420637573746f6469616e2077616c6c657420616464726573736044820152606401610306565b600380546001600160a01b0319166001600160a01b0384169081179091556040517fb88c20a211c5d7677ba2a26c317d8ae6b25aa492016dc8ceca2469761d063d8090600090a2506001919050565b61053e6107a3565b6001600160a01b0381166105645760405162461bcd60e51b815260040161030690610b64565b600180546001600160a01b0319166001600160a01b0392909216919091179055565b60006105906107a3565b6001600160a01b0382166105e15760405162461bcd60e51b8152602060048201526018602482015277696e76616c6964206d65726368616e74206164647265737360401b6044820152606401610306565b6105ec6004836109c2565b61062e5760405162461bcd60e51b81526020600482015260136024820152721b595c98da185b9d081859190819985a5b1959606a1b6044820152606401610306565b6040516001600160a01b038316907fc596bdf76682c6315371c70f872bf03746834f9dd5d02793d07de0d5e8f4015590600090a2506001919050565b60606106766004610a68565b905090565b6001600160a01b0381166106a15760405162461bcd60e51b815260040161030690610b64565b6001546001600160a01b038281169116146107195760405162461bcd60e51b815260206004820152603260248201527f50726f706f7361626c654f776e61626c653a206e6577206f776e6572206973206044820152713737ba10383937b837b9b2b21037bbb732b960711b6064820152608401610306565b6001600160a01b03811633146107975760405162461bcd60e51b815260206004820152603a60248201527f50726f706f7361626c654f776e61626c653a20746869732063616c6c206d757360448201527f74206265206d61646520627920746865206e6577206f776e65720000000000006064820152608401610306565b6107a081610972565b50565b6000546001600160a01b031633146104855760405162461bcd60e51b815260206004820181905260248201527f4f776e61626c653a2063616c6c6572206973206e6f7420746865206f776e65726044820152606401610306565b6001600160a01b03811660009081526020839052604081205460ff16610825575060006103b8565b6001600160a01b03821660009081526001808501602052604082205460028601805491939290916108569190610bb4565b8154811061086657610866610bef565b6000918252602090912001546002860180546001600160a01b03909216925082918490811061089757610897610bef565b600091825260208083209190910180546001600160a01b0319166001600160a01b0394851617905591831681526001870190915260409020829055600285018054806108e5576108e5610bd9565b60008281526020808220830160001990810180546001600160a01b03191690559092019092556001600160a01b03861682528681526040808320805460ff1916905560018881019092528220919091559250505092915050565b600082600201828154811061095657610956610bef565b6000918252602090912001546001600160a01b03169392505050565b600080546001600160a01b038381166001600160a01b0319831681178455604051919092169283917f8be0079c531659141344cd1fd0a4f28419497f9722a3daafe3b4186f6b6457e09190a35050565b6001600160a01b03811660009081526020839052604081205460ff16156109eb575060006103b8565b6001600160a01b0382166000818152602085815260408220805460ff1916600190811790915560028701805480830182558185529290932090910180546001600160a01b03191690931790925554610a439190610bb4565b6001600160a01b03929092166000908152600193840160205260409020919091555090565b606081600201805480602002602001604051908101604052809291908181526020018280548015610ac257602002820191906000526020600020905b81546001600160a01b03168152600190910190602001808311610aa4575b50505050509050919050565b600060208284031215610ae057600080fd5b81356001600160a01b0381168114610af757600080fd5b9392505050565b600060208284031215610b1057600080fd5b5035919050565b6020808252825182820181905260009190848201906040850190845b81811015610b585783516001600160a01b031683529284019291840191600101610b33565b50909695505050505050565b60208082526030908201527f50726f706f7361626c654f776e61626c653a206e6577206f776e65722069732060408201526f746865207a65726f206164647265737360801b606082015260800190565b600082821015610bd457634e487b7160e01b600052601160045260246000fd5b500390565b634e487b7160e01b600052603160045260246000fd5b634e487b7160e01b600052603260045260246000fdfea26469706673582212201b93a27d6eef8fc2d47bff0c9453ae04887dc7caf5b5ff5b31bdfe6909ce1f0e64736f6c6343000807003350726f706f7361626c654f776e61626c653a206e6577206f776e657220697320",
    "linkReferences": {}
  },
  "methodIdentifiers": {
    "addMerchant(address)": "bf76c0ef",
    "custodianWallet()": "1e106e99",
    "getCustodianWallet()": "d7bd6a81",
    "getMerchant(uint256)": "5d32798a",
    "getMerchants()": "e2d1800f",
    "isCustodian(address)": "35c80c8c",
    "isIssuer(address)": "877b9a67",
    "isMerchant(address)": "1a2f7167",
    "issuer()": "1d143848",
    "merchantsLength()": "4af1a378",
    "owner()": "8da5cb5b",
    "proposeOwner(address)": "b5ed298a",
    "proposedOwner()": "d153b60c",
    "removeMerchant(address)": "133adab6",
    "renounceOwnership()": "715018a6",
    "setCustodianWallet(address)": "9cc0fb5b",
    "setIssuer(address)": "55cc4e57",
    "transferOwnership(address)": "f2fde38b"
  },
  "id": 5
}